{
	"cont.sol": {
		"ProjectFunding": {
			"abi": [
				{
					"anonymous": false,
					"inputs": [
						{
							"indexed": true,
							"internalType": "uint256",
							"name": "projectId",
							"type": "uint256"
						},
						{
							"indexed": true,
							"internalType": "address",
							"name": "contributor",
							"type": "address"
						},
						{
							"indexed": false,
							"internalType": "uint256",
							"name": "amount",
							"type": "uint256"
						}
					],
					"name": "ContributionReceived",
					"type": "event"
				},
				{
					"anonymous": false,
					"inputs": [
						{
							"indexed": true,
							"internalType": "uint256",
							"name": "projectId",
							"type": "uint256"
						},
						{
							"indexed": false,
							"internalType": "string",
							"name": "name",
							"type": "string"
						},
						{
							"indexed": true,
							"internalType": "address",
							"name": "creator",
							"type": "address"
						},
						{
							"indexed": false,
							"internalType": "address",
							"name": "tokenAddress",
							"type": "address"
						},
						{
							"indexed": false,
							"internalType": "uint256",
							"name": "targetAmount",
							"type": "uint256"
						}
					],
					"name": "ProjectCreated",
					"type": "event"
				},
				{
					"inputs": [
						{
							"internalType": "uint256",
							"name": "_projectId",
							"type": "uint256"
						}
					],
					"name": "contribute",
					"outputs": [],
					"stateMutability": "payable",
					"type": "function"
				},
				{
					"inputs": [
						{
							"internalType": "address",
							"name": "",
							"type": "address"
						}
					],
					"name": "contributions",
					"outputs": [
						{
							"internalType": "uint256",
							"name": "",
							"type": "uint256"
						}
					],
					"stateMutability": "view",
					"type": "function"
				},
				{
					"inputs": [
						{
							"internalType": "string",
							"name": "_name",
							"type": "string"
						},
						{
							"internalType": "string",
							"name": "_description",
							"type": "string"
						},
						{
							"internalType": "uint256",
							"name": "_targetAmount",
							"type": "uint256"
						}
					],
					"name": "createProject",
					"outputs": [],
					"stateMutability": "nonpayable",
					"type": "function"
				},
				{
					"inputs": [],
					"name": "getProjects",
					"outputs": [
						{
							"components": [
								{
									"internalType": "string",
									"name": "name",
									"type": "string"
								},
								{
									"internalType": "string",
									"name": "description",
									"type": "string"
								},
								{
									"internalType": "address",
									"name": "creator",
									"type": "address"
								},
								{
									"internalType": "address",
									"name": "tokenAddress",
									"type": "address"
								},
								{
									"internalType": "uint256",
									"name": "targetAmount",
									"type": "uint256"
								},
								{
									"internalType": "uint256",
									"name": "totalFunds",
									"type": "uint256"
								},
								{
									"internalType": "bool",
									"name": "isActive",
									"type": "bool"
								}
							],
							"internalType": "struct ProjectFunding.Project[]",
							"name": "",
							"type": "tuple[]"
						}
					],
					"stateMutability": "view",
					"type": "function"
				},
				{
					"inputs": [
						{
							"internalType": "uint256",
							"name": "",
							"type": "uint256"
						}
					],
					"name": "projects",
					"outputs": [
						{
							"internalType": "string",
							"name": "name",
							"type": "string"
						},
						{
							"internalType": "string",
							"name": "description",
							"type": "string"
						},
						{
							"internalType": "address",
							"name": "creator",
							"type": "address"
						},
						{
							"internalType": "address",
							"name": "tokenAddress",
							"type": "address"
						},
						{
							"internalType": "uint256",
							"name": "targetAmount",
							"type": "uint256"
						},
						{
							"internalType": "uint256",
							"name": "totalFunds",
							"type": "uint256"
						},
						{
							"internalType": "bool",
							"name": "isActive",
							"type": "bool"
						}
					],
					"stateMutability": "view",
					"type": "function"
				},
				{
					"inputs": [
						{
							"internalType": "uint256",
							"name": "_projectId",
							"type": "uint256"
						}
					],
					"name": "withdrawFunds",
					"outputs": [],
					"stateMutability": "nonpayable",
					"type": "function"
				}
			],
			"devdoc": {
				"kind": "dev",
				"methods": {},
				"version": 1
			},
			"evm": {
				"assembly": "    /* \"cont.sol\":173:3153  contract ProjectFunding  {... */\n  mstore(0x40, 0x80)\n  callvalue\n  dup1\n  iszero\n  tag_1\n  jumpi\n  0x00\n  dup1\n  revert\ntag_1:\n  pop\n  dataSize(sub_0)\n  dup1\n  dataOffset(sub_0)\n  0x00\n  codecopy\n  0x00\n  return\nstop\n\nsub_0: assembly {\n        /* \"cont.sol\":173:3153  contract ProjectFunding  {... */\n      mstore(0x40, 0x80)\n      jumpi(tag_1, lt(calldatasize, 0x04))\n      shr(0xe0, calldataload(0x00))\n      dup1\n      0x107046bd\n      eq\n      tag_2\n      jumpi\n      dup1\n      0x155dd5ee\n      eq\n      tag_3\n      jumpi\n      dup1\n      0x23c55448\n      eq\n      tag_4\n      jumpi\n      dup1\n      0x42e94c90\n      eq\n      tag_5\n      jumpi\n      dup1\n      0xc1cbbca7\n      eq\n      tag_6\n      jumpi\n      dup1\n      0xdcc60128\n      eq\n      tag_7\n      jumpi\n    tag_1:\n      0x00\n      dup1\n      revert\n        /* \"cont.sol\":434:459  Project[] public projects */\n    tag_2:\n      callvalue\n      dup1\n      iszero\n      tag_8\n      jumpi\n      0x00\n      dup1\n      revert\n    tag_8:\n      pop\n      tag_9\n      0x04\n      dup1\n      calldatasize\n      sub\n      dup2\n      add\n      swap1\n      tag_10\n      swap2\n      swap1\n      tag_11\n      jump\t// in\n    tag_10:\n      tag_12\n      jump\t// in\n    tag_9:\n      mload(0x40)\n      tag_13\n      swap8\n      swap7\n      swap6\n      swap5\n      swap4\n      swap3\n      swap2\n      swap1\n      tag_14\n      jump\t// in\n    tag_13:\n      mload(0x40)\n      dup1\n      swap2\n      sub\n      swap1\n      return\n        /* \"cont.sol\":2558:3044  function withdrawFunds(uint256 _projectId) external {... */\n    tag_3:\n      callvalue\n      dup1\n      iszero\n      tag_15\n      jumpi\n      0x00\n      dup1\n      revert\n    tag_15:\n      pop\n      tag_16\n      0x04\n      dup1\n      calldatasize\n      sub\n      dup2\n      add\n      swap1\n      tag_17\n      swap2\n      swap1\n      tag_11\n      jump\t// in\n    tag_17:\n      tag_18\n      jump\t// in\n    tag_16:\n      stop\n        /* \"cont.sol\":854:1723  function createProject(... */\n    tag_4:\n      callvalue\n      dup1\n      iszero\n      tag_19\n      jumpi\n      0x00\n      dup1\n      revert\n    tag_19:\n      pop\n      tag_20\n      0x04\n      dup1\n      calldatasize\n      sub\n      dup2\n      add\n      swap1\n      tag_21\n      swap2\n      swap1\n      tag_22\n      jump\t// in\n    tag_21:\n      tag_23\n      jump\t// in\n    tag_20:\n      stop\n        /* \"cont.sol\":466:514  mapping(address => uint256) public contributions */\n    tag_5:\n      callvalue\n      dup1\n      iszero\n      tag_24\n      jumpi\n      0x00\n      dup1\n      revert\n    tag_24:\n      pop\n      tag_25\n      0x04\n      dup1\n      calldatasize\n      sub\n      dup2\n      add\n      swap1\n      tag_26\n      swap2\n      swap1\n      tag_27\n      jump\t// in\n    tag_26:\n      tag_28\n      jump\t// in\n    tag_25:\n      mload(0x40)\n      tag_29\n      swap2\n      swap1\n      tag_30\n      jump\t// in\n    tag_29:\n      mload(0x40)\n      dup1\n      swap2\n      sub\n      swap1\n      return\n        /* \"cont.sol\":1731:2550  function contribute(uint256 _projectId) external payable {... */\n    tag_6:\n      tag_31\n      0x04\n      dup1\n      calldatasize\n      sub\n      dup2\n      add\n      swap1\n      tag_32\n      swap2\n      swap1\n      tag_11\n      jump\t// in\n    tag_32:\n      tag_33\n      jump\t// in\n    tag_31:\n      stop\n        /* \"cont.sol\":3052:3150  function getProjects() external view returns (Project[] memory) {... */\n    tag_7:\n      callvalue\n      dup1\n      iszero\n      tag_34\n      jumpi\n      0x00\n      dup1\n      revert\n    tag_34:\n      pop\n      tag_35\n      tag_36\n      jump\t// in\n    tag_35:\n      mload(0x40)\n      tag_37\n      swap2\n      swap1\n      tag_38\n      jump\t// in\n    tag_37:\n      mload(0x40)\n      dup1\n      swap2\n      sub\n      swap1\n      return\n        /* \"cont.sol\":434:459  Project[] public projects */\n    tag_12:\n      0x00\n      dup2\n      dup2\n      sload\n      dup2\n      lt\n      tag_39\n      jumpi\n      0x00\n      dup1\n      revert\n    tag_39:\n      swap1\n      0x00\n      mstore\n      keccak256(0x00, 0x20)\n      swap1\n      0x07\n      mul\n      add\n      0x00\n      swap2\n      pop\n      swap1\n      pop\n      dup1\n      0x00\n      add\n      dup1\n      sload\n      tag_41\n      swap1\n      tag_42\n      jump\t// in\n    tag_41:\n      dup1\n      0x1f\n      add\n      0x20\n      dup1\n      swap2\n      div\n      mul\n      0x20\n      add\n      mload(0x40)\n      swap1\n      dup2\n      add\n      0x40\n      mstore\n      dup1\n      swap3\n      swap2\n      swap1\n      dup2\n      dup2\n      mstore\n      0x20\n      add\n      dup3\n      dup1\n      sload\n      tag_43\n      swap1\n      tag_42\n      jump\t// in\n    tag_43:\n      dup1\n      iszero\n      tag_44\n      jumpi\n      dup1\n      0x1f\n      lt\n      tag_45\n      jumpi\n      0x0100\n      dup1\n      dup4\n      sload\n      div\n      mul\n      dup4\n      mstore\n      swap2\n      0x20\n      add\n      swap2\n      jump(tag_44)\n    tag_45:\n      dup3\n      add\n      swap2\n      swap1\n      0x00\n      mstore\n      keccak256(0x00, 0x20)\n      swap1\n    tag_46:\n      dup2\n      sload\n      dup2\n      mstore\n      swap1\n      0x01\n      add\n      swap1\n      0x20\n      add\n      dup1\n      dup4\n      gt\n      tag_46\n      jumpi\n      dup3\n      swap1\n      sub\n      0x1f\n      and\n      dup3\n      add\n      swap2\n    tag_44:\n      pop\n      pop\n      pop\n      pop\n      pop\n      swap1\n      dup1\n      0x01\n      add\n      dup1\n      sload\n      tag_47\n      swap1\n      tag_42\n      jump\t// in\n    tag_47:\n      dup1\n      0x1f\n      add\n      0x20\n      dup1\n      swap2\n      div\n      mul\n      0x20\n      add\n      mload(0x40)\n      swap1\n      dup2\n      add\n      0x40\n      mstore\n      dup1\n      swap3\n      swap2\n      swap1\n      dup2\n      dup2\n      mstore\n      0x20\n      add\n      dup3\n      dup1\n      sload\n      tag_48\n      swap1\n      tag_42\n      jump\t// in\n    tag_48:\n      dup1\n      iszero\n      tag_49\n      jumpi\n      dup1\n      0x1f\n      lt\n      tag_50\n      jumpi\n      0x0100\n      dup1\n      dup4\n      sload\n      div\n      mul\n      dup4\n      mstore\n      swap2\n      0x20\n      add\n      swap2\n      jump(tag_49)\n    tag_50:\n      dup3\n      add\n      swap2\n      swap1\n      0x00\n      mstore\n      keccak256(0x00, 0x20)\n      swap1\n    tag_51:\n      dup2\n      sload\n      dup2\n      mstore\n      swap1\n      0x01\n      add\n      swap1\n      0x20\n      add\n      dup1\n      dup4\n      gt\n      tag_51\n      jumpi\n      dup3\n      swap1\n      sub\n      0x1f\n      and\n      dup3\n      add\n      swap2\n    tag_49:\n      pop\n      pop\n      pop\n      pop\n      pop\n      swap1\n      dup1\n      0x02\n      add\n      0x00\n      swap1\n      sload\n      swap1\n      0x0100\n      exp\n      swap1\n      div\n      0xffffffffffffffffffffffffffffffffffffffff\n      and\n      swap1\n      dup1\n      0x03\n      add\n      0x00\n      swap1\n      sload\n      swap1\n      0x0100\n      exp\n      swap1\n      div\n      0xffffffffffffffffffffffffffffffffffffffff\n      and\n      swap1\n      dup1\n      0x04\n      add\n      sload\n      swap1\n      dup1\n      0x05\n      add\n      sload\n      swap1\n      dup1\n      0x06\n      add\n      0x00\n      swap1\n      sload\n      swap1\n      0x0100\n      exp\n      swap1\n      div\n      0xff\n      and\n      swap1\n      pop\n      dup8\n      jump\t// out\n        /* \"cont.sol\":2558:3044  function withdrawFunds(uint256 _projectId) external {... */\n    tag_18:\n        /* \"cont.sol\":2642:2650  projects */\n      0x00\n        /* \"cont.sol\":2642:2657  projects.length */\n      dup1\n      sload\n      swap1\n      pop\n        /* \"cont.sol\":2629:2639  _projectId */\n      dup2\n        /* \"cont.sol\":2629:2657  _projectId < projects.length */\n      lt\n        /* \"cont.sol\":2621:2680  require(_projectId < projects.length, \"Invalid project ID\") */\n      tag_53\n      jumpi\n      mload(0x40)\n      0x08c379a000000000000000000000000000000000000000000000000000000000\n      dup2\n      mstore\n      0x04\n      add\n      tag_54\n      swap1\n      tag_55\n      jump\t// in\n    tag_54:\n      mload(0x40)\n      dup1\n      swap2\n      sub\n      swap1\n      revert\n    tag_53:\n        /* \"cont.sol\":2691:2714  Project storage project */\n      0x00\n        /* \"cont.sol\":2717:2725  projects */\n      dup1\n        /* \"cont.sol\":2726:2736  _projectId */\n      dup3\n        /* \"cont.sol\":2717:2737  projects[_projectId] */\n      dup2\n      sload\n      dup2\n      lt\n      tag_56\n      jumpi\n      tag_57\n      tag_58\n      jump\t// in\n    tag_57:\n    tag_56:\n      swap1\n      0x00\n      mstore\n      keccak256(0x00, 0x20)\n      swap1\n      0x07\n      mul\n      add\n        /* \"cont.sol\":2691:2737  Project storage project = projects[_projectId] */\n      swap1\n      pop\n        /* \"cont.sol\":2770:2777  project */\n      dup1\n        /* \"cont.sol\":2770:2785  project.creator */\n      0x02\n      add\n      0x00\n      swap1\n      sload\n      swap1\n      0x0100\n      exp\n      swap1\n      div\n      0xffffffffffffffffffffffffffffffffffffffff\n      and\n        /* \"cont.sol\":2756:2785  msg.sender == project.creator */\n      0xffffffffffffffffffffffffffffffffffffffff\n      and\n        /* \"cont.sol\":2756:2766  msg.sender */\n      caller\n        /* \"cont.sol\":2756:2785  msg.sender == project.creator */\n      0xffffffffffffffffffffffffffffffffffffffff\n      and\n      eq\n        /* \"cont.sol\":2748:2829  require(msg.sender == project.creator, \"Only project creator can withdraw funds\") */\n      tag_60\n      jumpi\n      mload(0x40)\n      0x08c379a000000000000000000000000000000000000000000000000000000000\n      dup2\n      mstore\n      0x04\n      add\n      tag_61\n      swap1\n      tag_62\n      jump\t// in\n    tag_61:\n      mload(0x40)\n      dup1\n      swap2\n      sub\n      swap1\n      revert\n    tag_60:\n        /* \"cont.sol\":2849:2856  project */\n      dup1\n        /* \"cont.sol\":2849:2865  project.isActive */\n      0x06\n      add\n      0x00\n      swap1\n      sload\n      swap1\n      0x0100\n      exp\n      swap1\n      div\n      0xff\n      and\n        /* \"cont.sol\":2848:2865  !project.isActive */\n      iszero\n        /* \"cont.sol\":2840:2906  require(!project.isActive, \"Project funding goal not reached yet\") */\n      tag_63\n      jumpi\n      mload(0x40)\n      0x08c379a000000000000000000000000000000000000000000000000000000000\n      dup2\n      mstore\n      0x04\n      add\n      tag_64\n      swap1\n      tag_65\n      jump\t// in\n    tag_64:\n      mload(0x40)\n      dup1\n      swap2\n      sub\n      swap1\n      revert\n    tag_63:\n        /* \"cont.sol\":2919:2933  uint256 amount */\n      0x00\n        /* \"cont.sol\":2936:2943  project */\n      dup2\n        /* \"cont.sol\":2936:2954  project.totalFunds */\n      0x05\n      add\n      sload\n        /* \"cont.sol\":2919:2954  uint256 amount = project.totalFunds */\n      swap1\n      pop\n        /* \"cont.sol\":2986:2987  0 */\n      0x00\n        /* \"cont.sol\":2965:2972  project */\n      dup3\n        /* \"cont.sol\":2965:2983  project.totalFunds */\n      0x05\n      add\n        /* \"cont.sol\":2965:2987  project.totalFunds = 0 */\n      dup2\n      swap1\n      sstore\n      pop\n        /* \"cont.sol\":3008:3018  msg.sender */\n      caller\n        /* \"cont.sol\":3000:3028  payable(msg.sender).transfer */\n      0xffffffffffffffffffffffffffffffffffffffff\n      and\n        /* \"cont.sol\":3000:3036  payable(msg.sender).transfer(amount) */\n      0x08fc\n        /* \"cont.sol\":3029:3035  amount */\n      dup3\n        /* \"cont.sol\":3000:3036  payable(msg.sender).transfer(amount) */\n      swap1\n      dup2\n      iszero\n      mul\n      swap1\n      mload(0x40)\n      0x00\n      mload(0x40)\n      dup1\n      dup4\n      sub\n      dup2\n      dup6\n      dup9\n      dup9\n      call\n      swap4\n      pop\n      pop\n      pop\n      pop\n      iszero\n      dup1\n      iszero\n      tag_67\n      jumpi\n      returndatasize\n      0x00\n      dup1\n      returndatacopy\n      revert(0x00, returndatasize)\n    tag_67:\n      pop\n        /* \"cont.sol\":2610:3044  {... */\n      pop\n      pop\n        /* \"cont.sol\":2558:3044  function withdrawFunds(uint256 _projectId) external {... */\n      pop\n      jump\t// out\n        /* \"cont.sol\":854:1723  function createProject(... */\n    tag_23:\n        /* \"cont.sol\":1027:1028  0 */\n      0x00\n        /* \"cont.sol\":1011:1024  _targetAmount */\n      dup2\n        /* \"cont.sol\":1011:1028  _targetAmount > 0 */\n      gt\n        /* \"cont.sol\":1003:1069  require(_targetAmount > 0, \"Target amount must be greater than 0\") */\n      tag_69\n      jumpi\n      mload(0x40)\n      0x08c379a000000000000000000000000000000000000000000000000000000000\n      dup2\n      mstore\n      0x04\n      add\n      tag_70\n      swap1\n      tag_71\n      jump\t// in\n    tag_70:\n      mload(0x40)\n      dup1\n      swap2\n      sub\n      swap1\n      revert\n    tag_69:\n        /* \"cont.sol\":1136:1154  ProjectToken token */\n      0x00\n        /* \"cont.sol\":1174:1179  _name */\n      dup4\n        /* \"cont.sol\":1157:1187  new ProjectToken(_name, \"PTK\") */\n      mload(0x40)\n      tag_72\n      swap1\n      tag_73\n      jump\t// in\n    tag_72:\n      tag_74\n      swap2\n      swap1\n      tag_75\n      jump\t// in\n    tag_74:\n      mload(0x40)\n      dup1\n      swap2\n      sub\n      swap1\n      0x00\n      create\n      dup1\n      iszero\n      dup1\n      iszero\n      tag_76\n      jumpi\n      returndatasize\n      0x00\n      dup1\n      returndatacopy\n      revert(0x00, returndatasize)\n    tag_76:\n      pop\n        /* \"cont.sol\":1136:1187  ProjectToken token = new ProjectToken(_name, \"PTK\") */\n      swap1\n      pop\n        /* \"cont.sol\":1208:1233  Project memory newProject */\n      0x00\n        /* \"cont.sol\":1236:1498  Project({... */\n      mload(0x40)\n      dup1\n      0xe0\n      add\n      0x40\n      mstore\n      dup1\n        /* \"cont.sol\":1265:1270  _name */\n      dup7\n        /* \"cont.sol\":1236:1498  Project({... */\n      dup2\n      mstore\n      0x20\n      add\n        /* \"cont.sol\":1298:1310  _description */\n      dup6\n        /* \"cont.sol\":1236:1498  Project({... */\n      dup2\n      mstore\n      0x20\n      add\n        /* \"cont.sol\":1334:1344  msg.sender */\n      caller\n        /* \"cont.sol\":1236:1498  Project({... */\n      0xffffffffffffffffffffffffffffffffffffffff\n      and\n      dup2\n      mstore\n      0x20\n      add\n        /* \"cont.sol\":1381:1386  token */\n      dup4\n        /* \"cont.sol\":1236:1498  Project({... */\n      0xffffffffffffffffffffffffffffffffffffffff\n      and\n      dup2\n      mstore\n      0x20\n      add\n        /* \"cont.sol\":1416:1429  _targetAmount */\n      dup5\n        /* \"cont.sol\":1236:1498  Project({... */\n      dup2\n      mstore\n      0x20\n      add\n        /* \"cont.sol\":1456:1457  0 */\n      0x00\n        /* \"cont.sol\":1236:1498  Project({... */\n      dup2\n      mstore\n      0x20\n      add\n        /* \"cont.sol\":1482:1486  true */\n      0x01\n        /* \"cont.sol\":1236:1498  Project({... */\n      iszero\n      iszero\n      dup2\n      mstore\n      pop\n        /* \"cont.sol\":1208:1498  Project memory newProject = Project({... */\n      swap1\n      pop\n        /* \"cont.sol\":1511:1519  projects */\n      0x00\n        /* \"cont.sol\":1525:1535  newProject */\n      dup2\n        /* \"cont.sol\":1511:1536  projects.push(newProject) */\n      swap1\n      dup1\n      0x01\n      dup2\n      sload\n      add\n      dup1\n      dup3\n      sstore\n      dup1\n      swap2\n      pop\n      pop\n      0x01\n      swap1\n      sub\n      swap1\n      0x00\n      mstore\n      keccak256(0x00, 0x20)\n      swap1\n      0x07\n      mul\n      add\n      0x00\n      swap1\n      swap2\n      swap1\n      swap2\n      swap1\n      swap2\n      pop\n      0x00\n      dup3\n      add\n      mload\n      dup2\n      0x00\n      add\n      swap1\n      dup2\n      tag_78\n      swap2\n      swap1\n      tag_79\n      jump\t// in\n    tag_78:\n      pop\n      0x20\n      dup3\n      add\n      mload\n      dup2\n      0x01\n      add\n      swap1\n      dup2\n      tag_80\n      swap2\n      swap1\n      tag_79\n      jump\t// in\n    tag_80:\n      pop\n      0x40\n      dup3\n      add\n      mload\n      dup2\n      0x02\n      add\n      exp(0x0100, 0x00)\n      dup2\n      sload\n      dup2\n      0xffffffffffffffffffffffffffffffffffffffff\n      mul\n      not\n      and\n      swap1\n      dup4\n      0xffffffffffffffffffffffffffffffffffffffff\n      and\n      mul\n      or\n      swap1\n      sstore\n      pop\n      0x60\n      dup3\n      add\n      mload\n      dup2\n      0x03\n      add\n      exp(0x0100, 0x00)\n      dup2\n      sload\n      dup2\n      0xffffffffffffffffffffffffffffffffffffffff\n      mul\n      not\n      and\n      swap1\n      dup4\n      0xffffffffffffffffffffffffffffffffffffffff\n      and\n      mul\n      or\n      swap1\n      sstore\n      pop\n      0x80\n      dup3\n      add\n      mload\n      dup2\n      0x04\n      add\n      sstore\n      0xa0\n      dup3\n      add\n      mload\n      dup2\n      0x05\n      add\n      sstore\n      0xc0\n      dup3\n      add\n      mload\n      dup2\n      0x06\n      add\n      exp(0x0100, 0x00)\n      dup2\n      sload\n      dup2\n      0xff\n      mul\n      not\n      and\n      swap1\n      dup4\n      iszero\n      iszero\n      mul\n      or\n      swap1\n      sstore\n      pop\n      pop\n      pop\n        /* \"cont.sol\":1637:1647  msg.sender */\n      caller\n        /* \"cont.sol\":1554:1715  ProjectCreated(... */\n      0xffffffffffffffffffffffffffffffffffffffff\n      and\n        /* \"cont.sol\":1601:1602  1 */\n      0x01\n        /* \"cont.sol\":1583:1591  projects */\n      0x00\n        /* \"cont.sol\":1583:1598  projects.length */\n      dup1\n      sload\n      swap1\n      pop\n        /* \"cont.sol\":1583:1602  projects.length - 1 */\n      tag_81\n      swap2\n      swap1\n      tag_82\n      jump\t// in\n    tag_81:\n        /* \"cont.sol\":1554:1715  ProjectCreated(... */\n      0x855018e1c559e56d1f2ef0e5726673a7f2bcfde96998cc3f2f5a38c32bce53a3\n        /* \"cont.sol\":1617:1622  _name */\n      dup8\n        /* \"cont.sol\":1670:1675  token */\n      dup6\n        /* \"cont.sol\":1691:1704  _targetAmount */\n      dup8\n        /* \"cont.sol\":1554:1715  ProjectCreated(... */\n      mload(0x40)\n      tag_83\n      swap4\n      swap3\n      swap2\n      swap1\n      tag_84\n      jump\t// in\n    tag_83:\n      mload(0x40)\n      dup1\n      swap2\n      sub\n      swap1\n      log3\n        /* \"cont.sol\":992:1723  {... */\n      pop\n      pop\n        /* \"cont.sol\":854:1723  function createProject(... */\n      pop\n      pop\n      pop\n      jump\t// out\n        /* \"cont.sol\":466:514  mapping(address => uint256) public contributions */\n    tag_28:\n      mstore(0x20, 0x01)\n      dup1\n      0x00\n      mstore\n      keccak256(0x00, 0x40)\n      0x00\n      swap2\n      pop\n      swap1\n      pop\n      sload\n      dup2\n      jump\t// out\n        /* \"cont.sol\":1731:2550  function contribute(uint256 _projectId) external payable {... */\n    tag_33:\n        /* \"cont.sol\":1820:1828  projects */\n      0x00\n        /* \"cont.sol\":1820:1835  projects.length */\n      dup1\n      sload\n      swap1\n      pop\n        /* \"cont.sol\":1807:1817  _projectId */\n      dup2\n        /* \"cont.sol\":1807:1835  _projectId < projects.length */\n      lt\n        /* \"cont.sol\":1799:1858  require(_projectId < projects.length, \"Invalid project ID\") */\n      tag_86\n      jumpi\n      mload(0x40)\n      0x08c379a000000000000000000000000000000000000000000000000000000000\n      dup2\n      mstore\n      0x04\n      add\n      tag_87\n      swap1\n      tag_55\n      jump\t// in\n    tag_87:\n      mload(0x40)\n      dup1\n      swap2\n      sub\n      swap1\n      revert\n    tag_86:\n        /* \"cont.sol\":1869:1892  Project storage project */\n      0x00\n        /* \"cont.sol\":1895:1903  projects */\n      dup1\n        /* \"cont.sol\":1904:1914  _projectId */\n      dup3\n        /* \"cont.sol\":1895:1915  projects[_projectId] */\n      dup2\n      sload\n      dup2\n      lt\n      tag_88\n      jumpi\n      tag_89\n      tag_58\n      jump\t// in\n    tag_89:\n    tag_88:\n      swap1\n      0x00\n      mstore\n      keccak256(0x00, 0x20)\n      swap1\n      0x07\n      mul\n      add\n        /* \"cont.sol\":1869:1915  Project storage project = projects[_projectId] */\n      swap1\n      pop\n        /* \"cont.sol\":1934:1941  project */\n      dup1\n        /* \"cont.sol\":1934:1950  project.isActive */\n      0x06\n      add\n      0x00\n      swap1\n      sload\n      swap1\n      0x0100\n      exp\n      swap1\n      div\n      0xff\n      and\n        /* \"cont.sol\":1926:1982  require(project.isActive, \"Project is no longer active\") */\n      tag_91\n      jumpi\n      mload(0x40)\n      0x08c379a000000000000000000000000000000000000000000000000000000000\n      dup2\n      mstore\n      0x04\n      add\n      tag_92\n      swap1\n      tag_93\n      jump\t// in\n    tag_92:\n      mload(0x40)\n      dup1\n      swap2\n      sub\n      swap1\n      revert\n    tag_91:\n        /* \"cont.sol\":2013:2014  0 */\n      0x00\n        /* \"cont.sol\":2001:2010  msg.value */\n      callvalue\n        /* \"cont.sol\":2001:2014  msg.value > 0 */\n      gt\n        /* \"cont.sol\":1993:2054  require(msg.value > 0, \"Contribution must be greater than 0\") */\n      tag_94\n      jumpi\n      mload(0x40)\n      0x08c379a000000000000000000000000000000000000000000000000000000000\n      dup2\n      mstore\n      0x04\n      add\n      tag_95\n      swap1\n      tag_96\n      jump\t// in\n    tag_95:\n      mload(0x40)\n      dup1\n      swap2\n      sub\n      swap1\n      revert\n    tag_94:\n        /* \"cont.sol\":2089:2098  msg.value */\n      callvalue\n        /* \"cont.sol\":2067:2074  project */\n      dup2\n        /* \"cont.sol\":2067:2085  project.totalFunds */\n      0x05\n      add\n      0x00\n        /* \"cont.sol\":2067:2098  project.totalFunds += msg.value */\n      dup3\n      dup3\n      sload\n      tag_97\n      swap2\n      swap1\n      tag_98\n      jump\t// in\n    tag_97:\n      swap3\n      pop\n      pop\n      dup2\n      swap1\n      sstore\n      pop\n        /* \"cont.sol\":2138:2147  msg.value */\n      callvalue\n        /* \"cont.sol\":2109:2122  contributions */\n      0x01\n        /* \"cont.sol\":2109:2134  contributions[msg.sender] */\n      0x00\n        /* \"cont.sol\":2123:2133  msg.sender */\n      caller\n        /* \"cont.sol\":2109:2134  contributions[msg.sender] */\n      0xffffffffffffffffffffffffffffffffffffffff\n      and\n      0xffffffffffffffffffffffffffffffffffffffff\n      and\n      dup2\n      mstore\n      0x20\n      add\n      swap1\n      dup2\n      mstore\n      0x20\n      add\n      0x00\n      keccak256\n      0x00\n        /* \"cont.sol\":2109:2147  contributions[msg.sender] += msg.value */\n      dup3\n      dup3\n      sload\n      tag_99\n      swap2\n      swap1\n      tag_98\n      jump\t// in\n    tag_99:\n      swap3\n      pop\n      pop\n      dup2\n      swap1\n      sstore\n      pop\n        /* \"cont.sol\":2251:2258  project */\n      dup1\n        /* \"cont.sol\":2251:2271  project.tokenAddress */\n      0x03\n      add\n      0x00\n      swap1\n      sload\n      swap1\n      0x0100\n      exp\n      swap1\n      div\n      0xffffffffffffffffffffffffffffffffffffffff\n      and\n        /* \"cont.sol\":2238:2277  ProjectToken(project.tokenAddress).mint */\n      0xffffffffffffffffffffffffffffffffffffffff\n      and\n      0x40c10f19\n        /* \"cont.sol\":2278:2288  msg.sender */\n      caller\n        /* \"cont.sol\":2290:2299  msg.value */\n      callvalue\n        /* \"cont.sol\":2238:2300  ProjectToken(project.tokenAddress).mint(msg.sender, msg.value) */\n      mload(0x40)\n      dup4\n      0xffffffff\n      and\n      0xe0\n      shl\n      dup2\n      mstore\n      0x04\n      add\n      tag_100\n      swap3\n      swap2\n      swap1\n      tag_101\n      jump\t// in\n    tag_100:\n      0x00\n      mload(0x40)\n      dup1\n      dup4\n      sub\n      dup2\n      0x00\n      dup8\n      dup1\n      extcodesize\n      iszero\n      dup1\n      iszero\n      tag_102\n      jumpi\n      0x00\n      dup1\n      revert\n    tag_102:\n      pop\n      gas\n      call\n      iszero\n      dup1\n      iszero\n      tag_104\n      jumpi\n      returndatasize\n      0x00\n      dup1\n      returndatacopy\n      revert(0x00, returndatasize)\n    tag_104:\n      pop\n      pop\n      pop\n      pop\n        /* \"cont.sol\":2351:2361  msg.sender */\n      caller\n        /* \"cont.sol\":2318:2373  ContributionReceived(_projectId, msg.sender, msg.value) */\n      0xffffffffffffffffffffffffffffffffffffffff\n      and\n        /* \"cont.sol\":2339:2349  _projectId */\n      dup3\n        /* \"cont.sol\":2318:2373  ContributionReceived(_projectId, msg.sender, msg.value) */\n      0x865c884d49c8cecaef108efb20f7d282f26c0f9b0d24dd48e5592d4e02ec658d\n        /* \"cont.sol\":2363:2372  msg.value */\n      callvalue\n        /* \"cont.sol\":2318:2373  ContributionReceived(_projectId, msg.sender, msg.value) */\n      mload(0x40)\n      tag_105\n      swap2\n      swap1\n      tag_30\n      jump\t// in\n    tag_105:\n      mload(0x40)\n      dup1\n      swap2\n      sub\n      swap1\n      log3\n        /* \"cont.sol\":2470:2477  project */\n      dup1\n        /* \"cont.sol\":2470:2490  project.targetAmount */\n      0x04\n      add\n      sload\n        /* \"cont.sol\":2448:2455  project */\n      dup2\n        /* \"cont.sol\":2448:2466  project.totalFunds */\n      0x05\n      add\n      sload\n        /* \"cont.sol\":2448:2490  project.totalFunds >= project.targetAmount */\n      lt\n        /* \"cont.sol\":2444:2543  if (project.totalFunds >= project.targetAmount) {... */\n      tag_106\n      jumpi\n        /* \"cont.sol\":2526:2531  false */\n      0x00\n        /* \"cont.sol\":2507:2514  project */\n      dup2\n        /* \"cont.sol\":2507:2523  project.isActive */\n      0x06\n      add\n      0x00\n        /* \"cont.sol\":2507:2531  project.isActive = false */\n      0x0100\n      exp\n      dup2\n      sload\n      dup2\n      0xff\n      mul\n      not\n      and\n      swap1\n      dup4\n      iszero\n      iszero\n      mul\n      or\n      swap1\n      sstore\n      pop\n        /* \"cont.sol\":2444:2543  if (project.totalFunds >= project.targetAmount) {... */\n    tag_106:\n        /* \"cont.sol\":1788:2550  {... */\n      pop\n        /* \"cont.sol\":1731:2550  function contribute(uint256 _projectId) external payable {... */\n      pop\n      jump\t// out\n        /* \"cont.sol\":3052:3150  function getProjects() external view returns (Project[] memory) {... */\n    tag_36:\n        /* \"cont.sol\":3098:3114  Project[] memory */\n      0x60\n        /* \"cont.sol\":3134:3142  projects */\n      0x00\n        /* \"cont.sol\":3127:3142  return projects */\n      dup1\n      sload\n      dup1\n      0x20\n      mul\n      0x20\n      add\n      mload(0x40)\n      swap1\n      dup2\n      add\n      0x40\n      mstore\n      dup1\n      swap3\n      swap2\n      swap1\n      dup2\n      dup2\n      mstore\n      0x20\n      add\n      0x00\n      swap1\n    tag_108:\n      dup3\n      dup3\n      lt\n      iszero\n      tag_109\n      jumpi\n      dup4\n      dup3\n      swap1\n      0x00\n      mstore\n      keccak256(0x00, 0x20)\n      swap1\n      0x07\n      mul\n      add\n      mload(0x40)\n      dup1\n      0xe0\n      add\n      0x40\n      mstore\n      swap1\n      dup2\n      0x00\n      dup3\n      add\n      dup1\n      sload\n      tag_111\n      swap1\n      tag_42\n      jump\t// in\n    tag_111:\n      dup1\n      0x1f\n      add\n      0x20\n      dup1\n      swap2\n      div\n      mul\n      0x20\n      add\n      mload(0x40)\n      swap1\n      dup2\n      add\n      0x40\n      mstore\n      dup1\n      swap3\n      swap2\n      swap1\n      dup2\n      dup2\n      mstore\n      0x20\n      add\n      dup3\n      dup1\n      sload\n      tag_112\n      swap1\n      tag_42\n      jump\t// in\n    tag_112:\n      dup1\n      iszero\n      tag_113\n      jumpi\n      dup1\n      0x1f\n      lt\n      tag_114\n      jumpi\n      0x0100\n      dup1\n      dup4\n      sload\n      div\n      mul\n      dup4\n      mstore\n      swap2\n      0x20\n      add\n      swap2\n      jump(tag_113)\n    tag_114:\n      dup3\n      add\n      swap2\n      swap1\n      0x00\n      mstore\n      keccak256(0x00, 0x20)\n      swap1\n    tag_115:\n      dup2\n      sload\n      dup2\n      mstore\n      swap1\n      0x01\n      add\n      swap1\n      0x20\n      add\n      dup1\n      dup4\n      gt\n      tag_115\n      jumpi\n      dup3\n      swap1\n      sub\n      0x1f\n      and\n      dup3\n      add\n      swap2\n    tag_113:\n      pop\n      pop\n      pop\n      pop\n      pop\n      dup2\n      mstore\n      0x20\n      add\n      0x01\n      dup3\n      add\n      dup1\n      sload\n      tag_116\n      swap1\n      tag_42\n      jump\t// in\n    tag_116:\n      dup1\n      0x1f\n      add\n      0x20\n      dup1\n      swap2\n      div\n      mul\n      0x20\n      add\n      mload(0x40)\n      swap1\n      dup2\n      add\n      0x40\n      mstore\n      dup1\n      swap3\n      swap2\n      swap1\n      dup2\n      dup2\n      mstore\n      0x20\n      add\n      dup3\n      dup1\n      sload\n      tag_117\n      swap1\n      tag_42\n      jump\t// in\n    tag_117:\n      dup1\n      iszero\n      tag_118\n      jumpi\n      dup1\n      0x1f\n      lt\n      tag_119\n      jumpi\n      0x0100\n      dup1\n      dup4\n      sload\n      div\n      mul\n      dup4\n      mstore\n      swap2\n      0x20\n      add\n      swap2\n      jump(tag_118)\n    tag_119:\n      dup3\n      add\n      swap2\n      swap1\n      0x00\n      mstore\n      keccak256(0x00, 0x20)\n      swap1\n    tag_120:\n      dup2\n      sload\n      dup2\n      mstore\n      swap1\n      0x01\n      add\n      swap1\n      0x20\n      add\n      dup1\n      dup4\n      gt\n      tag_120\n      jumpi\n      dup3\n      swap1\n      sub\n      0x1f\n      and\n      dup3\n      add\n      swap2\n    tag_118:\n      pop\n      pop\n      pop\n      pop\n      pop\n      dup2\n      mstore\n      0x20\n      add\n      0x02\n      dup3\n      add\n      0x00\n      swap1\n      sload\n      swap1\n      0x0100\n      exp\n      swap1\n      div\n      0xffffffffffffffffffffffffffffffffffffffff\n      and\n      0xffffffffffffffffffffffffffffffffffffffff\n      and\n      0xffffffffffffffffffffffffffffffffffffffff\n      and\n      dup2\n      mstore\n      0x20\n      add\n      0x03\n      dup3\n      add\n      0x00\n      swap1\n      sload\n      swap1\n      0x0100\n      exp\n      swap1\n      div\n      0xffffffffffffffffffffffffffffffffffffffff\n      and\n      0xffffffffffffffffffffffffffffffffffffffff\n      and\n      0xffffffffffffffffffffffffffffffffffffffff\n      and\n      dup2\n      mstore\n      0x20\n      add\n      0x04\n      dup3\n      add\n      sload\n      dup2\n      mstore\n      0x20\n      add\n      0x05\n      dup3\n      add\n      sload\n      dup2\n      mstore\n      0x20\n      add\n      0x06\n      dup3\n      add\n      0x00\n      swap1\n      sload\n      swap1\n      0x0100\n      exp\n      swap1\n      div\n      0xff\n      and\n      iszero\n      iszero\n      iszero\n      iszero\n      dup2\n      mstore\n      pop\n      pop\n      dup2\n      mstore\n      0x20\n      add\n      swap1\n      0x01\n      add\n      swap1\n      jump(tag_108)\n    tag_109:\n      pop\n      pop\n      pop\n      pop\n      swap1\n      pop\n        /* \"cont.sol\":3052:3150  function getProjects() external view returns (Project[] memory) {... */\n      swap1\n      jump\t// out\n    tag_73:\n      dataSize(sub_0)\n      dup1\n      dataOffset(sub_0)\n      dup4\n      codecopy\n      add\n      swap1\n      jump\t// out\n        /* \"#utility.yul\":7:82   */\n    tag_121:\n        /* \"#utility.yul\":40:46   */\n      0x00\n        /* \"#utility.yul\":73:75   */\n      0x40\n        /* \"#utility.yul\":67:76   */\n      mload\n        /* \"#utility.yul\":57:76   */\n      swap1\n      pop\n        /* \"#utility.yul\":7:82   */\n      swap1\n      jump\t// out\n        /* \"#utility.yul\":88:205   */\n    tag_122:\n        /* \"#utility.yul\":197:198   */\n      0x00\n        /* \"#utility.yul\":194:195   */\n      dup1\n        /* \"#utility.yul\":187:199   */\n      revert\n        /* \"#utility.yul\":211:328   */\n    tag_123:\n        /* \"#utility.yul\":320:321   */\n      0x00\n        /* \"#utility.yul\":317:318   */\n      dup1\n        /* \"#utility.yul\":310:322   */\n      revert\n        /* \"#utility.yul\":334:411   */\n    tag_124:\n        /* \"#utility.yul\":371:378   */\n      0x00\n        /* \"#utility.yul\":400:405   */\n      dup2\n        /* \"#utility.yul\":389:405   */\n      swap1\n      pop\n        /* \"#utility.yul\":334:411   */\n      swap2\n      swap1\n      pop\n      jump\t// out\n        /* \"#utility.yul\":417:539   */\n    tag_125:\n        /* \"#utility.yul\":490:514   */\n      tag_198\n        /* \"#utility.yul\":508:513   */\n      dup2\n        /* \"#utility.yul\":490:514   */\n      tag_124\n      jump\t// in\n    tag_198:\n        /* \"#utility.yul\":483:488   */\n      dup2\n        /* \"#utility.yul\":480:515   */\n      eq\n        /* \"#utility.yul\":470:533   */\n      tag_199\n      jumpi\n        /* \"#utility.yul\":529:530   */\n      0x00\n        /* \"#utility.yul\":526:527   */\n      dup1\n        /* \"#utility.yul\":519:531   */\n      revert\n        /* \"#utility.yul\":470:533   */\n    tag_199:\n        /* \"#utility.yul\":417:539   */\n      pop\n      jump\t// out\n        /* \"#utility.yul\":545:684   */\n    tag_126:\n        /* \"#utility.yul\":591:596   */\n      0x00\n        /* \"#utility.yul\":629:635   */\n      dup2\n        /* \"#utility.yul\":616:636   */\n      calldataload\n        /* \"#utility.yul\":607:636   */\n      swap1\n      pop\n        /* \"#utility.yul\":645:678   */\n      tag_201\n        /* \"#utility.yul\":672:677   */\n      dup2\n        /* \"#utility.yul\":645:678   */\n      tag_125\n      jump\t// in\n    tag_201:\n        /* \"#utility.yul\":545:684   */\n      swap3\n      swap2\n      pop\n      pop\n      jump\t// out\n        /* \"#utility.yul\":690:1019   */\n    tag_11:\n        /* \"#utility.yul\":749:755   */\n      0x00\n        /* \"#utility.yul\":798:800   */\n      0x20\n        /* \"#utility.yul\":786:795   */\n      dup3\n        /* \"#utility.yul\":777:784   */\n      dup5\n        /* \"#utility.yul\":773:796   */\n      sub\n        /* \"#utility.yul\":769:801   */\n      slt\n        /* \"#utility.yul\":766:885   */\n      iszero\n      tag_203\n      jumpi\n        /* \"#utility.yul\":804:883   */\n      tag_204\n      tag_122\n      jump\t// in\n    tag_204:\n        /* \"#utility.yul\":766:885   */\n    tag_203:\n        /* \"#utility.yul\":924:925   */\n      0x00\n        /* \"#utility.yul\":949:1002   */\n      tag_205\n        /* \"#utility.yul\":994:1001   */\n      dup5\n        /* \"#utility.yul\":985:991   */\n      dup3\n        /* \"#utility.yul\":974:983   */\n      dup6\n        /* \"#utility.yul\":970:992   */\n      add\n        /* \"#utility.yul\":949:1002   */\n      tag_126\n      jump\t// in\n    tag_205:\n        /* \"#utility.yul\":939:1002   */\n      swap2\n      pop\n        /* \"#utility.yul\":895:1012   */\n      pop\n        /* \"#utility.yul\":690:1019   */\n      swap3\n      swap2\n      pop\n      pop\n      jump\t// out\n        /* \"#utility.yul\":1025:1124   */\n    tag_127:\n        /* \"#utility.yul\":1077:1083   */\n      0x00\n        /* \"#utility.yul\":1111:1116   */\n      dup2\n        /* \"#utility.yul\":1105:1117   */\n      mload\n        /* \"#utility.yul\":1095:1117   */\n      swap1\n      pop\n        /* \"#utility.yul\":1025:1124   */\n      swap2\n      swap1\n      pop\n      jump\t// out\n        /* \"#utility.yul\":1130:1299   */\n    tag_128:\n        /* \"#utility.yul\":1214:1225   */\n      0x00\n        /* \"#utility.yul\":1248:1254   */\n      dup3\n        /* \"#utility.yul\":1243:1246   */\n      dup3\n        /* \"#utility.yul\":1236:1255   */\n      mstore\n        /* \"#utility.yul\":1288:1292   */\n      0x20\n        /* \"#utility.yul\":1283:1286   */\n      dup3\n        /* \"#utility.yul\":1279:1293   */\n      add\n        /* \"#utility.yul\":1264:1293   */\n      swap1\n      pop\n        /* \"#utility.yul\":1130:1299   */\n      swap3\n      swap2\n      pop\n      pop\n      jump\t// out\n        /* \"#utility.yul\":1305:1444   */\n    tag_129:\n        /* \"#utility.yul\":1394:1400   */\n      dup3\n        /* \"#utility.yul\":1389:1392   */\n      dup2\n        /* \"#utility.yul\":1384:1387   */\n      dup4\n        /* \"#utility.yul\":1378:1401   */\n      mcopy\n        /* \"#utility.yul\":1435:1436   */\n      0x00\n        /* \"#utility.yul\":1426:1432   */\n      dup4\n        /* \"#utility.yul\":1421:1424   */\n      dup4\n        /* \"#utility.yul\":1417:1433   */\n      add\n        /* \"#utility.yul\":1410:1437   */\n      mstore\n        /* \"#utility.yul\":1305:1444   */\n      pop\n      pop\n      pop\n      jump\t// out\n        /* \"#utility.yul\":1450:1552   */\n    tag_130:\n        /* \"#utility.yul\":1491:1497   */\n      0x00\n        /* \"#utility.yul\":1542:1544   */\n      0x1f\n        /* \"#utility.yul\":1538:1545   */\n      not\n        /* \"#utility.yul\":1533:1535   */\n      0x1f\n        /* \"#utility.yul\":1526:1531   */\n      dup4\n        /* \"#utility.yul\":1522:1536   */\n      add\n        /* \"#utility.yul\":1518:1546   */\n      and\n        /* \"#utility.yul\":1508:1546   */\n      swap1\n      pop\n        /* \"#utility.yul\":1450:1552   */\n      swap2\n      swap1\n      pop\n      jump\t// out\n        /* \"#utility.yul\":1558:1935   */\n    tag_131:\n        /* \"#utility.yul\":1646:1649   */\n      0x00\n        /* \"#utility.yul\":1674:1713   */\n      tag_211\n        /* \"#utility.yul\":1707:1712   */\n      dup3\n        /* \"#utility.yul\":1674:1713   */\n      tag_127\n      jump\t// in\n    tag_211:\n        /* \"#utility.yul\":1729:1800   */\n      tag_212\n        /* \"#utility.yul\":1793:1799   */\n      dup2\n        /* \"#utility.yul\":1788:1791   */\n      dup6\n        /* \"#utility.yul\":1729:1800   */\n      tag_128\n      jump\t// in\n    tag_212:\n        /* \"#utility.yul\":1722:1800   */\n      swap4\n      pop\n        /* \"#utility.yul\":1809:1874   */\n      tag_213\n        /* \"#utility.yul\":1867:1873   */\n      dup2\n        /* \"#utility.yul\":1862:1865   */\n      dup6\n        /* \"#utility.yul\":1855:1859   */\n      0x20\n        /* \"#utility.yul\":1848:1853   */\n      dup7\n        /* \"#utility.yul\":1844:1860   */\n      add\n        /* \"#utility.yul\":1809:1874   */\n      tag_129\n      jump\t// in\n    tag_213:\n        /* \"#utility.yul\":1899:1928   */\n      tag_214\n        /* \"#utility.yul\":1921:1927   */\n      dup2\n        /* \"#utility.yul\":1899:1928   */\n      tag_130\n      jump\t// in\n    tag_214:\n        /* \"#utility.yul\":1894:1897   */\n      dup5\n        /* \"#utility.yul\":1890:1929   */\n      add\n        /* \"#utility.yul\":1883:1929   */\n      swap2\n      pop\n        /* \"#utility.yul\":1650:1935   */\n      pop\n        /* \"#utility.yul\":1558:1935   */\n      swap3\n      swap2\n      pop\n      pop\n      jump\t// out\n        /* \"#utility.yul\":1941:2067   */\n    tag_132:\n        /* \"#utility.yul\":1978:1985   */\n      0x00\n        /* \"#utility.yul\":2018:2060   */\n      0xffffffffffffffffffffffffffffffffffffffff\n        /* \"#utility.yul\":2011:2016   */\n      dup3\n        /* \"#utility.yul\":2007:2061   */\n      and\n        /* \"#utility.yul\":1996:2061   */\n      swap1\n      pop\n        /* \"#utility.yul\":1941:2067   */\n      swap2\n      swap1\n      pop\n      jump\t// out\n        /* \"#utility.yul\":2073:2169   */\n    tag_133:\n        /* \"#utility.yul\":2110:2117   */\n      0x00\n        /* \"#utility.yul\":2139:2163   */\n      tag_217\n        /* \"#utility.yul\":2157:2162   */\n      dup3\n        /* \"#utility.yul\":2139:2163   */\n      tag_132\n      jump\t// in\n    tag_217:\n        /* \"#utility.yul\":2128:2163   */\n      swap1\n      pop\n        /* \"#utility.yul\":2073:2169   */\n      swap2\n      swap1\n      pop\n      jump\t// out\n        /* \"#utility.yul\":2175:2293   */\n    tag_134:\n        /* \"#utility.yul\":2262:2286   */\n      tag_219\n        /* \"#utility.yul\":2280:2285   */\n      dup2\n        /* \"#utility.yul\":2262:2286   */\n      tag_133\n      jump\t// in\n    tag_219:\n        /* \"#utility.yul\":2257:2260   */\n      dup3\n        /* \"#utility.yul\":2250:2287   */\n      mstore\n        /* \"#utility.yul\":2175:2293   */\n      pop\n      pop\n      jump\t// out\n        /* \"#utility.yul\":2299:2417   */\n    tag_135:\n        /* \"#utility.yul\":2386:2410   */\n      tag_221\n        /* \"#utility.yul\":2404:2409   */\n      dup2\n        /* \"#utility.yul\":2386:2410   */\n      tag_124\n      jump\t// in\n    tag_221:\n        /* \"#utility.yul\":2381:2384   */\n      dup3\n        /* \"#utility.yul\":2374:2411   */\n      mstore\n        /* \"#utility.yul\":2299:2417   */\n      pop\n      pop\n      jump\t// out\n        /* \"#utility.yul\":2423:2513   */\n    tag_136:\n        /* \"#utility.yul\":2457:2464   */\n      0x00\n        /* \"#utility.yul\":2500:2505   */\n      dup2\n        /* \"#utility.yul\":2493:2506   */\n      iszero\n        /* \"#utility.yul\":2486:2507   */\n      iszero\n        /* \"#utility.yul\":2475:2507   */\n      swap1\n      pop\n        /* \"#utility.yul\":2423:2513   */\n      swap2\n      swap1\n      pop\n      jump\t// out\n        /* \"#utility.yul\":2519:2628   */\n    tag_137:\n        /* \"#utility.yul\":2600:2621   */\n      tag_224\n        /* \"#utility.yul\":2615:2620   */\n      dup2\n        /* \"#utility.yul\":2600:2621   */\n      tag_136\n      jump\t// in\n    tag_224:\n        /* \"#utility.yul\":2595:2598   */\n      dup3\n        /* \"#utility.yul\":2588:2622   */\n      mstore\n        /* \"#utility.yul\":2519:2628   */\n      pop\n      pop\n      jump\t// out\n        /* \"#utility.yul\":2634:3690   */\n    tag_14:\n        /* \"#utility.yul\":2929:2933   */\n      0x00\n        /* \"#utility.yul\":2967:2970   */\n      0xe0\n        /* \"#utility.yul\":2956:2965   */\n      dup3\n        /* \"#utility.yul\":2952:2971   */\n      add\n        /* \"#utility.yul\":2944:2971   */\n      swap1\n      pop\n        /* \"#utility.yul\":3017:3026   */\n      dup2\n        /* \"#utility.yul\":3011:3015   */\n      dup2\n        /* \"#utility.yul\":3007:3027   */\n      sub\n        /* \"#utility.yul\":3003:3004   */\n      0x00\n        /* \"#utility.yul\":2992:3001   */\n      dup4\n        /* \"#utility.yul\":2988:3005   */\n      add\n        /* \"#utility.yul\":2981:3028   */\n      mstore\n        /* \"#utility.yul\":3045:3123   */\n      tag_226\n        /* \"#utility.yul\":3118:3122   */\n      dup2\n        /* \"#utility.yul\":3109:3115   */\n      dup11\n        /* \"#utility.yul\":3045:3123   */\n      tag_131\n      jump\t// in\n    tag_226:\n        /* \"#utility.yul\":3037:3123   */\n      swap1\n      pop\n        /* \"#utility.yul\":3170:3179   */\n      dup2\n        /* \"#utility.yul\":3164:3168   */\n      dup2\n        /* \"#utility.yul\":3160:3180   */\n      sub\n        /* \"#utility.yul\":3155:3157   */\n      0x20\n        /* \"#utility.yul\":3144:3153   */\n      dup4\n        /* \"#utility.yul\":3140:3158   */\n      add\n        /* \"#utility.yul\":3133:3181   */\n      mstore\n        /* \"#utility.yul\":3198:3276   */\n      tag_227\n        /* \"#utility.yul\":3271:3275   */\n      dup2\n        /* \"#utility.yul\":3262:3268   */\n      dup10\n        /* \"#utility.yul\":3198:3276   */\n      tag_131\n      jump\t// in\n    tag_227:\n        /* \"#utility.yul\":3190:3276   */\n      swap1\n      pop\n        /* \"#utility.yul\":3286:3358   */\n      tag_228\n        /* \"#utility.yul\":3354:3356   */\n      0x40\n        /* \"#utility.yul\":3343:3352   */\n      dup4\n        /* \"#utility.yul\":3339:3357   */\n      add\n        /* \"#utility.yul\":3330:3336   */\n      dup9\n        /* \"#utility.yul\":3286:3358   */\n      tag_134\n      jump\t// in\n    tag_228:\n        /* \"#utility.yul\":3368:3440   */\n      tag_229\n        /* \"#utility.yul\":3436:3438   */\n      0x60\n        /* \"#utility.yul\":3425:3434   */\n      dup4\n        /* \"#utility.yul\":3421:3439   */\n      add\n        /* \"#utility.yul\":3412:3418   */\n      dup8\n        /* \"#utility.yul\":3368:3440   */\n      tag_134\n      jump\t// in\n    tag_229:\n        /* \"#utility.yul\":3450:3523   */\n      tag_230\n        /* \"#utility.yul\":3518:3521   */\n      0x80\n        /* \"#utility.yul\":3507:3516   */\n      dup4\n        /* \"#utility.yul\":3503:3522   */\n      add\n        /* \"#utility.yul\":3494:3500   */\n      dup7\n        /* \"#utility.yul\":3450:3523   */\n      tag_135\n      jump\t// in\n    tag_230:\n        /* \"#utility.yul\":3533:3606   */\n      tag_231\n        /* \"#utility.yul\":3601:3604   */\n      0xa0\n        /* \"#utility.yul\":3590:3599   */\n      dup4\n        /* \"#utility.yul\":3586:3605   */\n      add\n        /* \"#utility.yul\":3577:3583   */\n      dup6\n        /* \"#utility.yul\":3533:3606   */\n      tag_135\n      jump\t// in\n    tag_231:\n        /* \"#utility.yul\":3616:3683   */\n      tag_232\n        /* \"#utility.yul\":3678:3681   */\n      0xc0\n        /* \"#utility.yul\":3667:3676   */\n      dup4\n        /* \"#utility.yul\":3663:3682   */\n      add\n        /* \"#utility.yul\":3654:3660   */\n      dup5\n        /* \"#utility.yul\":3616:3683   */\n      tag_137\n      jump\t// in\n    tag_232:\n        /* \"#utility.yul\":2634:3690   */\n      swap9\n      swap8\n      pop\n      pop\n      pop\n      pop\n      pop\n      pop\n      pop\n      pop\n      jump\t// out\n        /* \"#utility.yul\":3696:3813   */\n    tag_138:\n        /* \"#utility.yul\":3805:3806   */\n      0x00\n        /* \"#utility.yul\":3802:3803   */\n      dup1\n        /* \"#utility.yul\":3795:3807   */\n      revert\n        /* \"#utility.yul\":3819:3936   */\n    tag_139:\n        /* \"#utility.yul\":3928:3929   */\n      0x00\n        /* \"#utility.yul\":3925:3926   */\n      dup1\n        /* \"#utility.yul\":3918:3930   */\n      revert\n        /* \"#utility.yul\":3942:4122   */\n    tag_140:\n        /* \"#utility.yul\":3990:4067   */\n      0x4e487b7100000000000000000000000000000000000000000000000000000000\n        /* \"#utility.yul\":3987:3988   */\n      0x00\n        /* \"#utility.yul\":3980:4068   */\n      mstore\n        /* \"#utility.yul\":4087:4091   */\n      0x41\n        /* \"#utility.yul\":4084:4085   */\n      0x04\n        /* \"#utility.yul\":4077:4092   */\n      mstore\n        /* \"#utility.yul\":4111:4115   */\n      0x24\n        /* \"#utility.yul\":4108:4109   */\n      0x00\n        /* \"#utility.yul\":4101:4116   */\n      revert\n        /* \"#utility.yul\":4128:4409   */\n    tag_141:\n        /* \"#utility.yul\":4211:4238   */\n      tag_237\n        /* \"#utility.yul\":4233:4237   */\n      dup3\n        /* \"#utility.yul\":4211:4238   */\n      tag_130\n      jump\t// in\n    tag_237:\n        /* \"#utility.yul\":4203:4209   */\n      dup2\n        /* \"#utility.yul\":4199:4239   */\n      add\n        /* \"#utility.yul\":4341:4347   */\n      dup2\n        /* \"#utility.yul\":4329:4339   */\n      dup2\n        /* \"#utility.yul\":4326:4348   */\n      lt\n        /* \"#utility.yul\":4305:4323   */\n      0xffffffffffffffff\n        /* \"#utility.yul\":4293:4303   */\n      dup3\n        /* \"#utility.yul\":4290:4324   */\n      gt\n        /* \"#utility.yul\":4287:4349   */\n      or\n        /* \"#utility.yul\":4284:4372   */\n      iszero\n      tag_238\n      jumpi\n        /* \"#utility.yul\":4352:4370   */\n      tag_239\n      tag_140\n      jump\t// in\n    tag_239:\n        /* \"#utility.yul\":4284:4372   */\n    tag_238:\n        /* \"#utility.yul\":4392:4402   */\n      dup1\n        /* \"#utility.yul\":4388:4390   */\n      0x40\n        /* \"#utility.yul\":4381:4403   */\n      mstore\n        /* \"#utility.yul\":4171:4409   */\n      pop\n        /* \"#utility.yul\":4128:4409   */\n      pop\n      pop\n      jump\t// out\n        /* \"#utility.yul\":4415:4544   */\n    tag_142:\n        /* \"#utility.yul\":4449:4455   */\n      0x00\n        /* \"#utility.yul\":4476:4496   */\n      tag_241\n      tag_121\n      jump\t// in\n    tag_241:\n        /* \"#utility.yul\":4466:4496   */\n      swap1\n      pop\n        /* \"#utility.yul\":4505:4538   */\n      tag_242\n        /* \"#utility.yul\":4533:4537   */\n      dup3\n        /* \"#utility.yul\":4525:4531   */\n      dup3\n        /* \"#utility.yul\":4505:4538   */\n      tag_141\n      jump\t// in\n    tag_242:\n        /* \"#utility.yul\":4415:4544   */\n      swap2\n      swap1\n      pop\n      jump\t// out\n        /* \"#utility.yul\":4550:4858   */\n    tag_143:\n        /* \"#utility.yul\":4612:4616   */\n      0x00\n        /* \"#utility.yul\":4702:4720   */\n      0xffffffffffffffff\n        /* \"#utility.yul\":4694:4700   */\n      dup3\n        /* \"#utility.yul\":4691:4721   */\n      gt\n        /* \"#utility.yul\":4688:4744   */\n      iszero\n      tag_244\n      jumpi\n        /* \"#utility.yul\":4724:4742   */\n      tag_245\n      tag_140\n      jump\t// in\n    tag_245:\n        /* \"#utility.yul\":4688:4744   */\n    tag_244:\n        /* \"#utility.yul\":4762:4791   */\n      tag_246\n        /* \"#utility.yul\":4784:4790   */\n      dup3\n        /* \"#utility.yul\":4762:4791   */\n      tag_130\n      jump\t// in\n    tag_246:\n        /* \"#utility.yul\":4754:4791   */\n      swap1\n      pop\n        /* \"#utility.yul\":4846:4850   */\n      0x20\n        /* \"#utility.yul\":4840:4844   */\n      dup2\n        /* \"#utility.yul\":4836:4851   */\n      add\n        /* \"#utility.yul\":4828:4851   */\n      swap1\n      pop\n        /* \"#utility.yul\":4550:4858   */\n      swap2\n      swap1\n      pop\n      jump\t// out\n        /* \"#utility.yul\":4864:5012   */\n    tag_144:\n        /* \"#utility.yul\":4962:4968   */\n      dup3\n        /* \"#utility.yul\":4957:4960   */\n      dup2\n        /* \"#utility.yul\":4952:4955   */\n      dup4\n        /* \"#utility.yul\":4939:4969   */\n      calldatacopy\n        /* \"#utility.yul\":5003:5004   */\n      0x00\n        /* \"#utility.yul\":4994:5000   */\n      dup4\n        /* \"#utility.yul\":4989:4992   */\n      dup4\n        /* \"#utility.yul\":4985:5001   */\n      add\n        /* \"#utility.yul\":4978:5005   */\n      mstore\n        /* \"#utility.yul\":4864:5012   */\n      pop\n      pop\n      pop\n      jump\t// out\n        /* \"#utility.yul\":5018:5443   */\n    tag_145:\n        /* \"#utility.yul\":5096:5101   */\n      0x00\n        /* \"#utility.yul\":5121:5187   */\n      tag_249\n        /* \"#utility.yul\":5137:5186   */\n      tag_250\n        /* \"#utility.yul\":5179:5185   */\n      dup5\n        /* \"#utility.yul\":5137:5186   */\n      tag_143\n      jump\t// in\n    tag_250:\n        /* \"#utility.yul\":5121:5187   */\n      tag_142\n      jump\t// in\n    tag_249:\n        /* \"#utility.yul\":5112:5187   */\n      swap1\n      pop\n        /* \"#utility.yul\":5210:5216   */\n      dup3\n        /* \"#utility.yul\":5203:5208   */\n      dup2\n        /* \"#utility.yul\":5196:5217   */\n      mstore\n        /* \"#utility.yul\":5248:5252   */\n      0x20\n        /* \"#utility.yul\":5241:5246   */\n      dup2\n        /* \"#utility.yul\":5237:5253   */\n      add\n        /* \"#utility.yul\":5286:5289   */\n      dup5\n        /* \"#utility.yul\":5277:5283   */\n      dup5\n        /* \"#utility.yul\":5272:5275   */\n      dup5\n        /* \"#utility.yul\":5268:5284   */\n      add\n        /* \"#utility.yul\":5265:5290   */\n      gt\n        /* \"#utility.yul\":5262:5374   */\n      iszero\n      tag_251\n      jumpi\n        /* \"#utility.yul\":5293:5372   */\n      tag_252\n      tag_139\n      jump\t// in\n    tag_252:\n        /* \"#utility.yul\":5262:5374   */\n    tag_251:\n        /* \"#utility.yul\":5383:5437   */\n      tag_253\n        /* \"#utility.yul\":5430:5436   */\n      dup5\n        /* \"#utility.yul\":5425:5428   */\n      dup3\n        /* \"#utility.yul\":5420:5423   */\n      dup6\n        /* \"#utility.yul\":5383:5437   */\n      tag_144\n      jump\t// in\n    tag_253:\n        /* \"#utility.yul\":5102:5443   */\n      pop\n        /* \"#utility.yul\":5018:5443   */\n      swap4\n      swap3\n      pop\n      pop\n      pop\n      jump\t// out\n        /* \"#utility.yul\":5463:5803   */\n    tag_146:\n        /* \"#utility.yul\":5519:5524   */\n      0x00\n        /* \"#utility.yul\":5568:5571   */\n      dup3\n        /* \"#utility.yul\":5561:5565   */\n      0x1f\n        /* \"#utility.yul\":5553:5559   */\n      dup4\n        /* \"#utility.yul\":5549:5566   */\n      add\n        /* \"#utility.yul\":5545:5572   */\n      slt\n        /* \"#utility.yul\":5535:5657   */\n      tag_255\n      jumpi\n        /* \"#utility.yul\":5576:5655   */\n      tag_256\n      tag_138\n      jump\t// in\n    tag_256:\n        /* \"#utility.yul\":5535:5657   */\n    tag_255:\n        /* \"#utility.yul\":5693:5699   */\n      dup2\n        /* \"#utility.yul\":5680:5700   */\n      calldataload\n        /* \"#utility.yul\":5718:5797   */\n      tag_257\n        /* \"#utility.yul\":5793:5796   */\n      dup5\n        /* \"#utility.yul\":5785:5791   */\n      dup3\n        /* \"#utility.yul\":5778:5782   */\n      0x20\n        /* \"#utility.yul\":5770:5776   */\n      dup7\n        /* \"#utility.yul\":5766:5783   */\n      add\n        /* \"#utility.yul\":5718:5797   */\n      tag_145\n      jump\t// in\n    tag_257:\n        /* \"#utility.yul\":5709:5797   */\n      swap2\n      pop\n        /* \"#utility.yul\":5525:5803   */\n      pop\n        /* \"#utility.yul\":5463:5803   */\n      swap3\n      swap2\n      pop\n      pop\n      jump\t// out\n        /* \"#utility.yul\":5809:6788   */\n    tag_22:\n        /* \"#utility.yul\":5906:5912   */\n      0x00\n        /* \"#utility.yul\":5914:5920   */\n      dup1\n        /* \"#utility.yul\":5922:5928   */\n      0x00\n        /* \"#utility.yul\":5971:5973   */\n      0x60\n        /* \"#utility.yul\":5959:5968   */\n      dup5\n        /* \"#utility.yul\":5950:5957   */\n      dup7\n        /* \"#utility.yul\":5946:5969   */\n      sub\n        /* \"#utility.yul\":5942:5974   */\n      slt\n        /* \"#utility.yul\":5939:6058   */\n      iszero\n      tag_259\n      jumpi\n        /* \"#utility.yul\":5977:6056   */\n      tag_260\n      tag_122\n      jump\t// in\n    tag_260:\n        /* \"#utility.yul\":5939:6058   */\n    tag_259:\n        /* \"#utility.yul\":6125:6126   */\n      0x00\n        /* \"#utility.yul\":6114:6123   */\n      dup5\n        /* \"#utility.yul\":6110:6127   */\n      add\n        /* \"#utility.yul\":6097:6128   */\n      calldataload\n        /* \"#utility.yul\":6155:6173   */\n      0xffffffffffffffff\n        /* \"#utility.yul\":6147:6153   */\n      dup2\n        /* \"#utility.yul\":6144:6174   */\n      gt\n        /* \"#utility.yul\":6141:6258   */\n      iszero\n      tag_261\n      jumpi\n        /* \"#utility.yul\":6177:6256   */\n      tag_262\n      tag_123\n      jump\t// in\n    tag_262:\n        /* \"#utility.yul\":6141:6258   */\n    tag_261:\n        /* \"#utility.yul\":6282:6345   */\n      tag_263\n        /* \"#utility.yul\":6337:6344   */\n      dup7\n        /* \"#utility.yul\":6328:6334   */\n      dup3\n        /* \"#utility.yul\":6317:6326   */\n      dup8\n        /* \"#utility.yul\":6313:6335   */\n      add\n        /* \"#utility.yul\":6282:6345   */\n      tag_146\n      jump\t// in\n    tag_263:\n        /* \"#utility.yul\":6272:6345   */\n      swap4\n      pop\n        /* \"#utility.yul\":6068:6355   */\n      pop\n        /* \"#utility.yul\":6422:6424   */\n      0x20\n        /* \"#utility.yul\":6411:6420   */\n      dup5\n        /* \"#utility.yul\":6407:6425   */\n      add\n        /* \"#utility.yul\":6394:6426   */\n      calldataload\n        /* \"#utility.yul\":6453:6471   */\n      0xffffffffffffffff\n        /* \"#utility.yul\":6445:6451   */\n      dup2\n        /* \"#utility.yul\":6442:6472   */\n      gt\n        /* \"#utility.yul\":6439:6556   */\n      iszero\n      tag_264\n      jumpi\n        /* \"#utility.yul\":6475:6554   */\n      tag_265\n      tag_123\n      jump\t// in\n    tag_265:\n        /* \"#utility.yul\":6439:6556   */\n    tag_264:\n        /* \"#utility.yul\":6580:6643   */\n      tag_266\n        /* \"#utility.yul\":6635:6642   */\n      dup7\n        /* \"#utility.yul\":6626:6632   */\n      dup3\n        /* \"#utility.yul\":6615:6624   */\n      dup8\n        /* \"#utility.yul\":6611:6633   */\n      add\n        /* \"#utility.yul\":6580:6643   */\n      tag_146\n      jump\t// in\n    tag_266:\n        /* \"#utility.yul\":6570:6643   */\n      swap3\n      pop\n        /* \"#utility.yul\":6365:6653   */\n      pop\n        /* \"#utility.yul\":6692:6694   */\n      0x40\n        /* \"#utility.yul\":6718:6771   */\n      tag_267\n        /* \"#utility.yul\":6763:6770   */\n      dup7\n        /* \"#utility.yul\":6754:6760   */\n      dup3\n        /* \"#utility.yul\":6743:6752   */\n      dup8\n        /* \"#utility.yul\":6739:6761   */\n      add\n        /* \"#utility.yul\":6718:6771   */\n      tag_126\n      jump\t// in\n    tag_267:\n        /* \"#utility.yul\":6708:6771   */\n      swap2\n      pop\n        /* \"#utility.yul\":6663:6781   */\n      pop\n        /* \"#utility.yul\":5809:6788   */\n      swap3\n      pop\n      swap3\n      pop\n      swap3\n      jump\t// out\n        /* \"#utility.yul\":6794:6916   */\n    tag_147:\n        /* \"#utility.yul\":6867:6891   */\n      tag_269\n        /* \"#utility.yul\":6885:6890   */\n      dup2\n        /* \"#utility.yul\":6867:6891   */\n      tag_133\n      jump\t// in\n    tag_269:\n        /* \"#utility.yul\":6860:6865   */\n      dup2\n        /* \"#utility.yul\":6857:6892   */\n      eq\n        /* \"#utility.yul\":6847:6910   */\n      tag_270\n      jumpi\n        /* \"#utility.yul\":6906:6907   */\n      0x00\n        /* \"#utility.yul\":6903:6904   */\n      dup1\n        /* \"#utility.yul\":6896:6908   */\n      revert\n        /* \"#utility.yul\":6847:6910   */\n    tag_270:\n        /* \"#utility.yul\":6794:6916   */\n      pop\n      jump\t// out\n        /* \"#utility.yul\":6922:7061   */\n    tag_148:\n        /* \"#utility.yul\":6968:6973   */\n      0x00\n        /* \"#utility.yul\":7006:7012   */\n      dup2\n        /* \"#utility.yul\":6993:7013   */\n      calldataload\n        /* \"#utility.yul\":6984:7013   */\n      swap1\n      pop\n        /* \"#utility.yul\":7022:7055   */\n      tag_272\n        /* \"#utility.yul\":7049:7054   */\n      dup2\n        /* \"#utility.yul\":7022:7055   */\n      tag_147\n      jump\t// in\n    tag_272:\n        /* \"#utility.yul\":6922:7061   */\n      swap3\n      swap2\n      pop\n      pop\n      jump\t// out\n        /* \"#utility.yul\":7067:7396   */\n    tag_27:\n        /* \"#utility.yul\":7126:7132   */\n      0x00\n        /* \"#utility.yul\":7175:7177   */\n      0x20\n        /* \"#utility.yul\":7163:7172   */\n      dup3\n        /* \"#utility.yul\":7154:7161   */\n      dup5\n        /* \"#utility.yul\":7150:7173   */\n      sub\n        /* \"#utility.yul\":7146:7178   */\n      slt\n        /* \"#utility.yul\":7143:7262   */\n      iszero\n      tag_274\n      jumpi\n        /* \"#utility.yul\":7181:7260   */\n      tag_275\n      tag_122\n      jump\t// in\n    tag_275:\n        /* \"#utility.yul\":7143:7262   */\n    tag_274:\n        /* \"#utility.yul\":7301:7302   */\n      0x00\n        /* \"#utility.yul\":7326:7379   */\n      tag_276\n        /* \"#utility.yul\":7371:7378   */\n      dup5\n        /* \"#utility.yul\":7362:7368   */\n      dup3\n        /* \"#utility.yul\":7351:7360   */\n      dup6\n        /* \"#utility.yul\":7347:7369   */\n      add\n        /* \"#utility.yul\":7326:7379   */\n      tag_148\n      jump\t// in\n    tag_276:\n        /* \"#utility.yul\":7316:7379   */\n      swap2\n      pop\n        /* \"#utility.yul\":7272:7389   */\n      pop\n        /* \"#utility.yul\":7067:7396   */\n      swap3\n      swap2\n      pop\n      pop\n      jump\t// out\n        /* \"#utility.yul\":7402:7624   */\n    tag_30:\n        /* \"#utility.yul\":7495:7499   */\n      0x00\n        /* \"#utility.yul\":7533:7535   */\n      0x20\n        /* \"#utility.yul\":7522:7531   */\n      dup3\n        /* \"#utility.yul\":7518:7536   */\n      add\n        /* \"#utility.yul\":7510:7536   */\n      swap1\n      pop\n        /* \"#utility.yul\":7546:7617   */\n      tag_278\n        /* \"#utility.yul\":7614:7615   */\n      0x00\n        /* \"#utility.yul\":7603:7612   */\n      dup4\n        /* \"#utility.yul\":7599:7616   */\n      add\n        /* \"#utility.yul\":7590:7596   */\n      dup5\n        /* \"#utility.yul\":7546:7617   */\n      tag_135\n      jump\t// in\n    tag_278:\n        /* \"#utility.yul\":7402:7624   */\n      swap3\n      swap2\n      pop\n      pop\n      jump\t// out\n        /* \"#utility.yul\":7630:7768   */\n    tag_149:\n        /* \"#utility.yul\":7721:7727   */\n      0x00\n        /* \"#utility.yul\":7755:7760   */\n      dup2\n        /* \"#utility.yul\":7749:7761   */\n      mload\n        /* \"#utility.yul\":7739:7761   */\n      swap1\n      pop\n        /* \"#utility.yul\":7630:7768   */\n      swap2\n      swap1\n      pop\n      jump\t// out\n        /* \"#utility.yul\":7774:7982   */\n    tag_150:\n        /* \"#utility.yul\":7897:7908   */\n      0x00\n        /* \"#utility.yul\":7931:7937   */\n      dup3\n        /* \"#utility.yul\":7926:7929   */\n      dup3\n        /* \"#utility.yul\":7919:7938   */\n      mstore\n        /* \"#utility.yul\":7971:7975   */\n      0x20\n        /* \"#utility.yul\":7966:7969   */\n      dup3\n        /* \"#utility.yul\":7962:7976   */\n      add\n        /* \"#utility.yul\":7947:7976   */\n      swap1\n      pop\n        /* \"#utility.yul\":7774:7982   */\n      swap3\n      swap2\n      pop\n      pop\n      jump\t// out\n        /* \"#utility.yul\":7988:8144   */\n    tag_151:\n        /* \"#utility.yul\":8079:8083   */\n      0x00\n        /* \"#utility.yul\":8102:8105   */\n      dup2\n        /* \"#utility.yul\":8094:8105   */\n      swap1\n      pop\n        /* \"#utility.yul\":8132:8136   */\n      0x20\n        /* \"#utility.yul\":8127:8130   */\n      dup3\n        /* \"#utility.yul\":8123:8137   */\n      add\n        /* \"#utility.yul\":8115:8137   */\n      swap1\n      pop\n        /* \"#utility.yul\":7988:8144   */\n      swap2\n      swap1\n      pop\n      jump\t// out\n        /* \"#utility.yul\":8150:8309   */\n    tag_152:\n        /* \"#utility.yul\":8224:8235   */\n      0x00\n        /* \"#utility.yul\":8258:8264   */\n      dup3\n        /* \"#utility.yul\":8253:8256   */\n      dup3\n        /* \"#utility.yul\":8246:8265   */\n      mstore\n        /* \"#utility.yul\":8298:8302   */\n      0x20\n        /* \"#utility.yul\":8293:8296   */\n      dup3\n        /* \"#utility.yul\":8289:8303   */\n      add\n        /* \"#utility.yul\":8274:8303   */\n      swap1\n      pop\n        /* \"#utility.yul\":8150:8309   */\n      swap3\n      swap2\n      pop\n      pop\n      jump\t// out\n        /* \"#utility.yul\":8315:8672   */\n    tag_153:\n        /* \"#utility.yul\":8393:8396   */\n      0x00\n        /* \"#utility.yul\":8421:8460   */\n      tag_284\n        /* \"#utility.yul\":8454:8459   */\n      dup3\n        /* \"#utility.yul\":8421:8460   */\n      tag_127\n      jump\t// in\n    tag_284:\n        /* \"#utility.yul\":8476:8537   */\n      tag_285\n        /* \"#utility.yul\":8530:8536   */\n      dup2\n        /* \"#utility.yul\":8525:8528   */\n      dup6\n        /* \"#utility.yul\":8476:8537   */\n      tag_152\n      jump\t// in\n    tag_285:\n        /* \"#utility.yul\":8469:8537   */\n      swap4\n      pop\n        /* \"#utility.yul\":8546:8611   */\n      tag_286\n        /* \"#utility.yul\":8604:8610   */\n      dup2\n        /* \"#utility.yul\":8599:8602   */\n      dup6\n        /* \"#utility.yul\":8592:8596   */\n      0x20\n        /* \"#utility.yul\":8585:8590   */\n      dup7\n        /* \"#utility.yul\":8581:8597   */\n      add\n        /* \"#utility.yul\":8546:8611   */\n      tag_129\n      jump\t// in\n    tag_286:\n        /* \"#utility.yul\":8636:8665   */\n      tag_287\n        /* \"#utility.yul\":8658:8664   */\n      dup2\n        /* \"#utility.yul\":8636:8665   */\n      tag_130\n      jump\t// in\n    tag_287:\n        /* \"#utility.yul\":8631:8634   */\n      dup5\n        /* \"#utility.yul\":8627:8666   */\n      add\n        /* \"#utility.yul\":8620:8666   */\n      swap2\n      pop\n        /* \"#utility.yul\":8397:8672   */\n      pop\n        /* \"#utility.yul\":8315:8672   */\n      swap3\n      swap2\n      pop\n      pop\n      jump\t// out\n        /* \"#utility.yul\":8678:8786   */\n    tag_154:\n        /* \"#utility.yul\":8755:8779   */\n      tag_289\n        /* \"#utility.yul\":8773:8778   */\n      dup2\n        /* \"#utility.yul\":8755:8779   */\n      tag_133\n      jump\t// in\n    tag_289:\n        /* \"#utility.yul\":8750:8753   */\n      dup3\n        /* \"#utility.yul\":8743:8780   */\n      mstore\n        /* \"#utility.yul\":8678:8786   */\n      pop\n      pop\n      jump\t// out\n        /* \"#utility.yul\":8792:8900   */\n    tag_155:\n        /* \"#utility.yul\":8869:8893   */\n      tag_291\n        /* \"#utility.yul\":8887:8892   */\n      dup2\n        /* \"#utility.yul\":8869:8893   */\n      tag_124\n      jump\t// in\n    tag_291:\n        /* \"#utility.yul\":8864:8867   */\n      dup3\n        /* \"#utility.yul\":8857:8894   */\n      mstore\n        /* \"#utility.yul\":8792:8900   */\n      pop\n      pop\n      jump\t// out\n        /* \"#utility.yul\":8906:9005   */\n    tag_156:\n        /* \"#utility.yul\":8977:8998   */\n      tag_293\n        /* \"#utility.yul\":8992:8997   */\n      dup2\n        /* \"#utility.yul\":8977:8998   */\n      tag_136\n      jump\t// in\n    tag_293:\n        /* \"#utility.yul\":8972:8975   */\n      dup3\n        /* \"#utility.yul\":8965:8999   */\n      mstore\n        /* \"#utility.yul\":8906:9005   */\n      pop\n      pop\n      jump\t// out\n        /* \"#utility.yul\":9081:10646   */\n    tag_157:\n        /* \"#utility.yul\":9188:9191   */\n      0x00\n        /* \"#utility.yul\":9224:9228   */\n      0xe0\n        /* \"#utility.yul\":9219:9222   */\n      dup4\n        /* \"#utility.yul\":9215:9229   */\n      add\n        /* \"#utility.yul\":9311:9315   */\n      0x00\n        /* \"#utility.yul\":9304:9309   */\n      dup4\n        /* \"#utility.yul\":9300:9316   */\n      add\n        /* \"#utility.yul\":9294:9317   */\n      mload\n        /* \"#utility.yul\":9364:9367   */\n      dup5\n        /* \"#utility.yul\":9358:9362   */\n      dup3\n        /* \"#utility.yul\":9354:9368   */\n      sub\n        /* \"#utility.yul\":9347:9351   */\n      0x00\n        /* \"#utility.yul\":9342:9345   */\n      dup7\n        /* \"#utility.yul\":9338:9352   */\n      add\n        /* \"#utility.yul\":9331:9369   */\n      mstore\n        /* \"#utility.yul\":9390:9463   */\n      tag_295\n        /* \"#utility.yul\":9458:9462   */\n      dup3\n        /* \"#utility.yul\":9444:9456   */\n      dup3\n        /* \"#utility.yul\":9390:9463   */\n      tag_153\n      jump\t// in\n    tag_295:\n        /* \"#utility.yul\":9382:9463   */\n      swap2\n      pop\n        /* \"#utility.yul\":9239:9474   */\n      pop\n        /* \"#utility.yul\":9563:9567   */\n      0x20\n        /* \"#utility.yul\":9556:9561   */\n      dup4\n        /* \"#utility.yul\":9552:9568   */\n      add\n        /* \"#utility.yul\":9546:9569   */\n      mload\n        /* \"#utility.yul\":9616:9619   */\n      dup5\n        /* \"#utility.yul\":9610:9614   */\n      dup3\n        /* \"#utility.yul\":9606:9620   */\n      sub\n        /* \"#utility.yul\":9599:9603   */\n      0x20\n        /* \"#utility.yul\":9594:9597   */\n      dup7\n        /* \"#utility.yul\":9590:9604   */\n      add\n        /* \"#utility.yul\":9583:9621   */\n      mstore\n        /* \"#utility.yul\":9642:9715   */\n      tag_296\n        /* \"#utility.yul\":9710:9714   */\n      dup3\n        /* \"#utility.yul\":9696:9708   */\n      dup3\n        /* \"#utility.yul\":9642:9715   */\n      tag_153\n      jump\t// in\n    tag_296:\n        /* \"#utility.yul\":9634:9715   */\n      swap2\n      pop\n        /* \"#utility.yul\":9484:9726   */\n      pop\n        /* \"#utility.yul\":9811:9815   */\n      0x40\n        /* \"#utility.yul\":9804:9809   */\n      dup4\n        /* \"#utility.yul\":9800:9816   */\n      add\n        /* \"#utility.yul\":9794:9817   */\n      mload\n        /* \"#utility.yul\":9830:9893   */\n      tag_297\n        /* \"#utility.yul\":9887:9891   */\n      0x40\n        /* \"#utility.yul\":9882:9885   */\n      dup7\n        /* \"#utility.yul\":9878:9892   */\n      add\n        /* \"#utility.yul\":9864:9876   */\n      dup3\n        /* \"#utility.yul\":9830:9893   */\n      tag_154\n      jump\t// in\n    tag_297:\n        /* \"#utility.yul\":9736:9903   */\n      pop\n        /* \"#utility.yul\":9993:9997   */\n      0x60\n        /* \"#utility.yul\":9986:9991   */\n      dup4\n        /* \"#utility.yul\":9982:9998   */\n      add\n        /* \"#utility.yul\":9976:9999   */\n      mload\n        /* \"#utility.yul\":10012:10075   */\n      tag_298\n        /* \"#utility.yul\":10069:10073   */\n      0x60\n        /* \"#utility.yul\":10064:10067   */\n      dup7\n        /* \"#utility.yul\":10060:10074   */\n      add\n        /* \"#utility.yul\":10046:10058   */\n      dup3\n        /* \"#utility.yul\":10012:10075   */\n      tag_154\n      jump\t// in\n    tag_298:\n        /* \"#utility.yul\":9913:10085   */\n      pop\n        /* \"#utility.yul\":10175:10179   */\n      0x80\n        /* \"#utility.yul\":10168:10173   */\n      dup4\n        /* \"#utility.yul\":10164:10180   */\n      add\n        /* \"#utility.yul\":10158:10181   */\n      mload\n        /* \"#utility.yul\":10194:10257   */\n      tag_299\n        /* \"#utility.yul\":10251:10255   */\n      0x80\n        /* \"#utility.yul\":10246:10249   */\n      dup7\n        /* \"#utility.yul\":10242:10256   */\n      add\n        /* \"#utility.yul\":10228:10240   */\n      dup3\n        /* \"#utility.yul\":10194:10257   */\n      tag_155\n      jump\t// in\n    tag_299:\n        /* \"#utility.yul\":10095:10267   */\n      pop\n        /* \"#utility.yul\":10355:10359   */\n      0xa0\n        /* \"#utility.yul\":10348:10353   */\n      dup4\n        /* \"#utility.yul\":10344:10360   */\n      add\n        /* \"#utility.yul\":10338:10361   */\n      mload\n        /* \"#utility.yul\":10374:10437   */\n      tag_300\n        /* \"#utility.yul\":10431:10435   */\n      0xa0\n        /* \"#utility.yul\":10426:10429   */\n      dup7\n        /* \"#utility.yul\":10422:10436   */\n      add\n        /* \"#utility.yul\":10408:10420   */\n      dup3\n        /* \"#utility.yul\":10374:10437   */\n      tag_155\n      jump\t// in\n    tag_300:\n        /* \"#utility.yul\":10277:10447   */\n      pop\n        /* \"#utility.yul\":10533:10537   */\n      0xc0\n        /* \"#utility.yul\":10526:10531   */\n      dup4\n        /* \"#utility.yul\":10522:10538   */\n      add\n        /* \"#utility.yul\":10516:10539   */\n      mload\n        /* \"#utility.yul\":10552:10609   */\n      tag_301\n        /* \"#utility.yul\":10603:10607   */\n      0xc0\n        /* \"#utility.yul\":10598:10601   */\n      dup7\n        /* \"#utility.yul\":10594:10608   */\n      add\n        /* \"#utility.yul\":10580:10592   */\n      dup3\n        /* \"#utility.yul\":10552:10609   */\n      tag_156\n      jump\t// in\n    tag_301:\n        /* \"#utility.yul\":10457:10619   */\n      pop\n        /* \"#utility.yul\":10636:10640   */\n      dup1\n        /* \"#utility.yul\":10629:10640   */\n      swap2\n      pop\n        /* \"#utility.yul\":9193:10646   */\n      pop\n        /* \"#utility.yul\":9081:10646   */\n      swap3\n      swap2\n      pop\n      pop\n      jump\t// out\n        /* \"#utility.yul\":10652:10904   */\n    tag_158:\n        /* \"#utility.yul\":10769:10779   */\n      0x00\n        /* \"#utility.yul\":10804:10898   */\n      tag_303\n        /* \"#utility.yul\":10894:10897   */\n      dup4\n        /* \"#utility.yul\":10886:10892   */\n      dup4\n        /* \"#utility.yul\":10804:10898   */\n      tag_157\n      jump\t// in\n    tag_303:\n        /* \"#utility.yul\":10790:10898   */\n      swap1\n      pop\n        /* \"#utility.yul\":10652:10904   */\n      swap3\n      swap2\n      pop\n      pop\n      jump\t// out\n        /* \"#utility.yul\":10910:11047   */\n    tag_159:\n        /* \"#utility.yul\":11004:11008   */\n      0x00\n        /* \"#utility.yul\":11036:11040   */\n      0x20\n        /* \"#utility.yul\":11031:11034   */\n      dup3\n        /* \"#utility.yul\":11027:11041   */\n      add\n        /* \"#utility.yul\":11019:11041   */\n      swap1\n      pop\n        /* \"#utility.yul\":10910:11047   */\n      swap2\n      swap1\n      pop\n      jump\t// out\n        /* \"#utility.yul\":11127:12230   */\n    tag_160:\n        /* \"#utility.yul\":11294:11297   */\n      0x00\n        /* \"#utility.yul\":11323:11401   */\n      tag_306\n        /* \"#utility.yul\":11395:11400   */\n      dup3\n        /* \"#utility.yul\":11323:11401   */\n      tag_149\n      jump\t// in\n    tag_306:\n        /* \"#utility.yul\":11417:11527   */\n      tag_307\n        /* \"#utility.yul\":11520:11526   */\n      dup2\n        /* \"#utility.yul\":11515:11518   */\n      dup6\n        /* \"#utility.yul\":11417:11527   */\n      tag_150\n      jump\t// in\n    tag_307:\n        /* \"#utility.yul\":11410:11527   */\n      swap4\n      pop\n        /* \"#utility.yul\":11553:11556   */\n      dup4\n        /* \"#utility.yul\":11598:11602   */\n      0x20\n        /* \"#utility.yul\":11590:11596   */\n      dup3\n        /* \"#utility.yul\":11586:11603   */\n      mul\n        /* \"#utility.yul\":11581:11584   */\n      dup6\n        /* \"#utility.yul\":11577:11604   */\n      add\n        /* \"#utility.yul\":11628:11708   */\n      tag_308\n        /* \"#utility.yul\":11702:11707   */\n      dup6\n        /* \"#utility.yul\":11628:11708   */\n      tag_151\n      jump\t// in\n    tag_308:\n        /* \"#utility.yul\":11731:11738   */\n      dup1\n        /* \"#utility.yul\":11762:11763   */\n      0x00\n        /* \"#utility.yul\":11747:12185   */\n    tag_309:\n        /* \"#utility.yul\":11772:11778   */\n      dup6\n        /* \"#utility.yul\":11769:11770   */\n      dup2\n        /* \"#utility.yul\":11766:11779   */\n      lt\n        /* \"#utility.yul\":11747:12185   */\n      iszero\n      tag_311\n      jumpi\n        /* \"#utility.yul\":11843:11852   */\n      dup5\n        /* \"#utility.yul\":11837:11841   */\n      dup5\n        /* \"#utility.yul\":11833:11853   */\n      sub\n        /* \"#utility.yul\":11828:11831   */\n      dup10\n        /* \"#utility.yul\":11821:11854   */\n      mstore\n        /* \"#utility.yul\":11894:11900   */\n      dup2\n        /* \"#utility.yul\":11888:11901   */\n      mload\n        /* \"#utility.yul\":11922:12034   */\n      tag_312\n        /* \"#utility.yul\":12029:12033   */\n      dup6\n        /* \"#utility.yul\":12014:12027   */\n      dup3\n        /* \"#utility.yul\":11922:12034   */\n      tag_158\n      jump\t// in\n    tag_312:\n        /* \"#utility.yul\":11914:12034   */\n      swap5\n      pop\n        /* \"#utility.yul\":12057:12141   */\n      tag_313\n        /* \"#utility.yul\":12134:12140   */\n      dup4\n        /* \"#utility.yul\":12057:12141   */\n      tag_159\n      jump\t// in\n    tag_313:\n        /* \"#utility.yul\":12047:12141   */\n      swap3\n      pop\n        /* \"#utility.yul\":12170:12174   */\n      0x20\n        /* \"#utility.yul\":12165:12168   */\n      dup11\n        /* \"#utility.yul\":12161:12175   */\n      add\n        /* \"#utility.yul\":12154:12175   */\n      swap10\n      pop\n        /* \"#utility.yul\":11807:12185   */\n      pop\n        /* \"#utility.yul\":11794:11795   */\n      0x01\n        /* \"#utility.yul\":11791:11792   */\n      dup2\n        /* \"#utility.yul\":11787:11796   */\n      add\n        /* \"#utility.yul\":11782:11796   */\n      swap1\n      pop\n        /* \"#utility.yul\":11747:12185   */\n      jump(tag_309)\n    tag_311:\n        /* \"#utility.yul\":11751:11765   */\n      pop\n        /* \"#utility.yul\":12201:12205   */\n      dup3\n        /* \"#utility.yul\":12194:12205   */\n      swap8\n      pop\n        /* \"#utility.yul\":12221:12224   */\n      dup8\n        /* \"#utility.yul\":12214:12224   */\n      swap6\n      pop\n        /* \"#utility.yul\":11299:12230   */\n      pop\n      pop\n      pop\n      pop\n      pop\n        /* \"#utility.yul\":11127:12230   */\n      swap3\n      swap2\n      pop\n      pop\n      jump\t// out\n        /* \"#utility.yul\":12236:12705   */\n    tag_38:\n        /* \"#utility.yul\":12427:12431   */\n      0x00\n        /* \"#utility.yul\":12465:12467   */\n      0x20\n        /* \"#utility.yul\":12454:12463   */\n      dup3\n        /* \"#utility.yul\":12450:12468   */\n      add\n        /* \"#utility.yul\":12442:12468   */\n      swap1\n      pop\n        /* \"#utility.yul\":12514:12523   */\n      dup2\n        /* \"#utility.yul\":12508:12512   */\n      dup2\n        /* \"#utility.yul\":12504:12524   */\n      sub\n        /* \"#utility.yul\":12500:12501   */\n      0x00\n        /* \"#utility.yul\":12489:12498   */\n      dup4\n        /* \"#utility.yul\":12485:12502   */\n      add\n        /* \"#utility.yul\":12478:12525   */\n      mstore\n        /* \"#utility.yul\":12542:12698   */\n      tag_315\n        /* \"#utility.yul\":12693:12697   */\n      dup2\n        /* \"#utility.yul\":12684:12690   */\n      dup5\n        /* \"#utility.yul\":12542:12698   */\n      tag_160\n      jump\t// in\n    tag_315:\n        /* \"#utility.yul\":12534:12698   */\n      swap1\n      pop\n        /* \"#utility.yul\":12236:12705   */\n      swap3\n      swap2\n      pop\n      pop\n      jump\t// out\n        /* \"#utility.yul\":12711:12891   */\n    tag_161:\n        /* \"#utility.yul\":12759:12836   */\n      0x4e487b7100000000000000000000000000000000000000000000000000000000\n        /* \"#utility.yul\":12756:12757   */\n      0x00\n        /* \"#utility.yul\":12749:12837   */\n      mstore\n        /* \"#utility.yul\":12856:12860   */\n      0x22\n        /* \"#utility.yul\":12853:12854   */\n      0x04\n        /* \"#utility.yul\":12846:12861   */\n      mstore\n        /* \"#utility.yul\":12880:12884   */\n      0x24\n        /* \"#utility.yul\":12877:12878   */\n      0x00\n        /* \"#utility.yul\":12870:12885   */\n      revert\n        /* \"#utility.yul\":12897:13217   */\n    tag_42:\n        /* \"#utility.yul\":12941:12947   */\n      0x00\n        /* \"#utility.yul\":12978:12979   */\n      0x02\n        /* \"#utility.yul\":12972:12976   */\n      dup3\n        /* \"#utility.yul\":12968:12980   */\n      div\n        /* \"#utility.yul\":12958:12980   */\n      swap1\n      pop\n        /* \"#utility.yul\":13025:13026   */\n      0x01\n        /* \"#utility.yul\":13019:13023   */\n      dup3\n        /* \"#utility.yul\":13015:13027   */\n      and\n        /* \"#utility.yul\":13046:13064   */\n      dup1\n        /* \"#utility.yul\":13036:13117   */\n      tag_318\n      jumpi\n        /* \"#utility.yul\":13102:13106   */\n      0x7f\n        /* \"#utility.yul\":13094:13100   */\n      dup3\n        /* \"#utility.yul\":13090:13107   */\n      and\n        /* \"#utility.yul\":13080:13107   */\n      swap2\n      pop\n        /* \"#utility.yul\":13036:13117   */\n    tag_318:\n        /* \"#utility.yul\":13164:13166   */\n      0x20\n        /* \"#utility.yul\":13156:13162   */\n      dup3\n        /* \"#utility.yul\":13153:13167   */\n      lt\n        /* \"#utility.yul\":13133:13151   */\n      dup2\n        /* \"#utility.yul\":13130:13168   */\n      sub\n        /* \"#utility.yul\":13127:13211   */\n      tag_319\n      jumpi\n        /* \"#utility.yul\":13183:13201   */\n      tag_320\n      tag_161\n      jump\t// in\n    tag_320:\n        /* \"#utility.yul\":13127:13211   */\n    tag_319:\n        /* \"#utility.yul\":12948:13217   */\n      pop\n        /* \"#utility.yul\":12897:13217   */\n      swap2\n      swap1\n      pop\n      jump\t// out\n        /* \"#utility.yul\":13223:13391   */\n    tag_162:\n        /* \"#utility.yul\":13363:13383   */\n      0x496e76616c69642070726f6a6563742049440000000000000000000000000000\n        /* \"#utility.yul\":13359:13360   */\n      0x00\n        /* \"#utility.yul\":13351:13357   */\n      dup3\n        /* \"#utility.yul\":13347:13361   */\n      add\n        /* \"#utility.yul\":13340:13384   */\n      mstore\n        /* \"#utility.yul\":13223:13391   */\n      pop\n      jump\t// out\n        /* \"#utility.yul\":13397:13763   */\n    tag_163:\n        /* \"#utility.yul\":13539:13542   */\n      0x00\n        /* \"#utility.yul\":13560:13627   */\n      tag_323\n        /* \"#utility.yul\":13624:13626   */\n      0x12\n        /* \"#utility.yul\":13619:13622   */\n      dup4\n        /* \"#utility.yul\":13560:13627   */\n      tag_128\n      jump\t// in\n    tag_323:\n        /* \"#utility.yul\":13553:13627   */\n      swap2\n      pop\n        /* \"#utility.yul\":13636:13729   */\n      tag_324\n        /* \"#utility.yul\":13725:13728   */\n      dup3\n        /* \"#utility.yul\":13636:13729   */\n      tag_162\n      jump\t// in\n    tag_324:\n        /* \"#utility.yul\":13754:13756   */\n      0x20\n        /* \"#utility.yul\":13749:13752   */\n      dup3\n        /* \"#utility.yul\":13745:13757   */\n      add\n        /* \"#utility.yul\":13738:13757   */\n      swap1\n      pop\n        /* \"#utility.yul\":13397:13763   */\n      swap2\n      swap1\n      pop\n      jump\t// out\n        /* \"#utility.yul\":13769:14188   */\n    tag_55:\n        /* \"#utility.yul\":13935:13939   */\n      0x00\n        /* \"#utility.yul\":13973:13975   */\n      0x20\n        /* \"#utility.yul\":13962:13971   */\n      dup3\n        /* \"#utility.yul\":13958:13976   */\n      add\n        /* \"#utility.yul\":13950:13976   */\n      swap1\n      pop\n        /* \"#utility.yul\":14022:14031   */\n      dup2\n        /* \"#utility.yul\":14016:14020   */\n      dup2\n        /* \"#utility.yul\":14012:14032   */\n      sub\n        /* \"#utility.yul\":14008:14009   */\n      0x00\n        /* \"#utility.yul\":13997:14006   */\n      dup4\n        /* \"#utility.yul\":13993:14010   */\n      add\n        /* \"#utility.yul\":13986:14033   */\n      mstore\n        /* \"#utility.yul\":14050:14181   */\n      tag_326\n        /* \"#utility.yul\":14176:14180   */\n      dup2\n        /* \"#utility.yul\":14050:14181   */\n      tag_163\n      jump\t// in\n    tag_326:\n        /* \"#utility.yul\":14042:14181   */\n      swap1\n      pop\n        /* \"#utility.yul\":13769:14188   */\n      swap2\n      swap1\n      pop\n      jump\t// out\n        /* \"#utility.yul\":14194:14374   */\n    tag_58:\n        /* \"#utility.yul\":14242:14319   */\n      0x4e487b7100000000000000000000000000000000000000000000000000000000\n        /* \"#utility.yul\":14239:14240   */\n      0x00\n        /* \"#utility.yul\":14232:14320   */\n      mstore\n        /* \"#utility.yul\":14339:14343   */\n      0x32\n        /* \"#utility.yul\":14336:14337   */\n      0x04\n        /* \"#utility.yul\":14329:14344   */\n      mstore\n        /* \"#utility.yul\":14363:14367   */\n      0x24\n        /* \"#utility.yul\":14360:14361   */\n      0x00\n        /* \"#utility.yul\":14353:14368   */\n      revert\n        /* \"#utility.yul\":14380:14606   */\n    tag_164:\n        /* \"#utility.yul\":14520:14554   */\n      0x4f6e6c792070726f6a6563742063726561746f722063616e2077697468647261\n        /* \"#utility.yul\":14516:14517   */\n      0x00\n        /* \"#utility.yul\":14508:14514   */\n      dup3\n        /* \"#utility.yul\":14504:14518   */\n      add\n        /* \"#utility.yul\":14497:14555   */\n      mstore\n        /* \"#utility.yul\":14589:14598   */\n      0x772066756e647300000000000000000000000000000000000000000000000000\n        /* \"#utility.yul\":14584:14586   */\n      0x20\n        /* \"#utility.yul\":14576:14582   */\n      dup3\n        /* \"#utility.yul\":14572:14587   */\n      add\n        /* \"#utility.yul\":14565:14599   */\n      mstore\n        /* \"#utility.yul\":14380:14606   */\n      pop\n      jump\t// out\n        /* \"#utility.yul\":14612:14978   */\n    tag_165:\n        /* \"#utility.yul\":14754:14757   */\n      0x00\n        /* \"#utility.yul\":14775:14842   */\n      tag_330\n        /* \"#utility.yul\":14839:14841   */\n      0x27\n        /* \"#utility.yul\":14834:14837   */\n      dup4\n        /* \"#utility.yul\":14775:14842   */\n      tag_128\n      jump\t// in\n    tag_330:\n        /* \"#utility.yul\":14768:14842   */\n      swap2\n      pop\n        /* \"#utility.yul\":14851:14944   */\n      tag_331\n        /* \"#utility.yul\":14940:14943   */\n      dup3\n        /* \"#utility.yul\":14851:14944   */\n      tag_164\n      jump\t// in\n    tag_331:\n        /* \"#utility.yul\":14969:14971   */\n      0x40\n        /* \"#utility.yul\":14964:14967   */\n      dup3\n        /* \"#utility.yul\":14960:14972   */\n      add\n        /* \"#utility.yul\":14953:14972   */\n      swap1\n      pop\n        /* \"#utility.yul\":14612:14978   */\n      swap2\n      swap1\n      pop\n      jump\t// out\n        /* \"#utility.yul\":14984:15403   */\n    tag_62:\n        /* \"#utility.yul\":15150:15154   */\n      0x00\n        /* \"#utility.yul\":15188:15190   */\n      0x20\n        /* \"#utility.yul\":15177:15186   */\n      dup3\n        /* \"#utility.yul\":15173:15191   */\n      add\n        /* \"#utility.yul\":15165:15191   */\n      swap1\n      pop\n        /* \"#utility.yul\":15237:15246   */\n      dup2\n        /* \"#utility.yul\":15231:15235   */\n      dup2\n        /* \"#utility.yul\":15227:15247   */\n      sub\n        /* \"#utility.yul\":15223:15224   */\n      0x00\n        /* \"#utility.yul\":15212:15221   */\n      dup4\n        /* \"#utility.yul\":15208:15225   */\n      add\n        /* \"#utility.yul\":15201:15248   */\n      mstore\n        /* \"#utility.yul\":15265:15396   */\n      tag_333\n        /* \"#utility.yul\":15391:15395   */\n      dup2\n        /* \"#utility.yul\":15265:15396   */\n      tag_165\n      jump\t// in\n    tag_333:\n        /* \"#utility.yul\":15257:15396   */\n      swap1\n      pop\n        /* \"#utility.yul\":14984:15403   */\n      swap2\n      swap1\n      pop\n      jump\t// out\n        /* \"#utility.yul\":15409:15632   */\n    tag_166:\n        /* \"#utility.yul\":15549:15583   */\n      0x50726f6a6563742066756e64696e6720676f616c206e6f742072656163686564\n        /* \"#utility.yul\":15545:15546   */\n      0x00\n        /* \"#utility.yul\":15537:15543   */\n      dup3\n        /* \"#utility.yul\":15533:15547   */\n      add\n        /* \"#utility.yul\":15526:15584   */\n      mstore\n        /* \"#utility.yul\":15618:15624   */\n      0x2079657400000000000000000000000000000000000000000000000000000000\n        /* \"#utility.yul\":15613:15615   */\n      0x20\n        /* \"#utility.yul\":15605:15611   */\n      dup3\n        /* \"#utility.yul\":15601:15616   */\n      add\n        /* \"#utility.yul\":15594:15625   */\n      mstore\n        /* \"#utility.yul\":15409:15632   */\n      pop\n      jump\t// out\n        /* \"#utility.yul\":15638:16004   */\n    tag_167:\n        /* \"#utility.yul\":15780:15783   */\n      0x00\n        /* \"#utility.yul\":15801:15868   */\n      tag_336\n        /* \"#utility.yul\":15865:15867   */\n      0x24\n        /* \"#utility.yul\":15860:15863   */\n      dup4\n        /* \"#utility.yul\":15801:15868   */\n      tag_128\n      jump\t// in\n    tag_336:\n        /* \"#utility.yul\":15794:15868   */\n      swap2\n      pop\n        /* \"#utility.yul\":15877:15970   */\n      tag_337\n        /* \"#utility.yul\":15966:15969   */\n      dup3\n        /* \"#utility.yul\":15877:15970   */\n      tag_166\n      jump\t// in\n    tag_337:\n        /* \"#utility.yul\":15995:15997   */\n      0x40\n        /* \"#utility.yul\":15990:15993   */\n      dup3\n        /* \"#utility.yul\":15986:15998   */\n      add\n        /* \"#utility.yul\":15979:15998   */\n      swap1\n      pop\n        /* \"#utility.yul\":15638:16004   */\n      swap2\n      swap1\n      pop\n      jump\t// out\n        /* \"#utility.yul\":16010:16429   */\n    tag_65:\n        /* \"#utility.yul\":16176:16180   */\n      0x00\n        /* \"#utility.yul\":16214:16216   */\n      0x20\n        /* \"#utility.yul\":16203:16212   */\n      dup3\n        /* \"#utility.yul\":16199:16217   */\n      add\n        /* \"#utility.yul\":16191:16217   */\n      swap1\n      pop\n        /* \"#utility.yul\":16263:16272   */\n      dup2\n        /* \"#utility.yul\":16257:16261   */\n      dup2\n        /* \"#utility.yul\":16253:16273   */\n      sub\n        /* \"#utility.yul\":16249:16250   */\n      0x00\n        /* \"#utility.yul\":16238:16247   */\n      dup4\n        /* \"#utility.yul\":16234:16251   */\n      add\n        /* \"#utility.yul\":16227:16274   */\n      mstore\n        /* \"#utility.yul\":16291:16422   */\n      tag_339\n        /* \"#utility.yul\":16417:16421   */\n      dup2\n        /* \"#utility.yul\":16291:16422   */\n      tag_167\n      jump\t// in\n    tag_339:\n        /* \"#utility.yul\":16283:16422   */\n      swap1\n      pop\n        /* \"#utility.yul\":16010:16429   */\n      swap2\n      swap1\n      pop\n      jump\t// out\n        /* \"#utility.yul\":16435:16658   */\n    tag_168:\n        /* \"#utility.yul\":16575:16609   */\n      0x54617267657420616d6f756e74206d7573742062652067726561746572207468\n        /* \"#utility.yul\":16571:16572   */\n      0x00\n        /* \"#utility.yul\":16563:16569   */\n      dup3\n        /* \"#utility.yul\":16559:16573   */\n      add\n        /* \"#utility.yul\":16552:16610   */\n      mstore\n        /* \"#utility.yul\":16644:16650   */\n      0x616e203000000000000000000000000000000000000000000000000000000000\n        /* \"#utility.yul\":16639:16641   */\n      0x20\n        /* \"#utility.yul\":16631:16637   */\n      dup3\n        /* \"#utility.yul\":16627:16642   */\n      add\n        /* \"#utility.yul\":16620:16651   */\n      mstore\n        /* \"#utility.yul\":16435:16658   */\n      pop\n      jump\t// out\n        /* \"#utility.yul\":16664:17030   */\n    tag_169:\n        /* \"#utility.yul\":16806:16809   */\n      0x00\n        /* \"#utility.yul\":16827:16894   */\n      tag_342\n        /* \"#utility.yul\":16891:16893   */\n      0x24\n        /* \"#utility.yul\":16886:16889   */\n      dup4\n        /* \"#utility.yul\":16827:16894   */\n      tag_128\n      jump\t// in\n    tag_342:\n        /* \"#utility.yul\":16820:16894   */\n      swap2\n      pop\n        /* \"#utility.yul\":16903:16996   */\n      tag_343\n        /* \"#utility.yul\":16992:16995   */\n      dup3\n        /* \"#utility.yul\":16903:16996   */\n      tag_168\n      jump\t// in\n    tag_343:\n        /* \"#utility.yul\":17021:17023   */\n      0x40\n        /* \"#utility.yul\":17016:17019   */\n      dup3\n        /* \"#utility.yul\":17012:17024   */\n      add\n        /* \"#utility.yul\":17005:17024   */\n      swap1\n      pop\n        /* \"#utility.yul\":16664:17030   */\n      swap2\n      swap1\n      pop\n      jump\t// out\n        /* \"#utility.yul\":17036:17455   */\n    tag_71:\n        /* \"#utility.yul\":17202:17206   */\n      0x00\n        /* \"#utility.yul\":17240:17242   */\n      0x20\n        /* \"#utility.yul\":17229:17238   */\n      dup3\n        /* \"#utility.yul\":17225:17243   */\n      add\n        /* \"#utility.yul\":17217:17243   */\n      swap1\n      pop\n        /* \"#utility.yul\":17289:17298   */\n      dup2\n        /* \"#utility.yul\":17283:17287   */\n      dup2\n        /* \"#utility.yul\":17279:17299   */\n      sub\n        /* \"#utility.yul\":17275:17276   */\n      0x00\n        /* \"#utility.yul\":17264:17273   */\n      dup4\n        /* \"#utility.yul\":17260:17277   */\n      add\n        /* \"#utility.yul\":17253:17300   */\n      mstore\n        /* \"#utility.yul\":17317:17448   */\n      tag_345\n        /* \"#utility.yul\":17443:17447   */\n      dup2\n        /* \"#utility.yul\":17317:17448   */\n      tag_169\n      jump\t// in\n    tag_345:\n        /* \"#utility.yul\":17309:17448   */\n      swap1\n      pop\n        /* \"#utility.yul\":17036:17455   */\n      swap2\n      swap1\n      pop\n      jump\t// out\n        /* \"#utility.yul\":17461:17614   */\n    tag_170:\n        /* \"#utility.yul\":17601:17606   */\n      0x50544b0000000000000000000000000000000000000000000000000000000000\n        /* \"#utility.yul\":17597:17598   */\n      0x00\n        /* \"#utility.yul\":17589:17595   */\n      dup3\n        /* \"#utility.yul\":17585:17599   */\n      add\n        /* \"#utility.yul\":17578:17607   */\n      mstore\n        /* \"#utility.yul\":17461:17614   */\n      pop\n      jump\t// out\n        /* \"#utility.yul\":17620:17985   */\n    tag_171:\n        /* \"#utility.yul\":17762:17765   */\n      0x00\n        /* \"#utility.yul\":17783:17849   */\n      tag_348\n        /* \"#utility.yul\":17847:17848   */\n      0x03\n        /* \"#utility.yul\":17842:17845   */\n      dup4\n        /* \"#utility.yul\":17783:17849   */\n      tag_128\n      jump\t// in\n    tag_348:\n        /* \"#utility.yul\":17776:17849   */\n      swap2\n      pop\n        /* \"#utility.yul\":17858:17951   */\n      tag_349\n        /* \"#utility.yul\":17947:17950   */\n      dup3\n        /* \"#utility.yul\":17858:17951   */\n      tag_170\n      jump\t// in\n    tag_349:\n        /* \"#utility.yul\":17976:17978   */\n      0x20\n        /* \"#utility.yul\":17971:17974   */\n      dup3\n        /* \"#utility.yul\":17967:17979   */\n      add\n        /* \"#utility.yul\":17960:17979   */\n      swap1\n      pop\n        /* \"#utility.yul\":17620:17985   */\n      swap2\n      swap1\n      pop\n      jump\t// out\n        /* \"#utility.yul\":17991:18611   */\n    tag_75:\n        /* \"#utility.yul\":18205:18209   */\n      0x00\n        /* \"#utility.yul\":18243:18245   */\n      0x40\n        /* \"#utility.yul\":18232:18241   */\n      dup3\n        /* \"#utility.yul\":18228:18246   */\n      add\n        /* \"#utility.yul\":18220:18246   */\n      swap1\n      pop\n        /* \"#utility.yul\":18292:18301   */\n      dup2\n        /* \"#utility.yul\":18286:18290   */\n      dup2\n        /* \"#utility.yul\":18282:18302   */\n      sub\n        /* \"#utility.yul\":18278:18279   */\n      0x00\n        /* \"#utility.yul\":18267:18276   */\n      dup4\n        /* \"#utility.yul\":18263:18280   */\n      add\n        /* \"#utility.yul\":18256:18303   */\n      mstore\n        /* \"#utility.yul\":18320:18398   */\n      tag_351\n        /* \"#utility.yul\":18393:18397   */\n      dup2\n        /* \"#utility.yul\":18384:18390   */\n      dup5\n        /* \"#utility.yul\":18320:18398   */\n      tag_131\n      jump\t// in\n    tag_351:\n        /* \"#utility.yul\":18312:18398   */\n      swap1\n      pop\n        /* \"#utility.yul\":18445:18454   */\n      dup2\n        /* \"#utility.yul\":18439:18443   */\n      dup2\n        /* \"#utility.yul\":18435:18455   */\n      sub\n        /* \"#utility.yul\":18430:18432   */\n      0x20\n        /* \"#utility.yul\":18419:18428   */\n      dup4\n        /* \"#utility.yul\":18415:18433   */\n      add\n        /* \"#utility.yul\":18408:18456   */\n      mstore\n        /* \"#utility.yul\":18473:18604   */\n      tag_352\n        /* \"#utility.yul\":18599:18603   */\n      dup2\n        /* \"#utility.yul\":18473:18604   */\n      tag_171\n      jump\t// in\n    tag_352:\n        /* \"#utility.yul\":18465:18604   */\n      swap1\n      pop\n        /* \"#utility.yul\":17991:18611   */\n      swap3\n      swap2\n      pop\n      pop\n      jump\t// out\n        /* \"#utility.yul\":18617:18758   */\n    tag_172:\n        /* \"#utility.yul\":18666:18670   */\n      0x00\n        /* \"#utility.yul\":18689:18692   */\n      dup2\n        /* \"#utility.yul\":18681:18692   */\n      swap1\n      pop\n        /* \"#utility.yul\":18712:18715   */\n      dup2\n        /* \"#utility.yul\":18709:18710   */\n      0x00\n        /* \"#utility.yul\":18702:18716   */\n      mstore\n        /* \"#utility.yul\":18746:18750   */\n      0x20\n        /* \"#utility.yul\":18743:18744   */\n      0x00\n        /* \"#utility.yul\":18733:18751   */\n      keccak256\n        /* \"#utility.yul\":18725:18751   */\n      swap1\n      pop\n        /* \"#utility.yul\":18617:18758   */\n      swap2\n      swap1\n      pop\n      jump\t// out\n        /* \"#utility.yul\":18764:18857   */\n    tag_173:\n        /* \"#utility.yul\":18801:18807   */\n      0x00\n        /* \"#utility.yul\":18848:18850   */\n      0x20\n        /* \"#utility.yul\":18843:18845   */\n      0x1f\n        /* \"#utility.yul\":18836:18841   */\n      dup4\n        /* \"#utility.yul\":18832:18846   */\n      add\n        /* \"#utility.yul\":18828:18851   */\n      div\n        /* \"#utility.yul\":18818:18851   */\n      swap1\n      pop\n        /* \"#utility.yul\":18764:18857   */\n      swap2\n      swap1\n      pop\n      jump\t// out\n        /* \"#utility.yul\":18863:18970   */\n    tag_174:\n        /* \"#utility.yul\":18907:18915   */\n      0x00\n        /* \"#utility.yul\":18957:18962   */\n      dup3\n        /* \"#utility.yul\":18951:18955   */\n      dup3\n        /* \"#utility.yul\":18947:18963   */\n      shl\n        /* \"#utility.yul\":18926:18963   */\n      swap1\n      pop\n        /* \"#utility.yul\":18863:18970   */\n      swap3\n      swap2\n      pop\n      pop\n      jump\t// out\n        /* \"#utility.yul\":18976:19369   */\n    tag_175:\n        /* \"#utility.yul\":19045:19051   */\n      0x00\n        /* \"#utility.yul\":19095:19096   */\n      0x08\n        /* \"#utility.yul\":19083:19093   */\n      dup4\n        /* \"#utility.yul\":19079:19097   */\n      mul\n        /* \"#utility.yul\":19118:19215   */\n      tag_357\n        /* \"#utility.yul\":19148:19214   */\n      0xffffffffffffffffffffffffffffffffffffffffffffffffffffffffffffffff\n        /* \"#utility.yul\":19137:19146   */\n      dup3\n        /* \"#utility.yul\":19118:19215   */\n      tag_174\n      jump\t// in\n    tag_357:\n        /* \"#utility.yul\":19236:19275   */\n      tag_358\n        /* \"#utility.yul\":19266:19274   */\n      dup7\n        /* \"#utility.yul\":19255:19264   */\n      dup4\n        /* \"#utility.yul\":19236:19275   */\n      tag_174\n      jump\t// in\n    tag_358:\n        /* \"#utility.yul\":19224:19275   */\n      swap6\n      pop\n        /* \"#utility.yul\":19308:19312   */\n      dup1\n        /* \"#utility.yul\":19304:19313   */\n      not\n        /* \"#utility.yul\":19297:19302   */\n      dup5\n        /* \"#utility.yul\":19293:19314   */\n      and\n        /* \"#utility.yul\":19284:19314   */\n      swap4\n      pop\n        /* \"#utility.yul\":19357:19361   */\n      dup1\n        /* \"#utility.yul\":19347:19355   */\n      dup7\n        /* \"#utility.yul\":19343:19362   */\n      and\n        /* \"#utility.yul\":19336:19341   */\n      dup5\n        /* \"#utility.yul\":19333:19363   */\n      or\n        /* \"#utility.yul\":19323:19363   */\n      swap3\n      pop\n        /* \"#utility.yul\":19052:19369   */\n      pop\n      pop\n        /* \"#utility.yul\":18976:19369   */\n      swap4\n      swap3\n      pop\n      pop\n      pop\n      jump\t// out\n        /* \"#utility.yul\":19375:19435   */\n    tag_176:\n        /* \"#utility.yul\":19403:19406   */\n      0x00\n        /* \"#utility.yul\":19424:19429   */\n      dup2\n        /* \"#utility.yul\":19417:19429   */\n      swap1\n      pop\n        /* \"#utility.yul\":19375:19435   */\n      swap2\n      swap1\n      pop\n      jump\t// out\n        /* \"#utility.yul\":19441:19583   */\n    tag_177:\n        /* \"#utility.yul\":19491:19500   */\n      0x00\n        /* \"#utility.yul\":19524:19577   */\n      tag_361\n        /* \"#utility.yul\":19542:19576   */\n      tag_362\n        /* \"#utility.yul\":19551:19575   */\n      tag_363\n        /* \"#utility.yul\":19569:19574   */\n      dup5\n        /* \"#utility.yul\":19551:19575   */\n      tag_124\n      jump\t// in\n    tag_363:\n        /* \"#utility.yul\":19542:19576   */\n      tag_176\n      jump\t// in\n    tag_362:\n        /* \"#utility.yul\":19524:19577   */\n      tag_124\n      jump\t// in\n    tag_361:\n        /* \"#utility.yul\":19511:19577   */\n      swap1\n      pop\n        /* \"#utility.yul\":19441:19583   */\n      swap2\n      swap1\n      pop\n      jump\t// out\n        /* \"#utility.yul\":19589:19664   */\n    tag_178:\n        /* \"#utility.yul\":19632:19635   */\n      0x00\n        /* \"#utility.yul\":19653:19658   */\n      dup2\n        /* \"#utility.yul\":19646:19658   */\n      swap1\n      pop\n        /* \"#utility.yul\":19589:19664   */\n      swap2\n      swap1\n      pop\n      jump\t// out\n        /* \"#utility.yul\":19670:19939   */\n    tag_179:\n        /* \"#utility.yul\":19780:19819   */\n      tag_366\n        /* \"#utility.yul\":19811:19818   */\n      dup4\n        /* \"#utility.yul\":19780:19819   */\n      tag_177\n      jump\t// in\n    tag_366:\n        /* \"#utility.yul\":19841:19932   */\n      tag_367\n        /* \"#utility.yul\":19890:19931   */\n      tag_368\n        /* \"#utility.yul\":19914:19930   */\n      dup3\n        /* \"#utility.yul\":19890:19931   */\n      tag_178\n      jump\t// in\n    tag_368:\n        /* \"#utility.yul\":19882:19888   */\n      dup5\n        /* \"#utility.yul\":19875:19879   */\n      dup5\n        /* \"#utility.yul\":19869:19880   */\n      sload\n        /* \"#utility.yul\":19841:19932   */\n      tag_175\n      jump\t// in\n    tag_367:\n        /* \"#utility.yul\":19835:19839   */\n      dup3\n        /* \"#utility.yul\":19828:19933   */\n      sstore\n        /* \"#utility.yul\":19746:19939   */\n      pop\n        /* \"#utility.yul\":19670:19939   */\n      pop\n      pop\n      pop\n      jump\t// out\n        /* \"#utility.yul\":19945:20018   */\n    tag_180:\n        /* \"#utility.yul\":19990:19993   */\n      0x00\n        /* \"#utility.yul\":19945:20018   */\n      swap1\n      jump\t// out\n        /* \"#utility.yul\":20024:20213   */\n    tag_181:\n        /* \"#utility.yul\":20101:20133   */\n      tag_371\n      tag_180\n      jump\t// in\n    tag_371:\n        /* \"#utility.yul\":20142:20207   */\n      tag_372\n        /* \"#utility.yul\":20200:20206   */\n      dup2\n        /* \"#utility.yul\":20192:20198   */\n      dup5\n        /* \"#utility.yul\":20186:20190   */\n      dup5\n        /* \"#utility.yul\":20142:20207   */\n      tag_179\n      jump\t// in\n    tag_372:\n        /* \"#utility.yul\":20077:20213   */\n      pop\n        /* \"#utility.yul\":20024:20213   */\n      pop\n      pop\n      jump\t// out\n        /* \"#utility.yul\":20219:20405   */\n    tag_182:\n        /* \"#utility.yul\":20279:20399   */\n    tag_374:\n        /* \"#utility.yul\":20296:20299   */\n      dup2\n        /* \"#utility.yul\":20289:20294   */\n      dup2\n        /* \"#utility.yul\":20286:20300   */\n      lt\n        /* \"#utility.yul\":20279:20399   */\n      iszero\n      tag_376\n      jumpi\n        /* \"#utility.yul\":20350:20389   */\n      tag_377\n        /* \"#utility.yul\":20387:20388   */\n      0x00\n        /* \"#utility.yul\":20380:20385   */\n      dup3\n        /* \"#utility.yul\":20350:20389   */\n      tag_181\n      jump\t// in\n    tag_377:\n        /* \"#utility.yul\":20323:20324   */\n      0x01\n        /* \"#utility.yul\":20316:20321   */\n      dup2\n        /* \"#utility.yul\":20312:20325   */\n      add\n        /* \"#utility.yul\":20303:20325   */\n      swap1\n      pop\n        /* \"#utility.yul\":20279:20399   */\n      jump(tag_374)\n    tag_376:\n        /* \"#utility.yul\":20219:20405   */\n      pop\n      pop\n      jump\t// out\n        /* \"#utility.yul\":20411:20954   */\n    tag_183:\n        /* \"#utility.yul\":20512:20514   */\n      0x1f\n        /* \"#utility.yul\":20507:20510   */\n      dup3\n        /* \"#utility.yul\":20504:20515   */\n      gt\n        /* \"#utility.yul\":20501:20947   */\n      iszero\n      tag_379\n      jumpi\n        /* \"#utility.yul\":20546:20584   */\n      tag_380\n        /* \"#utility.yul\":20578:20583   */\n      dup2\n        /* \"#utility.yul\":20546:20584   */\n      tag_172\n      jump\t// in\n    tag_380:\n        /* \"#utility.yul\":20630:20659   */\n      tag_381\n        /* \"#utility.yul\":20648:20658   */\n      dup5\n        /* \"#utility.yul\":20630:20659   */\n      tag_173\n      jump\t// in\n    tag_381:\n        /* \"#utility.yul\":20620:20628   */\n      dup2\n        /* \"#utility.yul\":20616:20660   */\n      add\n        /* \"#utility.yul\":20813:20815   */\n      0x20\n        /* \"#utility.yul\":20801:20811   */\n      dup6\n        /* \"#utility.yul\":20798:20816   */\n      lt\n        /* \"#utility.yul\":20795:20844   */\n      iszero\n      tag_382\n      jumpi\n        /* \"#utility.yul\":20834:20842   */\n      dup2\n        /* \"#utility.yul\":20819:20842   */\n      swap1\n      pop\n        /* \"#utility.yul\":20795:20844   */\n    tag_382:\n        /* \"#utility.yul\":20857:20937   */\n      tag_383\n        /* \"#utility.yul\":20913:20935   */\n      tag_384\n        /* \"#utility.yul\":20931:20934   */\n      dup6\n        /* \"#utility.yul\":20913:20935   */\n      tag_173\n      jump\t// in\n    tag_384:\n        /* \"#utility.yul\":20903:20911   */\n      dup4\n        /* \"#utility.yul\":20899:20936   */\n      add\n        /* \"#utility.yul\":20886:20897   */\n      dup3\n        /* \"#utility.yul\":20857:20937   */\n      tag_182\n      jump\t// in\n    tag_383:\n        /* \"#utility.yul\":20516:20947   */\n      pop\n      pop\n        /* \"#utility.yul\":20501:20947   */\n    tag_379:\n        /* \"#utility.yul\":20411:20954   */\n      pop\n      pop\n      pop\n      jump\t// out\n        /* \"#utility.yul\":20960:21077   */\n    tag_184:\n        /* \"#utility.yul\":21014:21022   */\n      0x00\n        /* \"#utility.yul\":21064:21069   */\n      dup3\n        /* \"#utility.yul\":21058:21062   */\n      dup3\n        /* \"#utility.yul\":21054:21070   */\n      shr\n        /* \"#utility.yul\":21033:21070   */\n      swap1\n      pop\n        /* \"#utility.yul\":20960:21077   */\n      swap3\n      swap2\n      pop\n      pop\n      jump\t// out\n        /* \"#utility.yul\":21083:21252   */\n    tag_185:\n        /* \"#utility.yul\":21127:21133   */\n      0x00\n        /* \"#utility.yul\":21160:21211   */\n      tag_387\n        /* \"#utility.yul\":21208:21209   */\n      0x00\n        /* \"#utility.yul\":21204:21210   */\n      not\n        /* \"#utility.yul\":21196:21201   */\n      dup5\n        /* \"#utility.yul\":21193:21194   */\n      0x08\n        /* \"#utility.yul\":21189:21202   */\n      mul\n        /* \"#utility.yul\":21160:21211   */\n      tag_184\n      jump\t// in\n    tag_387:\n        /* \"#utility.yul\":21156:21212   */\n      not\n        /* \"#utility.yul\":21241:21245   */\n      dup1\n        /* \"#utility.yul\":21235:21239   */\n      dup4\n        /* \"#utility.yul\":21231:21246   */\n      and\n        /* \"#utility.yul\":21221:21246   */\n      swap2\n      pop\n        /* \"#utility.yul\":21134:21252   */\n      pop\n        /* \"#utility.yul\":21083:21252   */\n      swap3\n      swap2\n      pop\n      pop\n      jump\t// out\n        /* \"#utility.yul\":21257:21552   */\n    tag_186:\n        /* \"#utility.yul\":21333:21337   */\n      0x00\n        /* \"#utility.yul\":21479:21508   */\n      tag_389\n        /* \"#utility.yul\":21504:21507   */\n      dup4\n        /* \"#utility.yul\":21498:21502   */\n      dup4\n        /* \"#utility.yul\":21479:21508   */\n      tag_185\n      jump\t// in\n    tag_389:\n        /* \"#utility.yul\":21471:21508   */\n      swap2\n      pop\n        /* \"#utility.yul\":21541:21544   */\n      dup3\n        /* \"#utility.yul\":21538:21539   */\n      0x02\n        /* \"#utility.yul\":21534:21545   */\n      mul\n        /* \"#utility.yul\":21528:21532   */\n      dup3\n        /* \"#utility.yul\":21525:21546   */\n      or\n        /* \"#utility.yul\":21517:21546   */\n      swap1\n      pop\n        /* \"#utility.yul\":21257:21552   */\n      swap3\n      swap2\n      pop\n      pop\n      jump\t// out\n        /* \"#utility.yul\":21557:22952   */\n    tag_79:\n        /* \"#utility.yul\":21674:21711   */\n      tag_391\n        /* \"#utility.yul\":21707:21710   */\n      dup3\n        /* \"#utility.yul\":21674:21711   */\n      tag_127\n      jump\t// in\n    tag_391:\n        /* \"#utility.yul\":21776:21794   */\n      0xffffffffffffffff\n        /* \"#utility.yul\":21768:21774   */\n      dup2\n        /* \"#utility.yul\":21765:21795   */\n      gt\n        /* \"#utility.yul\":21762:21818   */\n      iszero\n      tag_392\n      jumpi\n        /* \"#utility.yul\":21798:21816   */\n      tag_393\n      tag_140\n      jump\t// in\n    tag_393:\n        /* \"#utility.yul\":21762:21818   */\n    tag_392:\n        /* \"#utility.yul\":21842:21880   */\n      tag_394\n        /* \"#utility.yul\":21874:21878   */\n      dup3\n        /* \"#utility.yul\":21868:21879   */\n      sload\n        /* \"#utility.yul\":21842:21880   */\n      tag_42\n      jump\t// in\n    tag_394:\n        /* \"#utility.yul\":21927:21994   */\n      tag_395\n        /* \"#utility.yul\":21987:21993   */\n      dup3\n        /* \"#utility.yul\":21979:21985   */\n      dup3\n        /* \"#utility.yul\":21973:21977   */\n      dup6\n        /* \"#utility.yul\":21927:21994   */\n      tag_183\n      jump\t// in\n    tag_395:\n        /* \"#utility.yul\":22021:22022   */\n      0x00\n        /* \"#utility.yul\":22045:22049   */\n      0x20\n        /* \"#utility.yul\":22032:22049   */\n      swap1\n      pop\n        /* \"#utility.yul\":22077:22079   */\n      0x1f\n        /* \"#utility.yul\":22069:22075   */\n      dup4\n        /* \"#utility.yul\":22066:22080   */\n      gt\n        /* \"#utility.yul\":22094:22095   */\n      0x01\n        /* \"#utility.yul\":22089:22707   */\n      dup2\n      eq\n      tag_397\n      jumpi\n        /* \"#utility.yul\":22751:22752   */\n      0x00\n        /* \"#utility.yul\":22768:22774   */\n      dup5\n        /* \"#utility.yul\":22765:22842   */\n      iszero\n      tag_398\n      jumpi\n        /* \"#utility.yul\":22817:22826   */\n      dup3\n        /* \"#utility.yul\":22812:22815   */\n      dup8\n        /* \"#utility.yul\":22808:22827   */\n      add\n        /* \"#utility.yul\":22802:22828   */\n      mload\n        /* \"#utility.yul\":22793:22828   */\n      swap1\n      pop\n        /* \"#utility.yul\":22765:22842   */\n    tag_398:\n        /* \"#utility.yul\":22868:22935   */\n      tag_399\n        /* \"#utility.yul\":22928:22934   */\n      dup6\n        /* \"#utility.yul\":22921:22926   */\n      dup3\n        /* \"#utility.yul\":22868:22935   */\n      tag_186\n      jump\t// in\n    tag_399:\n        /* \"#utility.yul\":22862:22866   */\n      dup7\n        /* \"#utility.yul\":22855:22936   */\n      sstore\n        /* \"#utility.yul\":22724:22946   */\n      pop\n        /* \"#utility.yul\":22059:22946   */\n      jump(tag_396)\n        /* \"#utility.yul\":22089:22707   */\n    tag_397:\n        /* \"#utility.yul\":22141:22145   */\n      0x1f\n        /* \"#utility.yul\":22137:22146   */\n      not\n        /* \"#utility.yul\":22129:22135   */\n      dup5\n        /* \"#utility.yul\":22125:22147   */\n      and\n        /* \"#utility.yul\":22175:22212   */\n      tag_400\n        /* \"#utility.yul\":22207:22211   */\n      dup7\n        /* \"#utility.yul\":22175:22212   */\n      tag_172\n      jump\t// in\n    tag_400:\n        /* \"#utility.yul\":22234:22235   */\n      0x00\n        /* \"#utility.yul\":22248:22456   */\n    tag_401:\n        /* \"#utility.yul\":22262:22269   */\n      dup3\n        /* \"#utility.yul\":22259:22260   */\n      dup2\n        /* \"#utility.yul\":22256:22270   */\n      lt\n        /* \"#utility.yul\":22248:22456   */\n      iszero\n      tag_403\n      jumpi\n        /* \"#utility.yul\":22341:22350   */\n      dup5\n        /* \"#utility.yul\":22336:22339   */\n      dup10\n        /* \"#utility.yul\":22332:22351   */\n      add\n        /* \"#utility.yul\":22326:22352   */\n      mload\n        /* \"#utility.yul\":22318:22324   */\n      dup3\n        /* \"#utility.yul\":22311:22353   */\n      sstore\n        /* \"#utility.yul\":22392:22393   */\n      0x01\n        /* \"#utility.yul\":22384:22390   */\n      dup3\n        /* \"#utility.yul\":22380:22394   */\n      add\n        /* \"#utility.yul\":22370:22394   */\n      swap2\n      pop\n        /* \"#utility.yul\":22439:22441   */\n      0x20\n        /* \"#utility.yul\":22428:22437   */\n      dup6\n        /* \"#utility.yul\":22424:22442   */\n      add\n        /* \"#utility.yul\":22411:22442   */\n      swap5\n      pop\n        /* \"#utility.yul\":22285:22289   */\n      0x20\n        /* \"#utility.yul\":22282:22283   */\n      dup2\n        /* \"#utility.yul\":22278:22290   */\n      add\n        /* \"#utility.yul\":22273:22290   */\n      swap1\n      pop\n        /* \"#utility.yul\":22248:22456   */\n      jump(tag_401)\n    tag_403:\n        /* \"#utility.yul\":22484:22490   */\n      dup7\n        /* \"#utility.yul\":22475:22482   */\n      dup4\n        /* \"#utility.yul\":22472:22491   */\n      lt\n        /* \"#utility.yul\":22469:22648   */\n      iszero\n      tag_404\n      jumpi\n        /* \"#utility.yul\":22542:22551   */\n      dup5\n        /* \"#utility.yul\":22537:22540   */\n      dup10\n        /* \"#utility.yul\":22533:22552   */\n      add\n        /* \"#utility.yul\":22527:22553   */\n      mload\n        /* \"#utility.yul\":22585:22633   */\n      tag_405\n        /* \"#utility.yul\":22627:22631   */\n      0x1f\n        /* \"#utility.yul\":22619:22625   */\n      dup10\n        /* \"#utility.yul\":22615:22632   */\n      and\n        /* \"#utility.yul\":22604:22613   */\n      dup3\n        /* \"#utility.yul\":22585:22633   */\n      tag_185\n      jump\t// in\n    tag_405:\n        /* \"#utility.yul\":22577:22583   */\n      dup4\n        /* \"#utility.yul\":22570:22634   */\n      sstore\n        /* \"#utility.yul\":22492:22648   */\n      pop\n        /* \"#utility.yul\":22469:22648   */\n    tag_404:\n        /* \"#utility.yul\":22694:22695   */\n      0x01\n        /* \"#utility.yul\":22690:22691   */\n      0x02\n        /* \"#utility.yul\":22682:22688   */\n      dup9\n        /* \"#utility.yul\":22678:22692   */\n      mul\n        /* \"#utility.yul\":22674:22696   */\n      add\n        /* \"#utility.yul\":22668:22672   */\n      dup9\n        /* \"#utility.yul\":22661:22697   */\n      sstore\n        /* \"#utility.yul\":22096:22707   */\n      pop\n      pop\n      pop\n        /* \"#utility.yul\":22059:22946   */\n    tag_396:\n      pop\n        /* \"#utility.yul\":21649:22952   */\n      pop\n      pop\n      pop\n        /* \"#utility.yul\":21557:22952   */\n      pop\n      pop\n      jump\t// out\n        /* \"#utility.yul\":22958:23138   */\n    tag_187:\n        /* \"#utility.yul\":23006:23083   */\n      0x4e487b7100000000000000000000000000000000000000000000000000000000\n        /* \"#utility.yul\":23003:23004   */\n      0x00\n        /* \"#utility.yul\":22996:23084   */\n      mstore\n        /* \"#utility.yul\":23103:23107   */\n      0x11\n        /* \"#utility.yul\":23100:23101   */\n      0x04\n        /* \"#utility.yul\":23093:23108   */\n      mstore\n        /* \"#utility.yul\":23127:23131   */\n      0x24\n        /* \"#utility.yul\":23124:23125   */\n      0x00\n        /* \"#utility.yul\":23117:23132   */\n      revert\n        /* \"#utility.yul\":23144:23338   */\n    tag_82:\n        /* \"#utility.yul\":23184:23188   */\n      0x00\n        /* \"#utility.yul\":23204:23224   */\n      tag_408\n        /* \"#utility.yul\":23222:23223   */\n      dup3\n        /* \"#utility.yul\":23204:23224   */\n      tag_124\n      jump\t// in\n    tag_408:\n        /* \"#utility.yul\":23199:23224   */\n      swap2\n      pop\n        /* \"#utility.yul\":23238:23258   */\n      tag_409\n        /* \"#utility.yul\":23256:23257   */\n      dup4\n        /* \"#utility.yul\":23238:23258   */\n      tag_124\n      jump\t// in\n    tag_409:\n        /* \"#utility.yul\":23233:23258   */\n      swap3\n      pop\n        /* \"#utility.yul\":23282:23283   */\n      dup3\n        /* \"#utility.yul\":23279:23280   */\n      dup3\n        /* \"#utility.yul\":23275:23284   */\n      sub\n        /* \"#utility.yul\":23267:23284   */\n      swap1\n      pop\n        /* \"#utility.yul\":23306:23307   */\n      dup2\n        /* \"#utility.yul\":23300:23304   */\n      dup2\n        /* \"#utility.yul\":23297:23308   */\n      gt\n        /* \"#utility.yul\":23294:23331   */\n      iszero\n      tag_410\n      jumpi\n        /* \"#utility.yul\":23311:23329   */\n      tag_411\n      tag_187\n      jump\t// in\n    tag_411:\n        /* \"#utility.yul\":23294:23331   */\n    tag_410:\n        /* \"#utility.yul\":23144:23338   */\n      swap3\n      swap2\n      pop\n      pop\n      jump\t// out\n        /* \"#utility.yul\":23344:23877   */\n    tag_84:\n        /* \"#utility.yul\":23513:23517   */\n      0x00\n        /* \"#utility.yul\":23551:23553   */\n      0x60\n        /* \"#utility.yul\":23540:23549   */\n      dup3\n        /* \"#utility.yul\":23536:23554   */\n      add\n        /* \"#utility.yul\":23528:23554   */\n      swap1\n      pop\n        /* \"#utility.yul\":23600:23609   */\n      dup2\n        /* \"#utility.yul\":23594:23598   */\n      dup2\n        /* \"#utility.yul\":23590:23610   */\n      sub\n        /* \"#utility.yul\":23586:23587   */\n      0x00\n        /* \"#utility.yul\":23575:23584   */\n      dup4\n        /* \"#utility.yul\":23571:23588   */\n      add\n        /* \"#utility.yul\":23564:23611   */\n      mstore\n        /* \"#utility.yul\":23628:23706   */\n      tag_413\n        /* \"#utility.yul\":23701:23705   */\n      dup2\n        /* \"#utility.yul\":23692:23698   */\n      dup7\n        /* \"#utility.yul\":23628:23706   */\n      tag_131\n      jump\t// in\n    tag_413:\n        /* \"#utility.yul\":23620:23706   */\n      swap1\n      pop\n        /* \"#utility.yul\":23716:23788   */\n      tag_414\n        /* \"#utility.yul\":23784:23786   */\n      0x20\n        /* \"#utility.yul\":23773:23782   */\n      dup4\n        /* \"#utility.yul\":23769:23787   */\n      add\n        /* \"#utility.yul\":23760:23766   */\n      dup6\n        /* \"#utility.yul\":23716:23788   */\n      tag_134\n      jump\t// in\n    tag_414:\n        /* \"#utility.yul\":23798:23870   */\n      tag_415\n        /* \"#utility.yul\":23866:23868   */\n      0x40\n        /* \"#utility.yul\":23855:23864   */\n      dup4\n        /* \"#utility.yul\":23851:23869   */\n      add\n        /* \"#utility.yul\":23842:23848   */\n      dup5\n        /* \"#utility.yul\":23798:23870   */\n      tag_135\n      jump\t// in\n    tag_415:\n        /* \"#utility.yul\":23344:23877   */\n      swap5\n      swap4\n      pop\n      pop\n      pop\n      pop\n      jump\t// out\n        /* \"#utility.yul\":23883:24060   */\n    tag_188:\n        /* \"#utility.yul\":24023:24052   */\n      0x50726f6a656374206973206e6f206c6f6e676572206163746976650000000000\n        /* \"#utility.yul\":24019:24020   */\n      0x00\n        /* \"#utility.yul\":24011:24017   */\n      dup3\n        /* \"#utility.yul\":24007:24021   */\n      add\n        /* \"#utility.yul\":24000:24053   */\n      mstore\n        /* \"#utility.yul\":23883:24060   */\n      pop\n      jump\t// out\n        /* \"#utility.yul\":24066:24432   */\n    tag_189:\n        /* \"#utility.yul\":24208:24211   */\n      0x00\n        /* \"#utility.yul\":24229:24296   */\n      tag_418\n        /* \"#utility.yul\":24293:24295   */\n      0x1b\n        /* \"#utility.yul\":24288:24291   */\n      dup4\n        /* \"#utility.yul\":24229:24296   */\n      tag_128\n      jump\t// in\n    tag_418:\n        /* \"#utility.yul\":24222:24296   */\n      swap2\n      pop\n        /* \"#utility.yul\":24305:24398   */\n      tag_419\n        /* \"#utility.yul\":24394:24397   */\n      dup3\n        /* \"#utility.yul\":24305:24398   */\n      tag_188\n      jump\t// in\n    tag_419:\n        /* \"#utility.yul\":24423:24425   */\n      0x20\n        /* \"#utility.yul\":24418:24421   */\n      dup3\n        /* \"#utility.yul\":24414:24426   */\n      add\n        /* \"#utility.yul\":24407:24426   */\n      swap1\n      pop\n        /* \"#utility.yul\":24066:24432   */\n      swap2\n      swap1\n      pop\n      jump\t// out\n        /* \"#utility.yul\":24438:24857   */\n    tag_93:\n        /* \"#utility.yul\":24604:24608   */\n      0x00\n        /* \"#utility.yul\":24642:24644   */\n      0x20\n        /* \"#utility.yul\":24631:24640   */\n      dup3\n        /* \"#utility.yul\":24627:24645   */\n      add\n        /* \"#utility.yul\":24619:24645   */\n      swap1\n      pop\n        /* \"#utility.yul\":24691:24700   */\n      dup2\n        /* \"#utility.yul\":24685:24689   */\n      dup2\n        /* \"#utility.yul\":24681:24701   */\n      sub\n        /* \"#utility.yul\":24677:24678   */\n      0x00\n        /* \"#utility.yul\":24666:24675   */\n      dup4\n        /* \"#utility.yul\":24662:24679   */\n      add\n        /* \"#utility.yul\":24655:24702   */\n      mstore\n        /* \"#utility.yul\":24719:24850   */\n      tag_421\n        /* \"#utility.yul\":24845:24849   */\n      dup2\n        /* \"#utility.yul\":24719:24850   */\n      tag_189\n      jump\t// in\n    tag_421:\n        /* \"#utility.yul\":24711:24850   */\n      swap1\n      pop\n        /* \"#utility.yul\":24438:24857   */\n      swap2\n      swap1\n      pop\n      jump\t// out\n        /* \"#utility.yul\":24863:25085   */\n    tag_190:\n        /* \"#utility.yul\":25003:25037   */\n      0x436f6e747269627574696f6e206d757374206265206772656174657220746861\n        /* \"#utility.yul\":24999:25000   */\n      0x00\n        /* \"#utility.yul\":24991:24997   */\n      dup3\n        /* \"#utility.yul\":24987:25001   */\n      add\n        /* \"#utility.yul\":24980:25038   */\n      mstore\n        /* \"#utility.yul\":25072:25077   */\n      0x6e20300000000000000000000000000000000000000000000000000000000000\n        /* \"#utility.yul\":25067:25069   */\n      0x20\n        /* \"#utility.yul\":25059:25065   */\n      dup3\n        /* \"#utility.yul\":25055:25070   */\n      add\n        /* \"#utility.yul\":25048:25078   */\n      mstore\n        /* \"#utility.yul\":24863:25085   */\n      pop\n      jump\t// out\n        /* \"#utility.yul\":25091:25457   */\n    tag_191:\n        /* \"#utility.yul\":25233:25236   */\n      0x00\n        /* \"#utility.yul\":25254:25321   */\n      tag_424\n        /* \"#utility.yul\":25318:25320   */\n      0x23\n        /* \"#utility.yul\":25313:25316   */\n      dup4\n        /* \"#utility.yul\":25254:25321   */\n      tag_128\n      jump\t// in\n    tag_424:\n        /* \"#utility.yul\":25247:25321   */\n      swap2\n      pop\n        /* \"#utility.yul\":25330:25423   */\n      tag_425\n        /* \"#utility.yul\":25419:25422   */\n      dup3\n        /* \"#utility.yul\":25330:25423   */\n      tag_190\n      jump\t// in\n    tag_425:\n        /* \"#utility.yul\":25448:25450   */\n      0x40\n        /* \"#utility.yul\":25443:25446   */\n      dup3\n        /* \"#utility.yul\":25439:25451   */\n      add\n        /* \"#utility.yul\":25432:25451   */\n      swap1\n      pop\n        /* \"#utility.yul\":25091:25457   */\n      swap2\n      swap1\n      pop\n      jump\t// out\n        /* \"#utility.yul\":25463:25882   */\n    tag_96:\n        /* \"#utility.yul\":25629:25633   */\n      0x00\n        /* \"#utility.yul\":25667:25669   */\n      0x20\n        /* \"#utility.yul\":25656:25665   */\n      dup3\n        /* \"#utility.yul\":25652:25670   */\n      add\n        /* \"#utility.yul\":25644:25670   */\n      swap1\n      pop\n        /* \"#utility.yul\":25716:25725   */\n      dup2\n        /* \"#utility.yul\":25710:25714   */\n      dup2\n        /* \"#utility.yul\":25706:25726   */\n      sub\n        /* \"#utility.yul\":25702:25703   */\n      0x00\n        /* \"#utility.yul\":25691:25700   */\n      dup4\n        /* \"#utility.yul\":25687:25704   */\n      add\n        /* \"#utility.yul\":25680:25727   */\n      mstore\n        /* \"#utility.yul\":25744:25875   */\n      tag_427\n        /* \"#utility.yul\":25870:25874   */\n      dup2\n        /* \"#utility.yul\":25744:25875   */\n      tag_191\n      jump\t// in\n    tag_427:\n        /* \"#utility.yul\":25736:25875   */\n      swap1\n      pop\n        /* \"#utility.yul\":25463:25882   */\n      swap2\n      swap1\n      pop\n      jump\t// out\n        /* \"#utility.yul\":25888:26079   */\n    tag_98:\n        /* \"#utility.yul\":25928:25931   */\n      0x00\n        /* \"#utility.yul\":25947:25967   */\n      tag_429\n        /* \"#utility.yul\":25965:25966   */\n      dup3\n        /* \"#utility.yul\":25947:25967   */\n      tag_124\n      jump\t// in\n    tag_429:\n        /* \"#utility.yul\":25942:25967   */\n      swap2\n      pop\n        /* \"#utility.yul\":25981:26001   */\n      tag_430\n        /* \"#utility.yul\":25999:26000   */\n      dup4\n        /* \"#utility.yul\":25981:26001   */\n      tag_124\n      jump\t// in\n    tag_430:\n        /* \"#utility.yul\":25976:26001   */\n      swap3\n      pop\n        /* \"#utility.yul\":26024:26025   */\n      dup3\n        /* \"#utility.yul\":26021:26022   */\n      dup3\n        /* \"#utility.yul\":26017:26026   */\n      add\n        /* \"#utility.yul\":26010:26026   */\n      swap1\n      pop\n        /* \"#utility.yul\":26045:26048   */\n      dup1\n        /* \"#utility.yul\":26042:26043   */\n      dup3\n        /* \"#utility.yul\":26039:26049   */\n      gt\n        /* \"#utility.yul\":26036:26072   */\n      iszero\n      tag_431\n      jumpi\n        /* \"#utility.yul\":26052:26070   */\n      tag_432\n      tag_187\n      jump\t// in\n    tag_432:\n        /* \"#utility.yul\":26036:26072   */\n    tag_431:\n        /* \"#utility.yul\":25888:26079   */\n      swap3\n      swap2\n      pop\n      pop\n      jump\t// out\n        /* \"#utility.yul\":26085:26417   */\n    tag_101:\n        /* \"#utility.yul\":26206:26210   */\n      0x00\n        /* \"#utility.yul\":26244:26246   */\n      0x40\n        /* \"#utility.yul\":26233:26242   */\n      dup3\n        /* \"#utility.yul\":26229:26247   */\n      add\n        /* \"#utility.yul\":26221:26247   */\n      swap1\n      pop\n        /* \"#utility.yul\":26257:26328   */\n      tag_434\n        /* \"#utility.yul\":26325:26326   */\n      0x00\n        /* \"#utility.yul\":26314:26323   */\n      dup4\n        /* \"#utility.yul\":26310:26327   */\n      add\n        /* \"#utility.yul\":26301:26307   */\n      dup6\n        /* \"#utility.yul\":26257:26328   */\n      tag_134\n      jump\t// in\n    tag_434:\n        /* \"#utility.yul\":26338:26410   */\n      tag_435\n        /* \"#utility.yul\":26406:26408   */\n      0x20\n        /* \"#utility.yul\":26395:26404   */\n      dup4\n        /* \"#utility.yul\":26391:26409   */\n      add\n        /* \"#utility.yul\":26382:26388   */\n      dup5\n        /* \"#utility.yul\":26338:26410   */\n      tag_135\n      jump\t// in\n    tag_435:\n        /* \"#utility.yul\":26085:26417   */\n      swap4\n      swap3\n      pop\n      pop\n      pop\n      jump\t// out\n    stop\n\n    sub_0: assembly {\n            /* \"cont.sol\":3198:3411  contract ProjectToken is ERC20 {... */\n          mstore(0x40, 0x80)\n            /* \"cont.sol\":3236:3312  constructor(string memory name, string memory symbol) ERC20(name, symbol) {} */\n          callvalue\n          dup1\n          iszero\n          tag_1\n          jumpi\n          0x00\n          dup1\n          revert\n        tag_1:\n          pop\n          mload(0x40)\n          sub(codesize, bytecodeSize)\n          dup1\n          bytecodeSize\n          dup4\n          codecopy\n          dup2\n          dup2\n          add\n          0x40\n          mstore\n          dup2\n          add\n          swap1\n          tag_2\n          swap2\n          swap1\n          tag_3\n          jump\t// in\n        tag_2:\n            /* \"cont.sol\":3296:3300  name */\n          dup2\n            /* \"cont.sol\":3302:3308  symbol */\n          dup2\n            /* \"@openzeppelin/contracts/token/ERC20/ERC20.sol\":1675:1680  name_ */\n          dup2\n            /* \"@openzeppelin/contracts/token/ERC20/ERC20.sol\":1667:1672  _name */\n          0x03\n            /* \"@openzeppelin/contracts/token/ERC20/ERC20.sol\":1667:1680  _name = name_ */\n          swap1\n          dup2\n          tag_7\n          swap2\n          swap1\n          tag_8\n          jump\t// in\n        tag_7:\n          pop\n            /* \"@openzeppelin/contracts/token/ERC20/ERC20.sol\":1700:1707  symbol_ */\n          dup1\n            /* \"@openzeppelin/contracts/token/ERC20/ERC20.sol\":1690:1697  _symbol */\n          0x04\n            /* \"@openzeppelin/contracts/token/ERC20/ERC20.sol\":1690:1707  _symbol = symbol_ */\n          swap1\n          dup2\n          tag_9\n          swap2\n          swap1\n          tag_8\n          jump\t// in\n        tag_9:\n          pop\n            /* \"@openzeppelin/contracts/token/ERC20/ERC20.sol\":1601:1714  constructor(string memory name_, string memory symbol_) {... */\n          pop\n          pop\n            /* \"cont.sol\":3236:3312  constructor(string memory name, string memory symbol) ERC20(name, symbol) {} */\n          pop\n          pop\n            /* \"cont.sol\":3198:3411  contract ProjectToken is ERC20 {... */\n          jump(tag_11)\n            /* \"#utility.yul\":7:82   */\n        tag_12:\n            /* \"#utility.yul\":40:46   */\n          0x00\n            /* \"#utility.yul\":73:75   */\n          0x40\n            /* \"#utility.yul\":67:76   */\n          mload\n            /* \"#utility.yul\":57:76   */\n          swap1\n          pop\n            /* \"#utility.yul\":7:82   */\n          swap1\n          jump\t// out\n            /* \"#utility.yul\":88:205   */\n        tag_13:\n            /* \"#utility.yul\":197:198   */\n          0x00\n            /* \"#utility.yul\":194:195   */\n          dup1\n            /* \"#utility.yul\":187:199   */\n          revert\n            /* \"#utility.yul\":211:328   */\n        tag_14:\n            /* \"#utility.yul\":320:321   */\n          0x00\n            /* \"#utility.yul\":317:318   */\n          dup1\n            /* \"#utility.yul\":310:322   */\n          revert\n            /* \"#utility.yul\":334:451   */\n        tag_15:\n            /* \"#utility.yul\":443:444   */\n          0x00\n            /* \"#utility.yul\":440:441   */\n          dup1\n            /* \"#utility.yul\":433:445   */\n          revert\n            /* \"#utility.yul\":457:574   */\n        tag_16:\n            /* \"#utility.yul\":566:567   */\n          0x00\n            /* \"#utility.yul\":563:564   */\n          dup1\n            /* \"#utility.yul\":556:568   */\n          revert\n            /* \"#utility.yul\":580:682   */\n        tag_17:\n            /* \"#utility.yul\":621:627   */\n          0x00\n            /* \"#utility.yul\":672:674   */\n          0x1f\n            /* \"#utility.yul\":668:675   */\n          not\n            /* \"#utility.yul\":663:665   */\n          0x1f\n            /* \"#utility.yul\":656:661   */\n          dup4\n            /* \"#utility.yul\":652:666   */\n          add\n            /* \"#utility.yul\":648:676   */\n          and\n            /* \"#utility.yul\":638:676   */\n          swap1\n          pop\n            /* \"#utility.yul\":580:682   */\n          swap2\n          swap1\n          pop\n          jump\t// out\n            /* \"#utility.yul\":688:868   */\n        tag_18:\n            /* \"#utility.yul\":736:813   */\n          0x4e487b7100000000000000000000000000000000000000000000000000000000\n            /* \"#utility.yul\":733:734   */\n          0x00\n            /* \"#utility.yul\":726:814   */\n          mstore\n            /* \"#utility.yul\":833:837   */\n          0x41\n            /* \"#utility.yul\":830:831   */\n          0x04\n            /* \"#utility.yul\":823:838   */\n          mstore\n            /* \"#utility.yul\":857:861   */\n          0x24\n            /* \"#utility.yul\":854:855   */\n          0x00\n            /* \"#utility.yul\":847:862   */\n          revert\n            /* \"#utility.yul\":874:1155   */\n        tag_19:\n            /* \"#utility.yul\":957:984   */\n          tag_53\n            /* \"#utility.yul\":979:983   */\n          dup3\n            /* \"#utility.yul\":957:984   */\n          tag_17\n          jump\t// in\n        tag_53:\n            /* \"#utility.yul\":949:955   */\n          dup2\n            /* \"#utility.yul\":945:985   */\n          add\n            /* \"#utility.yul\":1087:1093   */\n          dup2\n            /* \"#utility.yul\":1075:1085   */\n          dup2\n            /* \"#utility.yul\":1072:1094   */\n          lt\n            /* \"#utility.yul\":1051:1069   */\n          0xffffffffffffffff\n            /* \"#utility.yul\":1039:1049   */\n          dup3\n            /* \"#utility.yul\":1036:1070   */\n          gt\n            /* \"#utility.yul\":1033:1095   */\n          or\n            /* \"#utility.yul\":1030:1118   */\n          iszero\n          tag_54\n          jumpi\n            /* \"#utility.yul\":1098:1116   */\n          tag_55\n          tag_18\n          jump\t// in\n        tag_55:\n            /* \"#utility.yul\":1030:1118   */\n        tag_54:\n            /* \"#utility.yul\":1138:1148   */\n          dup1\n            /* \"#utility.yul\":1134:1136   */\n          0x40\n            /* \"#utility.yul\":1127:1149   */\n          mstore\n            /* \"#utility.yul\":917:1155   */\n          pop\n            /* \"#utility.yul\":874:1155   */\n          pop\n          pop\n          jump\t// out\n            /* \"#utility.yul\":1161:1290   */\n        tag_20:\n            /* \"#utility.yul\":1195:1201   */\n          0x00\n            /* \"#utility.yul\":1222:1242   */\n          tag_57\n          tag_12\n          jump\t// in\n        tag_57:\n            /* \"#utility.yul\":1212:1242   */\n          swap1\n          pop\n            /* \"#utility.yul\":1251:1284   */\n          tag_58\n            /* \"#utility.yul\":1279:1283   */\n          dup3\n            /* \"#utility.yul\":1271:1277   */\n          dup3\n            /* \"#utility.yul\":1251:1284   */\n          tag_19\n          jump\t// in\n        tag_58:\n            /* \"#utility.yul\":1161:1290   */\n          swap2\n          swap1\n          pop\n          jump\t// out\n            /* \"#utility.yul\":1296:1604   */\n        tag_21:\n            /* \"#utility.yul\":1358:1362   */\n          0x00\n            /* \"#utility.yul\":1448:1466   */\n          0xffffffffffffffff\n            /* \"#utility.yul\":1440:1446   */\n          dup3\n            /* \"#utility.yul\":1437:1467   */\n          gt\n            /* \"#utility.yul\":1434:1490   */\n          iszero\n          tag_60\n          jumpi\n            /* \"#utility.yul\":1470:1488   */\n          tag_61\n          tag_18\n          jump\t// in\n        tag_61:\n            /* \"#utility.yul\":1434:1490   */\n        tag_60:\n            /* \"#utility.yul\":1508:1537   */\n          tag_62\n            /* \"#utility.yul\":1530:1536   */\n          dup3\n            /* \"#utility.yul\":1508:1537   */\n          tag_17\n          jump\t// in\n        tag_62:\n            /* \"#utility.yul\":1500:1537   */\n          swap1\n          pop\n            /* \"#utility.yul\":1592:1596   */\n          0x20\n            /* \"#utility.yul\":1586:1590   */\n          dup2\n            /* \"#utility.yul\":1582:1597   */\n          add\n            /* \"#utility.yul\":1574:1597   */\n          swap1\n          pop\n            /* \"#utility.yul\":1296:1604   */\n          swap2\n          swap1\n          pop\n          jump\t// out\n            /* \"#utility.yul\":1610:1749   */\n        tag_22:\n            /* \"#utility.yul\":1699:1705   */\n          dup3\n            /* \"#utility.yul\":1694:1697   */\n          dup2\n            /* \"#utility.yul\":1689:1692   */\n          dup4\n            /* \"#utility.yul\":1683:1706   */\n          mcopy\n            /* \"#utility.yul\":1740:1741   */\n          0x00\n            /* \"#utility.yul\":1731:1737   */\n          dup4\n            /* \"#utility.yul\":1726:1729   */\n          dup4\n            /* \"#utility.yul\":1722:1738   */\n          add\n            /* \"#utility.yul\":1715:1742   */\n          mstore\n            /* \"#utility.yul\":1610:1749   */\n          pop\n          pop\n          pop\n          jump\t// out\n            /* \"#utility.yul\":1755:2189   */\n        tag_23:\n            /* \"#utility.yul\":1844:1849   */\n          0x00\n            /* \"#utility.yul\":1869:1935   */\n          tag_65\n            /* \"#utility.yul\":1885:1934   */\n          tag_66\n            /* \"#utility.yul\":1927:1933   */\n          dup5\n            /* \"#utility.yul\":1885:1934   */\n          tag_21\n          jump\t// in\n        tag_66:\n            /* \"#utility.yul\":1869:1935   */\n          tag_20\n          jump\t// in\n        tag_65:\n            /* \"#utility.yul\":1860:1935   */\n          swap1\n          pop\n            /* \"#utility.yul\":1958:1964   */\n          dup3\n            /* \"#utility.yul\":1951:1956   */\n          dup2\n            /* \"#utility.yul\":1944:1965   */\n          mstore\n            /* \"#utility.yul\":1996:2000   */\n          0x20\n            /* \"#utility.yul\":1989:1994   */\n          dup2\n            /* \"#utility.yul\":1985:2001   */\n          add\n            /* \"#utility.yul\":2034:2037   */\n          dup5\n            /* \"#utility.yul\":2025:2031   */\n          dup5\n            /* \"#utility.yul\":2020:2023   */\n          dup5\n            /* \"#utility.yul\":2016:2032   */\n          add\n            /* \"#utility.yul\":2013:2038   */\n          gt\n            /* \"#utility.yul\":2010:2122   */\n          iszero\n          tag_67\n          jumpi\n            /* \"#utility.yul\":2041:2120   */\n          tag_68\n          tag_16\n          jump\t// in\n        tag_68:\n            /* \"#utility.yul\":2010:2122   */\n        tag_67:\n            /* \"#utility.yul\":2131:2183   */\n          tag_69\n            /* \"#utility.yul\":2176:2182   */\n          dup5\n            /* \"#utility.yul\":2171:2174   */\n          dup3\n            /* \"#utility.yul\":2166:2169   */\n          dup6\n            /* \"#utility.yul\":2131:2183   */\n          tag_22\n          jump\t// in\n        tag_69:\n            /* \"#utility.yul\":1850:2189   */\n          pop\n            /* \"#utility.yul\":1755:2189   */\n          swap4\n          swap3\n          pop\n          pop\n          pop\n          jump\t// out\n            /* \"#utility.yul\":2209:2564   */\n        tag_24:\n            /* \"#utility.yul\":2276:2281   */\n          0x00\n            /* \"#utility.yul\":2325:2328   */\n          dup3\n            /* \"#utility.yul\":2318:2322   */\n          0x1f\n            /* \"#utility.yul\":2310:2316   */\n          dup4\n            /* \"#utility.yul\":2306:2323   */\n          add\n            /* \"#utility.yul\":2302:2329   */\n          slt\n            /* \"#utility.yul\":2292:2414   */\n          tag_71\n          jumpi\n            /* \"#utility.yul\":2333:2412   */\n          tag_72\n          tag_15\n          jump\t// in\n        tag_72:\n            /* \"#utility.yul\":2292:2414   */\n        tag_71:\n            /* \"#utility.yul\":2443:2449   */\n          dup2\n            /* \"#utility.yul\":2437:2450   */\n          mload\n            /* \"#utility.yul\":2468:2558   */\n          tag_73\n            /* \"#utility.yul\":2554:2557   */\n          dup5\n            /* \"#utility.yul\":2546:2552   */\n          dup3\n            /* \"#utility.yul\":2539:2543   */\n          0x20\n            /* \"#utility.yul\":2531:2537   */\n          dup7\n            /* \"#utility.yul\":2527:2544   */\n          add\n            /* \"#utility.yul\":2468:2558   */\n          tag_23\n          jump\t// in\n        tag_73:\n            /* \"#utility.yul\":2459:2558   */\n          swap2\n          pop\n            /* \"#utility.yul\":2282:2564   */\n          pop\n            /* \"#utility.yul\":2209:2564   */\n          swap3\n          swap2\n          pop\n          pop\n          jump\t// out\n            /* \"#utility.yul\":2570:3423   */\n        tag_3:\n            /* \"#utility.yul\":2669:2675   */\n          0x00\n            /* \"#utility.yul\":2677:2683   */\n          dup1\n            /* \"#utility.yul\":2726:2728   */\n          0x40\n            /* \"#utility.yul\":2714:2723   */\n          dup4\n            /* \"#utility.yul\":2705:2712   */\n          dup6\n            /* \"#utility.yul\":2701:2724   */\n          sub\n            /* \"#utility.yul\":2697:2729   */\n          slt\n            /* \"#utility.yul\":2694:2813   */\n          iszero\n          tag_75\n          jumpi\n            /* \"#utility.yul\":2732:2811   */\n          tag_76\n          tag_13\n          jump\t// in\n        tag_76:\n            /* \"#utility.yul\":2694:2813   */\n        tag_75:\n            /* \"#utility.yul\":2873:2874   */\n          0x00\n            /* \"#utility.yul\":2862:2871   */\n          dup4\n            /* \"#utility.yul\":2858:2875   */\n          add\n            /* \"#utility.yul\":2852:2876   */\n          mload\n            /* \"#utility.yul\":2903:2921   */\n          0xffffffffffffffff\n            /* \"#utility.yul\":2895:2901   */\n          dup2\n            /* \"#utility.yul\":2892:2922   */\n          gt\n            /* \"#utility.yul\":2889:3006   */\n          iszero\n          tag_77\n          jumpi\n            /* \"#utility.yul\":2925:3004   */\n          tag_78\n          tag_14\n          jump\t// in\n        tag_78:\n            /* \"#utility.yul\":2889:3006   */\n        tag_77:\n            /* \"#utility.yul\":3030:3104   */\n          tag_79\n            /* \"#utility.yul\":3096:3103   */\n          dup6\n            /* \"#utility.yul\":3087:3093   */\n          dup3\n            /* \"#utility.yul\":3076:3085   */\n          dup7\n            /* \"#utility.yul\":3072:3094   */\n          add\n            /* \"#utility.yul\":3030:3104   */\n          tag_24\n          jump\t// in\n        tag_79:\n            /* \"#utility.yul\":3020:3104   */\n          swap3\n          pop\n            /* \"#utility.yul\":2823:3114   */\n          pop\n            /* \"#utility.yul\":3174:3176   */\n          0x20\n            /* \"#utility.yul\":3163:3172   */\n          dup4\n            /* \"#utility.yul\":3159:3177   */\n          add\n            /* \"#utility.yul\":3153:3178   */\n          mload\n            /* \"#utility.yul\":3205:3223   */\n          0xffffffffffffffff\n            /* \"#utility.yul\":3197:3203   */\n          dup2\n            /* \"#utility.yul\":3194:3224   */\n          gt\n            /* \"#utility.yul\":3191:3308   */\n          iszero\n          tag_80\n          jumpi\n            /* \"#utility.yul\":3227:3306   */\n          tag_81\n          tag_14\n          jump\t// in\n        tag_81:\n            /* \"#utility.yul\":3191:3308   */\n        tag_80:\n            /* \"#utility.yul\":3332:3406   */\n          tag_82\n            /* \"#utility.yul\":3398:3405   */\n          dup6\n            /* \"#utility.yul\":3389:3395   */\n          dup3\n            /* \"#utility.yul\":3378:3387   */\n          dup7\n            /* \"#utility.yul\":3374:3396   */\n          add\n            /* \"#utility.yul\":3332:3406   */\n          tag_24\n          jump\t// in\n        tag_82:\n            /* \"#utility.yul\":3322:3406   */\n          swap2\n          pop\n            /* \"#utility.yul\":3124:3416   */\n          pop\n            /* \"#utility.yul\":2570:3423   */\n          swap3\n          pop\n          swap3\n          swap1\n          pop\n          jump\t// out\n            /* \"#utility.yul\":3429:3528   */\n        tag_25:\n            /* \"#utility.yul\":3481:3487   */\n          0x00\n            /* \"#utility.yul\":3515:3520   */\n          dup2\n            /* \"#utility.yul\":3509:3521   */\n          mload\n            /* \"#utility.yul\":3499:3521   */\n          swap1\n          pop\n            /* \"#utility.yul\":3429:3528   */\n          swap2\n          swap1\n          pop\n          jump\t// out\n            /* \"#utility.yul\":3534:3714   */\n        tag_26:\n            /* \"#utility.yul\":3582:3659   */\n          0x4e487b7100000000000000000000000000000000000000000000000000000000\n            /* \"#utility.yul\":3579:3580   */\n          0x00\n            /* \"#utility.yul\":3572:3660   */\n          mstore\n            /* \"#utility.yul\":3679:3683   */\n          0x22\n            /* \"#utility.yul\":3676:3677   */\n          0x04\n            /* \"#utility.yul\":3669:3684   */\n          mstore\n            /* \"#utility.yul\":3703:3707   */\n          0x24\n            /* \"#utility.yul\":3700:3701   */\n          0x00\n            /* \"#utility.yul\":3693:3708   */\n          revert\n            /* \"#utility.yul\":3720:4040   */\n        tag_27:\n            /* \"#utility.yul\":3764:3770   */\n          0x00\n            /* \"#utility.yul\":3801:3802   */\n          0x02\n            /* \"#utility.yul\":3795:3799   */\n          dup3\n            /* \"#utility.yul\":3791:3803   */\n          div\n            /* \"#utility.yul\":3781:3803   */\n          swap1\n          pop\n            /* \"#utility.yul\":3848:3849   */\n          0x01\n            /* \"#utility.yul\":3842:3846   */\n          dup3\n            /* \"#utility.yul\":3838:3850   */\n          and\n            /* \"#utility.yul\":3869:3887   */\n          dup1\n            /* \"#utility.yul\":3859:3940   */\n          tag_86\n          jumpi\n            /* \"#utility.yul\":3925:3929   */\n          0x7f\n            /* \"#utility.yul\":3917:3923   */\n          dup3\n            /* \"#utility.yul\":3913:3930   */\n          and\n            /* \"#utility.yul\":3903:3930   */\n          swap2\n          pop\n            /* \"#utility.yul\":3859:3940   */\n        tag_86:\n            /* \"#utility.yul\":3987:3989   */\n          0x20\n            /* \"#utility.yul\":3979:3985   */\n          dup3\n            /* \"#utility.yul\":3976:3990   */\n          lt\n            /* \"#utility.yul\":3956:3974   */\n          dup2\n            /* \"#utility.yul\":3953:3991   */\n          sub\n            /* \"#utility.yul\":3950:4034   */\n          tag_87\n          jumpi\n            /* \"#utility.yul\":4006:4024   */\n          tag_88\n          tag_26\n          jump\t// in\n        tag_88:\n            /* \"#utility.yul\":3950:4034   */\n        tag_87:\n            /* \"#utility.yul\":3771:4040   */\n          pop\n            /* \"#utility.yul\":3720:4040   */\n          swap2\n          swap1\n          pop\n          jump\t// out\n            /* \"#utility.yul\":4046:4187   */\n        tag_28:\n            /* \"#utility.yul\":4095:4099   */\n          0x00\n            /* \"#utility.yul\":4118:4121   */\n          dup2\n            /* \"#utility.yul\":4110:4121   */\n          swap1\n          pop\n            /* \"#utility.yul\":4141:4144   */\n          dup2\n            /* \"#utility.yul\":4138:4139   */\n          0x00\n            /* \"#utility.yul\":4131:4145   */\n          mstore\n            /* \"#utility.yul\":4175:4179   */\n          0x20\n            /* \"#utility.yul\":4172:4173   */\n          0x00\n            /* \"#utility.yul\":4162:4180   */\n          keccak256\n            /* \"#utility.yul\":4154:4180   */\n          swap1\n          pop\n            /* \"#utility.yul\":4046:4187   */\n          swap2\n          swap1\n          pop\n          jump\t// out\n            /* \"#utility.yul\":4193:4286   */\n        tag_29:\n            /* \"#utility.yul\":4230:4236   */\n          0x00\n            /* \"#utility.yul\":4277:4279   */\n          0x20\n            /* \"#utility.yul\":4272:4274   */\n          0x1f\n            /* \"#utility.yul\":4265:4270   */\n          dup4\n            /* \"#utility.yul\":4261:4275   */\n          add\n            /* \"#utility.yul\":4257:4280   */\n          div\n            /* \"#utility.yul\":4247:4280   */\n          swap1\n          pop\n            /* \"#utility.yul\":4193:4286   */\n          swap2\n          swap1\n          pop\n          jump\t// out\n            /* \"#utility.yul\":4292:4399   */\n        tag_30:\n            /* \"#utility.yul\":4336:4344   */\n          0x00\n            /* \"#utility.yul\":4386:4391   */\n          dup3\n            /* \"#utility.yul\":4380:4384   */\n          dup3\n            /* \"#utility.yul\":4376:4392   */\n          shl\n            /* \"#utility.yul\":4355:4392   */\n          swap1\n          pop\n            /* \"#utility.yul\":4292:4399   */\n          swap3\n          swap2\n          pop\n          pop\n          jump\t// out\n            /* \"#utility.yul\":4405:4798   */\n        tag_31:\n            /* \"#utility.yul\":4474:4480   */\n          0x00\n            /* \"#utility.yul\":4524:4525   */\n          0x08\n            /* \"#utility.yul\":4512:4522   */\n          dup4\n            /* \"#utility.yul\":4508:4526   */\n          mul\n            /* \"#utility.yul\":4547:4644   */\n          tag_93\n            /* \"#utility.yul\":4577:4643   */\n          0xffffffffffffffffffffffffffffffffffffffffffffffffffffffffffffffff\n            /* \"#utility.yul\":4566:4575   */\n          dup3\n            /* \"#utility.yul\":4547:4644   */\n          tag_30\n          jump\t// in\n        tag_93:\n            /* \"#utility.yul\":4665:4704   */\n          tag_94\n            /* \"#utility.yul\":4695:4703   */\n          dup7\n            /* \"#utility.yul\":4684:4693   */\n          dup4\n            /* \"#utility.yul\":4665:4704   */\n          tag_30\n          jump\t// in\n        tag_94:\n            /* \"#utility.yul\":4653:4704   */\n          swap6\n          pop\n            /* \"#utility.yul\":4737:4741   */\n          dup1\n            /* \"#utility.yul\":4733:4742   */\n          not\n            /* \"#utility.yul\":4726:4731   */\n          dup5\n            /* \"#utility.yul\":4722:4743   */\n          and\n            /* \"#utility.yul\":4713:4743   */\n          swap4\n          pop\n            /* \"#utility.yul\":4786:4790   */\n          dup1\n            /* \"#utility.yul\":4776:4784   */\n          dup7\n            /* \"#utility.yul\":4772:4791   */\n          and\n            /* \"#utility.yul\":4765:4770   */\n          dup5\n            /* \"#utility.yul\":4762:4792   */\n          or\n            /* \"#utility.yul\":4752:4792   */\n          swap3\n          pop\n            /* \"#utility.yul\":4481:4798   */\n          pop\n          pop\n            /* \"#utility.yul\":4405:4798   */\n          swap4\n          swap3\n          pop\n          pop\n          pop\n          jump\t// out\n            /* \"#utility.yul\":4804:4881   */\n        tag_32:\n            /* \"#utility.yul\":4841:4848   */\n          0x00\n            /* \"#utility.yul\":4870:4875   */\n          dup2\n            /* \"#utility.yul\":4859:4875   */\n          swap1\n          pop\n            /* \"#utility.yul\":4804:4881   */\n          swap2\n          swap1\n          pop\n          jump\t// out\n            /* \"#utility.yul\":4887:4947   */\n        tag_33:\n            /* \"#utility.yul\":4915:4918   */\n          0x00\n            /* \"#utility.yul\":4936:4941   */\n          dup2\n            /* \"#utility.yul\":4929:4941   */\n          swap1\n          pop\n            /* \"#utility.yul\":4887:4947   */\n          swap2\n          swap1\n          pop\n          jump\t// out\n            /* \"#utility.yul\":4953:5095   */\n        tag_34:\n            /* \"#utility.yul\":5003:5012   */\n          0x00\n            /* \"#utility.yul\":5036:5089   */\n          tag_98\n            /* \"#utility.yul\":5054:5088   */\n          tag_99\n            /* \"#utility.yul\":5063:5087   */\n          tag_100\n            /* \"#utility.yul\":5081:5086   */\n          dup5\n            /* \"#utility.yul\":5063:5087   */\n          tag_32\n          jump\t// in\n        tag_100:\n            /* \"#utility.yul\":5054:5088   */\n          tag_33\n          jump\t// in\n        tag_99:\n            /* \"#utility.yul\":5036:5089   */\n          tag_32\n          jump\t// in\n        tag_98:\n            /* \"#utility.yul\":5023:5089   */\n          swap1\n          pop\n            /* \"#utility.yul\":4953:5095   */\n          swap2\n          swap1\n          pop\n          jump\t// out\n            /* \"#utility.yul\":5101:5176   */\n        tag_35:\n            /* \"#utility.yul\":5144:5147   */\n          0x00\n            /* \"#utility.yul\":5165:5170   */\n          dup2\n            /* \"#utility.yul\":5158:5170   */\n          swap1\n          pop\n            /* \"#utility.yul\":5101:5176   */\n          swap2\n          swap1\n          pop\n          jump\t// out\n            /* \"#utility.yul\":5182:5451   */\n        tag_36:\n            /* \"#utility.yul\":5292:5331   */\n          tag_103\n            /* \"#utility.yul\":5323:5330   */\n          dup4\n            /* \"#utility.yul\":5292:5331   */\n          tag_34\n          jump\t// in\n        tag_103:\n            /* \"#utility.yul\":5353:5444   */\n          tag_104\n            /* \"#utility.yul\":5402:5443   */\n          tag_105\n            /* \"#utility.yul\":5426:5442   */\n          dup3\n            /* \"#utility.yul\":5402:5443   */\n          tag_35\n          jump\t// in\n        tag_105:\n            /* \"#utility.yul\":5394:5400   */\n          dup5\n            /* \"#utility.yul\":5387:5391   */\n          dup5\n            /* \"#utility.yul\":5381:5392   */\n          sload\n            /* \"#utility.yul\":5353:5444   */\n          tag_31\n          jump\t// in\n        tag_104:\n            /* \"#utility.yul\":5347:5351   */\n          dup3\n            /* \"#utility.yul\":5340:5445   */\n          sstore\n            /* \"#utility.yul\":5258:5451   */\n          pop\n            /* \"#utility.yul\":5182:5451   */\n          pop\n          pop\n          pop\n          jump\t// out\n            /* \"#utility.yul\":5457:5530   */\n        tag_37:\n            /* \"#utility.yul\":5502:5505   */\n          0x00\n            /* \"#utility.yul\":5457:5530   */\n          swap1\n          jump\t// out\n            /* \"#utility.yul\":5536:5725   */\n        tag_38:\n            /* \"#utility.yul\":5613:5645   */\n          tag_108\n          tag_37\n          jump\t// in\n        tag_108:\n            /* \"#utility.yul\":5654:5719   */\n          tag_109\n            /* \"#utility.yul\":5712:5718   */\n          dup2\n            /* \"#utility.yul\":5704:5710   */\n          dup5\n            /* \"#utility.yul\":5698:5702   */\n          dup5\n            /* \"#utility.yul\":5654:5719   */\n          tag_36\n          jump\t// in\n        tag_109:\n            /* \"#utility.yul\":5589:5725   */\n          pop\n            /* \"#utility.yul\":5536:5725   */\n          pop\n          pop\n          jump\t// out\n            /* \"#utility.yul\":5731:5917   */\n        tag_39:\n            /* \"#utility.yul\":5791:5911   */\n        tag_111:\n            /* \"#utility.yul\":5808:5811   */\n          dup2\n            /* \"#utility.yul\":5801:5806   */\n          dup2\n            /* \"#utility.yul\":5798:5812   */\n          lt\n            /* \"#utility.yul\":5791:5911   */\n          iszero\n          tag_113\n          jumpi\n            /* \"#utility.yul\":5862:5901   */\n          tag_114\n            /* \"#utility.yul\":5899:5900   */\n          0x00\n            /* \"#utility.yul\":5892:5897   */\n          dup3\n            /* \"#utility.yul\":5862:5901   */\n          tag_38\n          jump\t// in\n        tag_114:\n            /* \"#utility.yul\":5835:5836   */\n          0x01\n            /* \"#utility.yul\":5828:5833   */\n          dup2\n            /* \"#utility.yul\":5824:5837   */\n          add\n            /* \"#utility.yul\":5815:5837   */\n          swap1\n          pop\n            /* \"#utility.yul\":5791:5911   */\n          jump(tag_111)\n        tag_113:\n            /* \"#utility.yul\":5731:5917   */\n          pop\n          pop\n          jump\t// out\n            /* \"#utility.yul\":5923:6466   */\n        tag_40:\n            /* \"#utility.yul\":6024:6026   */\n          0x1f\n            /* \"#utility.yul\":6019:6022   */\n          dup3\n            /* \"#utility.yul\":6016:6027   */\n          gt\n            /* \"#utility.yul\":6013:6459   */\n          iszero\n          tag_116\n          jumpi\n            /* \"#utility.yul\":6058:6096   */\n          tag_117\n            /* \"#utility.yul\":6090:6095   */\n          dup2\n            /* \"#utility.yul\":6058:6096   */\n          tag_28\n          jump\t// in\n        tag_117:\n            /* \"#utility.yul\":6142:6171   */\n          tag_118\n            /* \"#utility.yul\":6160:6170   */\n          dup5\n            /* \"#utility.yul\":6142:6171   */\n          tag_29\n          jump\t// in\n        tag_118:\n            /* \"#utility.yul\":6132:6140   */\n          dup2\n            /* \"#utility.yul\":6128:6172   */\n          add\n            /* \"#utility.yul\":6325:6327   */\n          0x20\n            /* \"#utility.yul\":6313:6323   */\n          dup6\n            /* \"#utility.yul\":6310:6328   */\n          lt\n            /* \"#utility.yul\":6307:6356   */\n          iszero\n          tag_119\n          jumpi\n            /* \"#utility.yul\":6346:6354   */\n          dup2\n            /* \"#utility.yul\":6331:6354   */\n          swap1\n          pop\n            /* \"#utility.yul\":6307:6356   */\n        tag_119:\n            /* \"#utility.yul\":6369:6449   */\n          tag_120\n            /* \"#utility.yul\":6425:6447   */\n          tag_121\n            /* \"#utility.yul\":6443:6446   */\n          dup6\n            /* \"#utility.yul\":6425:6447   */\n          tag_29\n          jump\t// in\n        tag_121:\n            /* \"#utility.yul\":6415:6423   */\n          dup4\n            /* \"#utility.yul\":6411:6448   */\n          add\n            /* \"#utility.yul\":6398:6409   */\n          dup3\n            /* \"#utility.yul\":6369:6449   */\n          tag_39\n          jump\t// in\n        tag_120:\n            /* \"#utility.yul\":6028:6459   */\n          pop\n          pop\n            /* \"#utility.yul\":6013:6459   */\n        tag_116:\n            /* \"#utility.yul\":5923:6466   */\n          pop\n          pop\n          pop\n          jump\t// out\n            /* \"#utility.yul\":6472:6589   */\n        tag_41:\n            /* \"#utility.yul\":6526:6534   */\n          0x00\n            /* \"#utility.yul\":6576:6581   */\n          dup3\n            /* \"#utility.yul\":6570:6574   */\n          dup3\n            /* \"#utility.yul\":6566:6582   */\n          shr\n            /* \"#utility.yul\":6545:6582   */\n          swap1\n          pop\n            /* \"#utility.yul\":6472:6589   */\n          swap3\n          swap2\n          pop\n          pop\n          jump\t// out\n            /* \"#utility.yul\":6595:6764   */\n        tag_42:\n            /* \"#utility.yul\":6639:6645   */\n          0x00\n            /* \"#utility.yul\":6672:6723   */\n          tag_124\n            /* \"#utility.yul\":6720:6721   */\n          0x00\n            /* \"#utility.yul\":6716:6722   */\n          not\n            /* \"#utility.yul\":6708:6713   */\n          dup5\n            /* \"#utility.yul\":6705:6706   */\n          0x08\n            /* \"#utility.yul\":6701:6714   */\n          mul\n            /* \"#utility.yul\":6672:6723   */\n          tag_41\n          jump\t// in\n        tag_124:\n            /* \"#utility.yul\":6668:6724   */\n          not\n            /* \"#utility.yul\":6753:6757   */\n          dup1\n            /* \"#utility.yul\":6747:6751   */\n          dup4\n            /* \"#utility.yul\":6743:6758   */\n          and\n            /* \"#utility.yul\":6733:6758   */\n          swap2\n          pop\n            /* \"#utility.yul\":6646:6764   */\n          pop\n            /* \"#utility.yul\":6595:6764   */\n          swap3\n          swap2\n          pop\n          pop\n          jump\t// out\n            /* \"#utility.yul\":6769:7064   */\n        tag_43:\n            /* \"#utility.yul\":6845:6849   */\n          0x00\n            /* \"#utility.yul\":6991:7020   */\n          tag_126\n            /* \"#utility.yul\":7016:7019   */\n          dup4\n            /* \"#utility.yul\":7010:7014   */\n          dup4\n            /* \"#utility.yul\":6991:7020   */\n          tag_42\n          jump\t// in\n        tag_126:\n            /* \"#utility.yul\":6983:7020   */\n          swap2\n          pop\n            /* \"#utility.yul\":7053:7056   */\n          dup3\n            /* \"#utility.yul\":7050:7051   */\n          0x02\n            /* \"#utility.yul\":7046:7057   */\n          mul\n            /* \"#utility.yul\":7040:7044   */\n          dup3\n            /* \"#utility.yul\":7037:7058   */\n          or\n            /* \"#utility.yul\":7029:7058   */\n          swap1\n          pop\n            /* \"#utility.yul\":6769:7064   */\n          swap3\n          swap2\n          pop\n          pop\n          jump\t// out\n            /* \"#utility.yul\":7069:8464   */\n        tag_8:\n            /* \"#utility.yul\":7186:7223   */\n          tag_128\n            /* \"#utility.yul\":7219:7222   */\n          dup3\n            /* \"#utility.yul\":7186:7223   */\n          tag_25\n          jump\t// in\n        tag_128:\n            /* \"#utility.yul\":7288:7306   */\n          0xffffffffffffffff\n            /* \"#utility.yul\":7280:7286   */\n          dup2\n            /* \"#utility.yul\":7277:7307   */\n          gt\n            /* \"#utility.yul\":7274:7330   */\n          iszero\n          tag_129\n          jumpi\n            /* \"#utility.yul\":7310:7328   */\n          tag_130\n          tag_18\n          jump\t// in\n        tag_130:\n            /* \"#utility.yul\":7274:7330   */\n        tag_129:\n            /* \"#utility.yul\":7354:7392   */\n          tag_131\n            /* \"#utility.yul\":7386:7390   */\n          dup3\n            /* \"#utility.yul\":7380:7391   */\n          sload\n            /* \"#utility.yul\":7354:7392   */\n          tag_27\n          jump\t// in\n        tag_131:\n            /* \"#utility.yul\":7439:7506   */\n          tag_132\n            /* \"#utility.yul\":7499:7505   */\n          dup3\n            /* \"#utility.yul\":7491:7497   */\n          dup3\n            /* \"#utility.yul\":7485:7489   */\n          dup6\n            /* \"#utility.yul\":7439:7506   */\n          tag_40\n          jump\t// in\n        tag_132:\n            /* \"#utility.yul\":7533:7534   */\n          0x00\n            /* \"#utility.yul\":7557:7561   */\n          0x20\n            /* \"#utility.yul\":7544:7561   */\n          swap1\n          pop\n            /* \"#utility.yul\":7589:7591   */\n          0x1f\n            /* \"#utility.yul\":7581:7587   */\n          dup4\n            /* \"#utility.yul\":7578:7592   */\n          gt\n            /* \"#utility.yul\":7606:7607   */\n          0x01\n            /* \"#utility.yul\":7601:8219   */\n          dup2\n          eq\n          tag_134\n          jumpi\n            /* \"#utility.yul\":8263:8264   */\n          0x00\n            /* \"#utility.yul\":8280:8286   */\n          dup5\n            /* \"#utility.yul\":8277:8354   */\n          iszero\n          tag_135\n          jumpi\n            /* \"#utility.yul\":8329:8338   */\n          dup3\n            /* \"#utility.yul\":8324:8327   */\n          dup8\n            /* \"#utility.yul\":8320:8339   */\n          add\n            /* \"#utility.yul\":8314:8340   */\n          mload\n            /* \"#utility.yul\":8305:8340   */\n          swap1\n          pop\n            /* \"#utility.yul\":8277:8354   */\n        tag_135:\n            /* \"#utility.yul\":8380:8447   */\n          tag_136\n            /* \"#utility.yul\":8440:8446   */\n          dup6\n            /* \"#utility.yul\":8433:8438   */\n          dup3\n            /* \"#utility.yul\":8380:8447   */\n          tag_43\n          jump\t// in\n        tag_136:\n            /* \"#utility.yul\":8374:8378   */\n          dup7\n            /* \"#utility.yul\":8367:8448   */\n          sstore\n            /* \"#utility.yul\":8236:8458   */\n          pop\n            /* \"#utility.yul\":7571:8458   */\n          jump(tag_133)\n            /* \"#utility.yul\":7601:8219   */\n        tag_134:\n            /* \"#utility.yul\":7653:7657   */\n          0x1f\n            /* \"#utility.yul\":7649:7658   */\n          not\n            /* \"#utility.yul\":7641:7647   */\n          dup5\n            /* \"#utility.yul\":7637:7659   */\n          and\n            /* \"#utility.yul\":7687:7724   */\n          tag_137\n            /* \"#utility.yul\":7719:7723   */\n          dup7\n            /* \"#utility.yul\":7687:7724   */\n          tag_28\n          jump\t// in\n        tag_137:\n            /* \"#utility.yul\":7746:7747   */\n          0x00\n            /* \"#utility.yul\":7760:7968   */\n        tag_138:\n            /* \"#utility.yul\":7774:7781   */\n          dup3\n            /* \"#utility.yul\":7771:7772   */\n          dup2\n            /* \"#utility.yul\":7768:7782   */\n          lt\n            /* \"#utility.yul\":7760:7968   */\n          iszero\n          tag_140\n          jumpi\n            /* \"#utility.yul\":7853:7862   */\n          dup5\n            /* \"#utility.yul\":7848:7851   */\n          dup10\n            /* \"#utility.yul\":7844:7863   */\n          add\n            /* \"#utility.yul\":7838:7864   */\n          mload\n            /* \"#utility.yul\":7830:7836   */\n          dup3\n            /* \"#utility.yul\":7823:7865   */\n          sstore\n            /* \"#utility.yul\":7904:7905   */\n          0x01\n            /* \"#utility.yul\":7896:7902   */\n          dup3\n            /* \"#utility.yul\":7892:7906   */\n          add\n            /* \"#utility.yul\":7882:7906   */\n          swap2\n          pop\n            /* \"#utility.yul\":7951:7953   */\n          0x20\n            /* \"#utility.yul\":7940:7949   */\n          dup6\n            /* \"#utility.yul\":7936:7954   */\n          add\n            /* \"#utility.yul\":7923:7954   */\n          swap5\n          pop\n            /* \"#utility.yul\":7797:7801   */\n          0x20\n            /* \"#utility.yul\":7794:7795   */\n          dup2\n            /* \"#utility.yul\":7790:7802   */\n          add\n            /* \"#utility.yul\":7785:7802   */\n          swap1\n          pop\n            /* \"#utility.yul\":7760:7968   */\n          jump(tag_138)\n        tag_140:\n            /* \"#utility.yul\":7996:8002   */\n          dup7\n            /* \"#utility.yul\":7987:7994   */\n          dup4\n            /* \"#utility.yul\":7984:8003   */\n          lt\n            /* \"#utility.yul\":7981:8160   */\n          iszero\n          tag_141\n          jumpi\n            /* \"#utility.yul\":8054:8063   */\n          dup5\n            /* \"#utility.yul\":8049:8052   */\n          dup10\n            /* \"#utility.yul\":8045:8064   */\n          add\n            /* \"#utility.yul\":8039:8065   */\n          mload\n            /* \"#utility.yul\":8097:8145   */\n          tag_142\n            /* \"#utility.yul\":8139:8143   */\n          0x1f\n            /* \"#utility.yul\":8131:8137   */\n          dup10\n            /* \"#utility.yul\":8127:8144   */\n          and\n            /* \"#utility.yul\":8116:8125   */\n          dup3\n            /* \"#utility.yul\":8097:8145   */\n          tag_42\n          jump\t// in\n        tag_142:\n            /* \"#utility.yul\":8089:8095   */\n          dup4\n            /* \"#utility.yul\":8082:8146   */\n          sstore\n            /* \"#utility.yul\":8004:8160   */\n          pop\n            /* \"#utility.yul\":7981:8160   */\n        tag_141:\n            /* \"#utility.yul\":8206:8207   */\n          0x01\n            /* \"#utility.yul\":8202:8203   */\n          0x02\n            /* \"#utility.yul\":8194:8200   */\n          dup9\n            /* \"#utility.yul\":8190:8204   */\n          mul\n            /* \"#utility.yul\":8186:8208   */\n          add\n            /* \"#utility.yul\":8180:8184   */\n          dup9\n            /* \"#utility.yul\":8173:8209   */\n          sstore\n            /* \"#utility.yul\":7608:8219   */\n          pop\n          pop\n          pop\n            /* \"#utility.yul\":7571:8458   */\n        tag_133:\n          pop\n            /* \"#utility.yul\":7161:8464   */\n          pop\n          pop\n          pop\n            /* \"#utility.yul\":7069:8464   */\n          pop\n          pop\n          jump\t// out\n            /* \"cont.sol\":3198:3411  contract ProjectToken is ERC20 {... */\n        tag_11:\n          dataSize(sub_0)\n          dup1\n          dataOffset(sub_0)\n          0x00\n          codecopy\n          0x00\n          return\n        stop\n\n        sub_0: assembly {\n                /* \"cont.sol\":3198:3411  contract ProjectToken is ERC20 {... */\n              mstore(0x40, 0x80)\n              callvalue\n              dup1\n              iszero\n              tag_1\n              jumpi\n              0x00\n              dup1\n              revert\n            tag_1:\n              pop\n              jumpi(tag_2, lt(calldatasize, 0x04))\n              shr(0xe0, calldataload(0x00))\n              dup1\n              0x40c10f19\n              gt\n              tag_13\n              jumpi\n              dup1\n              0x40c10f19\n              eq\n              tag_8\n              jumpi\n              dup1\n              0x70a08231\n              eq\n              tag_9\n              jumpi\n              dup1\n              0x95d89b41\n              eq\n              tag_10\n              jumpi\n              dup1\n              0xa9059cbb\n              eq\n              tag_11\n              jumpi\n              dup1\n              0xdd62ed3e\n              eq\n              tag_12\n              jumpi\n              jump(tag_2)\n            tag_13:\n              dup1\n              0x06fdde03\n              eq\n              tag_3\n              jumpi\n              dup1\n              0x095ea7b3\n              eq\n              tag_4\n              jumpi\n              dup1\n              0x18160ddd\n              eq\n              tag_5\n              jumpi\n              dup1\n              0x23b872dd\n              eq\n              tag_6\n              jumpi\n              dup1\n              0x313ce567\n              eq\n              tag_7\n              jumpi\n            tag_2:\n              0x00\n              dup1\n              revert\n                /* \"@openzeppelin/contracts/token/ERC20/ERC20.sol\":1779:1868  function name() public view virtual returns (string memory) {... */\n            tag_3:\n              tag_14\n              tag_15\n              jump\t// in\n            tag_14:\n              mload(0x40)\n              tag_16\n              swap2\n              swap1\n              tag_17\n              jump\t// in\n            tag_16:\n              mload(0x40)\n              dup1\n              swap2\n              sub\n              swap1\n              return\n                /* \"@openzeppelin/contracts/token/ERC20/ERC20.sol\":3998:4184  function approve(address spender, uint256 value) public virtual returns (bool) {... */\n            tag_4:\n              tag_18\n              0x04\n              dup1\n              calldatasize\n              sub\n              dup2\n              add\n              swap1\n              tag_19\n              swap2\n              swap1\n              tag_20\n              jump\t// in\n            tag_19:\n              tag_21\n              jump\t// in\n            tag_18:\n              mload(0x40)\n              tag_22\n              swap2\n              swap1\n              tag_23\n              jump\t// in\n            tag_22:\n              mload(0x40)\n              dup1\n              swap2\n              sub\n              swap1\n              return\n                /* \"@openzeppelin/contracts/token/ERC20/ERC20.sol\":2849:2946  function totalSupply() public view virtual returns (uint256) {... */\n            tag_5:\n              tag_24\n              tag_25\n              jump\t// in\n            tag_24:\n              mload(0x40)\n              tag_26\n              swap2\n              swap1\n              tag_27\n              jump\t// in\n            tag_26:\n              mload(0x40)\n              dup1\n              swap2\n              sub\n              swap1\n              return\n                /* \"@openzeppelin/contracts/token/ERC20/ERC20.sol\":4776:5020  function transferFrom(address from, address to, uint256 value) public virtual returns (bool) {... */\n            tag_6:\n              tag_28\n              0x04\n              dup1\n              calldatasize\n              sub\n              dup2\n              add\n              swap1\n              tag_29\n              swap2\n              swap1\n              tag_30\n              jump\t// in\n            tag_29:\n              tag_31\n              jump\t// in\n            tag_28:\n              mload(0x40)\n              tag_32\n              swap2\n              swap1\n              tag_23\n              jump\t// in\n            tag_32:\n              mload(0x40)\n              dup1\n              swap2\n              sub\n              swap1\n              return\n                /* \"@openzeppelin/contracts/token/ERC20/ERC20.sol\":2707:2789  function decimals() public view virtual returns (uint8) {... */\n            tag_7:\n              tag_33\n              tag_34\n              jump\t// in\n            tag_33:\n              mload(0x40)\n              tag_35\n              swap2\n              swap1\n              tag_36\n              jump\t// in\n            tag_35:\n              mload(0x40)\n              dup1\n              swap2\n              sub\n              swap1\n              return\n                /* \"cont.sol\":3320:3408  function mint(address to, uint256 amount) external  {... */\n            tag_8:\n              tag_37\n              0x04\n              dup1\n              calldatasize\n              sub\n              dup2\n              add\n              swap1\n              tag_38\n              swap2\n              swap1\n              tag_20\n              jump\t// in\n            tag_38:\n              tag_39\n              jump\t// in\n            tag_37:\n              stop\n                /* \"@openzeppelin/contracts/token/ERC20/ERC20.sol\":3004:3120  function balanceOf(address account) public view virtual returns (uint256) {... */\n            tag_9:\n              tag_40\n              0x04\n              dup1\n              calldatasize\n              sub\n              dup2\n              add\n              swap1\n              tag_41\n              swap2\n              swap1\n              tag_42\n              jump\t// in\n            tag_41:\n              tag_43\n              jump\t// in\n            tag_40:\n              mload(0x40)\n              tag_44\n              swap2\n              swap1\n              tag_27\n              jump\t// in\n            tag_44:\n              mload(0x40)\n              dup1\n              swap2\n              sub\n              swap1\n              return\n                /* \"@openzeppelin/contracts/token/ERC20/ERC20.sol\":1981:2074  function symbol() public view virtual returns (string memory) {... */\n            tag_10:\n              tag_45\n              tag_46\n              jump\t// in\n            tag_45:\n              mload(0x40)\n              tag_47\n              swap2\n              swap1\n              tag_17\n              jump\t// in\n            tag_47:\n              mload(0x40)\n              dup1\n              swap2\n              sub\n              swap1\n              return\n                /* \"@openzeppelin/contracts/token/ERC20/ERC20.sol\":3315:3493  function transfer(address to, uint256 value) public virtual returns (bool) {... */\n            tag_11:\n              tag_48\n              0x04\n              dup1\n              calldatasize\n              sub\n              dup2\n              add\n              swap1\n              tag_49\n              swap2\n              swap1\n              tag_20\n              jump\t// in\n            tag_49:\n              tag_50\n              jump\t// in\n            tag_48:\n              mload(0x40)\n              tag_51\n              swap2\n              swap1\n              tag_23\n              jump\t// in\n            tag_51:\n              mload(0x40)\n              dup1\n              swap2\n              sub\n              swap1\n              return\n                /* \"@openzeppelin/contracts/token/ERC20/ERC20.sol\":3551:3691  function allowance(address owner, address spender) public view virtual returns (uint256) {... */\n            tag_12:\n              tag_52\n              0x04\n              dup1\n              calldatasize\n              sub\n              dup2\n              add\n              swap1\n              tag_53\n              swap2\n              swap1\n              tag_54\n              jump\t// in\n            tag_53:\n              tag_55\n              jump\t// in\n            tag_52:\n              mload(0x40)\n              tag_56\n              swap2\n              swap1\n              tag_27\n              jump\t// in\n            tag_56:\n              mload(0x40)\n              dup1\n              swap2\n              sub\n              swap1\n              return\n                /* \"@openzeppelin/contracts/token/ERC20/ERC20.sol\":1779:1868  function name() public view virtual returns (string memory) {... */\n            tag_15:\n                /* \"@openzeppelin/contracts/token/ERC20/ERC20.sol\":1824:1837  string memory */\n              0x60\n                /* \"@openzeppelin/contracts/token/ERC20/ERC20.sol\":1856:1861  _name */\n              0x03\n                /* \"@openzeppelin/contracts/token/ERC20/ERC20.sol\":1849:1861  return _name */\n              dup1\n              sload\n              tag_58\n              swap1\n              tag_59\n              jump\t// in\n            tag_58:\n              dup1\n              0x1f\n              add\n              0x20\n              dup1\n              swap2\n              div\n              mul\n              0x20\n              add\n              mload(0x40)\n              swap1\n              dup2\n              add\n              0x40\n              mstore\n              dup1\n              swap3\n              swap2\n              swap1\n              dup2\n              dup2\n              mstore\n              0x20\n              add\n              dup3\n              dup1\n              sload\n              tag_60\n              swap1\n              tag_59\n              jump\t// in\n            tag_60:\n              dup1\n              iszero\n              tag_61\n              jumpi\n              dup1\n              0x1f\n              lt\n              tag_62\n              jumpi\n              0x0100\n              dup1\n              dup4\n              sload\n              div\n              mul\n              dup4\n              mstore\n              swap2\n              0x20\n              add\n              swap2\n              jump(tag_61)\n            tag_62:\n              dup3\n              add\n              swap2\n              swap1\n              0x00\n              mstore\n              keccak256(0x00, 0x20)\n              swap1\n            tag_63:\n              dup2\n              sload\n              dup2\n              mstore\n              swap1\n              0x01\n              add\n              swap1\n              0x20\n              add\n              dup1\n              dup4\n              gt\n              tag_63\n              jumpi\n              dup3\n              swap1\n              sub\n              0x1f\n              and\n              dup3\n              add\n              swap2\n            tag_61:\n              pop\n              pop\n              pop\n              pop\n              pop\n              swap1\n              pop\n                /* \"@openzeppelin/contracts/token/ERC20/ERC20.sol\":1779:1868  function name() public view virtual returns (string memory) {... */\n              swap1\n              jump\t// out\n                /* \"@openzeppelin/contracts/token/ERC20/ERC20.sol\":3998:4184  function approve(address spender, uint256 value) public virtual returns (bool) {... */\n            tag_21:\n                /* \"@openzeppelin/contracts/token/ERC20/ERC20.sol\":4071:4075  bool */\n              0x00\n                /* \"@openzeppelin/contracts/token/ERC20/ERC20.sol\":4087:4100  address owner */\n              dup1\n                /* \"@openzeppelin/contracts/token/ERC20/ERC20.sol\":4103:4115  _msgSender() */\n              tag_65\n                /* \"@openzeppelin/contracts/token/ERC20/ERC20.sol\":4103:4113  _msgSender */\n              tag_66\n                /* \"@openzeppelin/contracts/token/ERC20/ERC20.sol\":4103:4115  _msgSender() */\n              jump\t// in\n            tag_65:\n                /* \"@openzeppelin/contracts/token/ERC20/ERC20.sol\":4087:4115  address owner = _msgSender() */\n              swap1\n              pop\n                /* \"@openzeppelin/contracts/token/ERC20/ERC20.sol\":4125:4156  _approve(owner, spender, value) */\n              tag_67\n                /* \"@openzeppelin/contracts/token/ERC20/ERC20.sol\":4134:4139  owner */\n              dup2\n                /* \"@openzeppelin/contracts/token/ERC20/ERC20.sol\":4141:4148  spender */\n              dup6\n                /* \"@openzeppelin/contracts/token/ERC20/ERC20.sol\":4150:4155  value */\n              dup6\n                /* \"@openzeppelin/contracts/token/ERC20/ERC20.sol\":4125:4133  _approve */\n              tag_68\n                /* \"@openzeppelin/contracts/token/ERC20/ERC20.sol\":4125:4156  _approve(owner, spender, value) */\n              jump\t// in\n            tag_67:\n                /* \"@openzeppelin/contracts/token/ERC20/ERC20.sol\":4173:4177  true */\n              0x01\n                /* \"@openzeppelin/contracts/token/ERC20/ERC20.sol\":4166:4177  return true */\n              swap2\n              pop\n              pop\n                /* \"@openzeppelin/contracts/token/ERC20/ERC20.sol\":3998:4184  function approve(address spender, uint256 value) public virtual returns (bool) {... */\n              swap3\n              swap2\n              pop\n              pop\n              jump\t// out\n                /* \"@openzeppelin/contracts/token/ERC20/ERC20.sol\":2849:2946  function totalSupply() public view virtual returns (uint256) {... */\n            tag_25:\n                /* \"@openzeppelin/contracts/token/ERC20/ERC20.sol\":2901:2908  uint256 */\n              0x00\n                /* \"@openzeppelin/contracts/token/ERC20/ERC20.sol\":2927:2939  _totalSupply */\n              sload(0x02)\n                /* \"@openzeppelin/contracts/token/ERC20/ERC20.sol\":2920:2939  return _totalSupply */\n              swap1\n              pop\n                /* \"@openzeppelin/contracts/token/ERC20/ERC20.sol\":2849:2946  function totalSupply() public view virtual returns (uint256) {... */\n              swap1\n              jump\t// out\n                /* \"@openzeppelin/contracts/token/ERC20/ERC20.sol\":4776:5020  function transferFrom(address from, address to, uint256 value) public virtual returns (bool) {... */\n            tag_31:\n                /* \"@openzeppelin/contracts/token/ERC20/ERC20.sol\":4863:4867  bool */\n              0x00\n                /* \"@openzeppelin/contracts/token/ERC20/ERC20.sol\":4879:4894  address spender */\n              dup1\n                /* \"@openzeppelin/contracts/token/ERC20/ERC20.sol\":4897:4909  _msgSender() */\n              tag_71\n                /* \"@openzeppelin/contracts/token/ERC20/ERC20.sol\":4897:4907  _msgSender */\n              tag_66\n                /* \"@openzeppelin/contracts/token/ERC20/ERC20.sol\":4897:4909  _msgSender() */\n              jump\t// in\n            tag_71:\n                /* \"@openzeppelin/contracts/token/ERC20/ERC20.sol\":4879:4909  address spender = _msgSender() */\n              swap1\n              pop\n                /* \"@openzeppelin/contracts/token/ERC20/ERC20.sol\":4919:4956  _spendAllowance(from, spender, value) */\n              tag_72\n                /* \"@openzeppelin/contracts/token/ERC20/ERC20.sol\":4935:4939  from */\n              dup6\n                /* \"@openzeppelin/contracts/token/ERC20/ERC20.sol\":4941:4948  spender */\n              dup3\n                /* \"@openzeppelin/contracts/token/ERC20/ERC20.sol\":4950:4955  value */\n              dup6\n                /* \"@openzeppelin/contracts/token/ERC20/ERC20.sol\":4919:4934  _spendAllowance */\n              tag_73\n                /* \"@openzeppelin/contracts/token/ERC20/ERC20.sol\":4919:4956  _spendAllowance(from, spender, value) */\n              jump\t// in\n            tag_72:\n                /* \"@openzeppelin/contracts/token/ERC20/ERC20.sol\":4966:4992  _transfer(from, to, value) */\n              tag_74\n                /* \"@openzeppelin/contracts/token/ERC20/ERC20.sol\":4976:4980  from */\n              dup6\n                /* \"@openzeppelin/contracts/token/ERC20/ERC20.sol\":4982:4984  to */\n              dup6\n                /* \"@openzeppelin/contracts/token/ERC20/ERC20.sol\":4986:4991  value */\n              dup6\n                /* \"@openzeppelin/contracts/token/ERC20/ERC20.sol\":4966:4975  _transfer */\n              tag_75\n                /* \"@openzeppelin/contracts/token/ERC20/ERC20.sol\":4966:4992  _transfer(from, to, value) */\n              jump\t// in\n            tag_74:\n                /* \"@openzeppelin/contracts/token/ERC20/ERC20.sol\":5009:5013  true */\n              0x01\n                /* \"@openzeppelin/contracts/token/ERC20/ERC20.sol\":5002:5013  return true */\n              swap2\n              pop\n              pop\n                /* \"@openzeppelin/contracts/token/ERC20/ERC20.sol\":4776:5020  function transferFrom(address from, address to, uint256 value) public virtual returns (bool) {... */\n              swap4\n              swap3\n              pop\n              pop\n              pop\n              jump\t// out\n                /* \"@openzeppelin/contracts/token/ERC20/ERC20.sol\":2707:2789  function decimals() public view virtual returns (uint8) {... */\n            tag_34:\n                /* \"@openzeppelin/contracts/token/ERC20/ERC20.sol\":2756:2761  uint8 */\n              0x00\n                /* \"@openzeppelin/contracts/token/ERC20/ERC20.sol\":2780:2782  18 */\n              0x12\n                /* \"@openzeppelin/contracts/token/ERC20/ERC20.sol\":2773:2782  return 18 */\n              swap1\n              pop\n                /* \"@openzeppelin/contracts/token/ERC20/ERC20.sol\":2707:2789  function decimals() public view virtual returns (uint8) {... */\n              swap1\n              jump\t// out\n                /* \"cont.sol\":3320:3408  function mint(address to, uint256 amount) external  {... */\n            tag_39:\n                /* \"cont.sol\":3383:3400  _mint(to, amount) */\n              tag_78\n                /* \"cont.sol\":3389:3391  to */\n              dup3\n                /* \"cont.sol\":3393:3399  amount */\n              dup3\n                /* \"cont.sol\":3383:3388  _mint */\n              tag_79\n                /* \"cont.sol\":3383:3400  _mint(to, amount) */\n              jump\t// in\n            tag_78:\n                /* \"cont.sol\":3320:3408  function mint(address to, uint256 amount) external  {... */\n              pop\n              pop\n              jump\t// out\n                /* \"@openzeppelin/contracts/token/ERC20/ERC20.sol\":3004:3120  function balanceOf(address account) public view virtual returns (uint256) {... */\n            tag_43:\n                /* \"@openzeppelin/contracts/token/ERC20/ERC20.sol\":3069:3076  uint256 */\n              0x00\n                /* \"@openzeppelin/contracts/token/ERC20/ERC20.sol\":3095:3104  _balances */\n              dup1\n                /* \"@openzeppelin/contracts/token/ERC20/ERC20.sol\":3095:3113  _balances[account] */\n              0x00\n                /* \"@openzeppelin/contracts/token/ERC20/ERC20.sol\":3105:3112  account */\n              dup4\n                /* \"@openzeppelin/contracts/token/ERC20/ERC20.sol\":3095:3113  _balances[account] */\n              0xffffffffffffffffffffffffffffffffffffffff\n              and\n              0xffffffffffffffffffffffffffffffffffffffff\n              and\n              dup2\n              mstore\n              0x20\n              add\n              swap1\n              dup2\n              mstore\n              0x20\n              add\n              0x00\n              keccak256\n              sload\n                /* \"@openzeppelin/contracts/token/ERC20/ERC20.sol\":3088:3113  return _balances[account] */\n              swap1\n              pop\n                /* \"@openzeppelin/contracts/token/ERC20/ERC20.sol\":3004:3120  function balanceOf(address account) public view virtual returns (uint256) {... */\n              swap2\n              swap1\n              pop\n              jump\t// out\n                /* \"@openzeppelin/contracts/token/ERC20/ERC20.sol\":1981:2074  function symbol() public view virtual returns (string memory) {... */\n            tag_46:\n                /* \"@openzeppelin/contracts/token/ERC20/ERC20.sol\":2028:2041  string memory */\n              0x60\n                /* \"@openzeppelin/contracts/token/ERC20/ERC20.sol\":2060:2067  _symbol */\n              0x04\n                /* \"@openzeppelin/contracts/token/ERC20/ERC20.sol\":2053:2067  return _symbol */\n              dup1\n              sload\n              tag_82\n              swap1\n              tag_59\n              jump\t// in\n            tag_82:\n              dup1\n              0x1f\n              add\n              0x20\n              dup1\n              swap2\n              div\n              mul\n              0x20\n              add\n              mload(0x40)\n              swap1\n              dup2\n              add\n              0x40\n              mstore\n              dup1\n              swap3\n              swap2\n              swap1\n              dup2\n              dup2\n              mstore\n              0x20\n              add\n              dup3\n              dup1\n              sload\n              tag_83\n              swap1\n              tag_59\n              jump\t// in\n            tag_83:\n              dup1\n              iszero\n              tag_84\n              jumpi\n              dup1\n              0x1f\n              lt\n              tag_85\n              jumpi\n              0x0100\n              dup1\n              dup4\n              sload\n              div\n              mul\n              dup4\n              mstore\n              swap2\n              0x20\n              add\n              swap2\n              jump(tag_84)\n            tag_85:\n              dup3\n              add\n              swap2\n              swap1\n              0x00\n              mstore\n              keccak256(0x00, 0x20)\n              swap1\n            tag_86:\n              dup2\n              sload\n              dup2\n              mstore\n              swap1\n              0x01\n              add\n              swap1\n              0x20\n              add\n              dup1\n              dup4\n              gt\n              tag_86\n              jumpi\n              dup3\n              swap1\n              sub\n              0x1f\n              and\n              dup3\n              add\n              swap2\n            tag_84:\n              pop\n              pop\n              pop\n              pop\n              pop\n              swap1\n              pop\n                /* \"@openzeppelin/contracts/token/ERC20/ERC20.sol\":1981:2074  function symbol() public view virtual returns (string memory) {... */\n              swap1\n              jump\t// out\n                /* \"@openzeppelin/contracts/token/ERC20/ERC20.sol\":3315:3493  function transfer(address to, uint256 value) public virtual returns (bool) {... */\n            tag_50:\n                /* \"@openzeppelin/contracts/token/ERC20/ERC20.sol\":3384:3388  bool */\n              0x00\n                /* \"@openzeppelin/contracts/token/ERC20/ERC20.sol\":3400:3413  address owner */\n              dup1\n                /* \"@openzeppelin/contracts/token/ERC20/ERC20.sol\":3416:3428  _msgSender() */\n              tag_88\n                /* \"@openzeppelin/contracts/token/ERC20/ERC20.sol\":3416:3426  _msgSender */\n              tag_66\n                /* \"@openzeppelin/contracts/token/ERC20/ERC20.sol\":3416:3428  _msgSender() */\n              jump\t// in\n            tag_88:\n                /* \"@openzeppelin/contracts/token/ERC20/ERC20.sol\":3400:3428  address owner = _msgSender() */\n              swap1\n              pop\n                /* \"@openzeppelin/contracts/token/ERC20/ERC20.sol\":3438:3465  _transfer(owner, to, value) */\n              tag_89\n                /* \"@openzeppelin/contracts/token/ERC20/ERC20.sol\":3448:3453  owner */\n              dup2\n                /* \"@openzeppelin/contracts/token/ERC20/ERC20.sol\":3455:3457  to */\n              dup6\n                /* \"@openzeppelin/contracts/token/ERC20/ERC20.sol\":3459:3464  value */\n              dup6\n                /* \"@openzeppelin/contracts/token/ERC20/ERC20.sol\":3438:3447  _transfer */\n              tag_75\n                /* \"@openzeppelin/contracts/token/ERC20/ERC20.sol\":3438:3465  _transfer(owner, to, value) */\n              jump\t// in\n            tag_89:\n                /* \"@openzeppelin/contracts/token/ERC20/ERC20.sol\":3482:3486  true */\n              0x01\n                /* \"@openzeppelin/contracts/token/ERC20/ERC20.sol\":3475:3486  return true */\n              swap2\n              pop\n              pop\n                /* \"@openzeppelin/contracts/token/ERC20/ERC20.sol\":3315:3493  function transfer(address to, uint256 value) public virtual returns (bool) {... */\n              swap3\n              swap2\n              pop\n              pop\n              jump\t// out\n                /* \"@openzeppelin/contracts/token/ERC20/ERC20.sol\":3551:3691  function allowance(address owner, address spender) public view virtual returns (uint256) {... */\n            tag_55:\n                /* \"@openzeppelin/contracts/token/ERC20/ERC20.sol\":3631:3638  uint256 */\n              0x00\n                /* \"@openzeppelin/contracts/token/ERC20/ERC20.sol\":3657:3668  _allowances */\n              0x01\n                /* \"@openzeppelin/contracts/token/ERC20/ERC20.sol\":3657:3675  _allowances[owner] */\n              0x00\n                /* \"@openzeppelin/contracts/token/ERC20/ERC20.sol\":3669:3674  owner */\n              dup5\n                /* \"@openzeppelin/contracts/token/ERC20/ERC20.sol\":3657:3675  _allowances[owner] */\n              0xffffffffffffffffffffffffffffffffffffffff\n              and\n              0xffffffffffffffffffffffffffffffffffffffff\n              and\n              dup2\n              mstore\n              0x20\n              add\n              swap1\n              dup2\n              mstore\n              0x20\n              add\n              0x00\n              keccak256\n                /* \"@openzeppelin/contracts/token/ERC20/ERC20.sol\":3657:3684  _allowances[owner][spender] */\n              0x00\n                /* \"@openzeppelin/contracts/token/ERC20/ERC20.sol\":3676:3683  spender */\n              dup4\n                /* \"@openzeppelin/contracts/token/ERC20/ERC20.sol\":3657:3684  _allowances[owner][spender] */\n              0xffffffffffffffffffffffffffffffffffffffff\n              and\n              0xffffffffffffffffffffffffffffffffffffffff\n              and\n              dup2\n              mstore\n              0x20\n              add\n              swap1\n              dup2\n              mstore\n              0x20\n              add\n              0x00\n              keccak256\n              sload\n                /* \"@openzeppelin/contracts/token/ERC20/ERC20.sol\":3650:3684  return _allowances[owner][spender] */\n              swap1\n              pop\n                /* \"@openzeppelin/contracts/token/ERC20/ERC20.sol\":3551:3691  function allowance(address owner, address spender) public view virtual returns (uint256) {... */\n              swap3\n              swap2\n              pop\n              pop\n              jump\t// out\n                /* \"@openzeppelin/contracts/utils/Context.sol\":656:752  function _msgSender() internal view virtual returns (address) {... */\n            tag_66:\n                /* \"@openzeppelin/contracts/utils/Context.sol\":709:716  address */\n              0x00\n                /* \"@openzeppelin/contracts/utils/Context.sol\":735:745  msg.sender */\n              caller\n                /* \"@openzeppelin/contracts/utils/Context.sol\":728:745  return msg.sender */\n              swap1\n              pop\n                /* \"@openzeppelin/contracts/utils/Context.sol\":656:752  function _msgSender() internal view virtual returns (address) {... */\n              swap1\n              jump\t// out\n                /* \"@openzeppelin/contracts/token/ERC20/ERC20.sol\":8726:8854  function _approve(address owner, address spender, uint256 value) internal {... */\n            tag_68:\n                /* \"@openzeppelin/contracts/token/ERC20/ERC20.sol\":8810:8847  _approve(owner, spender, value, true) */\n              tag_93\n                /* \"@openzeppelin/contracts/token/ERC20/ERC20.sol\":8819:8824  owner */\n              dup4\n                /* \"@openzeppelin/contracts/token/ERC20/ERC20.sol\":8826:8833  spender */\n              dup4\n                /* \"@openzeppelin/contracts/token/ERC20/ERC20.sol\":8835:8840  value */\n              dup4\n                /* \"@openzeppelin/contracts/token/ERC20/ERC20.sol\":8842:8846  true */\n              0x01\n                /* \"@openzeppelin/contracts/token/ERC20/ERC20.sol\":8810:8818  _approve */\n              tag_94\n                /* \"@openzeppelin/contracts/token/ERC20/ERC20.sol\":8810:8847  _approve(owner, spender, value, true) */\n              jump\t// in\n            tag_93:\n                /* \"@openzeppelin/contracts/token/ERC20/ERC20.sol\":8726:8854  function _approve(address owner, address spender, uint256 value) internal {... */\n              pop\n              pop\n              pop\n              jump\t// out\n                /* \"@openzeppelin/contracts/token/ERC20/ERC20.sol\":10415:10892  function _spendAllowance(address owner, address spender, uint256 value) internal virtual {... */\n            tag_73:\n                /* \"@openzeppelin/contracts/token/ERC20/ERC20.sol\":10514:10538  uint256 currentAllowance */\n              0x00\n                /* \"@openzeppelin/contracts/token/ERC20/ERC20.sol\":10541:10566  allowance(owner, spender) */\n              tag_96\n                /* \"@openzeppelin/contracts/token/ERC20/ERC20.sol\":10551:10556  owner */\n              dup5\n                /* \"@openzeppelin/contracts/token/ERC20/ERC20.sol\":10558:10565  spender */\n              dup5\n                /* \"@openzeppelin/contracts/token/ERC20/ERC20.sol\":10541:10550  allowance */\n              tag_55\n                /* \"@openzeppelin/contracts/token/ERC20/ERC20.sol\":10541:10566  allowance(owner, spender) */\n              jump\t// in\n            tag_96:\n                /* \"@openzeppelin/contracts/token/ERC20/ERC20.sol\":10514:10566  uint256 currentAllowance = allowance(owner, spender) */\n              swap1\n              pop\n                /* \"@openzeppelin/contracts/token/ERC20/ERC20.sol\":10600:10617  type(uint256).max */\n              0xffffffffffffffffffffffffffffffffffffffffffffffffffffffffffffffff\n                /* \"@openzeppelin/contracts/token/ERC20/ERC20.sol\":10580:10596  currentAllowance */\n              dup2\n                /* \"@openzeppelin/contracts/token/ERC20/ERC20.sol\":10580:10617  currentAllowance != type(uint256).max */\n              eq\n                /* \"@openzeppelin/contracts/token/ERC20/ERC20.sol\":10576:10886  if (currentAllowance != type(uint256).max) {... */\n              tag_97\n              jumpi\n                /* \"@openzeppelin/contracts/token/ERC20/ERC20.sol\":10656:10661  value */\n              dup2\n                /* \"@openzeppelin/contracts/token/ERC20/ERC20.sol\":10637:10653  currentAllowance */\n              dup2\n                /* \"@openzeppelin/contracts/token/ERC20/ERC20.sol\":10637:10661  currentAllowance < value */\n              lt\n                /* \"@openzeppelin/contracts/token/ERC20/ERC20.sol\":10633:10763  if (currentAllowance < value) {... */\n              iszero\n              tag_98\n              jumpi\n                /* \"@openzeppelin/contracts/token/ERC20/ERC20.sol\":10715:10722  spender */\n              dup3\n                /* \"@openzeppelin/contracts/token/ERC20/ERC20.sol\":10724:10740  currentAllowance */\n              dup2\n                /* \"@openzeppelin/contracts/token/ERC20/ERC20.sol\":10742:10747  value */\n              dup4\n                /* \"@openzeppelin/contracts/token/ERC20/ERC20.sol\":10688:10748  ERC20InsufficientAllowance(spender, currentAllowance, value) */\n              mload(0x40)\n              0xfb8f41b200000000000000000000000000000000000000000000000000000000\n              dup2\n              mstore\n              0x04\n              add\n              tag_99\n              swap4\n              swap3\n              swap2\n              swap1\n              tag_100\n              jump\t// in\n            tag_99:\n              mload(0x40)\n              dup1\n              swap2\n              sub\n              swap1\n              revert\n                /* \"@openzeppelin/contracts/token/ERC20/ERC20.sol\":10633:10763  if (currentAllowance < value) {... */\n            tag_98:\n                /* \"@openzeppelin/contracts/token/ERC20/ERC20.sol\":10804:10861  _approve(owner, spender, currentAllowance - value, false) */\n              tag_101\n                /* \"@openzeppelin/contracts/token/ERC20/ERC20.sol\":10813:10818  owner */\n              dup5\n                /* \"@openzeppelin/contracts/token/ERC20/ERC20.sol\":10820:10827  spender */\n              dup5\n                /* \"@openzeppelin/contracts/token/ERC20/ERC20.sol\":10848:10853  value */\n              dup5\n                /* \"@openzeppelin/contracts/token/ERC20/ERC20.sol\":10829:10845  currentAllowance */\n              dup5\n                /* \"@openzeppelin/contracts/token/ERC20/ERC20.sol\":10829:10853  currentAllowance - value */\n              sub\n                /* \"@openzeppelin/contracts/token/ERC20/ERC20.sol\":10855:10860  false */\n              0x00\n                /* \"@openzeppelin/contracts/token/ERC20/ERC20.sol\":10804:10812  _approve */\n              tag_94\n                /* \"@openzeppelin/contracts/token/ERC20/ERC20.sol\":10804:10861  _approve(owner, spender, currentAllowance - value, false) */\n              jump\t// in\n            tag_101:\n                /* \"@openzeppelin/contracts/token/ERC20/ERC20.sol\":10576:10886  if (currentAllowance != type(uint256).max) {... */\n            tag_97:\n                /* \"@openzeppelin/contracts/token/ERC20/ERC20.sol\":10504:10892  {... */\n              pop\n                /* \"@openzeppelin/contracts/token/ERC20/ERC20.sol\":10415:10892  function _spendAllowance(address owner, address spender, uint256 value) internal virtual {... */\n              pop\n              pop\n              pop\n              jump\t// out\n                /* \"@openzeppelin/contracts/token/ERC20/ERC20.sol\":5393:5693  function _transfer(address from, address to, uint256 value) internal {... */\n            tag_75:\n                /* \"@openzeppelin/contracts/token/ERC20/ERC20.sol\":5492:5493  0 */\n              0x00\n                /* \"@openzeppelin/contracts/token/ERC20/ERC20.sol\":5476:5494  from == address(0) */\n              0xffffffffffffffffffffffffffffffffffffffff\n              and\n                /* \"@openzeppelin/contracts/token/ERC20/ERC20.sol\":5476:5480  from */\n              dup4\n                /* \"@openzeppelin/contracts/token/ERC20/ERC20.sol\":5476:5494  from == address(0) */\n              0xffffffffffffffffffffffffffffffffffffffff\n              and\n              sub\n                /* \"@openzeppelin/contracts/token/ERC20/ERC20.sol\":5472:5558  if (from == address(0)) {... */\n              tag_103\n              jumpi\n                /* \"@openzeppelin/contracts/token/ERC20/ERC20.sol\":5544:5545  0 */\n              0x00\n                /* \"@openzeppelin/contracts/token/ERC20/ERC20.sol\":5517:5547  ERC20InvalidSender(address(0)) */\n              mload(0x40)\n              0x96c6fd1e00000000000000000000000000000000000000000000000000000000\n              dup2\n              mstore\n              0x04\n              add\n              tag_104\n              swap2\n              swap1\n              tag_105\n              jump\t// in\n            tag_104:\n              mload(0x40)\n              dup1\n              swap2\n              sub\n              swap1\n              revert\n                /* \"@openzeppelin/contracts/token/ERC20/ERC20.sol\":5472:5558  if (from == address(0)) {... */\n            tag_103:\n                /* \"@openzeppelin/contracts/token/ERC20/ERC20.sol\":5585:5586  0 */\n              0x00\n                /* \"@openzeppelin/contracts/token/ERC20/ERC20.sol\":5571:5587  to == address(0) */\n              0xffffffffffffffffffffffffffffffffffffffff\n              and\n                /* \"@openzeppelin/contracts/token/ERC20/ERC20.sol\":5571:5573  to */\n              dup3\n                /* \"@openzeppelin/contracts/token/ERC20/ERC20.sol\":5571:5587  to == address(0) */\n              0xffffffffffffffffffffffffffffffffffffffff\n              and\n              sub\n                /* \"@openzeppelin/contracts/token/ERC20/ERC20.sol\":5567:5653  if (to == address(0)) {... */\n              tag_106\n              jumpi\n                /* \"@openzeppelin/contracts/token/ERC20/ERC20.sol\":5639:5640  0 */\n              0x00\n                /* \"@openzeppelin/contracts/token/ERC20/ERC20.sol\":5610:5642  ERC20InvalidReceiver(address(0)) */\n              mload(0x40)\n              0xec442f0500000000000000000000000000000000000000000000000000000000\n              dup2\n              mstore\n              0x04\n              add\n              tag_107\n              swap2\n              swap1\n              tag_105\n              jump\t// in\n            tag_107:\n              mload(0x40)\n              dup1\n              swap2\n              sub\n              swap1\n              revert\n                /* \"@openzeppelin/contracts/token/ERC20/ERC20.sol\":5567:5653  if (to == address(0)) {... */\n            tag_106:\n                /* \"@openzeppelin/contracts/token/ERC20/ERC20.sol\":5662:5686  _update(from, to, value) */\n              tag_108\n                /* \"@openzeppelin/contracts/token/ERC20/ERC20.sol\":5670:5674  from */\n              dup4\n                /* \"@openzeppelin/contracts/token/ERC20/ERC20.sol\":5676:5678  to */\n              dup4\n                /* \"@openzeppelin/contracts/token/ERC20/ERC20.sol\":5680:5685  value */\n              dup4\n                /* \"@openzeppelin/contracts/token/ERC20/ERC20.sol\":5662:5669  _update */\n              tag_109\n                /* \"@openzeppelin/contracts/token/ERC20/ERC20.sol\":5662:5686  _update(from, to, value) */\n              jump\t// in\n            tag_108:\n                /* \"@openzeppelin/contracts/token/ERC20/ERC20.sol\":5393:5693  function _transfer(address from, address to, uint256 value) internal {... */\n              pop\n              pop\n              pop\n              jump\t// out\n                /* \"@openzeppelin/contracts/token/ERC20/ERC20.sol\":7458:7666  function _mint(address account, uint256 value) internal {... */\n            tag_79:\n                /* \"@openzeppelin/contracts/token/ERC20/ERC20.sol\":7547:7548  0 */\n              0x00\n                /* \"@openzeppelin/contracts/token/ERC20/ERC20.sol\":7528:7549  account == address(0) */\n              0xffffffffffffffffffffffffffffffffffffffff\n              and\n                /* \"@openzeppelin/contracts/token/ERC20/ERC20.sol\":7528:7535  account */\n              dup3\n                /* \"@openzeppelin/contracts/token/ERC20/ERC20.sol\":7528:7549  account == address(0) */\n              0xffffffffffffffffffffffffffffffffffffffff\n              and\n              sub\n                /* \"@openzeppelin/contracts/token/ERC20/ERC20.sol\":7524:7615  if (account == address(0)) {... */\n              tag_111\n              jumpi\n                /* \"@openzeppelin/contracts/token/ERC20/ERC20.sol\":7601:7602  0 */\n              0x00\n                /* \"@openzeppelin/contracts/token/ERC20/ERC20.sol\":7572:7604  ERC20InvalidReceiver(address(0)) */\n              mload(0x40)\n              0xec442f0500000000000000000000000000000000000000000000000000000000\n              dup2\n              mstore\n              0x04\n              add\n              tag_112\n              swap2\n              swap1\n              tag_105\n              jump\t// in\n            tag_112:\n              mload(0x40)\n              dup1\n              swap2\n              sub\n              swap1\n              revert\n                /* \"@openzeppelin/contracts/token/ERC20/ERC20.sol\":7524:7615  if (account == address(0)) {... */\n            tag_111:\n                /* \"@openzeppelin/contracts/token/ERC20/ERC20.sol\":7624:7659  _update(address(0), account, value) */\n              tag_113\n                /* \"@openzeppelin/contracts/token/ERC20/ERC20.sol\":7640:7641  0 */\n              0x00\n                /* \"@openzeppelin/contracts/token/ERC20/ERC20.sol\":7644:7651  account */\n              dup4\n                /* \"@openzeppelin/contracts/token/ERC20/ERC20.sol\":7653:7658  value */\n              dup4\n                /* \"@openzeppelin/contracts/token/ERC20/ERC20.sol\":7624:7631  _update */\n              tag_109\n                /* \"@openzeppelin/contracts/token/ERC20/ERC20.sol\":7624:7659  _update(address(0), account, value) */\n              jump\t// in\n            tag_113:\n                /* \"@openzeppelin/contracts/token/ERC20/ERC20.sol\":7458:7666  function _mint(address account, uint256 value) internal {... */\n              pop\n              pop\n              jump\t// out\n                /* \"@openzeppelin/contracts/token/ERC20/ERC20.sol\":9701:10133  function _approve(address owner, address spender, uint256 value, bool emitEvent) internal virtual {... */\n            tag_94:\n                /* \"@openzeppelin/contracts/token/ERC20/ERC20.sol\":9830:9831  0 */\n              0x00\n                /* \"@openzeppelin/contracts/token/ERC20/ERC20.sol\":9813:9832  owner == address(0) */\n              0xffffffffffffffffffffffffffffffffffffffff\n              and\n                /* \"@openzeppelin/contracts/token/ERC20/ERC20.sol\":9813:9818  owner */\n              dup5\n                /* \"@openzeppelin/contracts/token/ERC20/ERC20.sol\":9813:9832  owner == address(0) */\n              0xffffffffffffffffffffffffffffffffffffffff\n              and\n              sub\n                /* \"@openzeppelin/contracts/token/ERC20/ERC20.sol\":9809:9898  if (owner == address(0)) {... */\n              tag_115\n              jumpi\n                /* \"@openzeppelin/contracts/token/ERC20/ERC20.sol\":9884:9885  0 */\n              0x00\n                /* \"@openzeppelin/contracts/token/ERC20/ERC20.sol\":9855:9887  ERC20InvalidApprover(address(0)) */\n              mload(0x40)\n              0xe602df0500000000000000000000000000000000000000000000000000000000\n              dup2\n              mstore\n              0x04\n              add\n              tag_116\n              swap2\n              swap1\n              tag_105\n              jump\t// in\n            tag_116:\n              mload(0x40)\n              dup1\n              swap2\n              sub\n              swap1\n              revert\n                /* \"@openzeppelin/contracts/token/ERC20/ERC20.sol\":9809:9898  if (owner == address(0)) {... */\n            tag_115:\n                /* \"@openzeppelin/contracts/token/ERC20/ERC20.sol\":9930:9931  0 */\n              0x00\n                /* \"@openzeppelin/contracts/token/ERC20/ERC20.sol\":9911:9932  spender == address(0) */\n              0xffffffffffffffffffffffffffffffffffffffff\n              and\n                /* \"@openzeppelin/contracts/token/ERC20/ERC20.sol\":9911:9918  spender */\n              dup4\n                /* \"@openzeppelin/contracts/token/ERC20/ERC20.sol\":9911:9932  spender == address(0) */\n              0xffffffffffffffffffffffffffffffffffffffff\n              and\n              sub\n                /* \"@openzeppelin/contracts/token/ERC20/ERC20.sol\":9907:9997  if (spender == address(0)) {... */\n              tag_117\n              jumpi\n                /* \"@openzeppelin/contracts/token/ERC20/ERC20.sol\":9983:9984  0 */\n              0x00\n                /* \"@openzeppelin/contracts/token/ERC20/ERC20.sol\":9955:9986  ERC20InvalidSpender(address(0)) */\n              mload(0x40)\n              0x94280d6200000000000000000000000000000000000000000000000000000000\n              dup2\n              mstore\n              0x04\n              add\n              tag_118\n              swap2\n              swap1\n              tag_105\n              jump\t// in\n            tag_118:\n              mload(0x40)\n              dup1\n              swap2\n              sub\n              swap1\n              revert\n                /* \"@openzeppelin/contracts/token/ERC20/ERC20.sol\":9907:9997  if (spender == address(0)) {... */\n            tag_117:\n                /* \"@openzeppelin/contracts/token/ERC20/ERC20.sol\":10036:10041  value */\n              dup2\n                /* \"@openzeppelin/contracts/token/ERC20/ERC20.sol\":10006:10017  _allowances */\n              0x01\n                /* \"@openzeppelin/contracts/token/ERC20/ERC20.sol\":10006:10024  _allowances[owner] */\n              0x00\n                /* \"@openzeppelin/contracts/token/ERC20/ERC20.sol\":10018:10023  owner */\n              dup7\n                /* \"@openzeppelin/contracts/token/ERC20/ERC20.sol\":10006:10024  _allowances[owner] */\n              0xffffffffffffffffffffffffffffffffffffffff\n              and\n              0xffffffffffffffffffffffffffffffffffffffff\n              and\n              dup2\n              mstore\n              0x20\n              add\n              swap1\n              dup2\n              mstore\n              0x20\n              add\n              0x00\n              keccak256\n                /* \"@openzeppelin/contracts/token/ERC20/ERC20.sol\":10006:10033  _allowances[owner][spender] */\n              0x00\n                /* \"@openzeppelin/contracts/token/ERC20/ERC20.sol\":10025:10032  spender */\n              dup6\n                /* \"@openzeppelin/contracts/token/ERC20/ERC20.sol\":10006:10033  _allowances[owner][spender] */\n              0xffffffffffffffffffffffffffffffffffffffff\n              and\n              0xffffffffffffffffffffffffffffffffffffffff\n              and\n              dup2\n              mstore\n              0x20\n              add\n              swap1\n              dup2\n              mstore\n              0x20\n              add\n              0x00\n              keccak256\n                /* \"@openzeppelin/contracts/token/ERC20/ERC20.sol\":10006:10041  _allowances[owner][spender] = value */\n              dup2\n              swap1\n              sstore\n              pop\n                /* \"@openzeppelin/contracts/token/ERC20/ERC20.sol\":10055:10064  emitEvent */\n              dup1\n                /* \"@openzeppelin/contracts/token/ERC20/ERC20.sol\":10051:10127  if (emitEvent) {... */\n              iszero\n              tag_119\n              jumpi\n                /* \"@openzeppelin/contracts/token/ERC20/ERC20.sol\":10101:10108  spender */\n              dup3\n                /* \"@openzeppelin/contracts/token/ERC20/ERC20.sol\":10085:10116  Approval(owner, spender, value) */\n              0xffffffffffffffffffffffffffffffffffffffff\n              and\n                /* \"@openzeppelin/contracts/token/ERC20/ERC20.sol\":10094:10099  owner */\n              dup5\n                /* \"@openzeppelin/contracts/token/ERC20/ERC20.sol\":10085:10116  Approval(owner, spender, value) */\n              0xffffffffffffffffffffffffffffffffffffffff\n              and\n              0x8c5be1e5ebec7d5bd14f71427d1e84f3dd0314c0f7b2291e5b200ac8c7c3b925\n                /* \"@openzeppelin/contracts/token/ERC20/ERC20.sol\":10110:10115  value */\n              dup5\n                /* \"@openzeppelin/contracts/token/ERC20/ERC20.sol\":10085:10116  Approval(owner, spender, value) */\n              mload(0x40)\n              tag_120\n              swap2\n              swap1\n              tag_27\n              jump\t// in\n            tag_120:\n              mload(0x40)\n              dup1\n              swap2\n              sub\n              swap1\n              log3\n                /* \"@openzeppelin/contracts/token/ERC20/ERC20.sol\":10051:10127  if (emitEvent) {... */\n            tag_119:\n                /* \"@openzeppelin/contracts/token/ERC20/ERC20.sol\":9701:10133  function _approve(address owner, address spender, uint256 value, bool emitEvent) internal virtual {... */\n              pop\n              pop\n              pop\n              pop\n              jump\t// out\n                /* \"@openzeppelin/contracts/token/ERC20/ERC20.sol\":6008:7115  function _update(address from, address to, uint256 value) internal virtual {... */\n            tag_109:\n                /* \"@openzeppelin/contracts/token/ERC20/ERC20.sol\":6113:6114  0 */\n              0x00\n                /* \"@openzeppelin/contracts/token/ERC20/ERC20.sol\":6097:6115  from == address(0) */\n              0xffffffffffffffffffffffffffffffffffffffff\n              and\n                /* \"@openzeppelin/contracts/token/ERC20/ERC20.sol\":6097:6101  from */\n              dup4\n                /* \"@openzeppelin/contracts/token/ERC20/ERC20.sol\":6097:6115  from == address(0) */\n              0xffffffffffffffffffffffffffffffffffffffff\n              and\n              sub\n                /* \"@openzeppelin/contracts/token/ERC20/ERC20.sol\":6093:6633  if (from == address(0)) {... */\n              tag_122\n              jumpi\n                /* \"@openzeppelin/contracts/token/ERC20/ERC20.sol\":6249:6254  value */\n              dup1\n                /* \"@openzeppelin/contracts/token/ERC20/ERC20.sol\":6233:6245  _totalSupply */\n              0x02\n              0x00\n                /* \"@openzeppelin/contracts/token/ERC20/ERC20.sol\":6233:6254  _totalSupply += value */\n              dup3\n              dup3\n              sload\n              tag_123\n              swap2\n              swap1\n              tag_124\n              jump\t// in\n            tag_123:\n              swap3\n              pop\n              pop\n              dup2\n              swap1\n              sstore\n              pop\n                /* \"@openzeppelin/contracts/token/ERC20/ERC20.sol\":6093:6633  if (from == address(0)) {... */\n              jump(tag_125)\n            tag_122:\n                /* \"@openzeppelin/contracts/token/ERC20/ERC20.sol\":6285:6304  uint256 fromBalance */\n              0x00\n                /* \"@openzeppelin/contracts/token/ERC20/ERC20.sol\":6307:6316  _balances */\n              dup1\n                /* \"@openzeppelin/contracts/token/ERC20/ERC20.sol\":6307:6322  _balances[from] */\n              0x00\n                /* \"@openzeppelin/contracts/token/ERC20/ERC20.sol\":6317:6321  from */\n              dup6\n                /* \"@openzeppelin/contracts/token/ERC20/ERC20.sol\":6307:6322  _balances[from] */\n              0xffffffffffffffffffffffffffffffffffffffff\n              and\n              0xffffffffffffffffffffffffffffffffffffffff\n              and\n              dup2\n              mstore\n              0x20\n              add\n              swap1\n              dup2\n              mstore\n              0x20\n              add\n              0x00\n              keccak256\n              sload\n                /* \"@openzeppelin/contracts/token/ERC20/ERC20.sol\":6285:6322  uint256 fromBalance = _balances[from] */\n              swap1\n              pop\n                /* \"@openzeppelin/contracts/token/ERC20/ERC20.sol\":6354:6359  value */\n              dup2\n                /* \"@openzeppelin/contracts/token/ERC20/ERC20.sol\":6340:6351  fromBalance */\n              dup2\n                /* \"@openzeppelin/contracts/token/ERC20/ERC20.sol\":6340:6359  fromBalance < value */\n              lt\n                /* \"@openzeppelin/contracts/token/ERC20/ERC20.sol\":6336:6451  if (fromBalance < value) {... */\n              iszero\n              tag_126\n              jumpi\n                /* \"@openzeppelin/contracts/token/ERC20/ERC20.sol\":6411:6415  from */\n              dup4\n                /* \"@openzeppelin/contracts/token/ERC20/ERC20.sol\":6417:6428  fromBalance */\n              dup2\n                /* \"@openzeppelin/contracts/token/ERC20/ERC20.sol\":6430:6435  value */\n              dup4\n                /* \"@openzeppelin/contracts/token/ERC20/ERC20.sol\":6386:6436  ERC20InsufficientBalance(from, fromBalance, value) */\n              mload(0x40)\n              0xe450d38c00000000000000000000000000000000000000000000000000000000\n              dup2\n              mstore\n              0x04\n              add\n              tag_127\n              swap4\n              swap3\n              swap2\n              swap1\n              tag_100\n              jump\t// in\n            tag_127:\n              mload(0x40)\n              dup1\n              swap2\n              sub\n              swap1\n              revert\n                /* \"@openzeppelin/contracts/token/ERC20/ERC20.sol\":6336:6451  if (fromBalance < value) {... */\n            tag_126:\n                /* \"@openzeppelin/contracts/token/ERC20/ERC20.sol\":6603:6608  value */\n              dup2\n                /* \"@openzeppelin/contracts/token/ERC20/ERC20.sol\":6589:6600  fromBalance */\n              dup2\n                /* \"@openzeppelin/contracts/token/ERC20/ERC20.sol\":6589:6608  fromBalance - value */\n              sub\n                /* \"@openzeppelin/contracts/token/ERC20/ERC20.sol\":6571:6580  _balances */\n              0x00\n                /* \"@openzeppelin/contracts/token/ERC20/ERC20.sol\":6571:6586  _balances[from] */\n              dup1\n                /* \"@openzeppelin/contracts/token/ERC20/ERC20.sol\":6581:6585  from */\n              dup7\n                /* \"@openzeppelin/contracts/token/ERC20/ERC20.sol\":6571:6586  _balances[from] */\n              0xffffffffffffffffffffffffffffffffffffffff\n              and\n              0xffffffffffffffffffffffffffffffffffffffff\n              and\n              dup2\n              mstore\n              0x20\n              add\n              swap1\n              dup2\n              mstore\n              0x20\n              add\n              0x00\n              keccak256\n                /* \"@openzeppelin/contracts/token/ERC20/ERC20.sol\":6571:6608  _balances[from] = fromBalance - value */\n              dup2\n              swap1\n              sstore\n              pop\n                /* \"@openzeppelin/contracts/token/ERC20/ERC20.sol\":6271:6633  {... */\n              pop\n                /* \"@openzeppelin/contracts/token/ERC20/ERC20.sol\":6093:6633  if (from == address(0)) {... */\n            tag_125:\n                /* \"@openzeppelin/contracts/token/ERC20/ERC20.sol\":6661:6662  0 */\n              0x00\n                /* \"@openzeppelin/contracts/token/ERC20/ERC20.sol\":6647:6663  to == address(0) */\n              0xffffffffffffffffffffffffffffffffffffffff\n              and\n                /* \"@openzeppelin/contracts/token/ERC20/ERC20.sol\":6647:6649  to */\n              dup3\n                /* \"@openzeppelin/contracts/token/ERC20/ERC20.sol\":6647:6663  to == address(0) */\n              0xffffffffffffffffffffffffffffffffffffffff\n              and\n              sub\n                /* \"@openzeppelin/contracts/token/ERC20/ERC20.sol\":6643:7068  if (to == address(0)) {... */\n              tag_128\n              jumpi\n                /* \"@openzeppelin/contracts/token/ERC20/ERC20.sol\":6826:6831  value */\n              dup1\n                /* \"@openzeppelin/contracts/token/ERC20/ERC20.sol\":6810:6822  _totalSupply */\n              0x02\n              0x00\n                /* \"@openzeppelin/contracts/token/ERC20/ERC20.sol\":6810:6831  _totalSupply -= value */\n              dup3\n              dup3\n              sload\n              sub\n              swap3\n              pop\n              pop\n              dup2\n              swap1\n              sstore\n              pop\n                /* \"@openzeppelin/contracts/token/ERC20/ERC20.sol\":6643:7068  if (to == address(0)) {... */\n              jump(tag_129)\n            tag_128:\n                /* \"@openzeppelin/contracts/token/ERC20/ERC20.sol\":7038:7043  value */\n              dup1\n                /* \"@openzeppelin/contracts/token/ERC20/ERC20.sol\":7021:7030  _balances */\n              0x00\n                /* \"@openzeppelin/contracts/token/ERC20/ERC20.sol\":7021:7034  _balances[to] */\n              dup1\n                /* \"@openzeppelin/contracts/token/ERC20/ERC20.sol\":7031:7033  to */\n              dup5\n                /* \"@openzeppelin/contracts/token/ERC20/ERC20.sol\":7021:7034  _balances[to] */\n              0xffffffffffffffffffffffffffffffffffffffff\n              and\n              0xffffffffffffffffffffffffffffffffffffffff\n              and\n              dup2\n              mstore\n              0x20\n              add\n              swap1\n              dup2\n              mstore\n              0x20\n              add\n              0x00\n              keccak256\n              0x00\n                /* \"@openzeppelin/contracts/token/ERC20/ERC20.sol\":7021:7043  _balances[to] += value */\n              dup3\n              dup3\n              sload\n              add\n              swap3\n              pop\n              pop\n              dup2\n              swap1\n              sstore\n              pop\n                /* \"@openzeppelin/contracts/token/ERC20/ERC20.sol\":6643:7068  if (to == address(0)) {... */\n            tag_129:\n                /* \"@openzeppelin/contracts/token/ERC20/ERC20.sol\":7098:7100  to */\n              dup2\n                /* \"@openzeppelin/contracts/token/ERC20/ERC20.sol\":7083:7108  Transfer(from, to, value) */\n              0xffffffffffffffffffffffffffffffffffffffff\n              and\n                /* \"@openzeppelin/contracts/token/ERC20/ERC20.sol\":7092:7096  from */\n              dup4\n                /* \"@openzeppelin/contracts/token/ERC20/ERC20.sol\":7083:7108  Transfer(from, to, value) */\n              0xffffffffffffffffffffffffffffffffffffffff\n              and\n              0xddf252ad1be2c89b69c2b068fc378daa952ba7f163c4a11628f55a4df523b3ef\n                /* \"@openzeppelin/contracts/token/ERC20/ERC20.sol\":7102:7107  value */\n              dup4\n                /* \"@openzeppelin/contracts/token/ERC20/ERC20.sol\":7083:7108  Transfer(from, to, value) */\n              mload(0x40)\n              tag_130\n              swap2\n              swap1\n              tag_27\n              jump\t// in\n            tag_130:\n              mload(0x40)\n              dup1\n              swap2\n              sub\n              swap1\n              log3\n                /* \"@openzeppelin/contracts/token/ERC20/ERC20.sol\":6008:7115  function _update(address from, address to, uint256 value) internal virtual {... */\n              pop\n              pop\n              pop\n              jump\t// out\n                /* \"#utility.yul\":7:106   */\n            tag_131:\n                /* \"#utility.yul\":59:65   */\n              0x00\n                /* \"#utility.yul\":93:98   */\n              dup2\n                /* \"#utility.yul\":87:99   */\n              mload\n                /* \"#utility.yul\":77:99   */\n              swap1\n              pop\n                /* \"#utility.yul\":7:106   */\n              swap2\n              swap1\n              pop\n              jump\t// out\n                /* \"#utility.yul\":112:281   */\n            tag_132:\n                /* \"#utility.yul\":196:207   */\n              0x00\n                /* \"#utility.yul\":230:236   */\n              dup3\n                /* \"#utility.yul\":225:228   */\n              dup3\n                /* \"#utility.yul\":218:237   */\n              mstore\n                /* \"#utility.yul\":270:274   */\n              0x20\n                /* \"#utility.yul\":265:268   */\n              dup3\n                /* \"#utility.yul\":261:275   */\n              add\n                /* \"#utility.yul\":246:275   */\n              swap1\n              pop\n                /* \"#utility.yul\":112:281   */\n              swap3\n              swap2\n              pop\n              pop\n              jump\t// out\n                /* \"#utility.yul\":287:426   */\n            tag_133:\n                /* \"#utility.yul\":376:382   */\n              dup3\n                /* \"#utility.yul\":371:374   */\n              dup2\n                /* \"#utility.yul\":366:369   */\n              dup4\n                /* \"#utility.yul\":360:383   */\n              mcopy\n                /* \"#utility.yul\":417:418   */\n              0x00\n                /* \"#utility.yul\":408:414   */\n              dup4\n                /* \"#utility.yul\":403:406   */\n              dup4\n                /* \"#utility.yul\":399:415   */\n              add\n                /* \"#utility.yul\":392:419   */\n              mstore\n                /* \"#utility.yul\":287:426   */\n              pop\n              pop\n              pop\n              jump\t// out\n                /* \"#utility.yul\":432:534   */\n            tag_134:\n                /* \"#utility.yul\":473:479   */\n              0x00\n                /* \"#utility.yul\":524:526   */\n              0x1f\n                /* \"#utility.yul\":520:527   */\n              not\n                /* \"#utility.yul\":515:517   */\n              0x1f\n                /* \"#utility.yul\":508:513   */\n              dup4\n                /* \"#utility.yul\":504:518   */\n              add\n                /* \"#utility.yul\":500:528   */\n              and\n                /* \"#utility.yul\":490:528   */\n              swap1\n              pop\n                /* \"#utility.yul\":432:534   */\n              swap2\n              swap1\n              pop\n              jump\t// out\n                /* \"#utility.yul\":540:917   */\n            tag_135:\n                /* \"#utility.yul\":628:631   */\n              0x00\n                /* \"#utility.yul\":656:695   */\n              tag_160\n                /* \"#utility.yul\":689:694   */\n              dup3\n                /* \"#utility.yul\":656:695   */\n              tag_131\n              jump\t// in\n            tag_160:\n                /* \"#utility.yul\":711:782   */\n              tag_161\n                /* \"#utility.yul\":775:781   */\n              dup2\n                /* \"#utility.yul\":770:773   */\n              dup6\n                /* \"#utility.yul\":711:782   */\n              tag_132\n              jump\t// in\n            tag_161:\n                /* \"#utility.yul\":704:782   */\n              swap4\n              pop\n                /* \"#utility.yul\":791:856   */\n              tag_162\n                /* \"#utility.yul\":849:855   */\n              dup2\n                /* \"#utility.yul\":844:847   */\n              dup6\n                /* \"#utility.yul\":837:841   */\n              0x20\n                /* \"#utility.yul\":830:835   */\n              dup7\n                /* \"#utility.yul\":826:842   */\n              add\n                /* \"#utility.yul\":791:856   */\n              tag_133\n              jump\t// in\n            tag_162:\n                /* \"#utility.yul\":881:910   */\n              tag_163\n                /* \"#utility.yul\":903:909   */\n              dup2\n                /* \"#utility.yul\":881:910   */\n              tag_134\n              jump\t// in\n            tag_163:\n                /* \"#utility.yul\":876:879   */\n              dup5\n                /* \"#utility.yul\":872:911   */\n              add\n                /* \"#utility.yul\":865:911   */\n              swap2\n              pop\n                /* \"#utility.yul\":632:917   */\n              pop\n                /* \"#utility.yul\":540:917   */\n              swap3\n              swap2\n              pop\n              pop\n              jump\t// out\n                /* \"#utility.yul\":923:1236   */\n            tag_17:\n                /* \"#utility.yul\":1036:1040   */\n              0x00\n                /* \"#utility.yul\":1074:1076   */\n              0x20\n                /* \"#utility.yul\":1063:1072   */\n              dup3\n                /* \"#utility.yul\":1059:1077   */\n              add\n                /* \"#utility.yul\":1051:1077   */\n              swap1\n              pop\n                /* \"#utility.yul\":1123:1132   */\n              dup2\n                /* \"#utility.yul\":1117:1121   */\n              dup2\n                /* \"#utility.yul\":1113:1133   */\n              sub\n                /* \"#utility.yul\":1109:1110   */\n              0x00\n                /* \"#utility.yul\":1098:1107   */\n              dup4\n                /* \"#utility.yul\":1094:1111   */\n              add\n                /* \"#utility.yul\":1087:1134   */\n              mstore\n                /* \"#utility.yul\":1151:1229   */\n              tag_165\n                /* \"#utility.yul\":1224:1228   */\n              dup2\n                /* \"#utility.yul\":1215:1221   */\n              dup5\n                /* \"#utility.yul\":1151:1229   */\n              tag_135\n              jump\t// in\n            tag_165:\n                /* \"#utility.yul\":1143:1229   */\n              swap1\n              pop\n                /* \"#utility.yul\":923:1236   */\n              swap3\n              swap2\n              pop\n              pop\n              jump\t// out\n                /* \"#utility.yul\":1323:1440   */\n            tag_137:\n                /* \"#utility.yul\":1432:1433   */\n              0x00\n                /* \"#utility.yul\":1429:1430   */\n              dup1\n                /* \"#utility.yul\":1422:1434   */\n              revert\n                /* \"#utility.yul\":1569:1695   */\n            tag_139:\n                /* \"#utility.yul\":1606:1613   */\n              0x00\n                /* \"#utility.yul\":1646:1688   */\n              0xffffffffffffffffffffffffffffffffffffffff\n                /* \"#utility.yul\":1639:1644   */\n              dup3\n                /* \"#utility.yul\":1635:1689   */\n              and\n                /* \"#utility.yul\":1624:1689   */\n              swap1\n              pop\n                /* \"#utility.yul\":1569:1695   */\n              swap2\n              swap1\n              pop\n              jump\t// out\n                /* \"#utility.yul\":1701:1797   */\n            tag_140:\n                /* \"#utility.yul\":1738:1745   */\n              0x00\n                /* \"#utility.yul\":1767:1791   */\n              tag_171\n                /* \"#utility.yul\":1785:1790   */\n              dup3\n                /* \"#utility.yul\":1767:1791   */\n              tag_139\n              jump\t// in\n            tag_171:\n                /* \"#utility.yul\":1756:1791   */\n              swap1\n              pop\n                /* \"#utility.yul\":1701:1797   */\n              swap2\n              swap1\n              pop\n              jump\t// out\n                /* \"#utility.yul\":1803:1925   */\n            tag_141:\n                /* \"#utility.yul\":1876:1900   */\n              tag_173\n                /* \"#utility.yul\":1894:1899   */\n              dup2\n                /* \"#utility.yul\":1876:1900   */\n              tag_140\n              jump\t// in\n            tag_173:\n                /* \"#utility.yul\":1869:1874   */\n              dup2\n                /* \"#utility.yul\":1866:1901   */\n              eq\n                /* \"#utility.yul\":1856:1919   */\n              tag_174\n              jumpi\n                /* \"#utility.yul\":1915:1916   */\n              0x00\n                /* \"#utility.yul\":1912:1913   */\n              dup1\n                /* \"#utility.yul\":1905:1917   */\n              revert\n                /* \"#utility.yul\":1856:1919   */\n            tag_174:\n                /* \"#utility.yul\":1803:1925   */\n              pop\n              jump\t// out\n                /* \"#utility.yul\":1931:2070   */\n            tag_142:\n                /* \"#utility.yul\":1977:1982   */\n              0x00\n                /* \"#utility.yul\":2015:2021   */\n              dup2\n                /* \"#utility.yul\":2002:2022   */\n              calldataload\n                /* \"#utility.yul\":1993:2022   */\n              swap1\n              pop\n                /* \"#utility.yul\":2031:2064   */\n              tag_176\n                /* \"#utility.yul\":2058:2063   */\n              dup2\n                /* \"#utility.yul\":2031:2064   */\n              tag_141\n              jump\t// in\n            tag_176:\n                /* \"#utility.yul\":1931:2070   */\n              swap3\n              swap2\n              pop\n              pop\n              jump\t// out\n                /* \"#utility.yul\":2076:2153   */\n            tag_143:\n                /* \"#utility.yul\":2113:2120   */\n              0x00\n                /* \"#utility.yul\":2142:2147   */\n              dup2\n                /* \"#utility.yul\":2131:2147   */\n              swap1\n              pop\n                /* \"#utility.yul\":2076:2153   */\n              swap2\n              swap1\n              pop\n              jump\t// out\n                /* \"#utility.yul\":2159:2281   */\n            tag_144:\n                /* \"#utility.yul\":2232:2256   */\n              tag_179\n                /* \"#utility.yul\":2250:2255   */\n              dup2\n                /* \"#utility.yul\":2232:2256   */\n              tag_143\n              jump\t// in\n            tag_179:\n                /* \"#utility.yul\":2225:2230   */\n              dup2\n                /* \"#utility.yul\":2222:2257   */\n              eq\n                /* \"#utility.yul\":2212:2275   */\n              tag_180\n              jumpi\n                /* \"#utility.yul\":2271:2272   */\n              0x00\n                /* \"#utility.yul\":2268:2269   */\n              dup1\n                /* \"#utility.yul\":2261:2273   */\n              revert\n                /* \"#utility.yul\":2212:2275   */\n            tag_180:\n                /* \"#utility.yul\":2159:2281   */\n              pop\n              jump\t// out\n                /* \"#utility.yul\":2287:2426   */\n            tag_145:\n                /* \"#utility.yul\":2333:2338   */\n              0x00\n                /* \"#utility.yul\":2371:2377   */\n              dup2\n                /* \"#utility.yul\":2358:2378   */\n              calldataload\n                /* \"#utility.yul\":2349:2378   */\n              swap1\n              pop\n                /* \"#utility.yul\":2387:2420   */\n              tag_182\n                /* \"#utility.yul\":2414:2419   */\n              dup2\n                /* \"#utility.yul\":2387:2420   */\n              tag_144\n              jump\t// in\n            tag_182:\n                /* \"#utility.yul\":2287:2426   */\n              swap3\n              swap2\n              pop\n              pop\n              jump\t// out\n                /* \"#utility.yul\":2432:2906   */\n            tag_20:\n                /* \"#utility.yul\":2500:2506   */\n              0x00\n                /* \"#utility.yul\":2508:2514   */\n              dup1\n                /* \"#utility.yul\":2557:2559   */\n              0x40\n                /* \"#utility.yul\":2545:2554   */\n              dup4\n                /* \"#utility.yul\":2536:2543   */\n              dup6\n                /* \"#utility.yul\":2532:2555   */\n              sub\n                /* \"#utility.yul\":2528:2560   */\n              slt\n                /* \"#utility.yul\":2525:2644   */\n              iszero\n              tag_184\n              jumpi\n                /* \"#utility.yul\":2563:2642   */\n              tag_185\n              tag_137\n              jump\t// in\n            tag_185:\n                /* \"#utility.yul\":2525:2644   */\n            tag_184:\n                /* \"#utility.yul\":2683:2684   */\n              0x00\n                /* \"#utility.yul\":2708:2761   */\n              tag_186\n                /* \"#utility.yul\":2753:2760   */\n              dup6\n                /* \"#utility.yul\":2744:2750   */\n              dup3\n                /* \"#utility.yul\":2733:2742   */\n              dup7\n                /* \"#utility.yul\":2729:2751   */\n              add\n                /* \"#utility.yul\":2708:2761   */\n              tag_142\n              jump\t// in\n            tag_186:\n                /* \"#utility.yul\":2698:2761   */\n              swap3\n              pop\n                /* \"#utility.yul\":2654:2771   */\n              pop\n                /* \"#utility.yul\":2810:2812   */\n              0x20\n                /* \"#utility.yul\":2836:2889   */\n              tag_187\n                /* \"#utility.yul\":2881:2888   */\n              dup6\n                /* \"#utility.yul\":2872:2878   */\n              dup3\n                /* \"#utility.yul\":2861:2870   */\n              dup7\n                /* \"#utility.yul\":2857:2879   */\n              add\n                /* \"#utility.yul\":2836:2889   */\n              tag_145\n              jump\t// in\n            tag_187:\n                /* \"#utility.yul\":2826:2889   */\n              swap2\n              pop\n                /* \"#utility.yul\":2781:2899   */\n              pop\n                /* \"#utility.yul\":2432:2906   */\n              swap3\n              pop\n              swap3\n              swap1\n              pop\n              jump\t// out\n                /* \"#utility.yul\":2912:3002   */\n            tag_146:\n                /* \"#utility.yul\":2946:2953   */\n              0x00\n                /* \"#utility.yul\":2989:2994   */\n              dup2\n                /* \"#utility.yul\":2982:2995   */\n              iszero\n                /* \"#utility.yul\":2975:2996   */\n              iszero\n                /* \"#utility.yul\":2964:2996   */\n              swap1\n              pop\n                /* \"#utility.yul\":2912:3002   */\n              swap2\n              swap1\n              pop\n              jump\t// out\n                /* \"#utility.yul\":3008:3117   */\n            tag_147:\n                /* \"#utility.yul\":3089:3110   */\n              tag_190\n                /* \"#utility.yul\":3104:3109   */\n              dup2\n                /* \"#utility.yul\":3089:3110   */\n              tag_146\n              jump\t// in\n            tag_190:\n                /* \"#utility.yul\":3084:3087   */\n              dup3\n                /* \"#utility.yul\":3077:3111   */\n              mstore\n                /* \"#utility.yul\":3008:3117   */\n              pop\n              pop\n              jump\t// out\n                /* \"#utility.yul\":3123:3333   */\n            tag_23:\n                /* \"#utility.yul\":3210:3214   */\n              0x00\n                /* \"#utility.yul\":3248:3250   */\n              0x20\n                /* \"#utility.yul\":3237:3246   */\n              dup3\n                /* \"#utility.yul\":3233:3251   */\n              add\n                /* \"#utility.yul\":3225:3251   */\n              swap1\n              pop\n                /* \"#utility.yul\":3261:3326   */\n              tag_192\n                /* \"#utility.yul\":3323:3324   */\n              0x00\n                /* \"#utility.yul\":3312:3321   */\n              dup4\n                /* \"#utility.yul\":3308:3325   */\n              add\n                /* \"#utility.yul\":3299:3305   */\n              dup5\n                /* \"#utility.yul\":3261:3326   */\n              tag_147\n              jump\t// in\n            tag_192:\n                /* \"#utility.yul\":3123:3333   */\n              swap3\n              swap2\n              pop\n              pop\n              jump\t// out\n                /* \"#utility.yul\":3339:3457   */\n            tag_148:\n                /* \"#utility.yul\":3426:3450   */\n              tag_194\n                /* \"#utility.yul\":3444:3449   */\n              dup2\n                /* \"#utility.yul\":3426:3450   */\n              tag_143\n              jump\t// in\n            tag_194:\n                /* \"#utility.yul\":3421:3424   */\n              dup3\n                /* \"#utility.yul\":3414:3451   */\n              mstore\n                /* \"#utility.yul\":3339:3457   */\n              pop\n              pop\n              jump\t// out\n                /* \"#utility.yul\":3463:3685   */\n            tag_27:\n                /* \"#utility.yul\":3556:3560   */\n              0x00\n                /* \"#utility.yul\":3594:3596   */\n              0x20\n                /* \"#utility.yul\":3583:3592   */\n              dup3\n                /* \"#utility.yul\":3579:3597   */\n              add\n                /* \"#utility.yul\":3571:3597   */\n              swap1\n              pop\n                /* \"#utility.yul\":3607:3678   */\n              tag_196\n                /* \"#utility.yul\":3675:3676   */\n              0x00\n                /* \"#utility.yul\":3664:3673   */\n              dup4\n                /* \"#utility.yul\":3660:3677   */\n              add\n                /* \"#utility.yul\":3651:3657   */\n              dup5\n                /* \"#utility.yul\":3607:3678   */\n              tag_148\n              jump\t// in\n            tag_196:\n                /* \"#utility.yul\":3463:3685   */\n              swap3\n              swap2\n              pop\n              pop\n              jump\t// out\n                /* \"#utility.yul\":3691:4310   */\n            tag_30:\n                /* \"#utility.yul\":3768:3774   */\n              0x00\n                /* \"#utility.yul\":3776:3782   */\n              dup1\n                /* \"#utility.yul\":3784:3790   */\n              0x00\n                /* \"#utility.yul\":3833:3835   */\n              0x60\n                /* \"#utility.yul\":3821:3830   */\n              dup5\n                /* \"#utility.yul\":3812:3819   */\n              dup7\n                /* \"#utility.yul\":3808:3831   */\n              sub\n                /* \"#utility.yul\":3804:3836   */\n              slt\n                /* \"#utility.yul\":3801:3920   */\n              iszero\n              tag_198\n              jumpi\n                /* \"#utility.yul\":3839:3918   */\n              tag_199\n              tag_137\n              jump\t// in\n            tag_199:\n                /* \"#utility.yul\":3801:3920   */\n            tag_198:\n                /* \"#utility.yul\":3959:3960   */\n              0x00\n                /* \"#utility.yul\":3984:4037   */\n              tag_200\n                /* \"#utility.yul\":4029:4036   */\n              dup7\n                /* \"#utility.yul\":4020:4026   */\n              dup3\n                /* \"#utility.yul\":4009:4018   */\n              dup8\n                /* \"#utility.yul\":4005:4027   */\n              add\n                /* \"#utility.yul\":3984:4037   */\n              tag_142\n              jump\t// in\n            tag_200:\n                /* \"#utility.yul\":3974:4037   */\n              swap4\n              pop\n                /* \"#utility.yul\":3930:4047   */\n              pop\n                /* \"#utility.yul\":4086:4088   */\n              0x20\n                /* \"#utility.yul\":4112:4165   */\n              tag_201\n                /* \"#utility.yul\":4157:4164   */\n              dup7\n                /* \"#utility.yul\":4148:4154   */\n              dup3\n                /* \"#utility.yul\":4137:4146   */\n              dup8\n                /* \"#utility.yul\":4133:4155   */\n              add\n                /* \"#utility.yul\":4112:4165   */\n              tag_142\n              jump\t// in\n            tag_201:\n                /* \"#utility.yul\":4102:4165   */\n              swap3\n              pop\n                /* \"#utility.yul\":4057:4175   */\n              pop\n                /* \"#utility.yul\":4214:4216   */\n              0x40\n                /* \"#utility.yul\":4240:4293   */\n              tag_202\n                /* \"#utility.yul\":4285:4292   */\n              dup7\n                /* \"#utility.yul\":4276:4282   */\n              dup3\n                /* \"#utility.yul\":4265:4274   */\n              dup8\n                /* \"#utility.yul\":4261:4283   */\n              add\n                /* \"#utility.yul\":4240:4293   */\n              tag_145\n              jump\t// in\n            tag_202:\n                /* \"#utility.yul\":4230:4293   */\n              swap2\n              pop\n                /* \"#utility.yul\":4185:4303   */\n              pop\n                /* \"#utility.yul\":3691:4310   */\n              swap3\n              pop\n              swap3\n              pop\n              swap3\n              jump\t// out\n                /* \"#utility.yul\":4316:4402   */\n            tag_149:\n                /* \"#utility.yul\":4351:4358   */\n              0x00\n                /* \"#utility.yul\":4391:4395   */\n              0xff\n                /* \"#utility.yul\":4384:4389   */\n              dup3\n                /* \"#utility.yul\":4380:4396   */\n              and\n                /* \"#utility.yul\":4369:4396   */\n              swap1\n              pop\n                /* \"#utility.yul\":4316:4402   */\n              swap2\n              swap1\n              pop\n              jump\t// out\n                /* \"#utility.yul\":4408:4520   */\n            tag_150:\n                /* \"#utility.yul\":4491:4513   */\n              tag_205\n                /* \"#utility.yul\":4507:4512   */\n              dup2\n                /* \"#utility.yul\":4491:4513   */\n              tag_149\n              jump\t// in\n            tag_205:\n                /* \"#utility.yul\":4486:4489   */\n              dup3\n                /* \"#utility.yul\":4479:4514   */\n              mstore\n                /* \"#utility.yul\":4408:4520   */\n              pop\n              pop\n              jump\t// out\n                /* \"#utility.yul\":4526:4740   */\n            tag_36:\n                /* \"#utility.yul\":4615:4619   */\n              0x00\n                /* \"#utility.yul\":4653:4655   */\n              0x20\n                /* \"#utility.yul\":4642:4651   */\n              dup3\n                /* \"#utility.yul\":4638:4656   */\n              add\n                /* \"#utility.yul\":4630:4656   */\n              swap1\n              pop\n                /* \"#utility.yul\":4666:4733   */\n              tag_207\n                /* \"#utility.yul\":4730:4731   */\n              0x00\n                /* \"#utility.yul\":4719:4728   */\n              dup4\n                /* \"#utility.yul\":4715:4732   */\n              add\n                /* \"#utility.yul\":4706:4712   */\n              dup5\n                /* \"#utility.yul\":4666:4733   */\n              tag_150\n              jump\t// in\n            tag_207:\n                /* \"#utility.yul\":4526:4740   */\n              swap3\n              swap2\n              pop\n              pop\n              jump\t// out\n                /* \"#utility.yul\":4746:5075   */\n            tag_42:\n                /* \"#utility.yul\":4805:4811   */\n              0x00\n                /* \"#utility.yul\":4854:4856   */\n              0x20\n                /* \"#utility.yul\":4842:4851   */\n              dup3\n                /* \"#utility.yul\":4833:4840   */\n              dup5\n                /* \"#utility.yul\":4829:4852   */\n              sub\n                /* \"#utility.yul\":4825:4857   */\n              slt\n                /* \"#utility.yul\":4822:4941   */\n              iszero\n              tag_209\n              jumpi\n                /* \"#utility.yul\":4860:4939   */\n              tag_210\n              tag_137\n              jump\t// in\n            tag_210:\n                /* \"#utility.yul\":4822:4941   */\n            tag_209:\n                /* \"#utility.yul\":4980:4981   */\n              0x00\n                /* \"#utility.yul\":5005:5058   */\n              tag_211\n                /* \"#utility.yul\":5050:5057   */\n              dup5\n                /* \"#utility.yul\":5041:5047   */\n              dup3\n                /* \"#utility.yul\":5030:5039   */\n              dup6\n                /* \"#utility.yul\":5026:5048   */\n              add\n                /* \"#utility.yul\":5005:5058   */\n              tag_142\n              jump\t// in\n            tag_211:\n                /* \"#utility.yul\":4995:5058   */\n              swap2\n              pop\n                /* \"#utility.yul\":4951:5068   */\n              pop\n                /* \"#utility.yul\":4746:5075   */\n              swap3\n              swap2\n              pop\n              pop\n              jump\t// out\n                /* \"#utility.yul\":5081:5555   */\n            tag_54:\n                /* \"#utility.yul\":5149:5155   */\n              0x00\n                /* \"#utility.yul\":5157:5163   */\n              dup1\n                /* \"#utility.yul\":5206:5208   */\n              0x40\n                /* \"#utility.yul\":5194:5203   */\n              dup4\n                /* \"#utility.yul\":5185:5192   */\n              dup6\n                /* \"#utility.yul\":5181:5204   */\n              sub\n                /* \"#utility.yul\":5177:5209   */\n              slt\n                /* \"#utility.yul\":5174:5293   */\n              iszero\n              tag_213\n              jumpi\n                /* \"#utility.yul\":5212:5291   */\n              tag_214\n              tag_137\n              jump\t// in\n            tag_214:\n                /* \"#utility.yul\":5174:5293   */\n            tag_213:\n                /* \"#utility.yul\":5332:5333   */\n              0x00\n                /* \"#utility.yul\":5357:5410   */\n              tag_215\n                /* \"#utility.yul\":5402:5409   */\n              dup6\n                /* \"#utility.yul\":5393:5399   */\n              dup3\n                /* \"#utility.yul\":5382:5391   */\n              dup7\n                /* \"#utility.yul\":5378:5400   */\n              add\n                /* \"#utility.yul\":5357:5410   */\n              tag_142\n              jump\t// in\n            tag_215:\n                /* \"#utility.yul\":5347:5410   */\n              swap3\n              pop\n                /* \"#utility.yul\":5303:5420   */\n              pop\n                /* \"#utility.yul\":5459:5461   */\n              0x20\n                /* \"#utility.yul\":5485:5538   */\n              tag_216\n                /* \"#utility.yul\":5530:5537   */\n              dup6\n                /* \"#utility.yul\":5521:5527   */\n              dup3\n                /* \"#utility.yul\":5510:5519   */\n              dup7\n                /* \"#utility.yul\":5506:5528   */\n              add\n                /* \"#utility.yul\":5485:5538   */\n              tag_142\n              jump\t// in\n            tag_216:\n                /* \"#utility.yul\":5475:5538   */\n              swap2\n              pop\n                /* \"#utility.yul\":5430:5548   */\n              pop\n                /* \"#utility.yul\":5081:5555   */\n              swap3\n              pop\n              swap3\n              swap1\n              pop\n              jump\t// out\n                /* \"#utility.yul\":5561:5741   */\n            tag_151:\n                /* \"#utility.yul\":5609:5686   */\n              0x4e487b7100000000000000000000000000000000000000000000000000000000\n                /* \"#utility.yul\":5606:5607   */\n              0x00\n                /* \"#utility.yul\":5599:5687   */\n              mstore\n                /* \"#utility.yul\":5706:5710   */\n              0x22\n                /* \"#utility.yul\":5703:5704   */\n              0x04\n                /* \"#utility.yul\":5696:5711   */\n              mstore\n                /* \"#utility.yul\":5730:5734   */\n              0x24\n                /* \"#utility.yul\":5727:5728   */\n              0x00\n                /* \"#utility.yul\":5720:5735   */\n              revert\n                /* \"#utility.yul\":5747:6067   */\n            tag_59:\n                /* \"#utility.yul\":5791:5797   */\n              0x00\n                /* \"#utility.yul\":5828:5829   */\n              0x02\n                /* \"#utility.yul\":5822:5826   */\n              dup3\n                /* \"#utility.yul\":5818:5830   */\n              div\n                /* \"#utility.yul\":5808:5830   */\n              swap1\n              pop\n                /* \"#utility.yul\":5875:5876   */\n              0x01\n                /* \"#utility.yul\":5869:5873   */\n              dup3\n                /* \"#utility.yul\":5865:5877   */\n              and\n                /* \"#utility.yul\":5896:5914   */\n              dup1\n                /* \"#utility.yul\":5886:5967   */\n              tag_219\n              jumpi\n                /* \"#utility.yul\":5952:5956   */\n              0x7f\n                /* \"#utility.yul\":5944:5950   */\n              dup3\n                /* \"#utility.yul\":5940:5957   */\n              and\n                /* \"#utility.yul\":5930:5957   */\n              swap2\n              pop\n                /* \"#utility.yul\":5886:5967   */\n            tag_219:\n                /* \"#utility.yul\":6014:6016   */\n              0x20\n                /* \"#utility.yul\":6006:6012   */\n              dup3\n                /* \"#utility.yul\":6003:6017   */\n              lt\n                /* \"#utility.yul\":5983:6001   */\n              dup2\n                /* \"#utility.yul\":5980:6018   */\n              sub\n                /* \"#utility.yul\":5977:6061   */\n              tag_220\n              jumpi\n                /* \"#utility.yul\":6033:6051   */\n              tag_221\n              tag_151\n              jump\t// in\n            tag_221:\n                /* \"#utility.yul\":5977:6061   */\n            tag_220:\n                /* \"#utility.yul\":5798:6067   */\n              pop\n                /* \"#utility.yul\":5747:6067   */\n              swap2\n              swap1\n              pop\n              jump\t// out\n                /* \"#utility.yul\":6073:6191   */\n            tag_152:\n                /* \"#utility.yul\":6160:6184   */\n              tag_223\n                /* \"#utility.yul\":6178:6183   */\n              dup2\n                /* \"#utility.yul\":6160:6184   */\n              tag_140\n              jump\t// in\n            tag_223:\n                /* \"#utility.yul\":6155:6158   */\n              dup3\n                /* \"#utility.yul\":6148:6185   */\n              mstore\n                /* \"#utility.yul\":6073:6191   */\n              pop\n              pop\n              jump\t// out\n                /* \"#utility.yul\":6197:6639   */\n            tag_100:\n                /* \"#utility.yul\":6346:6350   */\n              0x00\n                /* \"#utility.yul\":6384:6386   */\n              0x60\n                /* \"#utility.yul\":6373:6382   */\n              dup3\n                /* \"#utility.yul\":6369:6387   */\n              add\n                /* \"#utility.yul\":6361:6387   */\n              swap1\n              pop\n                /* \"#utility.yul\":6397:6468   */\n              tag_225\n                /* \"#utility.yul\":6465:6466   */\n              0x00\n                /* \"#utility.yul\":6454:6463   */\n              dup4\n                /* \"#utility.yul\":6450:6467   */\n              add\n                /* \"#utility.yul\":6441:6447   */\n              dup7\n                /* \"#utility.yul\":6397:6468   */\n              tag_152\n              jump\t// in\n            tag_225:\n                /* \"#utility.yul\":6478:6550   */\n              tag_226\n                /* \"#utility.yul\":6546:6548   */\n              0x20\n                /* \"#utility.yul\":6535:6544   */\n              dup4\n                /* \"#utility.yul\":6531:6549   */\n              add\n                /* \"#utility.yul\":6522:6528   */\n              dup6\n                /* \"#utility.yul\":6478:6550   */\n              tag_148\n              jump\t// in\n            tag_226:\n                /* \"#utility.yul\":6560:6632   */\n              tag_227\n                /* \"#utility.yul\":6628:6630   */\n              0x40\n                /* \"#utility.yul\":6617:6626   */\n              dup4\n                /* \"#utility.yul\":6613:6631   */\n              add\n                /* \"#utility.yul\":6604:6610   */\n              dup5\n                /* \"#utility.yul\":6560:6632   */\n              tag_148\n              jump\t// in\n            tag_227:\n                /* \"#utility.yul\":6197:6639   */\n              swap5\n              swap4\n              pop\n              pop\n              pop\n              pop\n              jump\t// out\n                /* \"#utility.yul\":6645:6867   */\n            tag_105:\n                /* \"#utility.yul\":6738:6742   */\n              0x00\n                /* \"#utility.yul\":6776:6778   */\n              0x20\n                /* \"#utility.yul\":6765:6774   */\n              dup3\n                /* \"#utility.yul\":6761:6779   */\n              add\n                /* \"#utility.yul\":6753:6779   */\n              swap1\n              pop\n                /* \"#utility.yul\":6789:6860   */\n              tag_229\n                /* \"#utility.yul\":6857:6858   */\n              0x00\n                /* \"#utility.yul\":6846:6855   */\n              dup4\n                /* \"#utility.yul\":6842:6859   */\n              add\n                /* \"#utility.yul\":6833:6839   */\n              dup5\n                /* \"#utility.yul\":6789:6860   */\n              tag_152\n              jump\t// in\n            tag_229:\n                /* \"#utility.yul\":6645:6867   */\n              swap3\n              swap2\n              pop\n              pop\n              jump\t// out\n                /* \"#utility.yul\":6873:7053   */\n            tag_153:\n                /* \"#utility.yul\":6921:6998   */\n              0x4e487b7100000000000000000000000000000000000000000000000000000000\n                /* \"#utility.yul\":6918:6919   */\n              0x00\n                /* \"#utility.yul\":6911:6999   */\n              mstore\n                /* \"#utility.yul\":7018:7022   */\n              0x11\n                /* \"#utility.yul\":7015:7016   */\n              0x04\n                /* \"#utility.yul\":7008:7023   */\n              mstore\n                /* \"#utility.yul\":7042:7046   */\n              0x24\n                /* \"#utility.yul\":7039:7040   */\n              0x00\n                /* \"#utility.yul\":7032:7047   */\n              revert\n                /* \"#utility.yul\":7059:7250   */\n            tag_124:\n                /* \"#utility.yul\":7099:7102   */\n              0x00\n                /* \"#utility.yul\":7118:7138   */\n              tag_232\n                /* \"#utility.yul\":7136:7137   */\n              dup3\n                /* \"#utility.yul\":7118:7138   */\n              tag_143\n              jump\t// in\n            tag_232:\n                /* \"#utility.yul\":7113:7138   */\n              swap2\n              pop\n                /* \"#utility.yul\":7152:7172   */\n              tag_233\n                /* \"#utility.yul\":7170:7171   */\n              dup4\n                /* \"#utility.yul\":7152:7172   */\n              tag_143\n              jump\t// in\n            tag_233:\n                /* \"#utility.yul\":7147:7172   */\n              swap3\n              pop\n                /* \"#utility.yul\":7195:7196   */\n              dup3\n                /* \"#utility.yul\":7192:7193   */\n              dup3\n                /* \"#utility.yul\":7188:7197   */\n              add\n                /* \"#utility.yul\":7181:7197   */\n              swap1\n              pop\n                /* \"#utility.yul\":7216:7219   */\n              dup1\n                /* \"#utility.yul\":7213:7214   */\n              dup3\n                /* \"#utility.yul\":7210:7220   */\n              gt\n                /* \"#utility.yul\":7207:7243   */\n              iszero\n              tag_234\n              jumpi\n                /* \"#utility.yul\":7223:7241   */\n              tag_235\n              tag_153\n              jump\t// in\n            tag_235:\n                /* \"#utility.yul\":7207:7243   */\n            tag_234:\n                /* \"#utility.yul\":7059:7250   */\n              swap3\n              swap2\n              pop\n              pop\n              jump\t// out\n\n            auxdata: 0xa264697066735822122059f35d09ab5704bfb606334953df5633e478c80cb80e1282108209789f4c250f64736f6c634300081a0033\n        }\n    }\n\n    auxdata: 0xa2646970667358221220a29d269c860598312ceac482d04522bf0b24b18a9b7dd356d396801245173b9664736f6c634300081a0033\n}\n",
				"bytecode": {
					"linkReferences": {},
					"object": "6080604052348015600e575f80fd5b50612d068061001c5f395ff3fe608060405260043610610054575f3560e01c8063107046bd14610058578063155dd5ee1461009a57806323c55448146100c257806342e94c90146100ea578063c1cbbca714610126578063dcc6012814610142575b5f80fd5b348015610063575f80fd5b5061007e60048036038101906100799190610c32565b61016c565b6040516100919796959493929190610d35565b60405180910390f35b3480156100a5575f80fd5b506100c060048036038101906100bb9190610c32565b61030e565b005b3480156100cd575f80fd5b506100e860048036038101906100e39190610edc565b6104b2565b005b3480156100f5575f80fd5b50610110600480360381019061010b9190610f8e565b61070a565b60405161011d9190610fb9565b60405180910390f35b610140600480360381019061013b9190610c32565b61071f565b005b34801561014d575f80fd5b5061015661098f565b60405161016391906111a2565b60405180910390f35b5f818154811061017a575f80fd5b905f5260205f2090600702015f91509050805f018054610199906111ef565b80601f01602080910402602001604051908101604052809291908181526020018280546101c5906111ef565b80156102105780601f106101e757610100808354040283529160200191610210565b820191905f5260205f20905b8154815290600101906020018083116101f357829003601f168201915b505050505090806001018054610225906111ef565b80601f0160208091040260200160405190810160405280929190818152602001828054610251906111ef565b801561029c5780601f106102735761010080835404028352916020019161029c565b820191905f5260205f20905b81548152906001019060200180831161027f57829003601f168201915b505050505090806002015f9054906101000a900473ffffffffffffffffffffffffffffffffffffffff1690806003015f9054906101000a900473ffffffffffffffffffffffffffffffffffffffff1690806004015490806005015490806006015f9054906101000a900460ff16905087565b5f805490508110610354576040517f08c379a000000000000000000000000000000000000000000000000000000000815260040161034b90611269565b60405180910390fd5b5f80828154811061036857610367611287565b5b905f5260205f2090600702019050806002015f9054906101000a900473ffffffffffffffffffffffffffffffffffffffff1673ffffffffffffffffffffffffffffffffffffffff163373ffffffffffffffffffffffffffffffffffffffff1614610407576040517f08c379a00000000000000000000000000000000000000000000000000000000081526004016103fe90611324565b60405180910390fd5b806006015f9054906101000a900460ff1615610458576040517f08c379a000000000000000000000000000000000000000000000000000000000815260040161044f906113b2565b60405180910390fd5b5f816005015490505f82600501819055503373ffffffffffffffffffffffffffffffffffffffff166108fc8290811502906040515f60405180830381858888f193505050501580156104ac573d5f803e3d5ffd5b50505050565b5f81116104f4576040517f08c379a00000000000000000000000000000000000000000000000000000000081526004016104eb90611440565b60405180910390fd5b5f8360405161050290610be1565b61050c91906114a8565b604051809103905ff080158015610525573d5f803e3d5ffd5b5090505f6040518060e001604052808681526020018581526020013373ffffffffffffffffffffffffffffffffffffffff1681526020018373ffffffffffffffffffffffffffffffffffffffff1681526020018481526020015f81526020016001151581525090505f81908060018154018082558091505060019003905f5260205f2090600702015f909190919091505f820151815f0190816105c89190611678565b5060208201518160010190816105de9190611678565b506040820151816002015f6101000a81548173ffffffffffffffffffffffffffffffffffffffff021916908373ffffffffffffffffffffffffffffffffffffffff1602179055506060820151816003015f6101000a81548173ffffffffffffffffffffffffffffffffffffffff021916908373ffffffffffffffffffffffffffffffffffffffff1602179055506080820151816004015560a0820151816005015560c0820151816006015f6101000a81548160ff02191690831515021790555050503373ffffffffffffffffffffffffffffffffffffffff1660015f805490506106c89190611774565b7f855018e1c559e56d1f2ef0e5726673a7f2bcfde96998cc3f2f5a38c32bce53a38785876040516106fb939291906117a7565b60405180910390a35050505050565b6001602052805f5260405f205f915090505481565b5f805490508110610765576040517f08c379a000000000000000000000000000000000000000000000000000000000815260040161075c90611269565b60405180910390fd5b5f80828154811061077957610778611287565b5b905f5260205f2090600702019050806006015f9054906101000a900460ff166107d7576040517f08c379a00000000000000000000000000000000000000000000000000000000081526004016107ce9061182d565b60405180910390fd5b5f3411610819576040517f08c379a0000000000000000000000000000000000000000000000000000000008152600401610810906118bb565b60405180910390fd5b34816005015f82825461082c91906118d9565b925050819055503460015f3373ffffffffffffffffffffffffffffffffffffffff1673ffffffffffffffffffffffffffffffffffffffff1681526020019081526020015f205f82825461087f91906118d9565b92505081905550806003015f9054906101000a900473ffffffffffffffffffffffffffffffffffffffff1673ffffffffffffffffffffffffffffffffffffffff166340c10f1933346040518363ffffffff1660e01b81526004016108e492919061190c565b5f604051808303815f87803b1580156108fb575f80fd5b505af115801561090d573d5f803e3d5ffd5b505050503373ffffffffffffffffffffffffffffffffffffffff16827f865c884d49c8cecaef108efb20f7d282f26c0f9b0d24dd48e5592d4e02ec658d346040516109589190610fb9565b60405180910390a3806004015481600501541061098b575f816006015f6101000a81548160ff0219169083151502179055505b5050565b60605f805480602002602001604051908101604052809291908181526020015f905b82821015610bd8578382905f5260205f2090600702016040518060e00160405290815f820180546109e1906111ef565b80601f0160208091040260200160405190810160405280929190818152602001828054610a0d906111ef565b8015610a585780601f10610a2f57610100808354040283529160200191610a58565b820191905f5260205f20905b815481529060010190602001808311610a3b57829003601f168201915b50505050508152602001600182018054610a71906111ef565b80601f0160208091040260200160405190810160405280929190818152602001828054610a9d906111ef565b8015610ae85780601f10610abf57610100808354040283529160200191610ae8565b820191905f5260205f20905b815481529060010190602001808311610acb57829003601f168201915b50505050508152602001600282015f9054906101000a900473ffffffffffffffffffffffffffffffffffffffff1673ffffffffffffffffffffffffffffffffffffffff1673ffffffffffffffffffffffffffffffffffffffff168152602001600382015f9054906101000a900473ffffffffffffffffffffffffffffffffffffffff1673ffffffffffffffffffffffffffffffffffffffff1673ffffffffffffffffffffffffffffffffffffffff1681526020016004820154815260200160058201548152602001600682015f9054906101000a900460ff161515151581525050815260200190600101906109b1565b50505050905090565b61139d8061193483390190565b5f604051905090565b5f80fd5b5f80fd5b5f819050919050565b610c1181610bff565b8114610c1b575f80fd5b50565b5f81359050610c2c81610c08565b92915050565b5f60208284031215610c4757610c46610bf7565b5b5f610c5484828501610c1e565b91505092915050565b5f81519050919050565b5f82825260208201905092915050565b8281835e5f83830152505050565b5f601f19601f8301169050919050565b5f610c9f82610c5d565b610ca98185610c67565b9350610cb9818560208601610c77565b610cc281610c85565b840191505092915050565b5f73ffffffffffffffffffffffffffffffffffffffff82169050919050565b5f610cf682610ccd565b9050919050565b610d0681610cec565b82525050565b610d1581610bff565b82525050565b5f8115159050919050565b610d2f81610d1b565b82525050565b5f60e0820190508181035f830152610d4d818a610c95565b90508181036020830152610d618189610c95565b9050610d706040830188610cfd565b610d7d6060830187610cfd565b610d8a6080830186610d0c565b610d9760a0830185610d0c565b610da460c0830184610d26565b98975050505050505050565b5f80fd5b5f80fd5b7f4e487b71000000000000000000000000000000000000000000000000000000005f52604160045260245ffd5b610dee82610c85565b810181811067ffffffffffffffff82111715610e0d57610e0c610db8565b5b80604052505050565b5f610e1f610bee565b9050610e2b8282610de5565b919050565b5f67ffffffffffffffff821115610e4a57610e49610db8565b5b610e5382610c85565b9050602081019050919050565b828183375f83830152505050565b5f610e80610e7b84610e30565b610e16565b905082815260208101848484011115610e9c57610e9b610db4565b5b610ea7848285610e60565b509392505050565b5f82601f830112610ec357610ec2610db0565b5b8135610ed3848260208601610e6e565b91505092915050565b5f805f60608486031215610ef357610ef2610bf7565b5b5f84013567ffffffffffffffff811115610f1057610f0f610bfb565b5b610f1c86828701610eaf565b935050602084013567ffffffffffffffff811115610f3d57610f3c610bfb565b5b610f4986828701610eaf565b9250506040610f5a86828701610c1e565b9150509250925092565b610f6d81610cec565b8114610f77575f80fd5b50565b5f81359050610f8881610f64565b92915050565b5f60208284031215610fa357610fa2610bf7565b5b5f610fb084828501610f7a565b91505092915050565b5f602082019050610fcc5f830184610d0c565b92915050565b5f81519050919050565b5f82825260208201905092915050565b5f819050602082019050919050565b5f82825260208201905092915050565b5f61101582610c5d565b61101f8185610ffb565b935061102f818560208601610c77565b61103881610c85565b840191505092915050565b61104c81610cec565b82525050565b61105b81610bff565b82525050565b61106a81610d1b565b82525050565b5f60e083015f8301518482035f86015261108a828261100b565b915050602083015184820360208601526110a4828261100b565b91505060408301516110b96040860182611043565b5060608301516110cc6060860182611043565b5060808301516110df6080860182611052565b5060a08301516110f260a0860182611052565b5060c083015161110560c0860182611061565b508091505092915050565b5f61111b8383611070565b905092915050565b5f602082019050919050565b5f61113982610fd2565b6111438185610fdc565b93508360208202850161115585610fec565b805f5b8581101561119057848403895281516111718582611110565b945061117c83611123565b925060208a01995050600181019050611158565b50829750879550505050505092915050565b5f6020820190508181035f8301526111ba818461112f565b905092915050565b7f4e487b71000000000000000000000000000000000000000000000000000000005f52602260045260245ffd5b5f600282049050600182168061120657607f821691505b602082108103611219576112186111c2565b5b50919050565b7f496e76616c69642070726f6a65637420494400000000000000000000000000005f82015250565b5f611253601283610c67565b915061125e8261121f565b602082019050919050565b5f6020820190508181035f83015261128081611247565b9050919050565b7f4e487b71000000000000000000000000000000000000000000000000000000005f52603260045260245ffd5b7f4f6e6c792070726f6a6563742063726561746f722063616e20776974686472615f8201527f772066756e647300000000000000000000000000000000000000000000000000602082015250565b5f61130e602783610c67565b9150611319826112b4565b604082019050919050565b5f6020820190508181035f83015261133b81611302565b9050919050565b7f50726f6a6563742066756e64696e6720676f616c206e6f7420726561636865645f8201527f2079657400000000000000000000000000000000000000000000000000000000602082015250565b5f61139c602483610c67565b91506113a782611342565b604082019050919050565b5f6020820190508181035f8301526113c981611390565b9050919050565b7f54617267657420616d6f756e74206d75737420626520677265617465722074685f8201527f616e203000000000000000000000000000000000000000000000000000000000602082015250565b5f61142a602483610c67565b9150611435826113d0565b604082019050919050565b5f6020820190508181035f8301526114578161141e565b9050919050565b7f50544b00000000000000000000000000000000000000000000000000000000005f82015250565b5f611492600383610c67565b915061149d8261145e565b602082019050919050565b5f6040820190508181035f8301526114c08184610c95565b905081810360208301526114d381611486565b905092915050565b5f819050815f5260205f209050919050565b5f6020601f8301049050919050565b5f82821b905092915050565b5f600883026115377fffffffffffffffffffffffffffffffffffffffffffffffffffffffffffffffff826114fc565b61154186836114fc565b95508019841693508086168417925050509392505050565b5f819050919050565b5f61157c61157761157284610bff565b611559565b610bff565b9050919050565b5f819050919050565b61159583611562565b6115a96115a182611583565b848454611508565b825550505050565b5f90565b6115bd6115b1565b6115c881848461158c565b505050565b5b818110156115eb576115e05f826115b5565b6001810190506115ce565b5050565b601f82111561163057611601816114db565b61160a846114ed565b81016020851015611619578190505b61162d611625856114ed565b8301826115cd565b50505b505050565b5f82821c905092915050565b5f6116505f1984600802611635565b1980831691505092915050565b5f6116688383611641565b9150826002028217905092915050565b61168182610c5d565b67ffffffffffffffff81111561169a57611699610db8565b5b6116a482546111ef565b6116af8282856115ef565b5f60209050601f8311600181146116e0575f84156116ce578287015190505b6116d8858261165d565b86555061173f565b601f1984166116ee866114db565b5f5b82811015611715578489015182556001820191506020850194506020810190506116f0565b86831015611732578489015161172e601f891682611641565b8355505b6001600288020188555050505b505050505050565b7f4e487b71000000000000000000000000000000000000000000000000000000005f52601160045260245ffd5b5f61177e82610bff565b915061178983610bff565b92508282039050818111156117a1576117a0611747565b5b92915050565b5f6060820190508181035f8301526117bf8186610c95565b90506117ce6020830185610cfd565b6117db6040830184610d0c565b949350505050565b7f50726f6a656374206973206e6f206c6f6e6765722061637469766500000000005f82015250565b5f611817601b83610c67565b9150611822826117e3565b602082019050919050565b5f6020820190508181035f8301526118448161180b565b9050919050565b7f436f6e747269627574696f6e206d7573742062652067726561746572207468615f8201527f6e20300000000000000000000000000000000000000000000000000000000000602082015250565b5f6118a5602383610c67565b91506118b08261184b565b604082019050919050565b5f6020820190508181035f8301526118d281611899565b9050919050565b5f6118e382610bff565b91506118ee83610bff565b925082820190508082111561190657611905611747565b5b92915050565b5f60408201905061191f5f830185610cfd565b61192c6020830184610d0c565b939250505056fe608060405234801561000f575f80fd5b5060405161139d38038061139d833981810160405281019061003191906101a9565b81818160039081610042919061042c565b508060049081610052919061042c565b50505050506104fb565b5f604051905090565b5f80fd5b5f80fd5b5f80fd5b5f80fd5b5f601f19601f8301169050919050565b7f4e487b71000000000000000000000000000000000000000000000000000000005f52604160045260245ffd5b6100bb82610075565b810181811067ffffffffffffffff821117156100da576100d9610085565b5b80604052505050565b5f6100ec61005c565b90506100f882826100b2565b919050565b5f67ffffffffffffffff82111561011757610116610085565b5b61012082610075565b9050602081019050919050565b8281835e5f83830152505050565b5f61014d610148846100fd565b6100e3565b90508281526020810184848401111561016957610168610071565b5b61017484828561012d565b509392505050565b5f82601f8301126101905761018f61006d565b5b81516101a084826020860161013b565b91505092915050565b5f80604083850312156101bf576101be610065565b5b5f83015167ffffffffffffffff8111156101dc576101db610069565b5b6101e88582860161017c565b925050602083015167ffffffffffffffff81111561020957610208610069565b5b6102158582860161017c565b9150509250929050565b5f81519050919050565b7f4e487b71000000000000000000000000000000000000000000000000000000005f52602260045260245ffd5b5f600282049050600182168061026d57607f821691505b6020821081036102805761027f610229565b5b50919050565b5f819050815f5260205f209050919050565b5f6020601f8301049050919050565b5f82821b905092915050565b5f600883026102e27fffffffffffffffffffffffffffffffffffffffffffffffffffffffffffffffff826102a7565b6102ec86836102a7565b95508019841693508086168417925050509392505050565b5f819050919050565b5f819050919050565b5f61033061032b61032684610304565b61030d565b610304565b9050919050565b5f819050919050565b61034983610316565b61035d61035582610337565b8484546102b3565b825550505050565b5f90565b610371610365565b61037c818484610340565b505050565b5b8181101561039f576103945f82610369565b600181019050610382565b5050565b601f8211156103e4576103b581610286565b6103be84610298565b810160208510156103cd578190505b6103e16103d985610298565b830182610381565b50505b505050565b5f82821c905092915050565b5f6104045f19846008026103e9565b1980831691505092915050565b5f61041c83836103f5565b9150826002028217905092915050565b6104358261021f565b67ffffffffffffffff81111561044e5761044d610085565b5b6104588254610256565b6104638282856103a3565b5f60209050601f831160018114610494575f8415610482578287015190505b61048c8582610411565b8655506104f3565b601f1984166104a286610286565b5f5b828110156104c9578489015182556001820191506020850194506020810190506104a4565b868310156104e657848901516104e2601f8916826103f5565b8355505b6001600288020188555050505b505050505050565b610e95806105085f395ff3fe608060405234801561000f575f80fd5b506004361061009c575f3560e01c806340c10f191161006457806340c10f191461015a57806370a082311461017657806395d89b41146101a6578063a9059cbb146101c4578063dd62ed3e146101f45761009c565b806306fdde03146100a0578063095ea7b3146100be57806318160ddd146100ee57806323b872dd1461010c578063313ce5671461013c575b5f80fd5b6100a8610224565b6040516100b59190610b0e565b60405180910390f35b6100d860048036038101906100d39190610bbf565b6102b4565b6040516100e59190610c17565b60405180910390f35b6100f66102d6565b6040516101039190610c3f565b60405180910390f35b61012660048036038101906101219190610c58565b6102df565b6040516101339190610c17565b60405180910390f35b61014461030d565b6040516101519190610cc3565b60405180910390f35b610174600480360381019061016f9190610bbf565b610315565b005b610190600480360381019061018b9190610cdc565b610323565b60405161019d9190610c3f565b60405180910390f35b6101ae610368565b6040516101bb9190610b0e565b60405180910390f35b6101de60048036038101906101d99190610bbf565b6103f8565b6040516101eb9190610c17565b60405180910390f35b61020e60048036038101906102099190610d07565b61041a565b60405161021b9190610c3f565b60405180910390f35b60606003805461023390610d72565b80601f016020809104026020016040519081016040528092919081815260200182805461025f90610d72565b80156102aa5780601f10610281576101008083540402835291602001916102aa565b820191905f5260205f20905b81548152906001019060200180831161028d57829003601f168201915b5050505050905090565b5f806102be61049c565b90506102cb8185856104a3565b600191505092915050565b5f600254905090565b5f806102e961049c565b90506102f68582856104b5565b610301858585610547565b60019150509392505050565b5f6012905090565b61031f8282610637565b5050565b5f805f8373ffffffffffffffffffffffffffffffffffffffff1673ffffffffffffffffffffffffffffffffffffffff1681526020019081526020015f20549050919050565b60606004805461037790610d72565b80601f01602080910402602001604051908101604052809291908181526020018280546103a390610d72565b80156103ee5780601f106103c5576101008083540402835291602001916103ee565b820191905f5260205f20905b8154815290600101906020018083116103d157829003601f168201915b5050505050905090565b5f8061040261049c565b905061040f818585610547565b600191505092915050565b5f60015f8473ffffffffffffffffffffffffffffffffffffffff1673ffffffffffffffffffffffffffffffffffffffff1681526020019081526020015f205f8373ffffffffffffffffffffffffffffffffffffffff1673ffffffffffffffffffffffffffffffffffffffff1681526020019081526020015f2054905092915050565b5f33905090565b6104b083838360016106b6565b505050565b5f6104c0848461041a565b90507fffffffffffffffffffffffffffffffffffffffffffffffffffffffffffffffff81146105415781811015610532578281836040517ffb8f41b200000000000000000000000000000000000000000000000000000000815260040161052993929190610db1565b60405180910390fd5b61054084848484035f6106b6565b5b50505050565b5f73ffffffffffffffffffffffffffffffffffffffff168373ffffffffffffffffffffffffffffffffffffffff16036105b7575f6040517f96c6fd1e0000000000000000000000000000000000000000000000000000000081526004016105ae9190610de6565b60405180910390fd5b5f73ffffffffffffffffffffffffffffffffffffffff168273ffffffffffffffffffffffffffffffffffffffff1603610627575f6040517fec442f0500000000000000000000000000000000000000000000000000000000815260040161061e9190610de6565b60405180910390fd5b610632838383610885565b505050565b5f73ffffffffffffffffffffffffffffffffffffffff168273ffffffffffffffffffffffffffffffffffffffff16036106a7575f6040517fec442f0500000000000000000000000000000000000000000000000000000000815260040161069e9190610de6565b60405180910390fd5b6106b25f8383610885565b5050565b5f73ffffffffffffffffffffffffffffffffffffffff168473ffffffffffffffffffffffffffffffffffffffff1603610726575f6040517fe602df0500000000000000000000000000000000000000000000000000000000815260040161071d9190610de6565b60405180910390fd5b5f73ffffffffffffffffffffffffffffffffffffffff168373ffffffffffffffffffffffffffffffffffffffff1603610796575f6040517f94280d6200000000000000000000000000000000000000000000000000000000815260040161078d9190610de6565b60405180910390fd5b8160015f8673ffffffffffffffffffffffffffffffffffffffff1673ffffffffffffffffffffffffffffffffffffffff1681526020019081526020015f205f8573ffffffffffffffffffffffffffffffffffffffff1673ffffffffffffffffffffffffffffffffffffffff1681526020019081526020015f2081905550801561087f578273ffffffffffffffffffffffffffffffffffffffff168473ffffffffffffffffffffffffffffffffffffffff167f8c5be1e5ebec7d5bd14f71427d1e84f3dd0314c0f7b2291e5b200ac8c7c3b925846040516108769190610c3f565b60405180910390a35b50505050565b5f73ffffffffffffffffffffffffffffffffffffffff168373ffffffffffffffffffffffffffffffffffffffff16036108d5578060025f8282546108c99190610e2c565b925050819055506109a3565b5f805f8573ffffffffffffffffffffffffffffffffffffffff1673ffffffffffffffffffffffffffffffffffffffff1681526020019081526020015f205490508181101561095e578381836040517fe450d38c00000000000000000000000000000000000000000000000000000000815260040161095593929190610db1565b60405180910390fd5b8181035f808673ffffffffffffffffffffffffffffffffffffffff1673ffffffffffffffffffffffffffffffffffffffff1681526020019081526020015f2081905550505b5f73ffffffffffffffffffffffffffffffffffffffff168273ffffffffffffffffffffffffffffffffffffffff16036109ea578060025f8282540392505081905550610a34565b805f808473ffffffffffffffffffffffffffffffffffffffff1673ffffffffffffffffffffffffffffffffffffffff1681526020019081526020015f205f82825401925050819055505b8173ffffffffffffffffffffffffffffffffffffffff168373ffffffffffffffffffffffffffffffffffffffff167fddf252ad1be2c89b69c2b068fc378daa952ba7f163c4a11628f55a4df523b3ef83604051610a919190610c3f565b60405180910390a3505050565b5f81519050919050565b5f82825260208201905092915050565b8281835e5f83830152505050565b5f601f19601f8301169050919050565b5f610ae082610a9e565b610aea8185610aa8565b9350610afa818560208601610ab8565b610b0381610ac6565b840191505092915050565b5f6020820190508181035f830152610b268184610ad6565b905092915050565b5f80fd5b5f73ffffffffffffffffffffffffffffffffffffffff82169050919050565b5f610b5b82610b32565b9050919050565b610b6b81610b51565b8114610b75575f80fd5b50565b5f81359050610b8681610b62565b92915050565b5f819050919050565b610b9e81610b8c565b8114610ba8575f80fd5b50565b5f81359050610bb981610b95565b92915050565b5f8060408385031215610bd557610bd4610b2e565b5b5f610be285828601610b78565b9250506020610bf385828601610bab565b9150509250929050565b5f8115159050919050565b610c1181610bfd565b82525050565b5f602082019050610c2a5f830184610c08565b92915050565b610c3981610b8c565b82525050565b5f602082019050610c525f830184610c30565b92915050565b5f805f60608486031215610c6f57610c6e610b2e565b5b5f610c7c86828701610b78565b9350506020610c8d86828701610b78565b9250506040610c9e86828701610bab565b9150509250925092565b5f60ff82169050919050565b610cbd81610ca8565b82525050565b5f602082019050610cd65f830184610cb4565b92915050565b5f60208284031215610cf157610cf0610b2e565b5b5f610cfe84828501610b78565b91505092915050565b5f8060408385031215610d1d57610d1c610b2e565b5b5f610d2a85828601610b78565b9250506020610d3b85828601610b78565b9150509250929050565b7f4e487b71000000000000000000000000000000000000000000000000000000005f52602260045260245ffd5b5f6002820490506001821680610d8957607f821691505b602082108103610d9c57610d9b610d45565b5b50919050565b610dab81610b51565b82525050565b5f606082019050610dc45f830186610da2565b610dd16020830185610c30565b610dde6040830184610c30565b949350505050565b5f602082019050610df95f830184610da2565b92915050565b7f4e487b71000000000000000000000000000000000000000000000000000000005f52601160045260245ffd5b5f610e3682610b8c565b9150610e4183610b8c565b9250828201905080821115610e5957610e58610dff565b5b9291505056fea264697066735822122059f35d09ab5704bfb606334953df5633e478c80cb80e1282108209789f4c250f64736f6c634300081a0033a2646970667358221220a29d269c860598312ceac482d04522bf0b24b18a9b7dd356d396801245173b9664736f6c634300081a0033",
					"opcodes": "PUSH1 0x80 PUSH1 0x40 MSTORE CALLVALUE DUP1 ISZERO PUSH1 0xE JUMPI PUSH0 DUP1 REVERT JUMPDEST POP PUSH2 0x2D06 DUP1 PUSH2 0x1C PUSH0 CODECOPY PUSH0 RETURN INVALID PUSH1 0x80 PUSH1 0x40 MSTORE PUSH1 0x4 CALLDATASIZE LT PUSH2 0x54 JUMPI PUSH0 CALLDATALOAD PUSH1 0xE0 SHR DUP1 PUSH4 0x107046BD EQ PUSH2 0x58 JUMPI DUP1 PUSH4 0x155DD5EE EQ PUSH2 0x9A JUMPI DUP1 PUSH4 0x23C55448 EQ PUSH2 0xC2 JUMPI DUP1 PUSH4 0x42E94C90 EQ PUSH2 0xEA JUMPI DUP1 PUSH4 0xC1CBBCA7 EQ PUSH2 0x126 JUMPI DUP1 PUSH4 0xDCC60128 EQ PUSH2 0x142 JUMPI JUMPDEST PUSH0 DUP1 REVERT JUMPDEST CALLVALUE DUP1 ISZERO PUSH2 0x63 JUMPI PUSH0 DUP1 REVERT JUMPDEST POP PUSH2 0x7E PUSH1 0x4 DUP1 CALLDATASIZE SUB DUP2 ADD SWAP1 PUSH2 0x79 SWAP2 SWAP1 PUSH2 0xC32 JUMP JUMPDEST PUSH2 0x16C JUMP JUMPDEST PUSH1 0x40 MLOAD PUSH2 0x91 SWAP8 SWAP7 SWAP6 SWAP5 SWAP4 SWAP3 SWAP2 SWAP1 PUSH2 0xD35 JUMP JUMPDEST PUSH1 0x40 MLOAD DUP1 SWAP2 SUB SWAP1 RETURN JUMPDEST CALLVALUE DUP1 ISZERO PUSH2 0xA5 JUMPI PUSH0 DUP1 REVERT JUMPDEST POP PUSH2 0xC0 PUSH1 0x4 DUP1 CALLDATASIZE SUB DUP2 ADD SWAP1 PUSH2 0xBB SWAP2 SWAP1 PUSH2 0xC32 JUMP JUMPDEST PUSH2 0x30E JUMP JUMPDEST STOP JUMPDEST CALLVALUE DUP1 ISZERO PUSH2 0xCD JUMPI PUSH0 DUP1 REVERT JUMPDEST POP PUSH2 0xE8 PUSH1 0x4 DUP1 CALLDATASIZE SUB DUP2 ADD SWAP1 PUSH2 0xE3 SWAP2 SWAP1 PUSH2 0xEDC JUMP JUMPDEST PUSH2 0x4B2 JUMP JUMPDEST STOP JUMPDEST CALLVALUE DUP1 ISZERO PUSH2 0xF5 JUMPI PUSH0 DUP1 REVERT JUMPDEST POP PUSH2 0x110 PUSH1 0x4 DUP1 CALLDATASIZE SUB DUP2 ADD SWAP1 PUSH2 0x10B SWAP2 SWAP1 PUSH2 0xF8E JUMP JUMPDEST PUSH2 0x70A JUMP JUMPDEST PUSH1 0x40 MLOAD PUSH2 0x11D SWAP2 SWAP1 PUSH2 0xFB9 JUMP JUMPDEST PUSH1 0x40 MLOAD DUP1 SWAP2 SUB SWAP1 RETURN JUMPDEST PUSH2 0x140 PUSH1 0x4 DUP1 CALLDATASIZE SUB DUP2 ADD SWAP1 PUSH2 0x13B SWAP2 SWAP1 PUSH2 0xC32 JUMP JUMPDEST PUSH2 0x71F JUMP JUMPDEST STOP JUMPDEST CALLVALUE DUP1 ISZERO PUSH2 0x14D JUMPI PUSH0 DUP1 REVERT JUMPDEST POP PUSH2 0x156 PUSH2 0x98F JUMP JUMPDEST PUSH1 0x40 MLOAD PUSH2 0x163 SWAP2 SWAP1 PUSH2 0x11A2 JUMP JUMPDEST PUSH1 0x40 MLOAD DUP1 SWAP2 SUB SWAP1 RETURN JUMPDEST PUSH0 DUP2 DUP2 SLOAD DUP2 LT PUSH2 0x17A JUMPI PUSH0 DUP1 REVERT JUMPDEST SWAP1 PUSH0 MSTORE PUSH1 0x20 PUSH0 KECCAK256 SWAP1 PUSH1 0x7 MUL ADD PUSH0 SWAP2 POP SWAP1 POP DUP1 PUSH0 ADD DUP1 SLOAD PUSH2 0x199 SWAP1 PUSH2 0x11EF JUMP JUMPDEST DUP1 PUSH1 0x1F ADD PUSH1 0x20 DUP1 SWAP2 DIV MUL PUSH1 0x20 ADD PUSH1 0x40 MLOAD SWAP1 DUP2 ADD PUSH1 0x40 MSTORE DUP1 SWAP3 SWAP2 SWAP1 DUP2 DUP2 MSTORE PUSH1 0x20 ADD DUP3 DUP1 SLOAD PUSH2 0x1C5 SWAP1 PUSH2 0x11EF JUMP JUMPDEST DUP1 ISZERO PUSH2 0x210 JUMPI DUP1 PUSH1 0x1F LT PUSH2 0x1E7 JUMPI PUSH2 0x100 DUP1 DUP4 SLOAD DIV MUL DUP4 MSTORE SWAP2 PUSH1 0x20 ADD SWAP2 PUSH2 0x210 JUMP JUMPDEST DUP3 ADD SWAP2 SWAP1 PUSH0 MSTORE PUSH1 0x20 PUSH0 KECCAK256 SWAP1 JUMPDEST DUP2 SLOAD DUP2 MSTORE SWAP1 PUSH1 0x1 ADD SWAP1 PUSH1 0x20 ADD DUP1 DUP4 GT PUSH2 0x1F3 JUMPI DUP3 SWAP1 SUB PUSH1 0x1F AND DUP3 ADD SWAP2 JUMPDEST POP POP POP POP POP SWAP1 DUP1 PUSH1 0x1 ADD DUP1 SLOAD PUSH2 0x225 SWAP1 PUSH2 0x11EF JUMP JUMPDEST DUP1 PUSH1 0x1F ADD PUSH1 0x20 DUP1 SWAP2 DIV MUL PUSH1 0x20 ADD PUSH1 0x40 MLOAD SWAP1 DUP2 ADD PUSH1 0x40 MSTORE DUP1 SWAP3 SWAP2 SWAP1 DUP2 DUP2 MSTORE PUSH1 0x20 ADD DUP3 DUP1 SLOAD PUSH2 0x251 SWAP1 PUSH2 0x11EF JUMP JUMPDEST DUP1 ISZERO PUSH2 0x29C JUMPI DUP1 PUSH1 0x1F LT PUSH2 0x273 JUMPI PUSH2 0x100 DUP1 DUP4 SLOAD DIV MUL DUP4 MSTORE SWAP2 PUSH1 0x20 ADD SWAP2 PUSH2 0x29C JUMP JUMPDEST DUP3 ADD SWAP2 SWAP1 PUSH0 MSTORE PUSH1 0x20 PUSH0 KECCAK256 SWAP1 JUMPDEST DUP2 SLOAD DUP2 MSTORE SWAP1 PUSH1 0x1 ADD SWAP1 PUSH1 0x20 ADD DUP1 DUP4 GT PUSH2 0x27F JUMPI DUP3 SWAP1 SUB PUSH1 0x1F AND DUP3 ADD SWAP2 JUMPDEST POP POP POP POP POP SWAP1 DUP1 PUSH1 0x2 ADD PUSH0 SWAP1 SLOAD SWAP1 PUSH2 0x100 EXP SWAP1 DIV PUSH20 0xFFFFFFFFFFFFFFFFFFFFFFFFFFFFFFFFFFFFFFFF AND SWAP1 DUP1 PUSH1 0x3 ADD PUSH0 SWAP1 SLOAD SWAP1 PUSH2 0x100 EXP SWAP1 DIV PUSH20 0xFFFFFFFFFFFFFFFFFFFFFFFFFFFFFFFFFFFFFFFF AND SWAP1 DUP1 PUSH1 0x4 ADD SLOAD SWAP1 DUP1 PUSH1 0x5 ADD SLOAD SWAP1 DUP1 PUSH1 0x6 ADD PUSH0 SWAP1 SLOAD SWAP1 PUSH2 0x100 EXP SWAP1 DIV PUSH1 0xFF AND SWAP1 POP DUP8 JUMP JUMPDEST PUSH0 DUP1 SLOAD SWAP1 POP DUP2 LT PUSH2 0x354 JUMPI PUSH1 0x40 MLOAD PUSH32 0x8C379A000000000000000000000000000000000000000000000000000000000 DUP2 MSTORE PUSH1 0x4 ADD PUSH2 0x34B SWAP1 PUSH2 0x1269 JUMP JUMPDEST PUSH1 0x40 MLOAD DUP1 SWAP2 SUB SWAP1 REVERT JUMPDEST PUSH0 DUP1 DUP3 DUP2 SLOAD DUP2 LT PUSH2 0x368 JUMPI PUSH2 0x367 PUSH2 0x1287 JUMP JUMPDEST JUMPDEST SWAP1 PUSH0 MSTORE PUSH1 0x20 PUSH0 KECCAK256 SWAP1 PUSH1 0x7 MUL ADD SWAP1 POP DUP1 PUSH1 0x2 ADD PUSH0 SWAP1 SLOAD SWAP1 PUSH2 0x100 EXP SWAP1 DIV PUSH20 0xFFFFFFFFFFFFFFFFFFFFFFFFFFFFFFFFFFFFFFFF AND PUSH20 0xFFFFFFFFFFFFFFFFFFFFFFFFFFFFFFFFFFFFFFFF AND CALLER PUSH20 0xFFFFFFFFFFFFFFFFFFFFFFFFFFFFFFFFFFFFFFFF AND EQ PUSH2 0x407 JUMPI PUSH1 0x40 MLOAD PUSH32 0x8C379A000000000000000000000000000000000000000000000000000000000 DUP2 MSTORE PUSH1 0x4 ADD PUSH2 0x3FE SWAP1 PUSH2 0x1324 JUMP JUMPDEST PUSH1 0x40 MLOAD DUP1 SWAP2 SUB SWAP1 REVERT JUMPDEST DUP1 PUSH1 0x6 ADD PUSH0 SWAP1 SLOAD SWAP1 PUSH2 0x100 EXP SWAP1 DIV PUSH1 0xFF AND ISZERO PUSH2 0x458 JUMPI PUSH1 0x40 MLOAD PUSH32 0x8C379A000000000000000000000000000000000000000000000000000000000 DUP2 MSTORE PUSH1 0x4 ADD PUSH2 0x44F SWAP1 PUSH2 0x13B2 JUMP JUMPDEST PUSH1 0x40 MLOAD DUP1 SWAP2 SUB SWAP1 REVERT JUMPDEST PUSH0 DUP2 PUSH1 0x5 ADD SLOAD SWAP1 POP PUSH0 DUP3 PUSH1 0x5 ADD DUP2 SWAP1 SSTORE POP CALLER PUSH20 0xFFFFFFFFFFFFFFFFFFFFFFFFFFFFFFFFFFFFFFFF AND PUSH2 0x8FC DUP3 SWAP1 DUP2 ISZERO MUL SWAP1 PUSH1 0x40 MLOAD PUSH0 PUSH1 0x40 MLOAD DUP1 DUP4 SUB DUP2 DUP6 DUP9 DUP9 CALL SWAP4 POP POP POP POP ISZERO DUP1 ISZERO PUSH2 0x4AC JUMPI RETURNDATASIZE PUSH0 DUP1 RETURNDATACOPY RETURNDATASIZE PUSH0 REVERT JUMPDEST POP POP POP POP JUMP JUMPDEST PUSH0 DUP2 GT PUSH2 0x4F4 JUMPI PUSH1 0x40 MLOAD PUSH32 0x8C379A000000000000000000000000000000000000000000000000000000000 DUP2 MSTORE PUSH1 0x4 ADD PUSH2 0x4EB SWAP1 PUSH2 0x1440 JUMP JUMPDEST PUSH1 0x40 MLOAD DUP1 SWAP2 SUB SWAP1 REVERT JUMPDEST PUSH0 DUP4 PUSH1 0x40 MLOAD PUSH2 0x502 SWAP1 PUSH2 0xBE1 JUMP JUMPDEST PUSH2 0x50C SWAP2 SWAP1 PUSH2 0x14A8 JUMP JUMPDEST PUSH1 0x40 MLOAD DUP1 SWAP2 SUB SWAP1 PUSH0 CREATE DUP1 ISZERO DUP1 ISZERO PUSH2 0x525 JUMPI RETURNDATASIZE PUSH0 DUP1 RETURNDATACOPY RETURNDATASIZE PUSH0 REVERT JUMPDEST POP SWAP1 POP PUSH0 PUSH1 0x40 MLOAD DUP1 PUSH1 0xE0 ADD PUSH1 0x40 MSTORE DUP1 DUP7 DUP2 MSTORE PUSH1 0x20 ADD DUP6 DUP2 MSTORE PUSH1 0x20 ADD CALLER PUSH20 0xFFFFFFFFFFFFFFFFFFFFFFFFFFFFFFFFFFFFFFFF AND DUP2 MSTORE PUSH1 0x20 ADD DUP4 PUSH20 0xFFFFFFFFFFFFFFFFFFFFFFFFFFFFFFFFFFFFFFFF AND DUP2 MSTORE PUSH1 0x20 ADD DUP5 DUP2 MSTORE PUSH1 0x20 ADD PUSH0 DUP2 MSTORE PUSH1 0x20 ADD PUSH1 0x1 ISZERO ISZERO DUP2 MSTORE POP SWAP1 POP PUSH0 DUP2 SWAP1 DUP1 PUSH1 0x1 DUP2 SLOAD ADD DUP1 DUP3 SSTORE DUP1 SWAP2 POP POP PUSH1 0x1 SWAP1 SUB SWAP1 PUSH0 MSTORE PUSH1 0x20 PUSH0 KECCAK256 SWAP1 PUSH1 0x7 MUL ADD PUSH0 SWAP1 SWAP2 SWAP1 SWAP2 SWAP1 SWAP2 POP PUSH0 DUP3 ADD MLOAD DUP2 PUSH0 ADD SWAP1 DUP2 PUSH2 0x5C8 SWAP2 SWAP1 PUSH2 0x1678 JUMP JUMPDEST POP PUSH1 0x20 DUP3 ADD MLOAD DUP2 PUSH1 0x1 ADD SWAP1 DUP2 PUSH2 0x5DE SWAP2 SWAP1 PUSH2 0x1678 JUMP JUMPDEST POP PUSH1 0x40 DUP3 ADD MLOAD DUP2 PUSH1 0x2 ADD PUSH0 PUSH2 0x100 EXP DUP2 SLOAD DUP2 PUSH20 0xFFFFFFFFFFFFFFFFFFFFFFFFFFFFFFFFFFFFFFFF MUL NOT AND SWAP1 DUP4 PUSH20 0xFFFFFFFFFFFFFFFFFFFFFFFFFFFFFFFFFFFFFFFF AND MUL OR SWAP1 SSTORE POP PUSH1 0x60 DUP3 ADD MLOAD DUP2 PUSH1 0x3 ADD PUSH0 PUSH2 0x100 EXP DUP2 SLOAD DUP2 PUSH20 0xFFFFFFFFFFFFFFFFFFFFFFFFFFFFFFFFFFFFFFFF MUL NOT AND SWAP1 DUP4 PUSH20 0xFFFFFFFFFFFFFFFFFFFFFFFFFFFFFFFFFFFFFFFF AND MUL OR SWAP1 SSTORE POP PUSH1 0x80 DUP3 ADD MLOAD DUP2 PUSH1 0x4 ADD SSTORE PUSH1 0xA0 DUP3 ADD MLOAD DUP2 PUSH1 0x5 ADD SSTORE PUSH1 0xC0 DUP3 ADD MLOAD DUP2 PUSH1 0x6 ADD PUSH0 PUSH2 0x100 EXP DUP2 SLOAD DUP2 PUSH1 0xFF MUL NOT AND SWAP1 DUP4 ISZERO ISZERO MUL OR SWAP1 SSTORE POP POP POP CALLER PUSH20 0xFFFFFFFFFFFFFFFFFFFFFFFFFFFFFFFFFFFFFFFF AND PUSH1 0x1 PUSH0 DUP1 SLOAD SWAP1 POP PUSH2 0x6C8 SWAP2 SWAP1 PUSH2 0x1774 JUMP JUMPDEST PUSH32 0x855018E1C559E56D1F2EF0E5726673A7F2BCFDE96998CC3F2F5A38C32BCE53A3 DUP8 DUP6 DUP8 PUSH1 0x40 MLOAD PUSH2 0x6FB SWAP4 SWAP3 SWAP2 SWAP1 PUSH2 0x17A7 JUMP JUMPDEST PUSH1 0x40 MLOAD DUP1 SWAP2 SUB SWAP1 LOG3 POP POP POP POP POP JUMP JUMPDEST PUSH1 0x1 PUSH1 0x20 MSTORE DUP1 PUSH0 MSTORE PUSH1 0x40 PUSH0 KECCAK256 PUSH0 SWAP2 POP SWAP1 POP SLOAD DUP2 JUMP JUMPDEST PUSH0 DUP1 SLOAD SWAP1 POP DUP2 LT PUSH2 0x765 JUMPI PUSH1 0x40 MLOAD PUSH32 0x8C379A000000000000000000000000000000000000000000000000000000000 DUP2 MSTORE PUSH1 0x4 ADD PUSH2 0x75C SWAP1 PUSH2 0x1269 JUMP JUMPDEST PUSH1 0x40 MLOAD DUP1 SWAP2 SUB SWAP1 REVERT JUMPDEST PUSH0 DUP1 DUP3 DUP2 SLOAD DUP2 LT PUSH2 0x779 JUMPI PUSH2 0x778 PUSH2 0x1287 JUMP JUMPDEST JUMPDEST SWAP1 PUSH0 MSTORE PUSH1 0x20 PUSH0 KECCAK256 SWAP1 PUSH1 0x7 MUL ADD SWAP1 POP DUP1 PUSH1 0x6 ADD PUSH0 SWAP1 SLOAD SWAP1 PUSH2 0x100 EXP SWAP1 DIV PUSH1 0xFF AND PUSH2 0x7D7 JUMPI PUSH1 0x40 MLOAD PUSH32 0x8C379A000000000000000000000000000000000000000000000000000000000 DUP2 MSTORE PUSH1 0x4 ADD PUSH2 0x7CE SWAP1 PUSH2 0x182D JUMP JUMPDEST PUSH1 0x40 MLOAD DUP1 SWAP2 SUB SWAP1 REVERT JUMPDEST PUSH0 CALLVALUE GT PUSH2 0x819 JUMPI PUSH1 0x40 MLOAD PUSH32 0x8C379A000000000000000000000000000000000000000000000000000000000 DUP2 MSTORE PUSH1 0x4 ADD PUSH2 0x810 SWAP1 PUSH2 0x18BB JUMP JUMPDEST PUSH1 0x40 MLOAD DUP1 SWAP2 SUB SWAP1 REVERT JUMPDEST CALLVALUE DUP2 PUSH1 0x5 ADD PUSH0 DUP3 DUP3 SLOAD PUSH2 0x82C SWAP2 SWAP1 PUSH2 0x18D9 JUMP JUMPDEST SWAP3 POP POP DUP2 SWAP1 SSTORE POP CALLVALUE PUSH1 0x1 PUSH0 CALLER PUSH20 0xFFFFFFFFFFFFFFFFFFFFFFFFFFFFFFFFFFFFFFFF AND PUSH20 0xFFFFFFFFFFFFFFFFFFFFFFFFFFFFFFFFFFFFFFFF AND DUP2 MSTORE PUSH1 0x20 ADD SWAP1 DUP2 MSTORE PUSH1 0x20 ADD PUSH0 KECCAK256 PUSH0 DUP3 DUP3 SLOAD PUSH2 0x87F SWAP2 SWAP1 PUSH2 0x18D9 JUMP JUMPDEST SWAP3 POP POP DUP2 SWAP1 SSTORE POP DUP1 PUSH1 0x3 ADD PUSH0 SWAP1 SLOAD SWAP1 PUSH2 0x100 EXP SWAP1 DIV PUSH20 0xFFFFFFFFFFFFFFFFFFFFFFFFFFFFFFFFFFFFFFFF AND PUSH20 0xFFFFFFFFFFFFFFFFFFFFFFFFFFFFFFFFFFFFFFFF AND PUSH4 0x40C10F19 CALLER CALLVALUE PUSH1 0x40 MLOAD DUP4 PUSH4 0xFFFFFFFF AND PUSH1 0xE0 SHL DUP2 MSTORE PUSH1 0x4 ADD PUSH2 0x8E4 SWAP3 SWAP2 SWAP1 PUSH2 0x190C JUMP JUMPDEST PUSH0 PUSH1 0x40 MLOAD DUP1 DUP4 SUB DUP2 PUSH0 DUP8 DUP1 EXTCODESIZE ISZERO DUP1 ISZERO PUSH2 0x8FB JUMPI PUSH0 DUP1 REVERT JUMPDEST POP GAS CALL ISZERO DUP1 ISZERO PUSH2 0x90D JUMPI RETURNDATASIZE PUSH0 DUP1 RETURNDATACOPY RETURNDATASIZE PUSH0 REVERT JUMPDEST POP POP POP POP CALLER PUSH20 0xFFFFFFFFFFFFFFFFFFFFFFFFFFFFFFFFFFFFFFFF AND DUP3 PUSH32 0x865C884D49C8CECAEF108EFB20F7D282F26C0F9B0D24DD48E5592D4E02EC658D CALLVALUE PUSH1 0x40 MLOAD PUSH2 0x958 SWAP2 SWAP1 PUSH2 0xFB9 JUMP JUMPDEST PUSH1 0x40 MLOAD DUP1 SWAP2 SUB SWAP1 LOG3 DUP1 PUSH1 0x4 ADD SLOAD DUP2 PUSH1 0x5 ADD SLOAD LT PUSH2 0x98B JUMPI PUSH0 DUP2 PUSH1 0x6 ADD PUSH0 PUSH2 0x100 EXP DUP2 SLOAD DUP2 PUSH1 0xFF MUL NOT AND SWAP1 DUP4 ISZERO ISZERO MUL OR SWAP1 SSTORE POP JUMPDEST POP POP JUMP JUMPDEST PUSH1 0x60 PUSH0 DUP1 SLOAD DUP1 PUSH1 0x20 MUL PUSH1 0x20 ADD PUSH1 0x40 MLOAD SWAP1 DUP2 ADD PUSH1 0x40 MSTORE DUP1 SWAP3 SWAP2 SWAP1 DUP2 DUP2 MSTORE PUSH1 0x20 ADD PUSH0 SWAP1 JUMPDEST DUP3 DUP3 LT ISZERO PUSH2 0xBD8 JUMPI DUP4 DUP3 SWAP1 PUSH0 MSTORE PUSH1 0x20 PUSH0 KECCAK256 SWAP1 PUSH1 0x7 MUL ADD PUSH1 0x40 MLOAD DUP1 PUSH1 0xE0 ADD PUSH1 0x40 MSTORE SWAP1 DUP2 PUSH0 DUP3 ADD DUP1 SLOAD PUSH2 0x9E1 SWAP1 PUSH2 0x11EF JUMP JUMPDEST DUP1 PUSH1 0x1F ADD PUSH1 0x20 DUP1 SWAP2 DIV MUL PUSH1 0x20 ADD PUSH1 0x40 MLOAD SWAP1 DUP2 ADD PUSH1 0x40 MSTORE DUP1 SWAP3 SWAP2 SWAP1 DUP2 DUP2 MSTORE PUSH1 0x20 ADD DUP3 DUP1 SLOAD PUSH2 0xA0D SWAP1 PUSH2 0x11EF JUMP JUMPDEST DUP1 ISZERO PUSH2 0xA58 JUMPI DUP1 PUSH1 0x1F LT PUSH2 0xA2F JUMPI PUSH2 0x100 DUP1 DUP4 SLOAD DIV MUL DUP4 MSTORE SWAP2 PUSH1 0x20 ADD SWAP2 PUSH2 0xA58 JUMP JUMPDEST DUP3 ADD SWAP2 SWAP1 PUSH0 MSTORE PUSH1 0x20 PUSH0 KECCAK256 SWAP1 JUMPDEST DUP2 SLOAD DUP2 MSTORE SWAP1 PUSH1 0x1 ADD SWAP1 PUSH1 0x20 ADD DUP1 DUP4 GT PUSH2 0xA3B JUMPI DUP3 SWAP1 SUB PUSH1 0x1F AND DUP3 ADD SWAP2 JUMPDEST POP POP POP POP POP DUP2 MSTORE PUSH1 0x20 ADD PUSH1 0x1 DUP3 ADD DUP1 SLOAD PUSH2 0xA71 SWAP1 PUSH2 0x11EF JUMP JUMPDEST DUP1 PUSH1 0x1F ADD PUSH1 0x20 DUP1 SWAP2 DIV MUL PUSH1 0x20 ADD PUSH1 0x40 MLOAD SWAP1 DUP2 ADD PUSH1 0x40 MSTORE DUP1 SWAP3 SWAP2 SWAP1 DUP2 DUP2 MSTORE PUSH1 0x20 ADD DUP3 DUP1 SLOAD PUSH2 0xA9D SWAP1 PUSH2 0x11EF JUMP JUMPDEST DUP1 ISZERO PUSH2 0xAE8 JUMPI DUP1 PUSH1 0x1F LT PUSH2 0xABF JUMPI PUSH2 0x100 DUP1 DUP4 SLOAD DIV MUL DUP4 MSTORE SWAP2 PUSH1 0x20 ADD SWAP2 PUSH2 0xAE8 JUMP JUMPDEST DUP3 ADD SWAP2 SWAP1 PUSH0 MSTORE PUSH1 0x20 PUSH0 KECCAK256 SWAP1 JUMPDEST DUP2 SLOAD DUP2 MSTORE SWAP1 PUSH1 0x1 ADD SWAP1 PUSH1 0x20 ADD DUP1 DUP4 GT PUSH2 0xACB JUMPI DUP3 SWAP1 SUB PUSH1 0x1F AND DUP3 ADD SWAP2 JUMPDEST POP POP POP POP POP DUP2 MSTORE PUSH1 0x20 ADD PUSH1 0x2 DUP3 ADD PUSH0 SWAP1 SLOAD SWAP1 PUSH2 0x100 EXP SWAP1 DIV PUSH20 0xFFFFFFFFFFFFFFFFFFFFFFFFFFFFFFFFFFFFFFFF AND PUSH20 0xFFFFFFFFFFFFFFFFFFFFFFFFFFFFFFFFFFFFFFFF AND PUSH20 0xFFFFFFFFFFFFFFFFFFFFFFFFFFFFFFFFFFFFFFFF AND DUP2 MSTORE PUSH1 0x20 ADD PUSH1 0x3 DUP3 ADD PUSH0 SWAP1 SLOAD SWAP1 PUSH2 0x100 EXP SWAP1 DIV PUSH20 0xFFFFFFFFFFFFFFFFFFFFFFFFFFFFFFFFFFFFFFFF AND PUSH20 0xFFFFFFFFFFFFFFFFFFFFFFFFFFFFFFFFFFFFFFFF AND PUSH20 0xFFFFFFFFFFFFFFFFFFFFFFFFFFFFFFFFFFFFFFFF AND DUP2 MSTORE PUSH1 0x20 ADD PUSH1 0x4 DUP3 ADD SLOAD DUP2 MSTORE PUSH1 0x20 ADD PUSH1 0x5 DUP3 ADD SLOAD DUP2 MSTORE PUSH1 0x20 ADD PUSH1 0x6 DUP3 ADD PUSH0 SWAP1 SLOAD SWAP1 PUSH2 0x100 EXP SWAP1 DIV PUSH1 0xFF AND ISZERO ISZERO ISZERO ISZERO DUP2 MSTORE POP POP DUP2 MSTORE PUSH1 0x20 ADD SWAP1 PUSH1 0x1 ADD SWAP1 PUSH2 0x9B1 JUMP JUMPDEST POP POP POP POP SWAP1 POP SWAP1 JUMP JUMPDEST PUSH2 0x139D DUP1 PUSH2 0x1934 DUP4 CODECOPY ADD SWAP1 JUMP JUMPDEST PUSH0 PUSH1 0x40 MLOAD SWAP1 POP SWAP1 JUMP JUMPDEST PUSH0 DUP1 REVERT JUMPDEST PUSH0 DUP1 REVERT JUMPDEST PUSH0 DUP2 SWAP1 POP SWAP2 SWAP1 POP JUMP JUMPDEST PUSH2 0xC11 DUP2 PUSH2 0xBFF JUMP JUMPDEST DUP2 EQ PUSH2 0xC1B JUMPI PUSH0 DUP1 REVERT JUMPDEST POP JUMP JUMPDEST PUSH0 DUP2 CALLDATALOAD SWAP1 POP PUSH2 0xC2C DUP2 PUSH2 0xC08 JUMP JUMPDEST SWAP3 SWAP2 POP POP JUMP JUMPDEST PUSH0 PUSH1 0x20 DUP3 DUP5 SUB SLT ISZERO PUSH2 0xC47 JUMPI PUSH2 0xC46 PUSH2 0xBF7 JUMP JUMPDEST JUMPDEST PUSH0 PUSH2 0xC54 DUP5 DUP3 DUP6 ADD PUSH2 0xC1E JUMP JUMPDEST SWAP2 POP POP SWAP3 SWAP2 POP POP JUMP JUMPDEST PUSH0 DUP2 MLOAD SWAP1 POP SWAP2 SWAP1 POP JUMP JUMPDEST PUSH0 DUP3 DUP3 MSTORE PUSH1 0x20 DUP3 ADD SWAP1 POP SWAP3 SWAP2 POP POP JUMP JUMPDEST DUP3 DUP2 DUP4 MCOPY PUSH0 DUP4 DUP4 ADD MSTORE POP POP POP JUMP JUMPDEST PUSH0 PUSH1 0x1F NOT PUSH1 0x1F DUP4 ADD AND SWAP1 POP SWAP2 SWAP1 POP JUMP JUMPDEST PUSH0 PUSH2 0xC9F DUP3 PUSH2 0xC5D JUMP JUMPDEST PUSH2 0xCA9 DUP2 DUP6 PUSH2 0xC67 JUMP JUMPDEST SWAP4 POP PUSH2 0xCB9 DUP2 DUP6 PUSH1 0x20 DUP7 ADD PUSH2 0xC77 JUMP JUMPDEST PUSH2 0xCC2 DUP2 PUSH2 0xC85 JUMP JUMPDEST DUP5 ADD SWAP2 POP POP SWAP3 SWAP2 POP POP JUMP JUMPDEST PUSH0 PUSH20 0xFFFFFFFFFFFFFFFFFFFFFFFFFFFFFFFFFFFFFFFF DUP3 AND SWAP1 POP SWAP2 SWAP1 POP JUMP JUMPDEST PUSH0 PUSH2 0xCF6 DUP3 PUSH2 0xCCD JUMP JUMPDEST SWAP1 POP SWAP2 SWAP1 POP JUMP JUMPDEST PUSH2 0xD06 DUP2 PUSH2 0xCEC JUMP JUMPDEST DUP3 MSTORE POP POP JUMP JUMPDEST PUSH2 0xD15 DUP2 PUSH2 0xBFF JUMP JUMPDEST DUP3 MSTORE POP POP JUMP JUMPDEST PUSH0 DUP2 ISZERO ISZERO SWAP1 POP SWAP2 SWAP1 POP JUMP JUMPDEST PUSH2 0xD2F DUP2 PUSH2 0xD1B JUMP JUMPDEST DUP3 MSTORE POP POP JUMP JUMPDEST PUSH0 PUSH1 0xE0 DUP3 ADD SWAP1 POP DUP2 DUP2 SUB PUSH0 DUP4 ADD MSTORE PUSH2 0xD4D DUP2 DUP11 PUSH2 0xC95 JUMP JUMPDEST SWAP1 POP DUP2 DUP2 SUB PUSH1 0x20 DUP4 ADD MSTORE PUSH2 0xD61 DUP2 DUP10 PUSH2 0xC95 JUMP JUMPDEST SWAP1 POP PUSH2 0xD70 PUSH1 0x40 DUP4 ADD DUP9 PUSH2 0xCFD JUMP JUMPDEST PUSH2 0xD7D PUSH1 0x60 DUP4 ADD DUP8 PUSH2 0xCFD JUMP JUMPDEST PUSH2 0xD8A PUSH1 0x80 DUP4 ADD DUP7 PUSH2 0xD0C JUMP JUMPDEST PUSH2 0xD97 PUSH1 0xA0 DUP4 ADD DUP6 PUSH2 0xD0C JUMP JUMPDEST PUSH2 0xDA4 PUSH1 0xC0 DUP4 ADD DUP5 PUSH2 0xD26 JUMP JUMPDEST SWAP9 SWAP8 POP POP POP POP POP POP POP POP JUMP JUMPDEST PUSH0 DUP1 REVERT JUMPDEST PUSH0 DUP1 REVERT JUMPDEST PUSH32 0x4E487B7100000000000000000000000000000000000000000000000000000000 PUSH0 MSTORE PUSH1 0x41 PUSH1 0x4 MSTORE PUSH1 0x24 PUSH0 REVERT JUMPDEST PUSH2 0xDEE DUP3 PUSH2 0xC85 JUMP JUMPDEST DUP2 ADD DUP2 DUP2 LT PUSH8 0xFFFFFFFFFFFFFFFF DUP3 GT OR ISZERO PUSH2 0xE0D JUMPI PUSH2 0xE0C PUSH2 0xDB8 JUMP JUMPDEST JUMPDEST DUP1 PUSH1 0x40 MSTORE POP POP POP JUMP JUMPDEST PUSH0 PUSH2 0xE1F PUSH2 0xBEE JUMP JUMPDEST SWAP1 POP PUSH2 0xE2B DUP3 DUP3 PUSH2 0xDE5 JUMP JUMPDEST SWAP2 SWAP1 POP JUMP JUMPDEST PUSH0 PUSH8 0xFFFFFFFFFFFFFFFF DUP3 GT ISZERO PUSH2 0xE4A JUMPI PUSH2 0xE49 PUSH2 0xDB8 JUMP JUMPDEST JUMPDEST PUSH2 0xE53 DUP3 PUSH2 0xC85 JUMP JUMPDEST SWAP1 POP PUSH1 0x20 DUP2 ADD SWAP1 POP SWAP2 SWAP1 POP JUMP JUMPDEST DUP3 DUP2 DUP4 CALLDATACOPY PUSH0 DUP4 DUP4 ADD MSTORE POP POP POP JUMP JUMPDEST PUSH0 PUSH2 0xE80 PUSH2 0xE7B DUP5 PUSH2 0xE30 JUMP JUMPDEST PUSH2 0xE16 JUMP JUMPDEST SWAP1 POP DUP3 DUP2 MSTORE PUSH1 0x20 DUP2 ADD DUP5 DUP5 DUP5 ADD GT ISZERO PUSH2 0xE9C JUMPI PUSH2 0xE9B PUSH2 0xDB4 JUMP JUMPDEST JUMPDEST PUSH2 0xEA7 DUP5 DUP3 DUP6 PUSH2 0xE60 JUMP JUMPDEST POP SWAP4 SWAP3 POP POP POP JUMP JUMPDEST PUSH0 DUP3 PUSH1 0x1F DUP4 ADD SLT PUSH2 0xEC3 JUMPI PUSH2 0xEC2 PUSH2 0xDB0 JUMP JUMPDEST JUMPDEST DUP2 CALLDATALOAD PUSH2 0xED3 DUP5 DUP3 PUSH1 0x20 DUP7 ADD PUSH2 0xE6E JUMP JUMPDEST SWAP2 POP POP SWAP3 SWAP2 POP POP JUMP JUMPDEST PUSH0 DUP1 PUSH0 PUSH1 0x60 DUP5 DUP7 SUB SLT ISZERO PUSH2 0xEF3 JUMPI PUSH2 0xEF2 PUSH2 0xBF7 JUMP JUMPDEST JUMPDEST PUSH0 DUP5 ADD CALLDATALOAD PUSH8 0xFFFFFFFFFFFFFFFF DUP2 GT ISZERO PUSH2 0xF10 JUMPI PUSH2 0xF0F PUSH2 0xBFB JUMP JUMPDEST JUMPDEST PUSH2 0xF1C DUP7 DUP3 DUP8 ADD PUSH2 0xEAF JUMP JUMPDEST SWAP4 POP POP PUSH1 0x20 DUP5 ADD CALLDATALOAD PUSH8 0xFFFFFFFFFFFFFFFF DUP2 GT ISZERO PUSH2 0xF3D JUMPI PUSH2 0xF3C PUSH2 0xBFB JUMP JUMPDEST JUMPDEST PUSH2 0xF49 DUP7 DUP3 DUP8 ADD PUSH2 0xEAF JUMP JUMPDEST SWAP3 POP POP PUSH1 0x40 PUSH2 0xF5A DUP7 DUP3 DUP8 ADD PUSH2 0xC1E JUMP JUMPDEST SWAP2 POP POP SWAP3 POP SWAP3 POP SWAP3 JUMP JUMPDEST PUSH2 0xF6D DUP2 PUSH2 0xCEC JUMP JUMPDEST DUP2 EQ PUSH2 0xF77 JUMPI PUSH0 DUP1 REVERT JUMPDEST POP JUMP JUMPDEST PUSH0 DUP2 CALLDATALOAD SWAP1 POP PUSH2 0xF88 DUP2 PUSH2 0xF64 JUMP JUMPDEST SWAP3 SWAP2 POP POP JUMP JUMPDEST PUSH0 PUSH1 0x20 DUP3 DUP5 SUB SLT ISZERO PUSH2 0xFA3 JUMPI PUSH2 0xFA2 PUSH2 0xBF7 JUMP JUMPDEST JUMPDEST PUSH0 PUSH2 0xFB0 DUP5 DUP3 DUP6 ADD PUSH2 0xF7A JUMP JUMPDEST SWAP2 POP POP SWAP3 SWAP2 POP POP JUMP JUMPDEST PUSH0 PUSH1 0x20 DUP3 ADD SWAP1 POP PUSH2 0xFCC PUSH0 DUP4 ADD DUP5 PUSH2 0xD0C JUMP JUMPDEST SWAP3 SWAP2 POP POP JUMP JUMPDEST PUSH0 DUP2 MLOAD SWAP1 POP SWAP2 SWAP1 POP JUMP JUMPDEST PUSH0 DUP3 DUP3 MSTORE PUSH1 0x20 DUP3 ADD SWAP1 POP SWAP3 SWAP2 POP POP JUMP JUMPDEST PUSH0 DUP2 SWAP1 POP PUSH1 0x20 DUP3 ADD SWAP1 POP SWAP2 SWAP1 POP JUMP JUMPDEST PUSH0 DUP3 DUP3 MSTORE PUSH1 0x20 DUP3 ADD SWAP1 POP SWAP3 SWAP2 POP POP JUMP JUMPDEST PUSH0 PUSH2 0x1015 DUP3 PUSH2 0xC5D JUMP JUMPDEST PUSH2 0x101F DUP2 DUP6 PUSH2 0xFFB JUMP JUMPDEST SWAP4 POP PUSH2 0x102F DUP2 DUP6 PUSH1 0x20 DUP7 ADD PUSH2 0xC77 JUMP JUMPDEST PUSH2 0x1038 DUP2 PUSH2 0xC85 JUMP JUMPDEST DUP5 ADD SWAP2 POP POP SWAP3 SWAP2 POP POP JUMP JUMPDEST PUSH2 0x104C DUP2 PUSH2 0xCEC JUMP JUMPDEST DUP3 MSTORE POP POP JUMP JUMPDEST PUSH2 0x105B DUP2 PUSH2 0xBFF JUMP JUMPDEST DUP3 MSTORE POP POP JUMP JUMPDEST PUSH2 0x106A DUP2 PUSH2 0xD1B JUMP JUMPDEST DUP3 MSTORE POP POP JUMP JUMPDEST PUSH0 PUSH1 0xE0 DUP4 ADD PUSH0 DUP4 ADD MLOAD DUP5 DUP3 SUB PUSH0 DUP7 ADD MSTORE PUSH2 0x108A DUP3 DUP3 PUSH2 0x100B JUMP JUMPDEST SWAP2 POP POP PUSH1 0x20 DUP4 ADD MLOAD DUP5 DUP3 SUB PUSH1 0x20 DUP7 ADD MSTORE PUSH2 0x10A4 DUP3 DUP3 PUSH2 0x100B JUMP JUMPDEST SWAP2 POP POP PUSH1 0x40 DUP4 ADD MLOAD PUSH2 0x10B9 PUSH1 0x40 DUP7 ADD DUP3 PUSH2 0x1043 JUMP JUMPDEST POP PUSH1 0x60 DUP4 ADD MLOAD PUSH2 0x10CC PUSH1 0x60 DUP7 ADD DUP3 PUSH2 0x1043 JUMP JUMPDEST POP PUSH1 0x80 DUP4 ADD MLOAD PUSH2 0x10DF PUSH1 0x80 DUP7 ADD DUP3 PUSH2 0x1052 JUMP JUMPDEST POP PUSH1 0xA0 DUP4 ADD MLOAD PUSH2 0x10F2 PUSH1 0xA0 DUP7 ADD DUP3 PUSH2 0x1052 JUMP JUMPDEST POP PUSH1 0xC0 DUP4 ADD MLOAD PUSH2 0x1105 PUSH1 0xC0 DUP7 ADD DUP3 PUSH2 0x1061 JUMP JUMPDEST POP DUP1 SWAP2 POP POP SWAP3 SWAP2 POP POP JUMP JUMPDEST PUSH0 PUSH2 0x111B DUP4 DUP4 PUSH2 0x1070 JUMP JUMPDEST SWAP1 POP SWAP3 SWAP2 POP POP JUMP JUMPDEST PUSH0 PUSH1 0x20 DUP3 ADD SWAP1 POP SWAP2 SWAP1 POP JUMP JUMPDEST PUSH0 PUSH2 0x1139 DUP3 PUSH2 0xFD2 JUMP JUMPDEST PUSH2 0x1143 DUP2 DUP6 PUSH2 0xFDC JUMP JUMPDEST SWAP4 POP DUP4 PUSH1 0x20 DUP3 MUL DUP6 ADD PUSH2 0x1155 DUP6 PUSH2 0xFEC JUMP JUMPDEST DUP1 PUSH0 JUMPDEST DUP6 DUP2 LT ISZERO PUSH2 0x1190 JUMPI DUP5 DUP5 SUB DUP10 MSTORE DUP2 MLOAD PUSH2 0x1171 DUP6 DUP3 PUSH2 0x1110 JUMP JUMPDEST SWAP5 POP PUSH2 0x117C DUP4 PUSH2 0x1123 JUMP JUMPDEST SWAP3 POP PUSH1 0x20 DUP11 ADD SWAP10 POP POP PUSH1 0x1 DUP2 ADD SWAP1 POP PUSH2 0x1158 JUMP JUMPDEST POP DUP3 SWAP8 POP DUP8 SWAP6 POP POP POP POP POP POP SWAP3 SWAP2 POP POP JUMP JUMPDEST PUSH0 PUSH1 0x20 DUP3 ADD SWAP1 POP DUP2 DUP2 SUB PUSH0 DUP4 ADD MSTORE PUSH2 0x11BA DUP2 DUP5 PUSH2 0x112F JUMP JUMPDEST SWAP1 POP SWAP3 SWAP2 POP POP JUMP JUMPDEST PUSH32 0x4E487B7100000000000000000000000000000000000000000000000000000000 PUSH0 MSTORE PUSH1 0x22 PUSH1 0x4 MSTORE PUSH1 0x24 PUSH0 REVERT JUMPDEST PUSH0 PUSH1 0x2 DUP3 DIV SWAP1 POP PUSH1 0x1 DUP3 AND DUP1 PUSH2 0x1206 JUMPI PUSH1 0x7F DUP3 AND SWAP2 POP JUMPDEST PUSH1 0x20 DUP3 LT DUP2 SUB PUSH2 0x1219 JUMPI PUSH2 0x1218 PUSH2 0x11C2 JUMP JUMPDEST JUMPDEST POP SWAP2 SWAP1 POP JUMP JUMPDEST PUSH32 0x496E76616C69642070726F6A6563742049440000000000000000000000000000 PUSH0 DUP3 ADD MSTORE POP JUMP JUMPDEST PUSH0 PUSH2 0x1253 PUSH1 0x12 DUP4 PUSH2 0xC67 JUMP JUMPDEST SWAP2 POP PUSH2 0x125E DUP3 PUSH2 0x121F JUMP JUMPDEST PUSH1 0x20 DUP3 ADD SWAP1 POP SWAP2 SWAP1 POP JUMP JUMPDEST PUSH0 PUSH1 0x20 DUP3 ADD SWAP1 POP DUP2 DUP2 SUB PUSH0 DUP4 ADD MSTORE PUSH2 0x1280 DUP2 PUSH2 0x1247 JUMP JUMPDEST SWAP1 POP SWAP2 SWAP1 POP JUMP JUMPDEST PUSH32 0x4E487B7100000000000000000000000000000000000000000000000000000000 PUSH0 MSTORE PUSH1 0x32 PUSH1 0x4 MSTORE PUSH1 0x24 PUSH0 REVERT JUMPDEST PUSH32 0x4F6E6C792070726F6A6563742063726561746F722063616E2077697468647261 PUSH0 DUP3 ADD MSTORE PUSH32 0x772066756E647300000000000000000000000000000000000000000000000000 PUSH1 0x20 DUP3 ADD MSTORE POP JUMP JUMPDEST PUSH0 PUSH2 0x130E PUSH1 0x27 DUP4 PUSH2 0xC67 JUMP JUMPDEST SWAP2 POP PUSH2 0x1319 DUP3 PUSH2 0x12B4 JUMP JUMPDEST PUSH1 0x40 DUP3 ADD SWAP1 POP SWAP2 SWAP1 POP JUMP JUMPDEST PUSH0 PUSH1 0x20 DUP3 ADD SWAP1 POP DUP2 DUP2 SUB PUSH0 DUP4 ADD MSTORE PUSH2 0x133B DUP2 PUSH2 0x1302 JUMP JUMPDEST SWAP1 POP SWAP2 SWAP1 POP JUMP JUMPDEST PUSH32 0x50726F6A6563742066756E64696E6720676F616C206E6F742072656163686564 PUSH0 DUP3 ADD MSTORE PUSH32 0x2079657400000000000000000000000000000000000000000000000000000000 PUSH1 0x20 DUP3 ADD MSTORE POP JUMP JUMPDEST PUSH0 PUSH2 0x139C PUSH1 0x24 DUP4 PUSH2 0xC67 JUMP JUMPDEST SWAP2 POP PUSH2 0x13A7 DUP3 PUSH2 0x1342 JUMP JUMPDEST PUSH1 0x40 DUP3 ADD SWAP1 POP SWAP2 SWAP1 POP JUMP JUMPDEST PUSH0 PUSH1 0x20 DUP3 ADD SWAP1 POP DUP2 DUP2 SUB PUSH0 DUP4 ADD MSTORE PUSH2 0x13C9 DUP2 PUSH2 0x1390 JUMP JUMPDEST SWAP1 POP SWAP2 SWAP1 POP JUMP JUMPDEST PUSH32 0x54617267657420616D6F756E74206D7573742062652067726561746572207468 PUSH0 DUP3 ADD MSTORE PUSH32 0x616E203000000000000000000000000000000000000000000000000000000000 PUSH1 0x20 DUP3 ADD MSTORE POP JUMP JUMPDEST PUSH0 PUSH2 0x142A PUSH1 0x24 DUP4 PUSH2 0xC67 JUMP JUMPDEST SWAP2 POP PUSH2 0x1435 DUP3 PUSH2 0x13D0 JUMP JUMPDEST PUSH1 0x40 DUP3 ADD SWAP1 POP SWAP2 SWAP1 POP JUMP JUMPDEST PUSH0 PUSH1 0x20 DUP3 ADD SWAP1 POP DUP2 DUP2 SUB PUSH0 DUP4 ADD MSTORE PUSH2 0x1457 DUP2 PUSH2 0x141E JUMP JUMPDEST SWAP1 POP SWAP2 SWAP1 POP JUMP JUMPDEST PUSH32 0x50544B0000000000000000000000000000000000000000000000000000000000 PUSH0 DUP3 ADD MSTORE POP JUMP JUMPDEST PUSH0 PUSH2 0x1492 PUSH1 0x3 DUP4 PUSH2 0xC67 JUMP JUMPDEST SWAP2 POP PUSH2 0x149D DUP3 PUSH2 0x145E JUMP JUMPDEST PUSH1 0x20 DUP3 ADD SWAP1 POP SWAP2 SWAP1 POP JUMP JUMPDEST PUSH0 PUSH1 0x40 DUP3 ADD SWAP1 POP DUP2 DUP2 SUB PUSH0 DUP4 ADD MSTORE PUSH2 0x14C0 DUP2 DUP5 PUSH2 0xC95 JUMP JUMPDEST SWAP1 POP DUP2 DUP2 SUB PUSH1 0x20 DUP4 ADD MSTORE PUSH2 0x14D3 DUP2 PUSH2 0x1486 JUMP JUMPDEST SWAP1 POP SWAP3 SWAP2 POP POP JUMP JUMPDEST PUSH0 DUP2 SWAP1 POP DUP2 PUSH0 MSTORE PUSH1 0x20 PUSH0 KECCAK256 SWAP1 POP SWAP2 SWAP1 POP JUMP JUMPDEST PUSH0 PUSH1 0x20 PUSH1 0x1F DUP4 ADD DIV SWAP1 POP SWAP2 SWAP1 POP JUMP JUMPDEST PUSH0 DUP3 DUP3 SHL SWAP1 POP SWAP3 SWAP2 POP POP JUMP JUMPDEST PUSH0 PUSH1 0x8 DUP4 MUL PUSH2 0x1537 PUSH32 0xFFFFFFFFFFFFFFFFFFFFFFFFFFFFFFFFFFFFFFFFFFFFFFFFFFFFFFFFFFFFFFFF DUP3 PUSH2 0x14FC JUMP JUMPDEST PUSH2 0x1541 DUP7 DUP4 PUSH2 0x14FC JUMP JUMPDEST SWAP6 POP DUP1 NOT DUP5 AND SWAP4 POP DUP1 DUP7 AND DUP5 OR SWAP3 POP POP POP SWAP4 SWAP3 POP POP POP JUMP JUMPDEST PUSH0 DUP2 SWAP1 POP SWAP2 SWAP1 POP JUMP JUMPDEST PUSH0 PUSH2 0x157C PUSH2 0x1577 PUSH2 0x1572 DUP5 PUSH2 0xBFF JUMP JUMPDEST PUSH2 0x1559 JUMP JUMPDEST PUSH2 0xBFF JUMP JUMPDEST SWAP1 POP SWAP2 SWAP1 POP JUMP JUMPDEST PUSH0 DUP2 SWAP1 POP SWAP2 SWAP1 POP JUMP JUMPDEST PUSH2 0x1595 DUP4 PUSH2 0x1562 JUMP JUMPDEST PUSH2 0x15A9 PUSH2 0x15A1 DUP3 PUSH2 0x1583 JUMP JUMPDEST DUP5 DUP5 SLOAD PUSH2 0x1508 JUMP JUMPDEST DUP3 SSTORE POP POP POP POP JUMP JUMPDEST PUSH0 SWAP1 JUMP JUMPDEST PUSH2 0x15BD PUSH2 0x15B1 JUMP JUMPDEST PUSH2 0x15C8 DUP2 DUP5 DUP5 PUSH2 0x158C JUMP JUMPDEST POP POP POP JUMP JUMPDEST JUMPDEST DUP2 DUP2 LT ISZERO PUSH2 0x15EB JUMPI PUSH2 0x15E0 PUSH0 DUP3 PUSH2 0x15B5 JUMP JUMPDEST PUSH1 0x1 DUP2 ADD SWAP1 POP PUSH2 0x15CE JUMP JUMPDEST POP POP JUMP JUMPDEST PUSH1 0x1F DUP3 GT ISZERO PUSH2 0x1630 JUMPI PUSH2 0x1601 DUP2 PUSH2 0x14DB JUMP JUMPDEST PUSH2 0x160A DUP5 PUSH2 0x14ED JUMP JUMPDEST DUP2 ADD PUSH1 0x20 DUP6 LT ISZERO PUSH2 0x1619 JUMPI DUP2 SWAP1 POP JUMPDEST PUSH2 0x162D PUSH2 0x1625 DUP6 PUSH2 0x14ED JUMP JUMPDEST DUP4 ADD DUP3 PUSH2 0x15CD JUMP JUMPDEST POP POP JUMPDEST POP POP POP JUMP JUMPDEST PUSH0 DUP3 DUP3 SHR SWAP1 POP SWAP3 SWAP2 POP POP JUMP JUMPDEST PUSH0 PUSH2 0x1650 PUSH0 NOT DUP5 PUSH1 0x8 MUL PUSH2 0x1635 JUMP JUMPDEST NOT DUP1 DUP4 AND SWAP2 POP POP SWAP3 SWAP2 POP POP JUMP JUMPDEST PUSH0 PUSH2 0x1668 DUP4 DUP4 PUSH2 0x1641 JUMP JUMPDEST SWAP2 POP DUP3 PUSH1 0x2 MUL DUP3 OR SWAP1 POP SWAP3 SWAP2 POP POP JUMP JUMPDEST PUSH2 0x1681 DUP3 PUSH2 0xC5D JUMP JUMPDEST PUSH8 0xFFFFFFFFFFFFFFFF DUP2 GT ISZERO PUSH2 0x169A JUMPI PUSH2 0x1699 PUSH2 0xDB8 JUMP JUMPDEST JUMPDEST PUSH2 0x16A4 DUP3 SLOAD PUSH2 0x11EF JUMP JUMPDEST PUSH2 0x16AF DUP3 DUP3 DUP6 PUSH2 0x15EF JUMP JUMPDEST PUSH0 PUSH1 0x20 SWAP1 POP PUSH1 0x1F DUP4 GT PUSH1 0x1 DUP2 EQ PUSH2 0x16E0 JUMPI PUSH0 DUP5 ISZERO PUSH2 0x16CE JUMPI DUP3 DUP8 ADD MLOAD SWAP1 POP JUMPDEST PUSH2 0x16D8 DUP6 DUP3 PUSH2 0x165D JUMP JUMPDEST DUP7 SSTORE POP PUSH2 0x173F JUMP JUMPDEST PUSH1 0x1F NOT DUP5 AND PUSH2 0x16EE DUP7 PUSH2 0x14DB JUMP JUMPDEST PUSH0 JUMPDEST DUP3 DUP2 LT ISZERO PUSH2 0x1715 JUMPI DUP5 DUP10 ADD MLOAD DUP3 SSTORE PUSH1 0x1 DUP3 ADD SWAP2 POP PUSH1 0x20 DUP6 ADD SWAP5 POP PUSH1 0x20 DUP2 ADD SWAP1 POP PUSH2 0x16F0 JUMP JUMPDEST DUP7 DUP4 LT ISZERO PUSH2 0x1732 JUMPI DUP5 DUP10 ADD MLOAD PUSH2 0x172E PUSH1 0x1F DUP10 AND DUP3 PUSH2 0x1641 JUMP JUMPDEST DUP4 SSTORE POP JUMPDEST PUSH1 0x1 PUSH1 0x2 DUP9 MUL ADD DUP9 SSTORE POP POP POP JUMPDEST POP POP POP POP POP POP JUMP JUMPDEST PUSH32 0x4E487B7100000000000000000000000000000000000000000000000000000000 PUSH0 MSTORE PUSH1 0x11 PUSH1 0x4 MSTORE PUSH1 0x24 PUSH0 REVERT JUMPDEST PUSH0 PUSH2 0x177E DUP3 PUSH2 0xBFF JUMP JUMPDEST SWAP2 POP PUSH2 0x1789 DUP4 PUSH2 0xBFF JUMP JUMPDEST SWAP3 POP DUP3 DUP3 SUB SWAP1 POP DUP2 DUP2 GT ISZERO PUSH2 0x17A1 JUMPI PUSH2 0x17A0 PUSH2 0x1747 JUMP JUMPDEST JUMPDEST SWAP3 SWAP2 POP POP JUMP JUMPDEST PUSH0 PUSH1 0x60 DUP3 ADD SWAP1 POP DUP2 DUP2 SUB PUSH0 DUP4 ADD MSTORE PUSH2 0x17BF DUP2 DUP7 PUSH2 0xC95 JUMP JUMPDEST SWAP1 POP PUSH2 0x17CE PUSH1 0x20 DUP4 ADD DUP6 PUSH2 0xCFD JUMP JUMPDEST PUSH2 0x17DB PUSH1 0x40 DUP4 ADD DUP5 PUSH2 0xD0C JUMP JUMPDEST SWAP5 SWAP4 POP POP POP POP JUMP JUMPDEST PUSH32 0x50726F6A656374206973206E6F206C6F6E676572206163746976650000000000 PUSH0 DUP3 ADD MSTORE POP JUMP JUMPDEST PUSH0 PUSH2 0x1817 PUSH1 0x1B DUP4 PUSH2 0xC67 JUMP JUMPDEST SWAP2 POP PUSH2 0x1822 DUP3 PUSH2 0x17E3 JUMP JUMPDEST PUSH1 0x20 DUP3 ADD SWAP1 POP SWAP2 SWAP1 POP JUMP JUMPDEST PUSH0 PUSH1 0x20 DUP3 ADD SWAP1 POP DUP2 DUP2 SUB PUSH0 DUP4 ADD MSTORE PUSH2 0x1844 DUP2 PUSH2 0x180B JUMP JUMPDEST SWAP1 POP SWAP2 SWAP1 POP JUMP JUMPDEST PUSH32 0x436F6E747269627574696F6E206D757374206265206772656174657220746861 PUSH0 DUP3 ADD MSTORE PUSH32 0x6E20300000000000000000000000000000000000000000000000000000000000 PUSH1 0x20 DUP3 ADD MSTORE POP JUMP JUMPDEST PUSH0 PUSH2 0x18A5 PUSH1 0x23 DUP4 PUSH2 0xC67 JUMP JUMPDEST SWAP2 POP PUSH2 0x18B0 DUP3 PUSH2 0x184B JUMP JUMPDEST PUSH1 0x40 DUP3 ADD SWAP1 POP SWAP2 SWAP1 POP JUMP JUMPDEST PUSH0 PUSH1 0x20 DUP3 ADD SWAP1 POP DUP2 DUP2 SUB PUSH0 DUP4 ADD MSTORE PUSH2 0x18D2 DUP2 PUSH2 0x1899 JUMP JUMPDEST SWAP1 POP SWAP2 SWAP1 POP JUMP JUMPDEST PUSH0 PUSH2 0x18E3 DUP3 PUSH2 0xBFF JUMP JUMPDEST SWAP2 POP PUSH2 0x18EE DUP4 PUSH2 0xBFF JUMP JUMPDEST SWAP3 POP DUP3 DUP3 ADD SWAP1 POP DUP1 DUP3 GT ISZERO PUSH2 0x1906 JUMPI PUSH2 0x1905 PUSH2 0x1747 JUMP JUMPDEST JUMPDEST SWAP3 SWAP2 POP POP JUMP JUMPDEST PUSH0 PUSH1 0x40 DUP3 ADD SWAP1 POP PUSH2 0x191F PUSH0 DUP4 ADD DUP6 PUSH2 0xCFD JUMP JUMPDEST PUSH2 0x192C PUSH1 0x20 DUP4 ADD DUP5 PUSH2 0xD0C JUMP JUMPDEST SWAP4 SWAP3 POP POP POP JUMP INVALID PUSH1 0x80 PUSH1 0x40 MSTORE CALLVALUE DUP1 ISZERO PUSH2 0xF JUMPI PUSH0 DUP1 REVERT JUMPDEST POP PUSH1 0x40 MLOAD PUSH2 0x139D CODESIZE SUB DUP1 PUSH2 0x139D DUP4 CODECOPY DUP2 DUP2 ADD PUSH1 0x40 MSTORE DUP2 ADD SWAP1 PUSH2 0x31 SWAP2 SWAP1 PUSH2 0x1A9 JUMP JUMPDEST DUP2 DUP2 DUP2 PUSH1 0x3 SWAP1 DUP2 PUSH2 0x42 SWAP2 SWAP1 PUSH2 0x42C JUMP JUMPDEST POP DUP1 PUSH1 0x4 SWAP1 DUP2 PUSH2 0x52 SWAP2 SWAP1 PUSH2 0x42C JUMP JUMPDEST POP POP POP POP POP PUSH2 0x4FB JUMP JUMPDEST PUSH0 PUSH1 0x40 MLOAD SWAP1 POP SWAP1 JUMP JUMPDEST PUSH0 DUP1 REVERT JUMPDEST PUSH0 DUP1 REVERT JUMPDEST PUSH0 DUP1 REVERT JUMPDEST PUSH0 DUP1 REVERT JUMPDEST PUSH0 PUSH1 0x1F NOT PUSH1 0x1F DUP4 ADD AND SWAP1 POP SWAP2 SWAP1 POP JUMP JUMPDEST PUSH32 0x4E487B7100000000000000000000000000000000000000000000000000000000 PUSH0 MSTORE PUSH1 0x41 PUSH1 0x4 MSTORE PUSH1 0x24 PUSH0 REVERT JUMPDEST PUSH2 0xBB DUP3 PUSH2 0x75 JUMP JUMPDEST DUP2 ADD DUP2 DUP2 LT PUSH8 0xFFFFFFFFFFFFFFFF DUP3 GT OR ISZERO PUSH2 0xDA JUMPI PUSH2 0xD9 PUSH2 0x85 JUMP JUMPDEST JUMPDEST DUP1 PUSH1 0x40 MSTORE POP POP POP JUMP JUMPDEST PUSH0 PUSH2 0xEC PUSH2 0x5C JUMP JUMPDEST SWAP1 POP PUSH2 0xF8 DUP3 DUP3 PUSH2 0xB2 JUMP JUMPDEST SWAP2 SWAP1 POP JUMP JUMPDEST PUSH0 PUSH8 0xFFFFFFFFFFFFFFFF DUP3 GT ISZERO PUSH2 0x117 JUMPI PUSH2 0x116 PUSH2 0x85 JUMP JUMPDEST JUMPDEST PUSH2 0x120 DUP3 PUSH2 0x75 JUMP JUMPDEST SWAP1 POP PUSH1 0x20 DUP2 ADD SWAP1 POP SWAP2 SWAP1 POP JUMP JUMPDEST DUP3 DUP2 DUP4 MCOPY PUSH0 DUP4 DUP4 ADD MSTORE POP POP POP JUMP JUMPDEST PUSH0 PUSH2 0x14D PUSH2 0x148 DUP5 PUSH2 0xFD JUMP JUMPDEST PUSH2 0xE3 JUMP JUMPDEST SWAP1 POP DUP3 DUP2 MSTORE PUSH1 0x20 DUP2 ADD DUP5 DUP5 DUP5 ADD GT ISZERO PUSH2 0x169 JUMPI PUSH2 0x168 PUSH2 0x71 JUMP JUMPDEST JUMPDEST PUSH2 0x174 DUP5 DUP3 DUP6 PUSH2 0x12D JUMP JUMPDEST POP SWAP4 SWAP3 POP POP POP JUMP JUMPDEST PUSH0 DUP3 PUSH1 0x1F DUP4 ADD SLT PUSH2 0x190 JUMPI PUSH2 0x18F PUSH2 0x6D JUMP JUMPDEST JUMPDEST DUP2 MLOAD PUSH2 0x1A0 DUP5 DUP3 PUSH1 0x20 DUP7 ADD PUSH2 0x13B JUMP JUMPDEST SWAP2 POP POP SWAP3 SWAP2 POP POP JUMP JUMPDEST PUSH0 DUP1 PUSH1 0x40 DUP4 DUP6 SUB SLT ISZERO PUSH2 0x1BF JUMPI PUSH2 0x1BE PUSH2 0x65 JUMP JUMPDEST JUMPDEST PUSH0 DUP4 ADD MLOAD PUSH8 0xFFFFFFFFFFFFFFFF DUP2 GT ISZERO PUSH2 0x1DC JUMPI PUSH2 0x1DB PUSH2 0x69 JUMP JUMPDEST JUMPDEST PUSH2 0x1E8 DUP6 DUP3 DUP7 ADD PUSH2 0x17C JUMP JUMPDEST SWAP3 POP POP PUSH1 0x20 DUP4 ADD MLOAD PUSH8 0xFFFFFFFFFFFFFFFF DUP2 GT ISZERO PUSH2 0x209 JUMPI PUSH2 0x208 PUSH2 0x69 JUMP JUMPDEST JUMPDEST PUSH2 0x215 DUP6 DUP3 DUP7 ADD PUSH2 0x17C JUMP JUMPDEST SWAP2 POP POP SWAP3 POP SWAP3 SWAP1 POP JUMP JUMPDEST PUSH0 DUP2 MLOAD SWAP1 POP SWAP2 SWAP1 POP JUMP JUMPDEST PUSH32 0x4E487B7100000000000000000000000000000000000000000000000000000000 PUSH0 MSTORE PUSH1 0x22 PUSH1 0x4 MSTORE PUSH1 0x24 PUSH0 REVERT JUMPDEST PUSH0 PUSH1 0x2 DUP3 DIV SWAP1 POP PUSH1 0x1 DUP3 AND DUP1 PUSH2 0x26D JUMPI PUSH1 0x7F DUP3 AND SWAP2 POP JUMPDEST PUSH1 0x20 DUP3 LT DUP2 SUB PUSH2 0x280 JUMPI PUSH2 0x27F PUSH2 0x229 JUMP JUMPDEST JUMPDEST POP SWAP2 SWAP1 POP JUMP JUMPDEST PUSH0 DUP2 SWAP1 POP DUP2 PUSH0 MSTORE PUSH1 0x20 PUSH0 KECCAK256 SWAP1 POP SWAP2 SWAP1 POP JUMP JUMPDEST PUSH0 PUSH1 0x20 PUSH1 0x1F DUP4 ADD DIV SWAP1 POP SWAP2 SWAP1 POP JUMP JUMPDEST PUSH0 DUP3 DUP3 SHL SWAP1 POP SWAP3 SWAP2 POP POP JUMP JUMPDEST PUSH0 PUSH1 0x8 DUP4 MUL PUSH2 0x2E2 PUSH32 0xFFFFFFFFFFFFFFFFFFFFFFFFFFFFFFFFFFFFFFFFFFFFFFFFFFFFFFFFFFFFFFFF DUP3 PUSH2 0x2A7 JUMP JUMPDEST PUSH2 0x2EC DUP7 DUP4 PUSH2 0x2A7 JUMP JUMPDEST SWAP6 POP DUP1 NOT DUP5 AND SWAP4 POP DUP1 DUP7 AND DUP5 OR SWAP3 POP POP POP SWAP4 SWAP3 POP POP POP JUMP JUMPDEST PUSH0 DUP2 SWAP1 POP SWAP2 SWAP1 POP JUMP JUMPDEST PUSH0 DUP2 SWAP1 POP SWAP2 SWAP1 POP JUMP JUMPDEST PUSH0 PUSH2 0x330 PUSH2 0x32B PUSH2 0x326 DUP5 PUSH2 0x304 JUMP JUMPDEST PUSH2 0x30D JUMP JUMPDEST PUSH2 0x304 JUMP JUMPDEST SWAP1 POP SWAP2 SWAP1 POP JUMP JUMPDEST PUSH0 DUP2 SWAP1 POP SWAP2 SWAP1 POP JUMP JUMPDEST PUSH2 0x349 DUP4 PUSH2 0x316 JUMP JUMPDEST PUSH2 0x35D PUSH2 0x355 DUP3 PUSH2 0x337 JUMP JUMPDEST DUP5 DUP5 SLOAD PUSH2 0x2B3 JUMP JUMPDEST DUP3 SSTORE POP POP POP POP JUMP JUMPDEST PUSH0 SWAP1 JUMP JUMPDEST PUSH2 0x371 PUSH2 0x365 JUMP JUMPDEST PUSH2 0x37C DUP2 DUP5 DUP5 PUSH2 0x340 JUMP JUMPDEST POP POP POP JUMP JUMPDEST JUMPDEST DUP2 DUP2 LT ISZERO PUSH2 0x39F JUMPI PUSH2 0x394 PUSH0 DUP3 PUSH2 0x369 JUMP JUMPDEST PUSH1 0x1 DUP2 ADD SWAP1 POP PUSH2 0x382 JUMP JUMPDEST POP POP JUMP JUMPDEST PUSH1 0x1F DUP3 GT ISZERO PUSH2 0x3E4 JUMPI PUSH2 0x3B5 DUP2 PUSH2 0x286 JUMP JUMPDEST PUSH2 0x3BE DUP5 PUSH2 0x298 JUMP JUMPDEST DUP2 ADD PUSH1 0x20 DUP6 LT ISZERO PUSH2 0x3CD JUMPI DUP2 SWAP1 POP JUMPDEST PUSH2 0x3E1 PUSH2 0x3D9 DUP6 PUSH2 0x298 JUMP JUMPDEST DUP4 ADD DUP3 PUSH2 0x381 JUMP JUMPDEST POP POP JUMPDEST POP POP POP JUMP JUMPDEST PUSH0 DUP3 DUP3 SHR SWAP1 POP SWAP3 SWAP2 POP POP JUMP JUMPDEST PUSH0 PUSH2 0x404 PUSH0 NOT DUP5 PUSH1 0x8 MUL PUSH2 0x3E9 JUMP JUMPDEST NOT DUP1 DUP4 AND SWAP2 POP POP SWAP3 SWAP2 POP POP JUMP JUMPDEST PUSH0 PUSH2 0x41C DUP4 DUP4 PUSH2 0x3F5 JUMP JUMPDEST SWAP2 POP DUP3 PUSH1 0x2 MUL DUP3 OR SWAP1 POP SWAP3 SWAP2 POP POP JUMP JUMPDEST PUSH2 0x435 DUP3 PUSH2 0x21F JUMP JUMPDEST PUSH8 0xFFFFFFFFFFFFFFFF DUP2 GT ISZERO PUSH2 0x44E JUMPI PUSH2 0x44D PUSH2 0x85 JUMP JUMPDEST JUMPDEST PUSH2 0x458 DUP3 SLOAD PUSH2 0x256 JUMP JUMPDEST PUSH2 0x463 DUP3 DUP3 DUP6 PUSH2 0x3A3 JUMP JUMPDEST PUSH0 PUSH1 0x20 SWAP1 POP PUSH1 0x1F DUP4 GT PUSH1 0x1 DUP2 EQ PUSH2 0x494 JUMPI PUSH0 DUP5 ISZERO PUSH2 0x482 JUMPI DUP3 DUP8 ADD MLOAD SWAP1 POP JUMPDEST PUSH2 0x48C DUP6 DUP3 PUSH2 0x411 JUMP JUMPDEST DUP7 SSTORE POP PUSH2 0x4F3 JUMP JUMPDEST PUSH1 0x1F NOT DUP5 AND PUSH2 0x4A2 DUP7 PUSH2 0x286 JUMP JUMPDEST PUSH0 JUMPDEST DUP3 DUP2 LT ISZERO PUSH2 0x4C9 JUMPI DUP5 DUP10 ADD MLOAD DUP3 SSTORE PUSH1 0x1 DUP3 ADD SWAP2 POP PUSH1 0x20 DUP6 ADD SWAP5 POP PUSH1 0x20 DUP2 ADD SWAP1 POP PUSH2 0x4A4 JUMP JUMPDEST DUP7 DUP4 LT ISZERO PUSH2 0x4E6 JUMPI DUP5 DUP10 ADD MLOAD PUSH2 0x4E2 PUSH1 0x1F DUP10 AND DUP3 PUSH2 0x3F5 JUMP JUMPDEST DUP4 SSTORE POP JUMPDEST PUSH1 0x1 PUSH1 0x2 DUP9 MUL ADD DUP9 SSTORE POP POP POP JUMPDEST POP POP POP POP POP POP JUMP JUMPDEST PUSH2 0xE95 DUP1 PUSH2 0x508 PUSH0 CODECOPY PUSH0 RETURN INVALID PUSH1 0x80 PUSH1 0x40 MSTORE CALLVALUE DUP1 ISZERO PUSH2 0xF JUMPI PUSH0 DUP1 REVERT JUMPDEST POP PUSH1 0x4 CALLDATASIZE LT PUSH2 0x9C JUMPI PUSH0 CALLDATALOAD PUSH1 0xE0 SHR DUP1 PUSH4 0x40C10F19 GT PUSH2 0x64 JUMPI DUP1 PUSH4 0x40C10F19 EQ PUSH2 0x15A JUMPI DUP1 PUSH4 0x70A08231 EQ PUSH2 0x176 JUMPI DUP1 PUSH4 0x95D89B41 EQ PUSH2 0x1A6 JUMPI DUP1 PUSH4 0xA9059CBB EQ PUSH2 0x1C4 JUMPI DUP1 PUSH4 0xDD62ED3E EQ PUSH2 0x1F4 JUMPI PUSH2 0x9C JUMP JUMPDEST DUP1 PUSH4 0x6FDDE03 EQ PUSH2 0xA0 JUMPI DUP1 PUSH4 0x95EA7B3 EQ PUSH2 0xBE JUMPI DUP1 PUSH4 0x18160DDD EQ PUSH2 0xEE JUMPI DUP1 PUSH4 0x23B872DD EQ PUSH2 0x10C JUMPI DUP1 PUSH4 0x313CE567 EQ PUSH2 0x13C JUMPI JUMPDEST PUSH0 DUP1 REVERT JUMPDEST PUSH2 0xA8 PUSH2 0x224 JUMP JUMPDEST PUSH1 0x40 MLOAD PUSH2 0xB5 SWAP2 SWAP1 PUSH2 0xB0E JUMP JUMPDEST PUSH1 0x40 MLOAD DUP1 SWAP2 SUB SWAP1 RETURN JUMPDEST PUSH2 0xD8 PUSH1 0x4 DUP1 CALLDATASIZE SUB DUP2 ADD SWAP1 PUSH2 0xD3 SWAP2 SWAP1 PUSH2 0xBBF JUMP JUMPDEST PUSH2 0x2B4 JUMP JUMPDEST PUSH1 0x40 MLOAD PUSH2 0xE5 SWAP2 SWAP1 PUSH2 0xC17 JUMP JUMPDEST PUSH1 0x40 MLOAD DUP1 SWAP2 SUB SWAP1 RETURN JUMPDEST PUSH2 0xF6 PUSH2 0x2D6 JUMP JUMPDEST PUSH1 0x40 MLOAD PUSH2 0x103 SWAP2 SWAP1 PUSH2 0xC3F JUMP JUMPDEST PUSH1 0x40 MLOAD DUP1 SWAP2 SUB SWAP1 RETURN JUMPDEST PUSH2 0x126 PUSH1 0x4 DUP1 CALLDATASIZE SUB DUP2 ADD SWAP1 PUSH2 0x121 SWAP2 SWAP1 PUSH2 0xC58 JUMP JUMPDEST PUSH2 0x2DF JUMP JUMPDEST PUSH1 0x40 MLOAD PUSH2 0x133 SWAP2 SWAP1 PUSH2 0xC17 JUMP JUMPDEST PUSH1 0x40 MLOAD DUP1 SWAP2 SUB SWAP1 RETURN JUMPDEST PUSH2 0x144 PUSH2 0x30D JUMP JUMPDEST PUSH1 0x40 MLOAD PUSH2 0x151 SWAP2 SWAP1 PUSH2 0xCC3 JUMP JUMPDEST PUSH1 0x40 MLOAD DUP1 SWAP2 SUB SWAP1 RETURN JUMPDEST PUSH2 0x174 PUSH1 0x4 DUP1 CALLDATASIZE SUB DUP2 ADD SWAP1 PUSH2 0x16F SWAP2 SWAP1 PUSH2 0xBBF JUMP JUMPDEST PUSH2 0x315 JUMP JUMPDEST STOP JUMPDEST PUSH2 0x190 PUSH1 0x4 DUP1 CALLDATASIZE SUB DUP2 ADD SWAP1 PUSH2 0x18B SWAP2 SWAP1 PUSH2 0xCDC JUMP JUMPDEST PUSH2 0x323 JUMP JUMPDEST PUSH1 0x40 MLOAD PUSH2 0x19D SWAP2 SWAP1 PUSH2 0xC3F JUMP JUMPDEST PUSH1 0x40 MLOAD DUP1 SWAP2 SUB SWAP1 RETURN JUMPDEST PUSH2 0x1AE PUSH2 0x368 JUMP JUMPDEST PUSH1 0x40 MLOAD PUSH2 0x1BB SWAP2 SWAP1 PUSH2 0xB0E JUMP JUMPDEST PUSH1 0x40 MLOAD DUP1 SWAP2 SUB SWAP1 RETURN JUMPDEST PUSH2 0x1DE PUSH1 0x4 DUP1 CALLDATASIZE SUB DUP2 ADD SWAP1 PUSH2 0x1D9 SWAP2 SWAP1 PUSH2 0xBBF JUMP JUMPDEST PUSH2 0x3F8 JUMP JUMPDEST PUSH1 0x40 MLOAD PUSH2 0x1EB SWAP2 SWAP1 PUSH2 0xC17 JUMP JUMPDEST PUSH1 0x40 MLOAD DUP1 SWAP2 SUB SWAP1 RETURN JUMPDEST PUSH2 0x20E PUSH1 0x4 DUP1 CALLDATASIZE SUB DUP2 ADD SWAP1 PUSH2 0x209 SWAP2 SWAP1 PUSH2 0xD07 JUMP JUMPDEST PUSH2 0x41A JUMP JUMPDEST PUSH1 0x40 MLOAD PUSH2 0x21B SWAP2 SWAP1 PUSH2 0xC3F JUMP JUMPDEST PUSH1 0x40 MLOAD DUP1 SWAP2 SUB SWAP1 RETURN JUMPDEST PUSH1 0x60 PUSH1 0x3 DUP1 SLOAD PUSH2 0x233 SWAP1 PUSH2 0xD72 JUMP JUMPDEST DUP1 PUSH1 0x1F ADD PUSH1 0x20 DUP1 SWAP2 DIV MUL PUSH1 0x20 ADD PUSH1 0x40 MLOAD SWAP1 DUP2 ADD PUSH1 0x40 MSTORE DUP1 SWAP3 SWAP2 SWAP1 DUP2 DUP2 MSTORE PUSH1 0x20 ADD DUP3 DUP1 SLOAD PUSH2 0x25F SWAP1 PUSH2 0xD72 JUMP JUMPDEST DUP1 ISZERO PUSH2 0x2AA JUMPI DUP1 PUSH1 0x1F LT PUSH2 0x281 JUMPI PUSH2 0x100 DUP1 DUP4 SLOAD DIV MUL DUP4 MSTORE SWAP2 PUSH1 0x20 ADD SWAP2 PUSH2 0x2AA JUMP JUMPDEST DUP3 ADD SWAP2 SWAP1 PUSH0 MSTORE PUSH1 0x20 PUSH0 KECCAK256 SWAP1 JUMPDEST DUP2 SLOAD DUP2 MSTORE SWAP1 PUSH1 0x1 ADD SWAP1 PUSH1 0x20 ADD DUP1 DUP4 GT PUSH2 0x28D JUMPI DUP3 SWAP1 SUB PUSH1 0x1F AND DUP3 ADD SWAP2 JUMPDEST POP POP POP POP POP SWAP1 POP SWAP1 JUMP JUMPDEST PUSH0 DUP1 PUSH2 0x2BE PUSH2 0x49C JUMP JUMPDEST SWAP1 POP PUSH2 0x2CB DUP2 DUP6 DUP6 PUSH2 0x4A3 JUMP JUMPDEST PUSH1 0x1 SWAP2 POP POP SWAP3 SWAP2 POP POP JUMP JUMPDEST PUSH0 PUSH1 0x2 SLOAD SWAP1 POP SWAP1 JUMP JUMPDEST PUSH0 DUP1 PUSH2 0x2E9 PUSH2 0x49C JUMP JUMPDEST SWAP1 POP PUSH2 0x2F6 DUP6 DUP3 DUP6 PUSH2 0x4B5 JUMP JUMPDEST PUSH2 0x301 DUP6 DUP6 DUP6 PUSH2 0x547 JUMP JUMPDEST PUSH1 0x1 SWAP2 POP POP SWAP4 SWAP3 POP POP POP JUMP JUMPDEST PUSH0 PUSH1 0x12 SWAP1 POP SWAP1 JUMP JUMPDEST PUSH2 0x31F DUP3 DUP3 PUSH2 0x637 JUMP JUMPDEST POP POP JUMP JUMPDEST PUSH0 DUP1 PUSH0 DUP4 PUSH20 0xFFFFFFFFFFFFFFFFFFFFFFFFFFFFFFFFFFFFFFFF AND PUSH20 0xFFFFFFFFFFFFFFFFFFFFFFFFFFFFFFFFFFFFFFFF AND DUP2 MSTORE PUSH1 0x20 ADD SWAP1 DUP2 MSTORE PUSH1 0x20 ADD PUSH0 KECCAK256 SLOAD SWAP1 POP SWAP2 SWAP1 POP JUMP JUMPDEST PUSH1 0x60 PUSH1 0x4 DUP1 SLOAD PUSH2 0x377 SWAP1 PUSH2 0xD72 JUMP JUMPDEST DUP1 PUSH1 0x1F ADD PUSH1 0x20 DUP1 SWAP2 DIV MUL PUSH1 0x20 ADD PUSH1 0x40 MLOAD SWAP1 DUP2 ADD PUSH1 0x40 MSTORE DUP1 SWAP3 SWAP2 SWAP1 DUP2 DUP2 MSTORE PUSH1 0x20 ADD DUP3 DUP1 SLOAD PUSH2 0x3A3 SWAP1 PUSH2 0xD72 JUMP JUMPDEST DUP1 ISZERO PUSH2 0x3EE JUMPI DUP1 PUSH1 0x1F LT PUSH2 0x3C5 JUMPI PUSH2 0x100 DUP1 DUP4 SLOAD DIV MUL DUP4 MSTORE SWAP2 PUSH1 0x20 ADD SWAP2 PUSH2 0x3EE JUMP JUMPDEST DUP3 ADD SWAP2 SWAP1 PUSH0 MSTORE PUSH1 0x20 PUSH0 KECCAK256 SWAP1 JUMPDEST DUP2 SLOAD DUP2 MSTORE SWAP1 PUSH1 0x1 ADD SWAP1 PUSH1 0x20 ADD DUP1 DUP4 GT PUSH2 0x3D1 JUMPI DUP3 SWAP1 SUB PUSH1 0x1F AND DUP3 ADD SWAP2 JUMPDEST POP POP POP POP POP SWAP1 POP SWAP1 JUMP JUMPDEST PUSH0 DUP1 PUSH2 0x402 PUSH2 0x49C JUMP JUMPDEST SWAP1 POP PUSH2 0x40F DUP2 DUP6 DUP6 PUSH2 0x547 JUMP JUMPDEST PUSH1 0x1 SWAP2 POP POP SWAP3 SWAP2 POP POP JUMP JUMPDEST PUSH0 PUSH1 0x1 PUSH0 DUP5 PUSH20 0xFFFFFFFFFFFFFFFFFFFFFFFFFFFFFFFFFFFFFFFF AND PUSH20 0xFFFFFFFFFFFFFFFFFFFFFFFFFFFFFFFFFFFFFFFF AND DUP2 MSTORE PUSH1 0x20 ADD SWAP1 DUP2 MSTORE PUSH1 0x20 ADD PUSH0 KECCAK256 PUSH0 DUP4 PUSH20 0xFFFFFFFFFFFFFFFFFFFFFFFFFFFFFFFFFFFFFFFF AND PUSH20 0xFFFFFFFFFFFFFFFFFFFFFFFFFFFFFFFFFFFFFFFF AND DUP2 MSTORE PUSH1 0x20 ADD SWAP1 DUP2 MSTORE PUSH1 0x20 ADD PUSH0 KECCAK256 SLOAD SWAP1 POP SWAP3 SWAP2 POP POP JUMP JUMPDEST PUSH0 CALLER SWAP1 POP SWAP1 JUMP JUMPDEST PUSH2 0x4B0 DUP4 DUP4 DUP4 PUSH1 0x1 PUSH2 0x6B6 JUMP JUMPDEST POP POP POP JUMP JUMPDEST PUSH0 PUSH2 0x4C0 DUP5 DUP5 PUSH2 0x41A JUMP JUMPDEST SWAP1 POP PUSH32 0xFFFFFFFFFFFFFFFFFFFFFFFFFFFFFFFFFFFFFFFFFFFFFFFFFFFFFFFFFFFFFFFF DUP2 EQ PUSH2 0x541 JUMPI DUP2 DUP2 LT ISZERO PUSH2 0x532 JUMPI DUP3 DUP2 DUP4 PUSH1 0x40 MLOAD PUSH32 0xFB8F41B200000000000000000000000000000000000000000000000000000000 DUP2 MSTORE PUSH1 0x4 ADD PUSH2 0x529 SWAP4 SWAP3 SWAP2 SWAP1 PUSH2 0xDB1 JUMP JUMPDEST PUSH1 0x40 MLOAD DUP1 SWAP2 SUB SWAP1 REVERT JUMPDEST PUSH2 0x540 DUP5 DUP5 DUP5 DUP5 SUB PUSH0 PUSH2 0x6B6 JUMP JUMPDEST JUMPDEST POP POP POP POP JUMP JUMPDEST PUSH0 PUSH20 0xFFFFFFFFFFFFFFFFFFFFFFFFFFFFFFFFFFFFFFFF AND DUP4 PUSH20 0xFFFFFFFFFFFFFFFFFFFFFFFFFFFFFFFFFFFFFFFF AND SUB PUSH2 0x5B7 JUMPI PUSH0 PUSH1 0x40 MLOAD PUSH32 0x96C6FD1E00000000000000000000000000000000000000000000000000000000 DUP2 MSTORE PUSH1 0x4 ADD PUSH2 0x5AE SWAP2 SWAP1 PUSH2 0xDE6 JUMP JUMPDEST PUSH1 0x40 MLOAD DUP1 SWAP2 SUB SWAP1 REVERT JUMPDEST PUSH0 PUSH20 0xFFFFFFFFFFFFFFFFFFFFFFFFFFFFFFFFFFFFFFFF AND DUP3 PUSH20 0xFFFFFFFFFFFFFFFFFFFFFFFFFFFFFFFFFFFFFFFF AND SUB PUSH2 0x627 JUMPI PUSH0 PUSH1 0x40 MLOAD PUSH32 0xEC442F0500000000000000000000000000000000000000000000000000000000 DUP2 MSTORE PUSH1 0x4 ADD PUSH2 0x61E SWAP2 SWAP1 PUSH2 0xDE6 JUMP JUMPDEST PUSH1 0x40 MLOAD DUP1 SWAP2 SUB SWAP1 REVERT JUMPDEST PUSH2 0x632 DUP4 DUP4 DUP4 PUSH2 0x885 JUMP JUMPDEST POP POP POP JUMP JUMPDEST PUSH0 PUSH20 0xFFFFFFFFFFFFFFFFFFFFFFFFFFFFFFFFFFFFFFFF AND DUP3 PUSH20 0xFFFFFFFFFFFFFFFFFFFFFFFFFFFFFFFFFFFFFFFF AND SUB PUSH2 0x6A7 JUMPI PUSH0 PUSH1 0x40 MLOAD PUSH32 0xEC442F0500000000000000000000000000000000000000000000000000000000 DUP2 MSTORE PUSH1 0x4 ADD PUSH2 0x69E SWAP2 SWAP1 PUSH2 0xDE6 JUMP JUMPDEST PUSH1 0x40 MLOAD DUP1 SWAP2 SUB SWAP1 REVERT JUMPDEST PUSH2 0x6B2 PUSH0 DUP4 DUP4 PUSH2 0x885 JUMP JUMPDEST POP POP JUMP JUMPDEST PUSH0 PUSH20 0xFFFFFFFFFFFFFFFFFFFFFFFFFFFFFFFFFFFFFFFF AND DUP5 PUSH20 0xFFFFFFFFFFFFFFFFFFFFFFFFFFFFFFFFFFFFFFFF AND SUB PUSH2 0x726 JUMPI PUSH0 PUSH1 0x40 MLOAD PUSH32 0xE602DF0500000000000000000000000000000000000000000000000000000000 DUP2 MSTORE PUSH1 0x4 ADD PUSH2 0x71D SWAP2 SWAP1 PUSH2 0xDE6 JUMP JUMPDEST PUSH1 0x40 MLOAD DUP1 SWAP2 SUB SWAP1 REVERT JUMPDEST PUSH0 PUSH20 0xFFFFFFFFFFFFFFFFFFFFFFFFFFFFFFFFFFFFFFFF AND DUP4 PUSH20 0xFFFFFFFFFFFFFFFFFFFFFFFFFFFFFFFFFFFFFFFF AND SUB PUSH2 0x796 JUMPI PUSH0 PUSH1 0x40 MLOAD PUSH32 0x94280D6200000000000000000000000000000000000000000000000000000000 DUP2 MSTORE PUSH1 0x4 ADD PUSH2 0x78D SWAP2 SWAP1 PUSH2 0xDE6 JUMP JUMPDEST PUSH1 0x40 MLOAD DUP1 SWAP2 SUB SWAP1 REVERT JUMPDEST DUP2 PUSH1 0x1 PUSH0 DUP7 PUSH20 0xFFFFFFFFFFFFFFFFFFFFFFFFFFFFFFFFFFFFFFFF AND PUSH20 0xFFFFFFFFFFFFFFFFFFFFFFFFFFFFFFFFFFFFFFFF AND DUP2 MSTORE PUSH1 0x20 ADD SWAP1 DUP2 MSTORE PUSH1 0x20 ADD PUSH0 KECCAK256 PUSH0 DUP6 PUSH20 0xFFFFFFFFFFFFFFFFFFFFFFFFFFFFFFFFFFFFFFFF AND PUSH20 0xFFFFFFFFFFFFFFFFFFFFFFFFFFFFFFFFFFFFFFFF AND DUP2 MSTORE PUSH1 0x20 ADD SWAP1 DUP2 MSTORE PUSH1 0x20 ADD PUSH0 KECCAK256 DUP2 SWAP1 SSTORE POP DUP1 ISZERO PUSH2 0x87F JUMPI DUP3 PUSH20 0xFFFFFFFFFFFFFFFFFFFFFFFFFFFFFFFFFFFFFFFF AND DUP5 PUSH20 0xFFFFFFFFFFFFFFFFFFFFFFFFFFFFFFFFFFFFFFFF AND PUSH32 0x8C5BE1E5EBEC7D5BD14F71427D1E84F3DD0314C0F7B2291E5B200AC8C7C3B925 DUP5 PUSH1 0x40 MLOAD PUSH2 0x876 SWAP2 SWAP1 PUSH2 0xC3F JUMP JUMPDEST PUSH1 0x40 MLOAD DUP1 SWAP2 SUB SWAP1 LOG3 JUMPDEST POP POP POP POP JUMP JUMPDEST PUSH0 PUSH20 0xFFFFFFFFFFFFFFFFFFFFFFFFFFFFFFFFFFFFFFFF AND DUP4 PUSH20 0xFFFFFFFFFFFFFFFFFFFFFFFFFFFFFFFFFFFFFFFF AND SUB PUSH2 0x8D5 JUMPI DUP1 PUSH1 0x2 PUSH0 DUP3 DUP3 SLOAD PUSH2 0x8C9 SWAP2 SWAP1 PUSH2 0xE2C JUMP JUMPDEST SWAP3 POP POP DUP2 SWAP1 SSTORE POP PUSH2 0x9A3 JUMP JUMPDEST PUSH0 DUP1 PUSH0 DUP6 PUSH20 0xFFFFFFFFFFFFFFFFFFFFFFFFFFFFFFFFFFFFFFFF AND PUSH20 0xFFFFFFFFFFFFFFFFFFFFFFFFFFFFFFFFFFFFFFFF AND DUP2 MSTORE PUSH1 0x20 ADD SWAP1 DUP2 MSTORE PUSH1 0x20 ADD PUSH0 KECCAK256 SLOAD SWAP1 POP DUP2 DUP2 LT ISZERO PUSH2 0x95E JUMPI DUP4 DUP2 DUP4 PUSH1 0x40 MLOAD PUSH32 0xE450D38C00000000000000000000000000000000000000000000000000000000 DUP2 MSTORE PUSH1 0x4 ADD PUSH2 0x955 SWAP4 SWAP3 SWAP2 SWAP1 PUSH2 0xDB1 JUMP JUMPDEST PUSH1 0x40 MLOAD DUP1 SWAP2 SUB SWAP1 REVERT JUMPDEST DUP2 DUP2 SUB PUSH0 DUP1 DUP7 PUSH20 0xFFFFFFFFFFFFFFFFFFFFFFFFFFFFFFFFFFFFFFFF AND PUSH20 0xFFFFFFFFFFFFFFFFFFFFFFFFFFFFFFFFFFFFFFFF AND DUP2 MSTORE PUSH1 0x20 ADD SWAP1 DUP2 MSTORE PUSH1 0x20 ADD PUSH0 KECCAK256 DUP2 SWAP1 SSTORE POP POP JUMPDEST PUSH0 PUSH20 0xFFFFFFFFFFFFFFFFFFFFFFFFFFFFFFFFFFFFFFFF AND DUP3 PUSH20 0xFFFFFFFFFFFFFFFFFFFFFFFFFFFFFFFFFFFFFFFF AND SUB PUSH2 0x9EA JUMPI DUP1 PUSH1 0x2 PUSH0 DUP3 DUP3 SLOAD SUB SWAP3 POP POP DUP2 SWAP1 SSTORE POP PUSH2 0xA34 JUMP JUMPDEST DUP1 PUSH0 DUP1 DUP5 PUSH20 0xFFFFFFFFFFFFFFFFFFFFFFFFFFFFFFFFFFFFFFFF AND PUSH20 0xFFFFFFFFFFFFFFFFFFFFFFFFFFFFFFFFFFFFFFFF AND DUP2 MSTORE PUSH1 0x20 ADD SWAP1 DUP2 MSTORE PUSH1 0x20 ADD PUSH0 KECCAK256 PUSH0 DUP3 DUP3 SLOAD ADD SWAP3 POP POP DUP2 SWAP1 SSTORE POP JUMPDEST DUP2 PUSH20 0xFFFFFFFFFFFFFFFFFFFFFFFFFFFFFFFFFFFFFFFF AND DUP4 PUSH20 0xFFFFFFFFFFFFFFFFFFFFFFFFFFFFFFFFFFFFFFFF AND PUSH32 0xDDF252AD1BE2C89B69C2B068FC378DAA952BA7F163C4A11628F55A4DF523B3EF DUP4 PUSH1 0x40 MLOAD PUSH2 0xA91 SWAP2 SWAP1 PUSH2 0xC3F JUMP JUMPDEST PUSH1 0x40 MLOAD DUP1 SWAP2 SUB SWAP1 LOG3 POP POP POP JUMP JUMPDEST PUSH0 DUP2 MLOAD SWAP1 POP SWAP2 SWAP1 POP JUMP JUMPDEST PUSH0 DUP3 DUP3 MSTORE PUSH1 0x20 DUP3 ADD SWAP1 POP SWAP3 SWAP2 POP POP JUMP JUMPDEST DUP3 DUP2 DUP4 MCOPY PUSH0 DUP4 DUP4 ADD MSTORE POP POP POP JUMP JUMPDEST PUSH0 PUSH1 0x1F NOT PUSH1 0x1F DUP4 ADD AND SWAP1 POP SWAP2 SWAP1 POP JUMP JUMPDEST PUSH0 PUSH2 0xAE0 DUP3 PUSH2 0xA9E JUMP JUMPDEST PUSH2 0xAEA DUP2 DUP6 PUSH2 0xAA8 JUMP JUMPDEST SWAP4 POP PUSH2 0xAFA DUP2 DUP6 PUSH1 0x20 DUP7 ADD PUSH2 0xAB8 JUMP JUMPDEST PUSH2 0xB03 DUP2 PUSH2 0xAC6 JUMP JUMPDEST DUP5 ADD SWAP2 POP POP SWAP3 SWAP2 POP POP JUMP JUMPDEST PUSH0 PUSH1 0x20 DUP3 ADD SWAP1 POP DUP2 DUP2 SUB PUSH0 DUP4 ADD MSTORE PUSH2 0xB26 DUP2 DUP5 PUSH2 0xAD6 JUMP JUMPDEST SWAP1 POP SWAP3 SWAP2 POP POP JUMP JUMPDEST PUSH0 DUP1 REVERT JUMPDEST PUSH0 PUSH20 0xFFFFFFFFFFFFFFFFFFFFFFFFFFFFFFFFFFFFFFFF DUP3 AND SWAP1 POP SWAP2 SWAP1 POP JUMP JUMPDEST PUSH0 PUSH2 0xB5B DUP3 PUSH2 0xB32 JUMP JUMPDEST SWAP1 POP SWAP2 SWAP1 POP JUMP JUMPDEST PUSH2 0xB6B DUP2 PUSH2 0xB51 JUMP JUMPDEST DUP2 EQ PUSH2 0xB75 JUMPI PUSH0 DUP1 REVERT JUMPDEST POP JUMP JUMPDEST PUSH0 DUP2 CALLDATALOAD SWAP1 POP PUSH2 0xB86 DUP2 PUSH2 0xB62 JUMP JUMPDEST SWAP3 SWAP2 POP POP JUMP JUMPDEST PUSH0 DUP2 SWAP1 POP SWAP2 SWAP1 POP JUMP JUMPDEST PUSH2 0xB9E DUP2 PUSH2 0xB8C JUMP JUMPDEST DUP2 EQ PUSH2 0xBA8 JUMPI PUSH0 DUP1 REVERT JUMPDEST POP JUMP JUMPDEST PUSH0 DUP2 CALLDATALOAD SWAP1 POP PUSH2 0xBB9 DUP2 PUSH2 0xB95 JUMP JUMPDEST SWAP3 SWAP2 POP POP JUMP JUMPDEST PUSH0 DUP1 PUSH1 0x40 DUP4 DUP6 SUB SLT ISZERO PUSH2 0xBD5 JUMPI PUSH2 0xBD4 PUSH2 0xB2E JUMP JUMPDEST JUMPDEST PUSH0 PUSH2 0xBE2 DUP6 DUP3 DUP7 ADD PUSH2 0xB78 JUMP JUMPDEST SWAP3 POP POP PUSH1 0x20 PUSH2 0xBF3 DUP6 DUP3 DUP7 ADD PUSH2 0xBAB JUMP JUMPDEST SWAP2 POP POP SWAP3 POP SWAP3 SWAP1 POP JUMP JUMPDEST PUSH0 DUP2 ISZERO ISZERO SWAP1 POP SWAP2 SWAP1 POP JUMP JUMPDEST PUSH2 0xC11 DUP2 PUSH2 0xBFD JUMP JUMPDEST DUP3 MSTORE POP POP JUMP JUMPDEST PUSH0 PUSH1 0x20 DUP3 ADD SWAP1 POP PUSH2 0xC2A PUSH0 DUP4 ADD DUP5 PUSH2 0xC08 JUMP JUMPDEST SWAP3 SWAP2 POP POP JUMP JUMPDEST PUSH2 0xC39 DUP2 PUSH2 0xB8C JUMP JUMPDEST DUP3 MSTORE POP POP JUMP JUMPDEST PUSH0 PUSH1 0x20 DUP3 ADD SWAP1 POP PUSH2 0xC52 PUSH0 DUP4 ADD DUP5 PUSH2 0xC30 JUMP JUMPDEST SWAP3 SWAP2 POP POP JUMP JUMPDEST PUSH0 DUP1 PUSH0 PUSH1 0x60 DUP5 DUP7 SUB SLT ISZERO PUSH2 0xC6F JUMPI PUSH2 0xC6E PUSH2 0xB2E JUMP JUMPDEST JUMPDEST PUSH0 PUSH2 0xC7C DUP7 DUP3 DUP8 ADD PUSH2 0xB78 JUMP JUMPDEST SWAP4 POP POP PUSH1 0x20 PUSH2 0xC8D DUP7 DUP3 DUP8 ADD PUSH2 0xB78 JUMP JUMPDEST SWAP3 POP POP PUSH1 0x40 PUSH2 0xC9E DUP7 DUP3 DUP8 ADD PUSH2 0xBAB JUMP JUMPDEST SWAP2 POP POP SWAP3 POP SWAP3 POP SWAP3 JUMP JUMPDEST PUSH0 PUSH1 0xFF DUP3 AND SWAP1 POP SWAP2 SWAP1 POP JUMP JUMPDEST PUSH2 0xCBD DUP2 PUSH2 0xCA8 JUMP JUMPDEST DUP3 MSTORE POP POP JUMP JUMPDEST PUSH0 PUSH1 0x20 DUP3 ADD SWAP1 POP PUSH2 0xCD6 PUSH0 DUP4 ADD DUP5 PUSH2 0xCB4 JUMP JUMPDEST SWAP3 SWAP2 POP POP JUMP JUMPDEST PUSH0 PUSH1 0x20 DUP3 DUP5 SUB SLT ISZERO PUSH2 0xCF1 JUMPI PUSH2 0xCF0 PUSH2 0xB2E JUMP JUMPDEST JUMPDEST PUSH0 PUSH2 0xCFE DUP5 DUP3 DUP6 ADD PUSH2 0xB78 JUMP JUMPDEST SWAP2 POP POP SWAP3 SWAP2 POP POP JUMP JUMPDEST PUSH0 DUP1 PUSH1 0x40 DUP4 DUP6 SUB SLT ISZERO PUSH2 0xD1D JUMPI PUSH2 0xD1C PUSH2 0xB2E JUMP JUMPDEST JUMPDEST PUSH0 PUSH2 0xD2A DUP6 DUP3 DUP7 ADD PUSH2 0xB78 JUMP JUMPDEST SWAP3 POP POP PUSH1 0x20 PUSH2 0xD3B DUP6 DUP3 DUP7 ADD PUSH2 0xB78 JUMP JUMPDEST SWAP2 POP POP SWAP3 POP SWAP3 SWAP1 POP JUMP JUMPDEST PUSH32 0x4E487B7100000000000000000000000000000000000000000000000000000000 PUSH0 MSTORE PUSH1 0x22 PUSH1 0x4 MSTORE PUSH1 0x24 PUSH0 REVERT JUMPDEST PUSH0 PUSH1 0x2 DUP3 DIV SWAP1 POP PUSH1 0x1 DUP3 AND DUP1 PUSH2 0xD89 JUMPI PUSH1 0x7F DUP3 AND SWAP2 POP JUMPDEST PUSH1 0x20 DUP3 LT DUP2 SUB PUSH2 0xD9C JUMPI PUSH2 0xD9B PUSH2 0xD45 JUMP JUMPDEST JUMPDEST POP SWAP2 SWAP1 POP JUMP JUMPDEST PUSH2 0xDAB DUP2 PUSH2 0xB51 JUMP JUMPDEST DUP3 MSTORE POP POP JUMP JUMPDEST PUSH0 PUSH1 0x60 DUP3 ADD SWAP1 POP PUSH2 0xDC4 PUSH0 DUP4 ADD DUP7 PUSH2 0xDA2 JUMP JUMPDEST PUSH2 0xDD1 PUSH1 0x20 DUP4 ADD DUP6 PUSH2 0xC30 JUMP JUMPDEST PUSH2 0xDDE PUSH1 0x40 DUP4 ADD DUP5 PUSH2 0xC30 JUMP JUMPDEST SWAP5 SWAP4 POP POP POP POP JUMP JUMPDEST PUSH0 PUSH1 0x20 DUP3 ADD SWAP1 POP PUSH2 0xDF9 PUSH0 DUP4 ADD DUP5 PUSH2 0xDA2 JUMP JUMPDEST SWAP3 SWAP2 POP POP JUMP JUMPDEST PUSH32 0x4E487B7100000000000000000000000000000000000000000000000000000000 PUSH0 MSTORE PUSH1 0x11 PUSH1 0x4 MSTORE PUSH1 0x24 PUSH0 REVERT JUMPDEST PUSH0 PUSH2 0xE36 DUP3 PUSH2 0xB8C JUMP JUMPDEST SWAP2 POP PUSH2 0xE41 DUP4 PUSH2 0xB8C JUMP JUMPDEST SWAP3 POP DUP3 DUP3 ADD SWAP1 POP DUP1 DUP3 GT ISZERO PUSH2 0xE59 JUMPI PUSH2 0xE58 PUSH2 0xDFF JUMP JUMPDEST JUMPDEST SWAP3 SWAP2 POP POP JUMP INVALID LOG2 PUSH5 0x6970667358 0x22 SLT KECCAK256 MSIZE RETURN TSTORE MULMOD 0xAB JUMPI DIV 0xBF 0xB6 MOD CALLER BLOBHASH MSTORE8 0xDF JUMP CALLER 0xE4 PUSH25 0xC80CB80E1282108209789F4C250F64736F6C634300081A0033 LOG2 PUSH5 0x6970667358 0x22 SLT KECCAK256 LOG2 SWAP14 0x26 SWAP13 DUP7 SDIV SWAP9 BALANCE 0x2C 0xEA 0xC4 DUP3 0xD0 GASLIMIT 0x22 0xBF SIGNEXTEND 0x24 0xB1 DUP11 SWAP12 PUSH30 0xD356D396801245173B9664736F6C634300081A0033000000000000000000 "
				},
				"gasEstimates": {
					"creation": {
						"codeDepositCost": "2305200",
						"executionCost": "2469",
						"totalCost": "2307669"
					},
					"external": {
						"contribute(uint256)": "infinite",
						"contributions(address)": "2846",
						"createProject(string,string,uint256)": "infinite",
						"getProjects()": "infinite",
						"projects(uint256)": "infinite",
						"withdrawFunds(uint256)": "infinite"
					}
				},
				"methodIdentifiers": {
					"contribute(uint256)": "c1cbbca7",
					"contributions(address)": "42e94c90",
					"createProject(string,string,uint256)": "23c55448",
					"getProjects()": "dcc60128",
					"projects(uint256)": "107046bd",
					"withdrawFunds(uint256)": "155dd5ee"
				}
			},
			"storageLayout": {
				"storage": [
					{
						"astId": 956,
						"contract": "cont.sol:ProjectFunding",
						"label": "projects",
						"offset": 0,
						"slot": "0",
						"type": "t_array(t_struct(Project)952_storage)dyn_storage"
					},
					{
						"astId": 960,
						"contract": "cont.sol:ProjectFunding",
						"label": "contributions",
						"offset": 0,
						"slot": "1",
						"type": "t_mapping(t_address,t_uint256)"
					}
				],
				"types": {
					"t_address": {
						"encoding": "inplace",
						"label": "address",
						"numberOfBytes": "20"
					},
					"t_array(t_struct(Project)952_storage)dyn_storage": {
						"base": "t_struct(Project)952_storage",
						"encoding": "dynamic_array",
						"label": "struct ProjectFunding.Project[]",
						"numberOfBytes": "32"
					},
					"t_bool": {
						"encoding": "inplace",
						"label": "bool",
						"numberOfBytes": "1"
					},
					"t_mapping(t_address,t_uint256)": {
						"encoding": "mapping",
						"key": "t_address",
						"label": "mapping(address => uint256)",
						"numberOfBytes": "32",
						"value": "t_uint256"
					},
					"t_string_storage": {
						"encoding": "bytes",
						"label": "string",
						"numberOfBytes": "32"
					},
					"t_struct(Project)952_storage": {
						"encoding": "inplace",
						"label": "struct ProjectFunding.Project",
						"members": [
							{
								"astId": 939,
								"contract": "cont.sol:ProjectFunding",
								"label": "name",
								"offset": 0,
								"slot": "0",
								"type": "t_string_storage"
							},
							{
								"astId": 941,
								"contract": "cont.sol:ProjectFunding",
								"label": "description",
								"offset": 0,
								"slot": "1",
								"type": "t_string_storage"
							},
							{
								"astId": 943,
								"contract": "cont.sol:ProjectFunding",
								"label": "creator",
								"offset": 0,
								"slot": "2",
								"type": "t_address"
							},
							{
								"astId": 945,
								"contract": "cont.sol:ProjectFunding",
								"label": "tokenAddress",
								"offset": 0,
								"slot": "3",
								"type": "t_address"
							},
							{
								"astId": 947,
								"contract": "cont.sol:ProjectFunding",
								"label": "targetAmount",
								"offset": 0,
								"slot": "4",
								"type": "t_uint256"
							},
							{
								"astId": 949,
								"contract": "cont.sol:ProjectFunding",
								"label": "totalFunds",
								"offset": 0,
								"slot": "5",
								"type": "t_uint256"
							},
							{
								"astId": 951,
								"contract": "cont.sol:ProjectFunding",
								"label": "isActive",
								"offset": 0,
								"slot": "6",
								"type": "t_bool"
							}
						],
						"numberOfBytes": "224"
					},
					"t_uint256": {
						"encoding": "inplace",
						"label": "uint256",
						"numberOfBytes": "32"
					}
				}
			},
			"userdoc": {
				"kind": "user",
				"methods": {},
				"version": 1
			}
		}
	}
}